{
  "address": "0x165D91e666BBa8968066c078D790189018230ce1",
  "abi": [
    {
      "inputs": [
        {
          "internalType": "address",
          "name": "_router",
          "type": "address"
        }
      ],
      "stateMutability": "nonpayable",
      "type": "constructor"
    },
    {
      "inputs": [
        {
          "internalType": "address",
          "name": "router",
          "type": "address"
        }
      ],
      "name": "InvalidRouter",
      "type": "error"
    },
    {
      "anonymous": false,
      "inputs": [
        {
          "indexed": true,
          "internalType": "address",
          "name": "_address",
          "type": "address"
        },
        {
          "indexed": true,
          "internalType": "uint64",
          "name": "_type",
          "type": "uint64"
        },
        {
          "indexed": true,
          "internalType": "bool",
          "name": "_status",
          "type": "bool"
        }
      ],
      "name": "AllowedAddress",
      "type": "event"
    },
    {
      "anonymous": false,
      "inputs": [
        {
          "indexed": true,
          "internalType": "address",
          "name": "sender",
          "type": "address"
        },
        {
          "indexed": true,
          "internalType": "address",
          "name": "newAddress",
          "type": "address"
        }
      ],
      "name": "IdFactoryUpdated",
      "type": "event"
    },
    {
      "anonymous": false,
      "inputs": [
        {
          "indexed": false,
          "internalType": "bytes32",
          "name": "messageId",
          "type": "bytes32"
        },
        {
          "indexed": true,
          "internalType": "uint64",
          "name": "sourceChainSelector",
          "type": "uint64"
        },
        {
          "indexed": true,
          "internalType": "address",
          "name": "sender",
          "type": "address"
        },
        {
          "indexed": true,
          "internalType": "string",
          "name": "action",
          "type": "string"
        }
      ],
      "name": "MessageReceived",
      "type": "event"
    },
    {
      "anonymous": false,
      "inputs": [
        {
          "indexed": true,
          "internalType": "bytes32",
          "name": "messageId",
          "type": "bytes32"
        }
      ],
      "name": "MessageSent",
      "type": "event"
    },
    {
      "inputs": [
        {
          "internalType": "uint64",
          "name": "destinationChainSelector",
          "type": "uint64"
        },
        {
          "internalType": "address",
          "name": "receiver",
          "type": "address"
        },
        {
          "internalType": "bytes",
          "name": "payload",
          "type": "bytes"
        }
      ],
      "name": "calculateFeeAndMessage",
      "outputs": [
        {
          "internalType": "uint256",
          "name": "fee",
          "type": "uint256"
        },
        {
          "components": [
            {
              "internalType": "bytes",
              "name": "receiver",
              "type": "bytes"
            },
            {
              "internalType": "bytes",
              "name": "data",
              "type": "bytes"
            },
            {
              "components": [
                {
                  "internalType": "address",
                  "name": "token",
                  "type": "address"
                },
                {
                  "internalType": "uint256",
                  "name": "amount",
                  "type": "uint256"
                }
              ],
              "internalType": "struct Client.EVMTokenAmount[]",
              "name": "tokenAmounts",
              "type": "tuple[]"
            },
            {
              "internalType": "address",
              "name": "feeToken",
              "type": "address"
            },
            {
              "internalType": "bytes",
              "name": "extraArgs",
              "type": "bytes"
            }
          ],
          "internalType": "struct Client.EVM2AnyMessage",
          "name": "message",
          "type": "tuple"
        }
      ],
      "stateMutability": "view",
      "type": "function"
    },
    {
      "inputs": [],
      "name": "ccipMessage",
      "outputs": [
        {
          "internalType": "string",
          "name": "",
          "type": "string"
        }
      ],
      "stateMutability": "view",
      "type": "function"
    },
    {
      "inputs": [
        {
          "components": [
            {
              "internalType": "bytes32",
              "name": "messageId",
              "type": "bytes32"
            },
            {
              "internalType": "uint64",
              "name": "sourceChainSelector",
              "type": "uint64"
            },
            {
              "internalType": "bytes",
              "name": "sender",
              "type": "bytes"
            },
            {
              "internalType": "bytes",
              "name": "data",
              "type": "bytes"
            },
            {
              "components": [
                {
                  "internalType": "address",
                  "name": "token",
                  "type": "address"
                },
                {
                  "internalType": "uint256",
                  "name": "amount",
                  "type": "uint256"
                }
              ],
              "internalType": "struct Client.EVMTokenAmount[]",
              "name": "destTokenAmounts",
              "type": "tuple[]"
            }
          ],
          "internalType": "struct Client.Any2EVMMessage",
          "name": "message",
          "type": "tuple"
        }
      ],
      "name": "ccipReceive",
      "outputs": [],
      "stateMutability": "nonpayable",
      "type": "function"
    },
    {
      "inputs": [],
      "name": "getRouter",
      "outputs": [
        {
          "internalType": "address",
          "name": "",
          "type": "address"
        }
      ],
      "stateMutability": "view",
      "type": "function"
    },
    {
      "inputs": [],
      "name": "idFactoryAddress",
      "outputs": [
        {
          "internalType": "address",
          "name": "",
          "type": "address"
        }
      ],
      "stateMutability": "view",
      "type": "function"
    },
    {
      "inputs": [
        {
          "internalType": "address",
          "name": "",
          "type": "address"
        }
      ],
      "name": "isAllowedContract",
      "outputs": [
        {
          "internalType": "bool",
          "name": "",
          "type": "bool"
        }
      ],
      "stateMutability": "view",
      "type": "function"
    },
    {
      "inputs": [
        {
          "internalType": "address",
          "name": "",
          "type": "address"
        }
      ],
      "name": "isManager",
      "outputs": [
        {
          "internalType": "bool",
          "name": "",
          "type": "bool"
        }
      ],
      "stateMutability": "view",
      "type": "function"
    },
    {
      "inputs": [
        {
          "internalType": "bytes32",
          "name": "",
          "type": "bytes32"
        }
      ],
      "name": "messageIds",
      "outputs": [
        {
          "internalType": "bool",
          "name": "",
          "type": "bool"
        }
      ],
      "stateMutability": "view",
      "type": "function"
    },
    {
      "inputs": [
        {
          "internalType": "uint64",
          "name": "destinationChainSelector",
          "type": "uint64"
        },
        {
          "internalType": "address",
          "name": "receiver",
          "type": "address"
        },
        {
          "internalType": "address",
          "name": "identity",
          "type": "address"
        },
        {
          "internalType": "uint256",
          "name": "topic",
          "type": "uint256"
        },
        {
          "internalType": "uint256",
          "name": "scheme",
          "type": "uint256"
        },
        {
          "internalType": "address",
          "name": "issuer",
          "type": "address"
        },
        {
          "internalType": "bytes",
          "name": "signature",
          "type": "bytes"
        },
        {
          "internalType": "bytes",
          "name": "data",
          "type": "bytes"
        },
        {
          "internalType": "string",
          "name": "uri",
          "type": "string"
        }
      ],
      "name": "sendAddClaim",
      "outputs": [],
      "stateMutability": "nonpayable",
      "type": "function"
    },
    {
      "inputs": [
        {
          "internalType": "uint64",
          "name": "destinationChainSelector",
          "type": "uint64"
        },
        {
          "internalType": "address",
          "name": "receiver",
          "type": "address"
        },
        {
          "internalType": "bytes32",
          "name": "key",
          "type": "bytes32"
        },
        {
          "internalType": "uint256",
          "name": "purpose",
          "type": "uint256"
        },
        {
          "internalType": "uint256",
          "name": "keyType",
          "type": "uint256"
        }
      ],
      "name": "sendAddKey",
      "outputs": [],
      "stateMutability": "nonpayable",
      "type": "function"
    },
    {
      "inputs": [
        {
          "internalType": "uint64",
          "name": "destinationChainSelector",
          "type": "uint64"
        },
        {
          "internalType": "address",
          "name": "receiver",
          "type": "address"
        },
        {
          "internalType": "address",
          "name": "gateway",
          "type": "address"
        },
        {
          "internalType": "address",
          "name": "identityOwner",
          "type": "address"
        },
        {
          "internalType": "string",
          "name": "salt",
          "type": "string"
        },
        {
          "internalType": "bytes32[]",
          "name": "managementKeys",
          "type": "bytes32[]"
        }
      ],
      "name": "sendCreateIdentity",
      "outputs": [],
      "stateMutability": "nonpayable",
      "type": "function"
    },
    {
      "inputs": [
        {
          "internalType": "uint64",
          "name": "destinationChainSelector",
          "type": "uint64"
        },
        {
          "internalType": "address",
          "name": "receiver",
          "type": "address"
        },
        {
          "internalType": "address",
          "name": "identity",
          "type": "address"
        },
        {
          "internalType": "bytes32",
          "name": "claimId",
          "type": "bytes32"
        }
      ],
      "name": "sendRemoveClaim",
      "outputs": [],
      "stateMutability": "nonpayable",
      "type": "function"
    },
    {
      "inputs": [
        {
          "internalType": "uint64",
          "name": "destinationChainSelector",
          "type": "uint64"
        },
        {
          "internalType": "address",
          "name": "receiver",
          "type": "address"
        },
        {
          "internalType": "address",
          "name": "identity",
          "type": "address"
        },
        {
          "internalType": "bytes32",
          "name": "key",
          "type": "bytes32"
        },
        {
          "internalType": "uint256",
          "name": "purpose",
          "type": "uint256"
        }
      ],
      "name": "sendRemoveKey",
      "outputs": [],
      "stateMutability": "nonpayable",
      "type": "function"
    },
    {
      "inputs": [
        {
          "internalType": "address",
          "name": "_contract",
          "type": "address"
        },
        {
          "internalType": "bool",
          "name": "_status",
          "type": "bool"
        }
      ],
      "name": "setAllowedContract",
      "outputs": [],
      "stateMutability": "nonpayable",
      "type": "function"
    },
    {
      "inputs": [
        {
          "internalType": "address",
          "name": "_idFactoryAddress",
          "type": "address"
        }
      ],
      "name": "setFactoryAddress",
      "outputs": [],
      "stateMutability": "nonpayable",
      "type": "function"
    },
    {
      "inputs": [
        {
          "internalType": "address",
          "name": "_manager",
          "type": "address"
        },
        {
          "internalType": "bool",
          "name": "_status",
          "type": "bool"
        }
      ],
      "name": "setManager",
      "outputs": [],
      "stateMutability": "nonpayable",
      "type": "function"
    },
    {
      "inputs": [
        {
          "internalType": "bytes4",
          "name": "interfaceId",
          "type": "bytes4"
        }
      ],
      "name": "supportsInterface",
      "outputs": [
        {
          "internalType": "bool",
          "name": "",
          "type": "bool"
        }
      ],
      "stateMutability": "pure",
      "type": "function"
    },
    {
      "inputs": [
        {
          "internalType": "uint64",
          "name": "_destinationChainSelector",
          "type": "uint64"
        },
        {
          "internalType": "address",
          "name": "_receiver",
          "type": "address"
        },
        {
          "internalType": "string",
          "name": "_message",
          "type": "string"
        }
      ],
      "name": "testSendMessage",
      "outputs": [],
      "stateMutability": "nonpayable",
      "type": "function"
    },
    {
      "inputs": [
        {
          "internalType": "address",
          "name": "_to",
          "type": "address"
        },
        {
          "internalType": "uint256",
          "name": "_amount",
          "type": "uint256"
        }
      ],
      "name": "withdraw",
      "outputs": [],
      "stateMutability": "nonpayable",
      "type": "function"
    },
    {
      "stateMutability": "payable",
      "type": "receive"
    }
  ],
  "transactionHash": "0x2531629c57ca4eb44992b6b5647d8f981ae81f0a06268160c74a4c0485d78ad1",
  "args": [
    "0x114A20A10b43D4115e5aeef7345a1A71d2a60C57"
  ],
  "numDeployments": 1,
  "solcInputHash": "f40cd65ea153a6f9f0fcb574d5694131",
  "bytecode": "0x60c0346100f957601f61216538819003918201601f19168301916001600160401b038311848410176100fe578084926020946040528339810103126100f957516001600160a01b0381168082036100f957156100e05780608052600160005560a0523360005260056020526040600020600160ff19825416179055604051600180337f77b360cfa209016bdd91c2800cd667bb8ad1b916258568b44a73da1cfe9a44cc600080a4612050908161011582396080518181816109c50152610d3f015260a0518181816102ed015281816104c1015281816116d90152611f670152f35b6040516335fdcccd60e21b815260006004820152602490fd5b600080fd5b634e487b7160e01b600052604160045260246000fdfe608080604052600436101561001d575b50361561001b57600080fd5b005b60003560e01c90816301ffc9a71461197f57508063023e9417146118745780631a98f3ae1461184d57806355de1faf1461174e5780636980a6241461163d5780636e5d3d1b1461160c57806383c17c551461157957806385572ffb14610d045780639dd323a014610b5b5780639f9b264114610a71578063a5e90eee146109e9578063b0f479a1146109a5578063ec64e18114610938578063f3ae2415146108f9578063f3fef3a314610769578063f43b85551461072a578063f75b0ec31461057b578063f82f1a43146103a65763fc6a55a2146100fb573861000f565b346103755761012060031936011261037557610115611b31565b61011d611ac0565b610125611aec565b9160a4356001600160a01b03811681036103755767ffffffffffffffff9360c4358581116103755761015b903690600401611b64565b9360e43586811161037557610174903690600401611b64565b9561010435908111610375576102e1966001600160a01b036102476102919561023b60209a6102ab99856101af61029d993690600401611b64565b913360005260048f52600160ff60406000205416151514801561038e575b6101d690611ce0565b604051978896336020890152166040870152606435606087015260843560808701521660a085015261022c610219610100938460c0880152610120870190611a9b565b601f1998898783030160e0880152611a9b565b91878584030190850152611a9b565b03838101835282611a55565b60405194859160408a840152600860608401527f416464436c61696d00000000000000000000000000000000000000000000000060808401526080604084015260a0830190611a9b565b03908101845283611a55565b6102a5611d89565b83611e34565b916040518095819482937f96f4e9f900000000000000000000000000000000000000000000000000000000845260048401611d68565b03916001600160a01b037f0000000000000000000000000000000000000000000000000000000000000000165af19081156103825760009161034b575b507f54791b38f3859327992a1ca0590ad3c0f08feba98d1a4f56ab0dca74d203392a600080a26001600055005b90506020813d60201161037a575b8161036660209383611a55565b8101031261037557513861031e565b600080fd5b3d9150610359565b6040513d6000823e3d90fd5b5060058f5260406000205460ff1615156001146101cd565b346103755760a0600319360112610375576103bf611b31565b6103c7611ac0565b6103cf611aec565b903360005260209260048452600160ff604060002054161515148015610563575b6103f990611ce0565b60405192608085850152600960a08501527f52656d6f76654b6579000000000000000000000000000000000000000000000060c08501526001600160a01b0380911660408501526064356060850152608435608085015260c0845260e0840184811067ffffffffffffffff82111761054d576104bd94869461048692604052610480611d89565b84611e34565b92906040518096819582947f96f4e9f900000000000000000000000000000000000000000000000000000000845260048401611d68565b03927f0000000000000000000000000000000000000000000000000000000000000000165af19182156103825760009261051f575b827f54791b38f3859327992a1ca0590ad3c0f08feba98d1a4f56ab0dca74d203392a600080a26001600055005b90809250813d8311610546575b6105368183611a55565b81010312610375575181806104f2565b503d61052c565b634e487b7160e01b600052604160045260246000fd5b506005845260406000205460ff1615156001146103f0565b346103755760c060031936011261037557610594611b31565b61059c611ac0565b6105a4611aec565b606435926001600160a01b038085168095036103755767ffffffffffffffff93608435858111610375576105dc903690600401611b64565b9060a435908682116103755736602383011215610375578160040135968711610375578660051b9236602485850101116103755761065d903360005260209960048b52600160ff604060002054161515148015610712575b61063d90611ce0565b8660405199168b8a015260408901526080606089015260a0880190611a9b565b917f07ffffffffffffffffffffffffffffffffffffffffffffffffffffffffffffff601f1998898986030160808a015280855211610375576104bd97876106c08b809a88610291986104869a602461070a99018583013701038084520182611a55565b60405194859160408b840152600e60608401527f4372656174654964656e7469747900000000000000000000000000000000000060808401526080604084015260a0830190611a9b565b610480611d89565b5060058b5260406000205460ff161515600114610634565b34610375576020600319360112610375576001600160a01b0361074b611ad6565b166000526004602052602060ff604060002054166040519015158152f35b3461037557604060031936011261037557610782611ad6565b602435903360005260056020526107a5600160ff60406000205416151514611c70565b6107ad611d89565b8147106108b5578147106108715760008080936001600160a01b038294165af13d1561086c573d6107dd81611b48565b906107eb6040519283611a55565b8152600060203d92013e5b15610802576001600055005b608460405162461bcd60e51b815260206004820152603a60248201527f416464726573733a20756e61626c6520746f2073656e642076616c75652c207260448201527f6563697069656e74206d617920686176652072657665727465640000000000006064820152fd5b6107f6565b606460405162461bcd60e51b815260206004820152601d60248201527f416464726573733a20696e73756666696369656e742062616c616e63650000006044820152fd5b606460405162461bcd60e51b815260206004820152601460248201527f496e73756666696369656e742062616c616e63650000000000000000000000006044820152fd5b34610375576020600319360112610375576001600160a01b0361091a611ad6565b166000526005602052602060ff604060002054166040519015158152f35b3461037557606060031936011261037557610951611b31565b610959611ac0565b906044359167ffffffffffffffff83116103755761097e610984933690600401611b64565b91611e34565b906109a16040519283928352604060208401526040830190611bab565b0390f35b346103755760006003193601126103755760206040516001600160a01b037f0000000000000000000000000000000000000000000000000000000000000000168152f35b34610375576001600160a01b036001610a0136611b02565b9290336000526005602052610a218360ff60406000205416151514611c70565b1691826000526005602052610a478160406000209060ff60ff1983541691151516179055565b1515917f77b360cfa209016bdd91c2800cd667bb8ad1b916258568b44a73da1cfe9a44cc600080a4005b3461037557608060031936011261037557610a8a611b31565b610a92611ac0565b610a9a611aec565b903360005260209260048452600160ff604060002054161515148015610b43575b610ac490611ce0565b60405192606085850152600b60808501527f52656d6f7665436c61696d00000000000000000000000000000000000000000060a08501526001600160a01b038091166040850152606435606085015260a0845260c0840184811067ffffffffffffffff82111761054d576104bd94869461048692604052610480611d89565b506005845260406000205460ff161515600114610abb565b346103755760a060031936011261037557610b74611b31565b610b7c611ac0565b906001600160a01b0380600254169260405180947f213c9c7a00000000000000000000000000000000000000000000000000000000825233600483015281602460209788935afa90811561038257600091610cd7575b5015610c6d57918391610486610c5f6104bd9561070a604051338882015260443560408201526064356060820152608435608082015260808152610c1581611a1d565b60405193849160408a840152600660608401527f4164644b6579000000000000000000000000000000000000000000000000000060808401526080604084015260a0830190611a9b565b03601f198101845283611a55565b6084846040519062461bcd60e51b82526004820152603960248201527f5065726d697373696f6e733a206964466163746f7279206d61726b732074686960448201527f732061646472657373206173206e6f74206964656e74697479000000000000006064820152fd5b610cf79150853d8711610cfd575b610cef8183611a55565b810190611d50565b85610bd2565b503d610ce5565b346103755760206003193601126103755760043567ffffffffffffffff81116103755760a06003198236030112610375576001600160a01b037f00000000000000000000000000000000000000000000000000000000000000001633036115495760405190610d7282611a1d565b80600401358252602481013567ffffffffffffffff81168103610375576020830152604481013567ffffffffffffffff811161037557610db89060043691840101611b64565b6040830152606481013567ffffffffffffffff811161037557610de19060043691840101611b64565b606083015260848101359067ffffffffffffffff8211610375573660238383010112156103755760048282010135610e1881611c58565b92610e266040519485611a55565b81845260208401923660248460061b8484010101116103755780820160240193915b60248460061b8284010101851061150157868660808201528051600052600360205260ff604060002054166114bd57805160005260036020526040600020600160ff1982541617905560608101518051810160408282031261037557602082015167ffffffffffffffff811161037557610eca90602080840191850101611dde565b9160408101519167ffffffffffffffff831161037557610ef1926020809201920101611dde565b7ff6a4d3b55102fe7eee17b10e6c835ffbd2c62a549b1cdcc1486a1936e06e4b24825160208401207f416464436c61696d0000000000000000000000000000000000000000000000006020604051610f4881611a39565b6008815201520361114357805181019060e08183031261037557610f6e60208201611e20565b6040820151906060830151610f8560808501611e20565b9260a085015167ffffffffffffffff811161037557610fac90602080890191880101611dde565b9560c086015167ffffffffffffffff811161037557610fd390602080840191890101611dde565b9160e087015167ffffffffffffffff8111610375576001600160a01b039861107360009561106161101260209c8d8f9997816110859901920101611dde565b936040519d8e9c8d9b8c997fb1a34e0d000000000000000000000000000000000000000000000000000000008b5260048b015260248a015216604488015260c0606488015260c4870190611a9b565b90600319868303016084870152611a9b565b906003198483030160a4850152611a9b565b0393165af1801561038257611118575b505b815191604067ffffffffffffffff6020830151169101516020818051810103126103755760206111096001600160a01b036110f4837fb1e312a29937cc11967b0e4a346fef1ae132424ebaba9dc6d90249dba053e87c9501611e20565b16948260405192828480945193849201611a78565b810103902094604051908152a4005b602090813d831161113c575b61112e8183611a55565b810103126103755782611095565b503d611124565b7fddc96574f7b250eea7b05b59265689d367e9c921f0329cb0486a01748c9430de825160208401207f4164644b65790000000000000000000000000000000000000000000000000000602060405161119a81611a39565b60068152015203611249576080818051810103126103755760206111bf818301611e20565b916064604082015160006001600160a01b03608060608601519501519660405197889687957f1d381240000000000000000000000000000000000000000000000000000000008752600487015260248601526044850152165af180156103825761122a575b50611097565b6112429060203d602011610cfd57610cef8183611a55565b5082611224565b7f71d8241b0d92eaa7a24ac6eb739d1c1de65b1a52647978943d3abfd1cac75ea5825160208401207f4372656174654964656e7469747900000000000000000000000000000000000060206040516112a081611a39565b600e81520152036114795780518101608082820312610375576112c560208301611e20565b906112d260408401611e20565b92606081015167ffffffffffffffff8111610375576112f990602080850191840101611dde565b60808201519167ffffffffffffffff83116103755760208401603f84830101121561037557602083820101519061132f82611c58565b9361133d6040519586611a55565b8285526020850191602083970160408560051b8484010101116103755790604081830101925b60408560051b838501010184106114695750505050509060206113ca6001600160a01b039694936040519788967f68e37b99000000000000000000000000000000000000000000000000000000008852166004870152606060248701526064860190611a9b565b91600319858403016044860152519182815201919060005b81811061145057505050918160006001600160a01b03826020960393165af18015610382576114115750611097565b6020813d602011611448575b8161142a60209383611a55565b8101031261037557516001600160a01b038116036103755782611224565b3d915061141d565b82518452869450602093840193909201916001016113e2565b8351815260209384019301611363565b606460405162461bcd60e51b815260206004820152600e60248201527f556e6b6e6f776e20616374696f6e0000000000000000000000000000000000006044820152fd5b606460405162461bcd60e51b815260206004820152601960248201527f4d65737361676520616c72656164792070726f636573736564000000000000006044820152fd5b6040853603126103755760405161151781611a39565b85356001600160a01b038116810361037557602494826020926040945282890135838201528152019501949250610e48565b60246040517fd7f73334000000000000000000000000000000000000000000000000000000008152336004820152fd5b34610375576020600319360112610375576001600160a01b0361159a611ad6565b3360005260056020526115b9600160ff60406000205416151514611c70565b16807fffffffffffffffffffffffff00000000000000000000000000000000000000006002541617600255337f91cebe556ca7ef6360c8d96ff1ac786a2df8d1d8a2e640008341b210467f8330600080a3005b34610375576020600319360112610375576004356000526003602052602060ff604060002054166040519015158152f35b3461037557606060031936011261037557611656611b31565b61165e611ac0565b6044359067ffffffffffffffff82116103755761029d926102ab610c5f61168c6116cd953690600401611b64565b9333600052602096879560048752600160ff604060002054161515148015611736575b6116b890611ce0565b60405193849188808401526040830190611a9b565b03916001600160a01b037f0000000000000000000000000000000000000000000000000000000000000000165af19182156103825760009261051f57827f54791b38f3859327992a1ca0590ad3c0f08feba98d1a4f56ab0dca74d203392a600080a26001600055005b506005875260406000205460ff1615156001146116af565b346103755761175c36611b02565b9033600052600560205261177c600160ff60406000205416151514611c70565b81151591600183146117dd575b6117b76001600160a01b0360009316918284526004602052604084209060ff60ff1983541691151516179055565b7f77b360cfa209016bdd91c2800cd667bb8ad1b916258568b44a73da1cfe9a44cc8280a4005b813b61178957608460405162461bcd60e51b815260206004820152602660248201527f5065726d697373696f6e733a2041646472657373206973206e6f74206120636f60448201527f6e747261637400000000000000000000000000000000000000000000000000006064820152fd5b346103755760006003193601126103755760206001600160a01b0360025416604051908152f35b3461037557600060031936011261037557604051600060019081549182811c91818416918215611975575b602094858510841461195f57858794868652918260001461193f5750506001146118e5575b506118d192500383611a55565b6109a1604051928284938452830190611a9b565b6000818152859250907fb10e2d527612073b26eecdfd717e6a320cf44b4afac2b0732d9fcbe2b7fa0cf65b8583106119275750506118d19350820101856118c4565b80548389018501528794508693909201918101611910565b60ff1916858201526118d195151560051b85010192508791506118c49050565b634e487b7160e01b600052602260045260246000fd5b92607f169261189f565b3461037557602060031936011261037557600435907fffffffff00000000000000000000000000000000000000000000000000000000821680920361037557817f85572ffb00000000000000000000000000000000000000000000000000000000602093149081156119f3575b5015158152f35b7f01ffc9a700000000000000000000000000000000000000000000000000000000915014836119ec565b60a0810190811067ffffffffffffffff82111761054d57604052565b6040810190811067ffffffffffffffff82111761054d57604052565b90601f601f19910116810190811067ffffffffffffffff82111761054d57604052565b60005b838110611a8b5750506000910152565b8181015183820152602001611a7b565b90601f19601f602093611ab981518092818752878088019101611a78565b0116010190565b602435906001600160a01b038216820361037557565b600435906001600160a01b038216820361037557565b604435906001600160a01b038216820361037557565b6003196040910112610375576004356001600160a01b0381168103610375579060243580151581036103755790565b6004359067ffffffffffffffff8216820361037557565b67ffffffffffffffff811161054d57601f01601f191660200190565b81601f8201121561037557803590611b7b82611b48565b92611b896040519485611a55565b8284526020838301011161037557816000926020809301838601378301015290565b9190611bc0835160a0835260a0830190611a9b565b90611bd76020928386015183820385850152611a9b565b6040908186015193838203838501528080865193848152019501926000905b838210611c2f5750505050506080846001600160a01b036060611c2c969701511660608401520151906080818403910152611a9b565b90565b845180516001600160a01b03168852830151878401529586019593820193600190910190611bf6565b67ffffffffffffffff811161054d5760051b60200190565b15611c7757565b608460405162461bcd60e51b8152602060048201526024808201527f5065726d697373696f6e733a2053656e646572206973206e6f742061204d616e60448201527f61676572000000000000000000000000000000000000000000000000000000006064820152fd5b15611ce757565b608460405162461bcd60e51b8152602060048201526024808201527f5065726d697373696f6e733a2053656e646572206973206e6f74206120616c6c60448201527f6f776564000000000000000000000000000000000000000000000000000000006064820152fd5b90816020910312610375575180151581036103755790565b60409067ffffffffffffffff611c2c94931681528160208201520190611bab565b600260005414611d9a576002600055565b606460405162461bcd60e51b815260206004820152601f60248201527f5265656e7472616e637947756172643a207265656e7472616e742063616c6c006044820152fd5b81601f82011215610375578051611df481611b48565b92611e026040519485611a55565b8184526020828401011161037557611c2c9160208085019101611a78565b51906001600160a01b038216820361037557565b90929192604091825191611e4783611a1d565b60609182845260209280848601528086860152806080600096878382015201528551976001600160a01b03809416858a0152848952611e8589611a39565b8651908582019967ffffffffffffffff9a8381108c8211176120065789528783528851938785018581108d821117611ff2578a52620f424085528951947f97a657c900000000000000000000000000000000000000000000000000000000898701525160248601526024855284019a848c10908c1117611fde5792869592611f63989795928c95868c52611f1887611a1d565b8652608083015260a08201528660c082015260e081015287518097819482937f20487ded00000000000000000000000000000000000000000000000000000000845260048401611d68565b03917f0000000000000000000000000000000000000000000000000000000000000000165afa938415611fd357508193611f9f575b5050509190565b9091809350813d8311611fcc575b611fb78183611a55565b81010312611fc9575051388080611f98565b80fd5b503d611fad565b51913d9150823e3d90fd5b602488634e487b7160e01b81526041600452fd5b60248a634e487b7160e01b81526041600452fd5b602489634e487b7160e01b81526041600452fdfea264697066735822122044d8c1561be723e5d64406a8754e8abc866ff0c148a9e0bc492f21d5067d502c64736f6c63430008110033",
  "devdoc": {
    "kind": "dev",
    "methods": {
      "ccipReceive((bytes32,uint64,bytes,bytes,(address,uint256)[]))": {
        "details": "Note ensure you check the msg.sender is the OffRampRouter",
        "params": {
          "message": "CCIP Message"
        }
      },
      "getRouter()": {
        "returns": {
          "_0": "CCIP router address"
        }
      },
      "supportsInterface(bytes4)": {
        "details": "Should indicate whether the contract implements IAny2EVMMessageReceiver e.g. return interfaceId == type(IAny2EVMMessageReceiver).interfaceId || interfaceId == type(IERC165).interfaceId This allows CCIP to check if ccipReceive is available before calling it. If this returns false or reverts, only tokens are transferred to the receiver. If this returns true, tokens are transferred and ccipReceive is called atomically. Additionally, if the receiver address does not have code associated with it at the time of execution (EXTCODESIZE returns 0), only tokens will be transferred.",
        "params": {
          "interfaceId": "The interfaceId to check"
        },
        "returns": {
          "_0": "true if the interfaceId is supported"
        }
      }
    },
    "version": 1
  },
  "userdoc": {
    "kind": "user",
    "methods": {
      "ccipMessage()": {
        "notice": "REMOVE for prod"
      },
      "ccipReceive((bytes32,uint64,bytes,bytes,(address,uint256)[]))": {
        "notice": "Called by the Router to deliver a message. If this reverts, any token transfers also revert. The message will move to a FAILED state and become available for manual execution."
      },
      "getRouter()": {
        "notice": "Return the current router"
      },
      "supportsInterface(bytes4)": {
        "notice": "IERC165 supports an interfaceId"
      },
      "testSendMessage(uint64,address,string)": {
        "notice": "REMOVE for prod"
      }
    },
    "version": 1
  },
  "storageLayout": {
    "storage": [
      {
        "astId": 375,
        "contract": "src/bridge/Bridge.sol:CrossChainBridge",
        "label": "_status",
        "offset": 0,
        "slot": "0",
        "type": "t_uint256"
      },
      {
        "astId": 12339,
        "contract": "src/bridge/Bridge.sol:CrossChainBridge",
        "label": "ccipMessage",
        "offset": 0,
        "slot": "1",
        "type": "t_string_storage"
      },
      {
        "astId": 12343,
        "contract": "src/bridge/Bridge.sol:CrossChainBridge",
        "label": "idFactoryAddress",
        "offset": 0,
        "slot": "2",
        "type": "t_address"
      },
      {
        "astId": 12347,
        "contract": "src/bridge/Bridge.sol:CrossChainBridge",
        "label": "messageIds",
        "offset": 0,
        "slot": "3",
        "type": "t_mapping(t_bytes32,t_bool)"
      },
      {
        "astId": 12351,
        "contract": "src/bridge/Bridge.sol:CrossChainBridge",
        "label": "isAllowedContract",
        "offset": 0,
        "slot": "4",
        "type": "t_mapping(t_address,t_bool)"
      },
      {
        "astId": 12355,
        "contract": "src/bridge/Bridge.sol:CrossChainBridge",
        "label": "isManager",
        "offset": 0,
        "slot": "5",
        "type": "t_mapping(t_address,t_bool)"
      }
    ],
    "types": {
      "t_address": {
        "encoding": "inplace",
        "label": "address",
        "numberOfBytes": "20"
      },
      "t_bool": {
        "encoding": "inplace",
        "label": "bool",
        "numberOfBytes": "1"
      },
      "t_bytes32": {
        "encoding": "inplace",
        "label": "bytes32",
        "numberOfBytes": "32"
      },
      "t_mapping(t_address,t_bool)": {
        "encoding": "mapping",
        "key": "t_address",
        "label": "mapping(address => bool)",
        "numberOfBytes": "32",
        "value": "t_bool"
      },
      "t_mapping(t_bytes32,t_bool)": {
        "encoding": "mapping",
        "key": "t_bytes32",
        "label": "mapping(bytes32 => bool)",
        "numberOfBytes": "32",
        "value": "t_bool"
      },
      "t_string_storage": {
        "encoding": "bytes",
        "label": "string",
        "numberOfBytes": "32"
      },
      "t_uint256": {
        "encoding": "inplace",
        "label": "uint256",
        "numberOfBytes": "32"
      }
    }
  }
}