{
  "address": "0x6bf574fE78dc43b6e8E88eF860fE176185EE81Cd",
  "abi": [
    {
      "inputs": [
        {
          "internalType": "address",
          "name": "_router",
          "type": "address"
        }
      ],
      "stateMutability": "nonpayable",
      "type": "constructor"
    },
    {
      "inputs": [
        {
          "internalType": "address",
          "name": "router",
          "type": "address"
        }
      ],
      "name": "InvalidRouter",
      "type": "error"
    },
    {
      "anonymous": false,
      "inputs": [
        {
          "indexed": true,
          "internalType": "address",
          "name": "_address",
          "type": "address"
        },
        {
          "indexed": true,
          "internalType": "uint64",
          "name": "_type",
          "type": "uint64"
        },
        {
          "indexed": true,
          "internalType": "bool",
          "name": "_status",
          "type": "bool"
        }
      ],
      "name": "AllowedAddress",
      "type": "event"
    },
    {
      "anonymous": false,
      "inputs": [
        {
          "indexed": true,
          "internalType": "address",
          "name": "sender",
          "type": "address"
        },
        {
          "indexed": true,
          "internalType": "address",
          "name": "newAddress",
          "type": "address"
        }
      ],
      "name": "IdFactoryUpdated",
      "type": "event"
    },
    {
      "anonymous": false,
      "inputs": [
        {
          "indexed": false,
          "internalType": "bytes32",
          "name": "messageId",
          "type": "bytes32"
        },
        {
          "indexed": true,
          "internalType": "uint64",
          "name": "sourceChainSelector",
          "type": "uint64"
        },
        {
          "indexed": true,
          "internalType": "address",
          "name": "sender",
          "type": "address"
        },
        {
          "indexed": true,
          "internalType": "string",
          "name": "action",
          "type": "string"
        }
      ],
      "name": "MessageReceived",
      "type": "event"
    },
    {
      "anonymous": false,
      "inputs": [
        {
          "indexed": true,
          "internalType": "bytes32",
          "name": "messageId",
          "type": "bytes32"
        }
      ],
      "name": "MessageSent",
      "type": "event"
    },
    {
      "inputs": [
        {
          "internalType": "uint64",
          "name": "destinationChainSelector",
          "type": "uint64"
        },
        {
          "internalType": "address",
          "name": "receiver",
          "type": "address"
        },
        {
          "internalType": "bytes",
          "name": "payload",
          "type": "bytes"
        }
      ],
      "name": "calculateFeeAndMessage",
      "outputs": [
        {
          "internalType": "uint256",
          "name": "fee",
          "type": "uint256"
        },
        {
          "components": [
            {
              "internalType": "bytes",
              "name": "receiver",
              "type": "bytes"
            },
            {
              "internalType": "bytes",
              "name": "data",
              "type": "bytes"
            },
            {
              "components": [
                {
                  "internalType": "address",
                  "name": "token",
                  "type": "address"
                },
                {
                  "internalType": "uint256",
                  "name": "amount",
                  "type": "uint256"
                }
              ],
              "internalType": "struct Client.EVMTokenAmount[]",
              "name": "tokenAmounts",
              "type": "tuple[]"
            },
            {
              "internalType": "address",
              "name": "feeToken",
              "type": "address"
            },
            {
              "internalType": "bytes",
              "name": "extraArgs",
              "type": "bytes"
            }
          ],
          "internalType": "struct Client.EVM2AnyMessage",
          "name": "message",
          "type": "tuple"
        }
      ],
      "stateMutability": "view",
      "type": "function"
    },
    {
      "inputs": [],
      "name": "ccipMessage",
      "outputs": [
        {
          "internalType": "string",
          "name": "",
          "type": "string"
        }
      ],
      "stateMutability": "view",
      "type": "function"
    },
    {
      "inputs": [
        {
          "components": [
            {
              "internalType": "bytes32",
              "name": "messageId",
              "type": "bytes32"
            },
            {
              "internalType": "uint64",
              "name": "sourceChainSelector",
              "type": "uint64"
            },
            {
              "internalType": "bytes",
              "name": "sender",
              "type": "bytes"
            },
            {
              "internalType": "bytes",
              "name": "data",
              "type": "bytes"
            },
            {
              "components": [
                {
                  "internalType": "address",
                  "name": "token",
                  "type": "address"
                },
                {
                  "internalType": "uint256",
                  "name": "amount",
                  "type": "uint256"
                }
              ],
              "internalType": "struct Client.EVMTokenAmount[]",
              "name": "destTokenAmounts",
              "type": "tuple[]"
            }
          ],
          "internalType": "struct Client.Any2EVMMessage",
          "name": "message",
          "type": "tuple"
        }
      ],
      "name": "ccipReceive",
      "outputs": [],
      "stateMutability": "nonpayable",
      "type": "function"
    },
    {
      "inputs": [],
      "name": "getRouter",
      "outputs": [
        {
          "internalType": "address",
          "name": "",
          "type": "address"
        }
      ],
      "stateMutability": "view",
      "type": "function"
    },
    {
      "inputs": [],
      "name": "idFactoryAddress",
      "outputs": [
        {
          "internalType": "address",
          "name": "",
          "type": "address"
        }
      ],
      "stateMutability": "view",
      "type": "function"
    },
    {
      "inputs": [
        {
          "internalType": "address",
          "name": "",
          "type": "address"
        }
      ],
      "name": "isAllowedContract",
      "outputs": [
        {
          "internalType": "bool",
          "name": "",
          "type": "bool"
        }
      ],
      "stateMutability": "view",
      "type": "function"
    },
    {
      "inputs": [
        {
          "internalType": "address",
          "name": "",
          "type": "address"
        }
      ],
      "name": "isManager",
      "outputs": [
        {
          "internalType": "bool",
          "name": "",
          "type": "bool"
        }
      ],
      "stateMutability": "view",
      "type": "function"
    },
    {
      "inputs": [
        {
          "internalType": "bytes32",
          "name": "",
          "type": "bytes32"
        }
      ],
      "name": "messageIds",
      "outputs": [
        {
          "internalType": "bool",
          "name": "",
          "type": "bool"
        }
      ],
      "stateMutability": "view",
      "type": "function"
    },
    {
      "inputs": [
        {
          "internalType": "uint64",
          "name": "destinationChainSelector",
          "type": "uint64"
        },
        {
          "internalType": "address",
          "name": "receiver",
          "type": "address"
        },
        {
          "internalType": "uint256",
          "name": "topic",
          "type": "uint256"
        },
        {
          "internalType": "uint256",
          "name": "scheme",
          "type": "uint256"
        },
        {
          "internalType": "address",
          "name": "issuer",
          "type": "address"
        },
        {
          "internalType": "bytes",
          "name": "signature",
          "type": "bytes"
        },
        {
          "internalType": "bytes",
          "name": "data",
          "type": "bytes"
        },
        {
          "internalType": "string",
          "name": "uri",
          "type": "string"
        }
      ],
      "name": "sendAddClaim",
      "outputs": [],
      "stateMutability": "nonpayable",
      "type": "function"
    },
    {
      "inputs": [
        {
          "internalType": "uint64",
          "name": "destinationChainSelector",
          "type": "uint64"
        },
        {
          "internalType": "address",
          "name": "receiver",
          "type": "address"
        },
        {
          "internalType": "bytes32",
          "name": "key",
          "type": "bytes32"
        },
        {
          "internalType": "uint256",
          "name": "purpose",
          "type": "uint256"
        },
        {
          "internalType": "uint256",
          "name": "keyType",
          "type": "uint256"
        }
      ],
      "name": "sendAddKey",
      "outputs": [],
      "stateMutability": "nonpayable",
      "type": "function"
    },
    {
      "inputs": [
        {
          "internalType": "uint64",
          "name": "destinationChainSelector",
          "type": "uint64"
        },
        {
          "internalType": "address",
          "name": "receiver",
          "type": "address"
        },
        {
          "internalType": "address",
          "name": "gateway",
          "type": "address"
        },
        {
          "internalType": "address",
          "name": "identityOwner",
          "type": "address"
        },
        {
          "internalType": "string",
          "name": "salt",
          "type": "string"
        },
        {
          "internalType": "bytes32[]",
          "name": "managementKeys",
          "type": "bytes32[]"
        }
      ],
      "name": "sendCreateIdentity",
      "outputs": [],
      "stateMutability": "nonpayable",
      "type": "function"
    },
    {
      "inputs": [
        {
          "internalType": "uint64",
          "name": "destinationChainSelector",
          "type": "uint64"
        },
        {
          "internalType": "address",
          "name": "receiver",
          "type": "address"
        },
        {
          "internalType": "address",
          "name": "identity",
          "type": "address"
        },
        {
          "internalType": "bytes32",
          "name": "claimId",
          "type": "bytes32"
        }
      ],
      "name": "sendRemoveClaim",
      "outputs": [],
      "stateMutability": "nonpayable",
      "type": "function"
    },
    {
      "inputs": [
        {
          "internalType": "uint64",
          "name": "destinationChainSelector",
          "type": "uint64"
        },
        {
          "internalType": "address",
          "name": "receiver",
          "type": "address"
        },
        {
          "internalType": "address",
          "name": "identity",
          "type": "address"
        },
        {
          "internalType": "bytes32",
          "name": "key",
          "type": "bytes32"
        },
        {
          "internalType": "uint256",
          "name": "purpose",
          "type": "uint256"
        }
      ],
      "name": "sendRemoveKey",
      "outputs": [],
      "stateMutability": "nonpayable",
      "type": "function"
    },
    {
      "inputs": [
        {
          "internalType": "address",
          "name": "_contract",
          "type": "address"
        },
        {
          "internalType": "bool",
          "name": "_status",
          "type": "bool"
        }
      ],
      "name": "setAllowedContract",
      "outputs": [],
      "stateMutability": "nonpayable",
      "type": "function"
    },
    {
      "inputs": [
        {
          "internalType": "address",
          "name": "_idFactoryAddress",
          "type": "address"
        }
      ],
      "name": "setFactoryAddress",
      "outputs": [],
      "stateMutability": "nonpayable",
      "type": "function"
    },
    {
      "inputs": [
        {
          "internalType": "address",
          "name": "_manager",
          "type": "address"
        },
        {
          "internalType": "bool",
          "name": "_status",
          "type": "bool"
        }
      ],
      "name": "setManager",
      "outputs": [],
      "stateMutability": "nonpayable",
      "type": "function"
    },
    {
      "inputs": [
        {
          "internalType": "bytes4",
          "name": "interfaceId",
          "type": "bytes4"
        }
      ],
      "name": "supportsInterface",
      "outputs": [
        {
          "internalType": "bool",
          "name": "",
          "type": "bool"
        }
      ],
      "stateMutability": "pure",
      "type": "function"
    },
    {
      "inputs": [
        {
          "internalType": "uint64",
          "name": "_destinationChainSelector",
          "type": "uint64"
        },
        {
          "internalType": "address",
          "name": "_receiver",
          "type": "address"
        },
        {
          "internalType": "string",
          "name": "_message",
          "type": "string"
        }
      ],
      "name": "testSendMessage",
      "outputs": [],
      "stateMutability": "nonpayable",
      "type": "function"
    },
    {
      "inputs": [
        {
          "internalType": "address",
          "name": "_to",
          "type": "address"
        },
        {
          "internalType": "uint256",
          "name": "_amount",
          "type": "uint256"
        }
      ],
      "name": "withdraw",
      "outputs": [],
      "stateMutability": "nonpayable",
      "type": "function"
    },
    {
      "stateMutability": "payable",
      "type": "receive"
    }
  ],
  "transactionHash": "0x91fe16fdb50ef373691c6aae0668971e753425ebcccd972adb00a27981f650e1",
  "args": [
    "0x9C32fCB86BF0f4a1A8921a9Fe46de3198bb884B2"
  ],
  "numDeployments": 1,
  "solcInputHash": "11210d6bf88b95799f3b606ff859eca6",
  "bytecode": "0x60c0346100f957601f61217938819003918201601f19168301916001600160401b038311848410176100fe578084926020946040528339810103126100f957516001600160a01b0381168082036100f957156100e05780608052600160005560a0523360005260056020526040600020600160ff19825416179055604051600180337f77b360cfa209016bdd91c2800cd667bb8ad1b916258568b44a73da1cfe9a44cc600080a4612064908161011582396080518181816109990152610c9c015260a05181818161022a015281816104b10152818161167c0152611f7b0152f35b6040516335fdcccd60e21b815260006004820152602490fd5b600080fd5b634e487b7160e01b600052604160045260246000fdfe608080604052600436101561001d575b50361561001b57600080fd5b005b60003560e01c90816301ffc9a71461192257508063023e9417146118175780631a98f3ae146117f057806355de1faf146116f15780636980a6241461159c5780636e5d3d1b1461156b57806383c17c55146114d857806385572ffb14610c615780639dd323a014610b475780639f9b264114610a45578063a5e90eee146109bd578063b0f479a114610979578063e1d50193146107cf578063ec64e18114610762578063f3ae241514610723578063f3fef3a314610593578063f43b855514610554578063f75b0ec31461030a5763f82f1a43146100fb573861000f565b346102af5760a06003193601126102af57610114611ad4565b61011c611a63565b610124611a8f565b906001600160a01b0392836002541693604051809563109e4e3d60e11b825233600483015281602460209889935afa80156102bb5761016b916000916102dd575b50611c9b565b8060405194608087870152600960a08701527f52656d6f76654b6579000000000000000000000000000000000000000000000060c08701521660408501526064356060850152608435608085015260c0845260e0840184811067ffffffffffffffff8211176102c7576102269486946101ef926040526101e9611d9d565b84611e48565b92906040518096819582947f96f4e9f900000000000000000000000000000000000000000000000000000000845260048401611d7c565b03927f0000000000000000000000000000000000000000000000000000000000000000165af19182156102bb57600092610288575b827f54791b38f3859327992a1ca0590ad3c0f08feba98d1a4f56ab0dca74d203392a600080a26001600055005b90809250813d83116102b4575b61029f81836119f8565b810103126102af5751388061025b565b600080fd5b503d610295565b6040513d6000823e3d90fd5b634e487b7160e01b600052604160045260246000fd5b6102fd9150873d8911610303575b6102f581836119f8565b810190611c83565b38610165565b503d6102eb565b346102af5760c06003193601126102af57610323611ad4565b61032b611a63565b610333611a8f565b606435926001600160a01b038085168095036102af5767ffffffffffffffff936084358581116102af5761036b903690600401611b07565b9060a435908682116102af57366023830112156102af5781600401359687116102af578660051b9236602485850101116102af576103ec903360005260209960048b52600160ff60406000205416151514801561053c575b6103cc90611d0c565b8660405199168b8a015260408901526080606089015260a0880190611a3e565b917f07ffffffffffffffffffffffffffffffffffffffffffffffffffffffffffffff601f1998898986030160808a0152808552116102af576104ad978761044f8b809a88610499986101ef9a60246104a5990185830137010380845201826119f8565b60405194859160408b840152600e60608401527f4372656174654964656e7469747900000000000000000000000000000000000060808401526080604084015260a0830190611a3e565b039081018452836119f8565b6101e9611d9d565b03927f0000000000000000000000000000000000000000000000000000000000000000165af19182156102bb5760009261050e57827f54791b38f3859327992a1ca0590ad3c0f08feba98d1a4f56ab0dca74d203392a600080a26001600055005b90809250813d8311610535575b61052581836119f8565b810103126102af5751818061025b565b503d61051b565b5060058b5260406000205460ff1615156001146103c3565b346102af5760206003193601126102af576001600160a01b03610575611a79565b166000526004602052602060ff604060002054166040519015158152f35b346102af5760406003193601126102af576105ac611a79565b602435903360005260056020526105cf600160ff60406000205416151514611c13565b6105d7611d9d565b8147106106df5781471061069b5760008080936001600160a01b038294165af13d15610696573d61060781611aeb565b9061061560405192836119f8565b8152600060203d92013e5b1561062c576001600055005b608460405162461bcd60e51b815260206004820152603a60248201527f416464726573733a20756e61626c6520746f2073656e642076616c75652c207260448201527f6563697069656e74206d617920686176652072657665727465640000000000006064820152fd5b610620565b606460405162461bcd60e51b815260206004820152601d60248201527f416464726573733a20696e73756666696369656e742062616c616e63650000006044820152fd5b606460405162461bcd60e51b815260206004820152601460248201527f496e73756666696369656e742062616c616e63650000000000000000000000006044820152fd5b346102af5760206003193601126102af576001600160a01b03610744611a79565b166000526005602052602060ff604060002054166040519015158152f35b346102af5760606003193601126102af5761077b611ad4565b610783611a63565b906044359167ffffffffffffffff83116102af576107a86107ae933690600401611b07565b91611e48565b906107cb6040519283928352604060208401526040830190611b4e565b0390f35b346102af57610100806003193601126102af576107ea611ad4565b6107f2611a63565b608435916001600160a01b038084168094036102af5767ffffffffffffffff9460a4358681116102af5761082a903690600401611b07565b9360c4358781116102af57610843903690600401611b07565b9660e4359081116102af5761085c903690600401611b07565b90836002541660405198899163109e4e3d60e11b835233600484015282602460209c8d935afa9889156102bb576109188b61090c610499976108fc6108e96104ad9f9e859f9c6108ba6101ef9e6104a59c6000916109625750611c9b565b604051988997339089015260443560408901526064356060890152608088015260e060a0880152860190611a3e565b601f1997888683030160c0870152611a3e565b90868483030160e0850152611a3e565b038381018352826119f8565b60405194859160408b840152600860608401527f416464436c61696d00000000000000000000000000000000000000000000000060808401526080604084015260a0830190611a3e565b6102fd9150893d8b11610303576102f581836119f8565b346102af5760006003193601126102af5760206040516001600160a01b037f0000000000000000000000000000000000000000000000000000000000000000168152f35b346102af576001600160a01b0360016109d536611aa5565b92903360005260056020526109f58360ff60406000205416151514611c13565b1691826000526005602052610a1b8160406000209060ff60ff1983541691151516179055565b1515917f77b360cfa209016bdd91c2800cd667bb8ad1b916258568b44a73da1cfe9a44cc600080a4005b346102af5760806003193601126102af57610a5e611ad4565b610a66611a63565b610a6e611a8f565b906001600160a01b0392836002541693604051809563109e4e3d60e11b825233600483015281602460209889935afa80156102bb57610ab491600091610b2a5750611c9b565b8060405194606087870152600b60808701527f52656d6f7665436c61696d00000000000000000000000000000000000000000060a0870152166040850152606435606085015260a0845260c0840184811067ffffffffffffffff8211176102c7576104ad9486946101ef926040526101e9611d9d565b610b419150873d8911610303576102f581836119f8565b87610165565b346102af5760a06003193601126102af57610b60611ad4565b610b68611a63565b906001600160a01b039182600254169160405193849363109e4e3d60e11b855233600486015284602460209788935afa9384156102bb57610c368694610bbc6104ad976101ef94600091610c445750611c9b565b6104a5604051338882015260443560408201526064356060820152608435608082015260808152610bec816119c0565b60405193849160408a840152600660608401527f4164644b6579000000000000000000000000000000000000000000000000000060808401526080604084015260a0830190611a3e565b03601f1981018452836119f8565b610c5b9150883d8a11610303576102f581836119f8565b8a610165565b346102af5760206003193601126102af5760043567ffffffffffffffff81116102af5760a060031982360301126102af576001600160a01b037f00000000000000000000000000000000000000000000000000000000000000001633036114a85760405190610ccf826119c0565b80600401358252602481013567ffffffffffffffff811681036102af576020830152604481013567ffffffffffffffff81116102af57610d159060043691840101611b07565b6040830152606481013567ffffffffffffffff81116102af57610d3e9060043691840101611b07565b606083015260848101359067ffffffffffffffff82116102af573660238383010112156102af5760048282010135610d7581611bfb565b92610d8360405194856119f8565b81845260208401923660248460061b8484010101116102af5780820160240193915b60248460061b8284010101851061145e57868660808201528051600052600360205260ff6040600020541661141a57805160005260036020526040600020600160ff198254161790556060810151805181016040828203126102af57602082015167ffffffffffffffff81116102af57610e2790602080840191850101611df2565b9160408101519167ffffffffffffffff83116102af57610e4e926020809201920101611df2565b7ff6a4d3b55102fe7eee17b10e6c835ffbd2c62a549b1cdcc1486a1936e06e4b24825160208401207f416464436c61696d0000000000000000000000000000000000000000000000006020604051610ea5816119dc565b600881520152036110a057805181019060e0818303126102af57610ecb60208201611e34565b6040820151906060830151610ee260808501611e34565b9260a085015167ffffffffffffffff81116102af57610f0990602080890191880101611df2565b9560c086015167ffffffffffffffff81116102af57610f3090602080840191890101611df2565b9160e087015167ffffffffffffffff81116102af576001600160a01b0398610fd0600095610fbe610f6f60209c8d8f999781610fe29901920101611df2565b936040519d8e9c8d9b8c997fb1a34e0d000000000000000000000000000000000000000000000000000000008b5260048b015260248a015216604488015260c0606488015260c4870190611a3e565b90600319868303016084870152611a3e565b906003198483030160a4850152611a3e565b0393165af180156102bb57611075575b505b815191604067ffffffffffffffff6020830151169101516020818051810103126102af5760206110666001600160a01b03611051837fb1e312a29937cc11967b0e4a346fef1ae132424ebaba9dc6d90249dba053e87c9501611e34565b16948260405192828480945193849201611a1b565b810103902094604051908152a4005b602090813d8311611099575b61108b81836119f8565b810103126102af5782610ff2565b503d611081565b7fddc96574f7b250eea7b05b59265689d367e9c921f0329cb0486a01748c9430de825160208401207f4164644b6579000000000000000000000000000000000000000000000000000060206040516110f7816119dc565b600681520152036111a6576080818051810103126102af57602061111c818301611e34565b916064604082015160006001600160a01b03608060608601519501519660405197889687957f1d381240000000000000000000000000000000000000000000000000000000008752600487015260248601526044850152165af180156102bb57611187575b50610ff4565b61119f9060203d602011610303576102f581836119f8565b5082611181565b7f71d8241b0d92eaa7a24ac6eb739d1c1de65b1a52647978943d3abfd1cac75ea5825160208401207f4372656174654964656e7469747900000000000000000000000000000000000060206040516111fd816119dc565b600e81520152036113d657805181016080828203126102af5761122260208301611e34565b9061122f60408401611e34565b92606081015167ffffffffffffffff81116102af5761125690602080850191840101611df2565b60808201519167ffffffffffffffff83116102af5760208401603f8483010112156102af57602083820101519061128c82611bfb565b9361129a60405195866119f8565b8285526020850191602083970160408560051b8484010101116102af5790604081830101925b60408560051b838501010184106113c65750505050509060206113276001600160a01b039694936040519788967f68e37b99000000000000000000000000000000000000000000000000000000008852166004870152606060248701526064860190611a3e565b91600319858403016044860152519182815201919060005b8181106113ad57505050918160006001600160a01b03826020960393165af180156102bb5761136e5750610ff4565b6020813d6020116113a5575b81611387602093836119f8565b810103126102af57516001600160a01b038116036102af5782611181565b3d915061137a565b825184528694506020938401939092019160010161133f565b83518152602093840193016112c0565b606460405162461bcd60e51b815260206004820152600e60248201527f556e6b6e6f776e20616374696f6e0000000000000000000000000000000000006044820152fd5b606460405162461bcd60e51b815260206004820152601960248201527f4d65737361676520616c72656164792070726f636573736564000000000000006044820152fd5b6040853603126102af5760405192611475846119dc565b6001600160a01b038635168635036102af5760206040916024958835815282890135838201528152019501949250610da5565b60246040517fd7f73334000000000000000000000000000000000000000000000000000000008152336004820152fd5b346102af5760206003193601126102af576001600160a01b036114f9611a79565b336000526005602052611518600160ff60406000205416151514611c13565b16807fffffffffffffffffffffffff00000000000000000000000000000000000000006002541617600255337f91cebe556ca7ef6360c8d96ff1ac786a2df8d1d8a2e640008341b210467f8330600080a3005b346102af5760206003193601126102af576004356000526003602052602060ff604060002054166040519015158152f35b346102af5760606003193601126102af576115b5611ad4565b6115bd611a63565b6044359067ffffffffffffffff82116102af5761162c9261163a610c366115eb611670953690600401611b07565b9333600052602096879560048752600160ff6040600020541615151480156116d9575b61161790611d0c565b60405193849188808401526040830190611a3e565b611634611d9d565b83611e48565b916040518095819482937f96f4e9f900000000000000000000000000000000000000000000000000000000845260048401611d7c565b03916001600160a01b037f0000000000000000000000000000000000000000000000000000000000000000165af19182156102bb5760009261050e57827f54791b38f3859327992a1ca0590ad3c0f08feba98d1a4f56ab0dca74d203392a600080a26001600055005b506005875260406000205460ff16151560011461160e565b346102af576116ff36611aa5565b9033600052600560205261171f600160ff60406000205416151514611c13565b8115159160018314611780575b61175a6001600160a01b0360009316918284526004602052604084209060ff60ff1983541691151516179055565b7f77b360cfa209016bdd91c2800cd667bb8ad1b916258568b44a73da1cfe9a44cc8280a4005b813b61172c57608460405162461bcd60e51b815260206004820152602660248201527f5065726d697373696f6e733a2041646472657373206973206e6f74206120636f60448201527f6e747261637400000000000000000000000000000000000000000000000000006064820152fd5b346102af5760006003193601126102af5760206001600160a01b0360025416604051908152f35b346102af5760006003193601126102af57604051600060019081549182811c91818416918215611918575b60209485851084146119025785879486865291826000146118e2575050600114611888575b50611874925003836119f8565b6107cb604051928284938452830190611a3e565b6000818152859250907fb10e2d527612073b26eecdfd717e6a320cf44b4afac2b0732d9fcbe2b7fa0cf65b8583106118ca575050611874935082010185611867565b805483890185015287945086939092019181016118b3565b60ff19168582015261187495151560051b85010192508791506118679050565b634e487b7160e01b600052602260045260246000fd5b92607f1692611842565b346102af5760206003193601126102af57600435907fffffffff0000000000000000000000000000000000000000000000000000000082168092036102af57817f85572ffb0000000000000000000000000000000000000000000000000000000060209314908115611996575b5015158152f35b7f01ffc9a7000000000000000000000000000000000000000000000000000000009150148361198f565b60a0810190811067ffffffffffffffff8211176102c757604052565b6040810190811067ffffffffffffffff8211176102c757604052565b90601f601f19910116810190811067ffffffffffffffff8211176102c757604052565b60005b838110611a2e5750506000910152565b8181015183820152602001611a1e565b90601f19601f602093611a5c81518092818752878088019101611a1b565b0116010190565b602435906001600160a01b03821682036102af57565b600435906001600160a01b03821682036102af57565b604435906001600160a01b03821682036102af57565b60031960409101126102af576004356001600160a01b03811681036102af579060243580151581036102af5790565b6004359067ffffffffffffffff821682036102af57565b67ffffffffffffffff81116102c757601f01601f191660200190565b81601f820112156102af57803590611b1e82611aeb565b92611b2c60405194856119f8565b828452602083830101116102af57816000926020809301838601378301015290565b9190611b63835160a0835260a0830190611a3e565b90611b7a6020928386015183820385850152611a3e565b6040908186015193838203838501528080865193848152019501926000905b838210611bd25750505050506080846001600160a01b036060611bcf969701511660608401520151906080818403910152611a3e565b90565b845180516001600160a01b03168852830151878401529586019593820193600190910190611b99565b67ffffffffffffffff81116102c75760051b60200190565b15611c1a57565b608460405162461bcd60e51b8152602060048201526024808201527f5065726d697373696f6e733a2053656e646572206973206e6f742061204d616e60448201527f61676572000000000000000000000000000000000000000000000000000000006064820152fd5b908160209103126102af575180151581036102af5790565b15611ca257565b608460405162461bcd60e51b815260206004820152603960248201527f5065726d697373696f6e733a206964466163746f7279206d61726b732074686960448201527f732061646472657373206173206e6f74206964656e74697479000000000000006064820152fd5b15611d1357565b608460405162461bcd60e51b8152602060048201526024808201527f5065726d697373696f6e733a2053656e646572206973206e6f74206120616c6c60448201527f6f776564000000000000000000000000000000000000000000000000000000006064820152fd5b60409067ffffffffffffffff611bcf94931681528160208201520190611b4e565b600260005414611dae576002600055565b606460405162461bcd60e51b815260206004820152601f60248201527f5265656e7472616e637947756172643a207265656e7472616e742063616c6c006044820152fd5b81601f820112156102af578051611e0881611aeb565b92611e1660405194856119f8565b818452602082840101116102af57611bcf9160208085019101611a1b565b51906001600160a01b03821682036102af57565b90929192604091825191611e5b836119c0565b60609182845260209280848601528086860152806080600096878382015201528551976001600160a01b03809416858a0152848952611e99896119dc565b8651908582019967ffffffffffffffff9a8381108c82111761201a5789528783528851938785018581108d821117612006578a52620f424085528951947f97a657c900000000000000000000000000000000000000000000000000000000898701525160248601526024855284019a848c10908c1117611ff25792869592611f77989795928c95868c52611f2c876119c0565b8652608083015260a08201528660c082015260e081015287518097819482937f20487ded00000000000000000000000000000000000000000000000000000000845260048401611d7c565b03917f0000000000000000000000000000000000000000000000000000000000000000165afa938415611fe757508193611fb3575b5050509190565b9091809350813d8311611fe0575b611fcb81836119f8565b81010312611fdd575051388080611fac565b80fd5b503d611fc1565b51913d9150823e3d90fd5b602488634e487b7160e01b81526041600452fd5b60248a634e487b7160e01b81526041600452fd5b602489634e487b7160e01b81526041600452fdfea264697066735822122027f2df10b1fa5fab38a1846a0d2d9173030c237da5e4ba67db1c35075afa981664736f6c63430008110033",
  "devdoc": {
    "kind": "dev",
    "methods": {
      "ccipReceive((bytes32,uint64,bytes,bytes,(address,uint256)[]))": {
        "details": "Note ensure you check the msg.sender is the OffRampRouter",
        "params": {
          "message": "CCIP Message"
        }
      },
      "getRouter()": {
        "returns": {
          "_0": "CCIP router address"
        }
      },
      "supportsInterface(bytes4)": {
        "details": "Should indicate whether the contract implements IAny2EVMMessageReceiver e.g. return interfaceId == type(IAny2EVMMessageReceiver).interfaceId || interfaceId == type(IERC165).interfaceId This allows CCIP to check if ccipReceive is available before calling it. If this returns false or reverts, only tokens are transferred to the receiver. If this returns true, tokens are transferred and ccipReceive is called atomically. Additionally, if the receiver address does not have code associated with it at the time of execution (EXTCODESIZE returns 0), only tokens will be transferred.",
        "params": {
          "interfaceId": "The interfaceId to check"
        },
        "returns": {
          "_0": "true if the interfaceId is supported"
        }
      }
    },
    "version": 1
  },
  "userdoc": {
    "kind": "user",
    "methods": {
      "ccipMessage()": {
        "notice": "REMOVE for prod"
      },
      "ccipReceive((bytes32,uint64,bytes,bytes,(address,uint256)[]))": {
        "notice": "Called by the Router to deliver a message. If this reverts, any token transfers also revert. The message will move to a FAILED state and become available for manual execution."
      },
      "getRouter()": {
        "notice": "Return the current router"
      },
      "supportsInterface(bytes4)": {
        "notice": "IERC165 supports an interfaceId"
      },
      "testSendMessage(uint64,address,string)": {
        "notice": "REMOVE for prod"
      }
    },
    "version": 1
  },
  "storageLayout": {
    "storage": [
      {
        "astId": 375,
        "contract": "src/bridge/Bridge.sol:CrossChainBridge",
        "label": "_status",
        "offset": 0,
        "slot": "0",
        "type": "t_uint256"
      },
      {
        "astId": 12389,
        "contract": "src/bridge/Bridge.sol:CrossChainBridge",
        "label": "ccipMessage",
        "offset": 0,
        "slot": "1",
        "type": "t_string_storage"
      },
      {
        "astId": 12393,
        "contract": "src/bridge/Bridge.sol:CrossChainBridge",
        "label": "idFactoryAddress",
        "offset": 0,
        "slot": "2",
        "type": "t_address"
      },
      {
        "astId": 12397,
        "contract": "src/bridge/Bridge.sol:CrossChainBridge",
        "label": "messageIds",
        "offset": 0,
        "slot": "3",
        "type": "t_mapping(t_bytes32,t_bool)"
      },
      {
        "astId": 12401,
        "contract": "src/bridge/Bridge.sol:CrossChainBridge",
        "label": "isAllowedContract",
        "offset": 0,
        "slot": "4",
        "type": "t_mapping(t_address,t_bool)"
      },
      {
        "astId": 12405,
        "contract": "src/bridge/Bridge.sol:CrossChainBridge",
        "label": "isManager",
        "offset": 0,
        "slot": "5",
        "type": "t_mapping(t_address,t_bool)"
      }
    ],
    "types": {
      "t_address": {
        "encoding": "inplace",
        "label": "address",
        "numberOfBytes": "20"
      },
      "t_bool": {
        "encoding": "inplace",
        "label": "bool",
        "numberOfBytes": "1"
      },
      "t_bytes32": {
        "encoding": "inplace",
        "label": "bytes32",
        "numberOfBytes": "32"
      },
      "t_mapping(t_address,t_bool)": {
        "encoding": "mapping",
        "key": "t_address",
        "label": "mapping(address => bool)",
        "numberOfBytes": "32",
        "value": "t_bool"
      },
      "t_mapping(t_bytes32,t_bool)": {
        "encoding": "mapping",
        "key": "t_bytes32",
        "label": "mapping(bytes32 => bool)",
        "numberOfBytes": "32",
        "value": "t_bool"
      },
      "t_string_storage": {
        "encoding": "bytes",
        "label": "string",
        "numberOfBytes": "32"
      },
      "t_uint256": {
        "encoding": "inplace",
        "label": "uint256",
        "numberOfBytes": "32"
      }
    }
  }
}