{
  "address": "0xF378EA9678581F17bc92d13915A12d3C9265C495",
  "abi": [
    {
      "inputs": [
        {
          "internalType": "address",
          "name": "idFactoryAddress",
          "type": "address"
        },
        {
          "internalType": "address[]",
          "name": "signersToApprove",
          "type": "address[]"
        }
      ],
      "stateMutability": "nonpayable",
      "type": "constructor"
    },
    {
      "inputs": [
        {
          "internalType": "bytes",
          "name": "signature",
          "type": "bytes"
        }
      ],
      "name": "ExpiredSignature",
      "type": "error"
    },
    {
      "inputs": [
        {
          "internalType": "bytes",
          "name": "signature",
          "type": "bytes"
        }
      ],
      "name": "RevokedSignature",
      "type": "error"
    },
    {
      "inputs": [
        {
          "internalType": "bytes",
          "name": "signature",
          "type": "bytes"
        }
      ],
      "name": "SignatureAlreadyRevoked",
      "type": "error"
    },
    {
      "inputs": [
        {
          "internalType": "bytes",
          "name": "signature",
          "type": "bytes"
        }
      ],
      "name": "SignatureNotRevoked",
      "type": "error"
    },
    {
      "inputs": [
        {
          "internalType": "address",
          "name": "signer",
          "type": "address"
        }
      ],
      "name": "SignerAlreadyApproved",
      "type": "error"
    },
    {
      "inputs": [
        {
          "internalType": "address",
          "name": "signer",
          "type": "address"
        }
      ],
      "name": "SignerAlreadyNotApproved",
      "type": "error"
    },
    {
      "inputs": [],
      "name": "TooManySigners",
      "type": "error"
    },
    {
      "inputs": [
        {
          "internalType": "address",
          "name": "signer",
          "type": "address"
        }
      ],
      "name": "UnapprovedSigner",
      "type": "error"
    },
    {
      "inputs": [],
      "name": "ZeroAddress",
      "type": "error"
    },
    {
      "anonymous": false,
      "inputs": [
        {
          "indexed": true,
          "internalType": "address",
          "name": "previousOwner",
          "type": "address"
        },
        {
          "indexed": true,
          "internalType": "address",
          "name": "newOwner",
          "type": "address"
        }
      ],
      "name": "OwnershipTransferred",
      "type": "event"
    },
    {
      "anonymous": false,
      "inputs": [
        {
          "indexed": true,
          "internalType": "bytes",
          "name": "signature",
          "type": "bytes"
        }
      ],
      "name": "SignatureApproved",
      "type": "event"
    },
    {
      "anonymous": false,
      "inputs": [
        {
          "indexed": true,
          "internalType": "bytes",
          "name": "signature",
          "type": "bytes"
        }
      ],
      "name": "SignatureRevoked",
      "type": "event"
    },
    {
      "anonymous": false,
      "inputs": [
        {
          "indexed": true,
          "internalType": "address",
          "name": "signer",
          "type": "address"
        }
      ],
      "name": "SignerApproved",
      "type": "event"
    },
    {
      "anonymous": false,
      "inputs": [
        {
          "indexed": true,
          "internalType": "address",
          "name": "signer",
          "type": "address"
        }
      ],
      "name": "SignerRevoked",
      "type": "event"
    },
    {
      "inputs": [
        {
          "internalType": "bytes",
          "name": "signature",
          "type": "bytes"
        }
      ],
      "name": "approveSignature",
      "outputs": [],
      "stateMutability": "nonpayable",
      "type": "function"
    },
    {
      "inputs": [
        {
          "internalType": "address",
          "name": "signer",
          "type": "address"
        }
      ],
      "name": "approveSigner",
      "outputs": [],
      "stateMutability": "nonpayable",
      "type": "function"
    },
    {
      "inputs": [
        {
          "internalType": "address",
          "name": "",
          "type": "address"
        }
      ],
      "name": "approvedSigners",
      "outputs": [
        {
          "internalType": "bool",
          "name": "",
          "type": "bool"
        }
      ],
      "stateMutability": "view",
      "type": "function"
    },
    {
      "inputs": [
        {
          "internalType": "bytes",
          "name": "data",
          "type": "bytes"
        }
      ],
      "name": "callFactory",
      "outputs": [],
      "stateMutability": "nonpayable",
      "type": "function"
    },
    {
      "inputs": [
        {
          "internalType": "address",
          "name": "identityOwner",
          "type": "address"
        }
      ],
      "name": "deployIdentityForWallet",
      "outputs": [
        {
          "internalType": "address",
          "name": "",
          "type": "address"
        }
      ],
      "stateMutability": "nonpayable",
      "type": "function"
    },
    {
      "inputs": [
        {
          "internalType": "address",
          "name": "identityOwner",
          "type": "address"
        },
        {
          "internalType": "string",
          "name": "salt",
          "type": "string"
        },
        {
          "internalType": "uint256",
          "name": "signatureExpiry",
          "type": "uint256"
        },
        {
          "internalType": "bytes",
          "name": "signature",
          "type": "bytes"
        }
      ],
      "name": "deployIdentityWithSalt",
      "outputs": [
        {
          "internalType": "address",
          "name": "",
          "type": "address"
        }
      ],
      "stateMutability": "nonpayable",
      "type": "function"
    },
    {
      "inputs": [
        {
          "internalType": "address",
          "name": "identityOwner",
          "type": "address"
        },
        {
          "internalType": "string",
          "name": "salt",
          "type": "string"
        },
        {
          "internalType": "bytes32[]",
          "name": "managementKeys",
          "type": "bytes32[]"
        },
        {
          "internalType": "uint256",
          "name": "signatureExpiry",
          "type": "uint256"
        },
        {
          "internalType": "bytes",
          "name": "signature",
          "type": "bytes"
        }
      ],
      "name": "deployIdentityWithSaltAndManagementKeys",
      "outputs": [
        {
          "internalType": "address",
          "name": "",
          "type": "address"
        }
      ],
      "stateMutability": "nonpayable",
      "type": "function"
    },
    {
      "inputs": [],
      "name": "idFactory",
      "outputs": [
        {
          "internalType": "contract IdFactory",
          "name": "",
          "type": "address"
        }
      ],
      "stateMutability": "view",
      "type": "function"
    },
    {
      "inputs": [],
      "name": "owner",
      "outputs": [
        {
          "internalType": "address",
          "name": "",
          "type": "address"
        }
      ],
      "stateMutability": "view",
      "type": "function"
    },
    {
      "inputs": [],
      "name": "renounceOwnership",
      "outputs": [],
      "stateMutability": "nonpayable",
      "type": "function"
    },
    {
      "inputs": [
        {
          "internalType": "bytes",
          "name": "signature",
          "type": "bytes"
        }
      ],
      "name": "revokeSignature",
      "outputs": [],
      "stateMutability": "nonpayable",
      "type": "function"
    },
    {
      "inputs": [
        {
          "internalType": "address",
          "name": "signer",
          "type": "address"
        }
      ],
      "name": "revokeSigner",
      "outputs": [],
      "stateMutability": "nonpayable",
      "type": "function"
    },
    {
      "inputs": [
        {
          "internalType": "bytes",
          "name": "",
          "type": "bytes"
        }
      ],
      "name": "revokedSignatures",
      "outputs": [
        {
          "internalType": "bool",
          "name": "",
          "type": "bool"
        }
      ],
      "stateMutability": "view",
      "type": "function"
    },
    {
      "inputs": [
        {
          "internalType": "address",
          "name": "newOwner",
          "type": "address"
        }
      ],
      "name": "transferFactoryOwnership",
      "outputs": [],
      "stateMutability": "nonpayable",
      "type": "function"
    },
    {
      "inputs": [
        {
          "internalType": "address",
          "name": "newOwner",
          "type": "address"
        }
      ],
      "name": "transferOwnership",
      "outputs": [],
      "stateMutability": "nonpayable",
      "type": "function"
    }
  ],
  "transactionHash": "0x8472de1e9bf00a56499d56b7fa0ebf60a552b9e67c3dcc4b874b4bc70c507c8d",
  "args": [
    "0x787da7F27D3ac75657C3e8bdD72187d6871aaeff",
    [
      "0x5EB124675c38ff71d81760F5F9A3D75BF7509FE0"
    ]
  ],
  "numDeployments": 1,
  "solcInputHash": "ff28d295d54863f7690d3ec1186c2ab3",
  "bytecode": "0x60806040523480156200001157600080fd5b5060405162001b7b38038062001b7b8339810160408190526200003491620001a5565b6200003f3362000122565b6001600160a01b038216620000675760405163d92e233d60e01b815260040160405180910390fd5b600a815111156200008b57604051630dc92ed360e11b815260040160405180910390fd5b60005b8151811015620000fa57600160026000848481518110620000b357620000b36200028e565b6020908102919091018101516001600160a01b03168252810191909152604001600020805460ff191691151591909117905580620000f181620002a4565b9150506200008e565b5050600180546001600160a01b0319166001600160a01b0392909216919091179055620002cc565b600080546001600160a01b038381166001600160a01b0319831681178455604051919092169283917f8be0079c531659141344cd1fd0a4f28419497f9722a3daafe3b4186f6b6457e09190a35050565b80516001600160a01b03811681146200018a57600080fd5b919050565b634e487b7160e01b600052604160045260246000fd5b60008060408385031215620001b957600080fd5b620001c48362000172565b602084810151919350906001600160401b0380821115620001e457600080fd5b818601915086601f830112620001f957600080fd5b8151818111156200020e576200020e6200018f565b8060051b604051601f19603f830116810181811085821117156200023657620002366200018f565b6040529182528482019250838101850191898311156200025557600080fd5b938501935b828510156200027e576200026e8562000172565b845293850193928501926200025a565b8096505050505050509250929050565b634e487b7160e01b600052603260045260246000fd5b600060018201620002c557634e487b7160e01b600052601160045260246000fd5b5060010190565b61189f80620002dc6000396000f3fe608060405234801561001057600080fd5b50600436106100f55760003560e01c80638a87551211610097578063ccbfc6ed11610066578063ccbfc6ed14610218578063d70aa0ee1461022b578063e9ba23631461023e578063f2fde38b1461025157600080fd5b80638a875512146101be5780638da5cb5b146101e15780639c5c5ce7146101f2578063c34b44a01461020557600080fd5b80634e2984e4116100d35780634e2984e414610152578063715018a61461019057806378e751a6146101985780637d963e6f146101ab57600080fd5b806309f29c09146100fa57806317f67a151461010f5780633e8e6e8b1461013f575b600080fd5b61010d6101083660046112d9565b610264565b005b61012261011d3660046113a1565b610326565b6040516001600160a01b0390911681526020015b60405180910390f35b61012261014d366004611428565b610593565b6101806101603660046112d9565b805160208183018101805160038252928201919093012091525460ff1681565b6040519015158152602001610136565b61010d61063d565b600154610122906001600160a01b031681565b61010d6101b9366004611445565b610651565b6101806101cc366004611428565b60026020526000908152604090205460ff1681565b6000546001600160a01b0316610122565b61010d610200366004611428565b610722565b61010d610213366004611428565b6107a5565b61010d610226366004611445565b61087a565b61010d610239366004611428565b610958565b61012261024c366004611487565b610a31565b61010d61025f366004611428565b610c23565b61026c610cb3565b6001546040516000916001600160a01b03169061028a90849061158d565b6000604051808303816000865af19150503d80600081146102c7576040519150601f19603f3d011682016040523d82523d6000602084013e6102cc565b606091505b50509050806103225760405162461bcd60e51b815260206004820152601f60248201527f476174657761793a2063616c6c20746f20666163746f7279206661696c65640060448201526064015b60405180910390fd5b5050565b60006001600160a01b03861661034f5760405163d92e233d60e01b815260040160405180910390fd5b831580159061035d57504284105b156103985782826040517f0cfe7ed80000000000000000000000000000000000000000000000000000000081526004016103199291906115a9565b600061043a6103fe8888886040516020016103b593929190611604565b604051602081830303815290604052805190602001207f19457468657265756d205369676e6564204d6573736167653a0a3332000000006000908152601c91909152603c902090565b85858080601f016020809104026020016040519081016040528093929190818152602001838380828437600092019190915250610d0d92505050565b6001600160a01b03811660009081526002602052604090205490915060ff1661049a576040517faf3c81720000000000000000000000000000000000000000000000000000000081526001600160a01b0382166004820152602401610319565b600384846040516104ac929190611673565b9081526040519081900360200190205460ff16156104fa5783836040517fa6dff9f80000000000000000000000000000000000000000000000000000000081526004016103199291906115a9565b6001546040517f8e952bfe0000000000000000000000000000000000000000000000000000000081526001600160a01b0390911690638e952bfe90610545908a908a90600401611683565b6020604051808303816000875af1158015610564573d6000803e3d6000fd5b505050506040513d601f19601f8201168201806040525081019061058891906116a5565b979650505050505050565b60006001600160a01b0382166105bc5760405163d92e233d60e01b815260040160405180910390fd5b6001546001600160a01b0316638e952bfe836105d781610d31565b6040518363ffffffff1660e01b81526004016105f4929190611683565b6020604051808303816000875af1158015610613573d6000803e3d6000fd5b505050506040513d601f19601f8201168201806040525081019061063791906116a5565b92915050565b610645610cb3565b61064f6000610d47565b565b610659610cb3565b6003828260405161066b929190611673565b9081526040519081900360200190205460ff166106b85781816040517f6fae15fa0000000000000000000000000000000000000000000000000000000081526004016103199291906115a9565b600382826040516106ca929190611673565b908152604051908190036020018120805460ff191690556106ee9083908390611673565b604051908190038120907fb54b0481f674d73e0a7e0805771909ebd61fadc85286160239121febb142fabf90600090a25050565b61072a610cb3565b6001546040517ff2fde38b0000000000000000000000000000000000000000000000000000000081526001600160a01b0383811660048301529091169063f2fde38b90602401600060405180830381600087803b15801561078a57600080fd5b505af115801561079e573d6000803e3d6000fd5b5050505050565b6107ad610cb3565b6001600160a01b0381166107d45760405163d92e233d60e01b815260040160405180910390fd5b6001600160a01b03811660009081526002602052604090205460ff16610831576040517f2742ecb40000000000000000000000000000000000000000000000000000000081526001600160a01b0382166004820152602401610319565b6001600160a01b038116600081815260026020526040808220805460ff19169055517f99a705a3c2c3339d0051f56b36a60fef91e30142c93353002617999f27aec4af9190a250565b610882610cb3565b60038282604051610894929190611673565b9081526040519081900360200190205460ff16156108e25781816040517f8bf3b1f10000000000000000000000000000000000000000000000000000000081526004016103199291906115a9565b6001600383836040516108f6929190611673565b908152604051908190036020018120805492151560ff19909316929092179091556109249083908390611673565b604051908190038120907f2cb4d732f179a7333da89a4da3f3f9a9cbe3f6d7ac090ab062c69c303da32ff790600090a25050565b610960610cb3565b6001600160a01b0381166109875760405163d92e233d60e01b815260040160405180910390fd5b6001600160a01b03811660009081526002602052604090205460ff16156109e5576040517f122524420000000000000000000000000000000000000000000000000000000081526001600160a01b0382166004820152602401610319565b6001600160a01b038116600081815260026020526040808220805460ff19166001179055517fc031114b6ddff79d71c2554dbce316b1327bb3dad01c60b76d8e8b23ff27ea289190a250565b60006001600160a01b038816610a5a5760405163d92e233d60e01b815260040160405180910390fd5b8315801590610a6857504284105b15610aa35782826040517f0cfe7ed80000000000000000000000000000000000000000000000000000000081526004016103199291906115a9565b6000610ac46103fe8a8a8a8a8a6040516020016103b595949392919061170d565b6001600160a01b03811660009081526002602052604090205490915060ff16610b24576040517faf3c81720000000000000000000000000000000000000000000000000000000081526001600160a01b0382166004820152602401610319565b60038484604051610b36929190611673565b9081526040519081900360200190205460ff1615610b845783836040517fa6dff9f80000000000000000000000000000000000000000000000000000000081526004016103199291906115a9565b6001546040517ffe5cd59a0000000000000000000000000000000000000000000000000000000081526001600160a01b039091169063fe5cd59a90610bd3908c908c908c908c90600401611793565b6020604051808303816000875af1158015610bf2573d6000803e3d6000fd5b505050506040513d601f19601f82011682018060405250810190610c1691906116a5565b9998505050505050505050565b610c2b610cb3565b6001600160a01b038116610ca75760405162461bcd60e51b815260206004820152602660248201527f4f776e61626c653a206e6577206f776e657220697320746865207a65726f206160448201527f64647265737300000000000000000000000000000000000000000000000000006064820152608401610319565b610cb081610d47565b50565b6000546001600160a01b0316331461064f5760405162461bcd60e51b815260206004820181905260248201527f4f776e61626c653a2063616c6c6572206973206e6f7420746865206f776e65726044820152606401610319565b6000806000610d1c8585610daf565b91509150610d2981610df4565b509392505050565b60606106376001600160a01b0383166014610f59565b600080546001600160a01b038381167fffffffffffffffffffffffff0000000000000000000000000000000000000000831681178455604051919092169283917f8be0079c531659141344cd1fd0a4f28419497f9722a3daafe3b4186f6b6457e09190a35050565b6000808251604103610de55760208301516040840151606085015160001a610dd987828585611189565b94509450505050610ded565b506000905060025b9250929050565b6000816004811115610e0857610e086117c8565b03610e105750565b6001816004811115610e2457610e246117c8565b03610e715760405162461bcd60e51b815260206004820152601860248201527f45434453413a20696e76616c6964207369676e617475726500000000000000006044820152606401610319565b6002816004811115610e8557610e856117c8565b03610ed25760405162461bcd60e51b815260206004820152601f60248201527f45434453413a20696e76616c6964207369676e6174757265206c656e677468006044820152606401610319565b6003816004811115610ee657610ee66117c8565b03610cb05760405162461bcd60e51b815260206004820152602260248201527f45434453413a20696e76616c6964207369676e6174757265202773272076616c60448201527f75650000000000000000000000000000000000000000000000000000000000006064820152608401610319565b60606000610f688360026117f4565b610f7390600261180b565b67ffffffffffffffff811115610f8b57610f8b61124d565b6040519080825280601f01601f191660200182016040528015610fb5576020820181803683370190505b5090507f300000000000000000000000000000000000000000000000000000000000000081600081518110610fec57610fec61181e565b60200101907effffffffffffffffffffffffffffffffffffffffffffffffffffffffffffff1916908160001a9053507f78000000000000000000000000000000000000000000000000000000000000008160018151811061104f5761104f61181e565b60200101907effffffffffffffffffffffffffffffffffffffffffffffffffffffffffffff1916908160001a905350600061108b8460026117f4565b61109690600161180b565b90505b6001811115611133577f303132333435363738396162636465660000000000000000000000000000000085600f16601081106110d7576110d761181e565b1a60f81b8282815181106110ed576110ed61181e565b60200101907effffffffffffffffffffffffffffffffffffffffffffffffffffffffffffff1916908160001a90535060049490941c9361112c81611834565b9050611099565b5083156111825760405162461bcd60e51b815260206004820181905260248201527f537472696e67733a20686578206c656e67746820696e73756666696369656e746044820152606401610319565b9392505050565b6000807f7fffffffffffffffffffffffffffffff5d576e7357a4501ddfe92f46681b20a08311156111c05750600090506003611244565b6040805160008082526020820180845289905260ff881692820192909252606081018690526080810185905260019060a0016020604051602081039080840390855afa158015611214573d6000803e3d6000fd5b5050604051601f1901519150506001600160a01b03811661123d57600060019250925050611244565b9150600090505b94509492505050565b634e487b7160e01b600052604160045260246000fd5b600067ffffffffffffffff8084111561127e5761127e61124d565b604051601f8501601f19908116603f011681019082821181831017156112a6576112a661124d565b816040528093508581528686860111156112bf57600080fd5b858560208301376000602087830101525050509392505050565b6000602082840312156112eb57600080fd5b813567ffffffffffffffff81111561130257600080fd5b8201601f8101841361131357600080fd5b61132284823560208401611263565b949350505050565b6001600160a01b0381168114610cb057600080fd5b600082601f83011261135057600080fd5b61118283833560208501611263565b60008083601f84011261137157600080fd5b50813567ffffffffffffffff81111561138957600080fd5b602083019150836020828501011115610ded57600080fd5b6000806000806000608086880312156113b957600080fd5b85356113c48161132a565b9450602086013567ffffffffffffffff808211156113e157600080fd5b6113ed89838a0161133f565b955060408801359450606088013591508082111561140a57600080fd5b506114178882890161135f565b969995985093965092949392505050565b60006020828403121561143a57600080fd5b81356111828161132a565b6000806020838503121561145857600080fd5b823567ffffffffffffffff81111561146f57600080fd5b61147b8582860161135f565b90969095509350505050565b600080600080600080600060a0888a0312156114a257600080fd5b87356114ad8161132a565b9650602088013567ffffffffffffffff808211156114ca57600080fd5b6114d68b838c0161133f565b975060408a01359150808211156114ec57600080fd5b818a0191508a601f83011261150057600080fd5b81358181111561150f57600080fd5b8b60208260051b850101111561152457600080fd5b6020830197508096505060608a0135945060808a013591508082111561154957600080fd5b506115568a828b0161135f565b989b979a50959850939692959293505050565b60005b8381101561158457818101518382015260200161156c565b50506000910152565b6000825161159f818460208701611569565b9190910192915050565b60208152816020820152818360408301376000818301604090810191909152601f909201601f19160101919050565b600081518084526115f0816020860160208601611569565b601f01601f19169290920160200192915050565b60808152600061164160808301601e81527f417574686f72697a65204f4e434841494e4944206465706c6f796d656e740000602082015260400190565b6001600160a01b0386166020840152828103604084015261166281866115d8565b915050826060830152949350505050565b8183823760009101908152919050565b6001600160a01b038316815260406020820152600061132260408301846115d8565b6000602082840312156116b757600080fd5b81516111828161132a565b81835260007f07ffffffffffffffffffffffffffffffffffffffffffffffffffffffffffffff8311156116f457600080fd5b8260051b80836020870137939093016020019392505050565b60a08152600061174a60a08301601e81527f417574686f72697a65204f4e434841494e4944206465706c6f796d656e740000602082015260400190565b6001600160a01b0388166020840152828103604084015261176b81886115d8565b905082810360608401526117808186886116c2565b9150508260808301529695505050505050565b6001600160a01b03851681526060602082015260006117b560608301866115d8565b82810360408401526105888185876116c2565b634e487b7160e01b600052602160045260246000fd5b634e487b7160e01b600052601160045260246000fd5b8082028115828204841417610637576106376117de565b80820180821115610637576106376117de565b634e487b7160e01b600052603260045260246000fd5b600081611843576118436117de565b507fffffffffffffffffffffffffffffffffffffffffffffffffffffffffffffffff019056fea2646970667358221220c9e65c357de5c1dbbec87499b4d1ccbd933f5af3f59fd44aac1d5a2303e132d564736f6c63430008110033",
  "devdoc": {
    "kind": "dev",
    "methods": {
      "approveSignature(bytes)": {
        "details": "Remove a signature from the revoke list.",
        "params": {
          "signature": "the signature to approve."
        }
      },
      "approveSigner(address)": {
        "details": "Approve a signer to sign ONCHAINID deployments. If the Gateway is setup to require signature, only  deployments requested with a valid signature from an approved signer will be accepted.  If the gateway does not require a signature,",
        "params": {
          "signer": "the signer address to approve."
        }
      },
      "callFactory(bytes)": {
        "details": "Call a function on the factory. Only the owner of the Gateway can call this method.",
        "params": {
          "data": "the data to call on the factory."
        }
      },
      "constructor": {
        "details": "Constructor for the ONCHAINID Factory Gateway.",
        "params": {
          "idFactoryAddress": "the address of the factory to operate (the Gateway must be owner of the Factory)."
        }
      },
      "deployIdentityForWallet(address)": {
        "details": "Deploy an ONCHAINID using a factory using the identityOwner address as salt.",
        "params": {
          "identityOwner": "the address to set as a management key."
        }
      },
      "deployIdentityWithSalt(address,string,uint256,bytes)": {
        "details": "Deploy an ONCHAINID using a factory. The operation must be signed by  an approved public key. This method allow to deploy an ONCHAINID using a custom salt.",
        "params": {
          "identityOwner": "the address to set as a management key.",
          "salt": "to use for the deployment.",
          "signature": "the approval containing the salt and the identityOwner address.",
          "signatureExpiry": "the block timestamp where the signature will expire."
        }
      },
      "deployIdentityWithSaltAndManagementKeys(address,string,bytes32[],uint256,bytes)": {
        "details": "Deploy an ONCHAINID using a factory. The operation must be signed by  an approved public key. This method allow to deploy an ONCHAINID using a custom salt and a custom list of  management keys. Note that the identity Owner address won't be added as a management keys, if this is desired,  the key hash must be listed in the managementKeys array.",
        "params": {
          "identityOwner": "the address to set as a management key.",
          "managementKeys": "the list of management keys to add to the ONCHAINID.",
          "salt": "to use for the deployment.",
          "signature": "the approval containing the salt and the identityOwner address.",
          "signatureExpiry": "the block timestamp where the signature will expire."
        }
      },
      "owner()": {
        "details": "Returns the address of the current owner."
      },
      "renounceOwnership()": {
        "details": "Leaves the contract without owner. It will not be possible to call `onlyOwner` functions. Can only be called by the current owner. NOTE: Renouncing ownership will leave the contract without an owner, thereby disabling any functionality that is only available to the owner."
      },
      "revokeSignature(bytes)": {
        "details": "Revoke a signature, if the signature is used to deploy an ONCHAINID, the deployment would be rejected.",
        "params": {
          "signature": "the signature to revoke."
        }
      },
      "revokeSigner(address)": {
        "details": "Revoke a signer to sign ONCHAINID deployments.",
        "params": {
          "signer": "the signer address to revoke."
        }
      },
      "transferFactoryOwnership(address)": {
        "details": "Transfer the ownership of the factory to a new owner.",
        "params": {
          "newOwner": "the new owner of the factory."
        }
      },
      "transferOwnership(address)": {
        "details": "Transfers ownership of the contract to a new account (`newOwner`). Can only be called by the current owner."
      }
    },
    "version": 1
  },
  "userdoc": {
    "errors": {
      "ExpiredSignature(bytes)": [
        {
          "notice": "A requested ONCHAINID deployment was requested with a signature that expired."
        }
      ],
      "RevokedSignature(bytes)": [
        {
          "notice": "A requested ONCHAINID deployment was requested with a signature revoked."
        }
      ],
      "SignatureAlreadyRevoked(bytes)": [
        {
          "notice": "Attempted to revoke a signature that was already revoked."
        }
      ],
      "SignatureNotRevoked(bytes)": [
        {
          "notice": "Attempted to approve a signature that was not revoked."
        }
      ],
      "SignerAlreadyApproved(address)": [
        {
          "notice": "The signed attempted to add was already approved."
        }
      ],
      "SignerAlreadyNotApproved(address)": [
        {
          "notice": "The signed attempted to remove was not approved."
        }
      ],
      "TooManySigners()": [
        {
          "notice": "The maximum number of signers was reached at deployment."
        }
      ],
      "UnapprovedSigner(address)": [
        {
          "notice": "A requested ONCHAINID deployment was requested and signer by a non approved signer."
        }
      ],
      "ZeroAddress()": [
        {
          "notice": "A required parameter was set to the Zero address."
        }
      ]
    },
    "kind": "user",
    "methods": {},
    "version": 1
  },
  "storageLayout": {
    "storage": [
      {
        "astId": 114,
        "contract": "src/gateway/Gateway.sol:Gateway",
        "label": "_owner",
        "offset": 0,
        "slot": "0",
        "type": "t_address"
      },
      {
        "astId": 4995,
        "contract": "src/gateway/Gateway.sol:Gateway",
        "label": "idFactory",
        "offset": 0,
        "slot": "1",
        "type": "t_contract(IdFactory)4819"
      },
      {
        "astId": 4999,
        "contract": "src/gateway/Gateway.sol:Gateway",
        "label": "approvedSigners",
        "offset": 0,
        "slot": "2",
        "type": "t_mapping(t_address,t_bool)"
      },
      {
        "astId": 5003,
        "contract": "src/gateway/Gateway.sol:Gateway",
        "label": "revokedSignatures",
        "offset": 0,
        "slot": "3",
        "type": "t_mapping(t_bytes_memory_ptr,t_bool)"
      }
    ],
    "types": {
      "t_address": {
        "encoding": "inplace",
        "label": "address",
        "numberOfBytes": "20"
      },
      "t_bool": {
        "encoding": "inplace",
        "label": "bool",
        "numberOfBytes": "1"
      },
      "t_bytes_memory_ptr": {
        "encoding": "bytes",
        "label": "bytes",
        "numberOfBytes": "32"
      },
      "t_contract(IdFactory)4819": {
        "encoding": "inplace",
        "label": "contract IdFactory",
        "numberOfBytes": "20"
      },
      "t_mapping(t_address,t_bool)": {
        "encoding": "mapping",
        "key": "t_address",
        "label": "mapping(address => bool)",
        "numberOfBytes": "32",
        "value": "t_bool"
      },
      "t_mapping(t_bytes_memory_ptr,t_bool)": {
        "encoding": "mapping",
        "key": "t_bytes_memory_ptr",
        "label": "mapping(bytes => bool)",
        "numberOfBytes": "32",
        "value": "t_bool"
      }
    }
  }
}