{
  "address": "0x5119478394F78463CF6aBb254982f89D480DA2A6",
  "abi": [
    {
      "inputs": [
        {
          "internalType": "address",
          "name": "initialManagementKey",
          "type": "address"
        },
        {
          "internalType": "bool",
          "name": "_isLibrary",
          "type": "bool"
        },
        {
          "internalType": "address",
          "name": "idFactoryAddress",
          "type": "address"
        }
      ],
      "stateMutability": "nonpayable",
      "type": "constructor"
    },
    {
      "anonymous": false,
      "inputs": [
        {
          "indexed": true,
          "internalType": "uint256",
          "name": "executionId",
          "type": "uint256"
        },
        {
          "indexed": false,
          "internalType": "bool",
          "name": "approved",
          "type": "bool"
        }
      ],
      "name": "Approved",
      "type": "event"
    },
    {
      "anonymous": false,
      "inputs": [
        {
          "indexed": true,
          "internalType": "bytes32",
          "name": "claimId",
          "type": "bytes32"
        },
        {
          "indexed": true,
          "internalType": "uint256",
          "name": "topic",
          "type": "uint256"
        },
        {
          "indexed": false,
          "internalType": "uint256",
          "name": "scheme",
          "type": "uint256"
        },
        {
          "indexed": true,
          "internalType": "address",
          "name": "issuer",
          "type": "address"
        },
        {
          "indexed": false,
          "internalType": "bytes",
          "name": "signature",
          "type": "bytes"
        },
        {
          "indexed": false,
          "internalType": "bytes",
          "name": "data",
          "type": "bytes"
        },
        {
          "indexed": false,
          "internalType": "string",
          "name": "uri",
          "type": "string"
        }
      ],
      "name": "ClaimAdded",
      "type": "event"
    },
    {
      "anonymous": false,
      "inputs": [
        {
          "indexed": true,
          "internalType": "bytes32",
          "name": "claimId",
          "type": "bytes32"
        },
        {
          "indexed": true,
          "internalType": "uint256",
          "name": "topic",
          "type": "uint256"
        },
        {
          "indexed": false,
          "internalType": "uint256",
          "name": "scheme",
          "type": "uint256"
        },
        {
          "indexed": true,
          "internalType": "address",
          "name": "issuer",
          "type": "address"
        },
        {
          "indexed": false,
          "internalType": "bytes",
          "name": "signature",
          "type": "bytes"
        },
        {
          "indexed": false,
          "internalType": "bytes",
          "name": "data",
          "type": "bytes"
        },
        {
          "indexed": false,
          "internalType": "string",
          "name": "uri",
          "type": "string"
        }
      ],
      "name": "ClaimChanged",
      "type": "event"
    },
    {
      "anonymous": false,
      "inputs": [
        {
          "indexed": true,
          "internalType": "bytes32",
          "name": "claimId",
          "type": "bytes32"
        },
        {
          "indexed": true,
          "internalType": "uint256",
          "name": "topic",
          "type": "uint256"
        },
        {
          "indexed": false,
          "internalType": "uint256",
          "name": "scheme",
          "type": "uint256"
        },
        {
          "indexed": true,
          "internalType": "address",
          "name": "issuer",
          "type": "address"
        },
        {
          "indexed": false,
          "internalType": "bytes",
          "name": "signature",
          "type": "bytes"
        },
        {
          "indexed": false,
          "internalType": "bytes",
          "name": "data",
          "type": "bytes"
        },
        {
          "indexed": false,
          "internalType": "string",
          "name": "uri",
          "type": "string"
        }
      ],
      "name": "ClaimRemoved",
      "type": "event"
    },
    {
      "anonymous": false,
      "inputs": [
        {
          "indexed": true,
          "internalType": "uint256",
          "name": "executionId",
          "type": "uint256"
        },
        {
          "indexed": true,
          "internalType": "address",
          "name": "to",
          "type": "address"
        },
        {
          "indexed": true,
          "internalType": "uint256",
          "name": "value",
          "type": "uint256"
        },
        {
          "indexed": false,
          "internalType": "bytes",
          "name": "data",
          "type": "bytes"
        }
      ],
      "name": "Executed",
      "type": "event"
    },
    {
      "anonymous": false,
      "inputs": [
        {
          "indexed": true,
          "internalType": "uint256",
          "name": "executionId",
          "type": "uint256"
        },
        {
          "indexed": true,
          "internalType": "address",
          "name": "to",
          "type": "address"
        },
        {
          "indexed": true,
          "internalType": "uint256",
          "name": "value",
          "type": "uint256"
        },
        {
          "indexed": false,
          "internalType": "bytes",
          "name": "data",
          "type": "bytes"
        }
      ],
      "name": "ExecutionFailed",
      "type": "event"
    },
    {
      "anonymous": false,
      "inputs": [
        {
          "indexed": true,
          "internalType": "uint256",
          "name": "executionId",
          "type": "uint256"
        },
        {
          "indexed": true,
          "internalType": "address",
          "name": "to",
          "type": "address"
        },
        {
          "indexed": true,
          "internalType": "uint256",
          "name": "value",
          "type": "uint256"
        },
        {
          "indexed": false,
          "internalType": "bytes",
          "name": "data",
          "type": "bytes"
        }
      ],
      "name": "ExecutionRequested",
      "type": "event"
    },
    {
      "anonymous": false,
      "inputs": [
        {
          "indexed": true,
          "internalType": "bytes32",
          "name": "key",
          "type": "bytes32"
        },
        {
          "indexed": true,
          "internalType": "uint256",
          "name": "purpose",
          "type": "uint256"
        },
        {
          "indexed": true,
          "internalType": "uint256",
          "name": "keyType",
          "type": "uint256"
        }
      ],
      "name": "KeyAdded",
      "type": "event"
    },
    {
      "anonymous": false,
      "inputs": [
        {
          "indexed": true,
          "internalType": "bytes32",
          "name": "key",
          "type": "bytes32"
        },
        {
          "indexed": true,
          "internalType": "uint256",
          "name": "purpose",
          "type": "uint256"
        },
        {
          "indexed": true,
          "internalType": "uint256",
          "name": "keyType",
          "type": "uint256"
        }
      ],
      "name": "KeyRemoved",
      "type": "event"
    },
    {
      "inputs": [
        {
          "internalType": "uint256",
          "name": "_topic",
          "type": "uint256"
        },
        {
          "internalType": "uint256",
          "name": "_scheme",
          "type": "uint256"
        },
        {
          "internalType": "address",
          "name": "_issuer",
          "type": "address"
        },
        {
          "internalType": "bytes",
          "name": "_signature",
          "type": "bytes"
        },
        {
          "internalType": "bytes",
          "name": "_data",
          "type": "bytes"
        },
        {
          "internalType": "string",
          "name": "_uri",
          "type": "string"
        }
      ],
      "name": "addClaim",
      "outputs": [
        {
          "internalType": "bytes32",
          "name": "claimRequestId",
          "type": "bytes32"
        }
      ],
      "stateMutability": "nonpayable",
      "type": "function"
    },
    {
      "inputs": [
        {
          "internalType": "bytes32",
          "name": "_key",
          "type": "bytes32"
        },
        {
          "internalType": "uint256",
          "name": "_purpose",
          "type": "uint256"
        },
        {
          "internalType": "uint256",
          "name": "_type",
          "type": "uint256"
        }
      ],
      "name": "addKey",
      "outputs": [
        {
          "internalType": "bool",
          "name": "success",
          "type": "bool"
        }
      ],
      "stateMutability": "nonpayable",
      "type": "function"
    },
    {
      "inputs": [
        {
          "internalType": "uint256",
          "name": "_id",
          "type": "uint256"
        },
        {
          "internalType": "bool",
          "name": "_approve",
          "type": "bool"
        }
      ],
      "name": "approve",
      "outputs": [
        {
          "internalType": "bool",
          "name": "success",
          "type": "bool"
        }
      ],
      "stateMutability": "nonpayable",
      "type": "function"
    },
    {
      "inputs": [
        {
          "internalType": "address",
          "name": "_to",
          "type": "address"
        },
        {
          "internalType": "uint256",
          "name": "_value",
          "type": "uint256"
        },
        {
          "internalType": "bytes",
          "name": "_data",
          "type": "bytes"
        }
      ],
      "name": "execute",
      "outputs": [
        {
          "internalType": "uint256",
          "name": "executionId",
          "type": "uint256"
        }
      ],
      "stateMutability": "payable",
      "type": "function"
    },
    {
      "inputs": [
        {
          "internalType": "bytes32",
          "name": "_claimId",
          "type": "bytes32"
        }
      ],
      "name": "getClaim",
      "outputs": [
        {
          "internalType": "uint256",
          "name": "topic",
          "type": "uint256"
        },
        {
          "internalType": "uint256",
          "name": "scheme",
          "type": "uint256"
        },
        {
          "internalType": "address",
          "name": "issuer",
          "type": "address"
        },
        {
          "internalType": "bytes",
          "name": "signature",
          "type": "bytes"
        },
        {
          "internalType": "bytes",
          "name": "data",
          "type": "bytes"
        },
        {
          "internalType": "string",
          "name": "uri",
          "type": "string"
        }
      ],
      "stateMutability": "view",
      "type": "function"
    },
    {
      "inputs": [
        {
          "internalType": "uint256",
          "name": "_topic",
          "type": "uint256"
        }
      ],
      "name": "getClaimIdsByTopic",
      "outputs": [
        {
          "internalType": "bytes32[]",
          "name": "claimIds",
          "type": "bytes32[]"
        }
      ],
      "stateMutability": "view",
      "type": "function"
    },
    {
      "inputs": [
        {
          "internalType": "bytes32",
          "name": "_key",
          "type": "bytes32"
        }
      ],
      "name": "getKey",
      "outputs": [
        {
          "internalType": "uint256[]",
          "name": "purposes",
          "type": "uint256[]"
        },
        {
          "internalType": "uint256",
          "name": "keyType",
          "type": "uint256"
        },
        {
          "internalType": "bytes32",
          "name": "key",
          "type": "bytes32"
        }
      ],
      "stateMutability": "view",
      "type": "function"
    },
    {
      "inputs": [
        {
          "internalType": "bytes32",
          "name": "_key",
          "type": "bytes32"
        }
      ],
      "name": "getKeyPurposes",
      "outputs": [
        {
          "internalType": "uint256[]",
          "name": "_purposes",
          "type": "uint256[]"
        }
      ],
      "stateMutability": "view",
      "type": "function"
    },
    {
      "inputs": [
        {
          "internalType": "uint256",
          "name": "_purpose",
          "type": "uint256"
        }
      ],
      "name": "getKeysByPurpose",
      "outputs": [
        {
          "internalType": "bytes32[]",
          "name": "keys",
          "type": "bytes32[]"
        }
      ],
      "stateMutability": "view",
      "type": "function"
    },
    {
      "inputs": [
        {
          "internalType": "bytes",
          "name": "sig",
          "type": "bytes"
        },
        {
          "internalType": "bytes32",
          "name": "dataHash",
          "type": "bytes32"
        }
      ],
      "name": "getRecoveredAddress",
      "outputs": [
        {
          "internalType": "address",
          "name": "addr",
          "type": "address"
        }
      ],
      "stateMutability": "pure",
      "type": "function"
    },
    {
      "inputs": [],
      "name": "idFactory",
      "outputs": [
        {
          "internalType": "contract IdFactory",
          "name": "",
          "type": "address"
        }
      ],
      "stateMutability": "view",
      "type": "function"
    },
    {
      "inputs": [
        {
          "internalType": "address",
          "name": "initialManagementKey",
          "type": "address"
        },
        {
          "internalType": "address",
          "name": "_idFactoryAddress",
          "type": "address"
        }
      ],
      "name": "initialize",
      "outputs": [],
      "stateMutability": "nonpayable",
      "type": "function"
    },
    {
      "inputs": [
        {
          "internalType": "contract IIdentity",
          "name": "_identity",
          "type": "address"
        },
        {
          "internalType": "uint256",
          "name": "claimTopic",
          "type": "uint256"
        },
        {
          "internalType": "bytes",
          "name": "sig",
          "type": "bytes"
        },
        {
          "internalType": "bytes",
          "name": "data",
          "type": "bytes"
        }
      ],
      "name": "isClaimValid",
      "outputs": [
        {
          "internalType": "bool",
          "name": "claimValid",
          "type": "bool"
        }
      ],
      "stateMutability": "view",
      "type": "function"
    },
    {
      "inputs": [
        {
          "internalType": "bool",
          "name": "done",
          "type": "bool"
        }
      ],
      "name": "isComingFromIdentity",
      "outputs": [
        {
          "internalType": "bool",
          "name": "",
          "type": "bool"
        }
      ],
      "stateMutability": "nonpayable",
      "type": "function"
    },
    {
      "inputs": [
        {
          "internalType": "bytes32",
          "name": "_key",
          "type": "bytes32"
        },
        {
          "internalType": "uint256",
          "name": "_purpose",
          "type": "uint256"
        }
      ],
      "name": "keyHasPurpose",
      "outputs": [
        {
          "internalType": "bool",
          "name": "result",
          "type": "bool"
        }
      ],
      "stateMutability": "view",
      "type": "function"
    },
    {
      "inputs": [
        {
          "internalType": "bytes32",
          "name": "_claimId",
          "type": "bytes32"
        }
      ],
      "name": "removeClaim",
      "outputs": [
        {
          "internalType": "bool",
          "name": "success",
          "type": "bool"
        }
      ],
      "stateMutability": "nonpayable",
      "type": "function"
    },
    {
      "inputs": [
        {
          "internalType": "bytes32",
          "name": "_key",
          "type": "bytes32"
        },
        {
          "internalType": "uint256",
          "name": "_purpose",
          "type": "uint256"
        }
      ],
      "name": "removeKey",
      "outputs": [
        {
          "internalType": "bool",
          "name": "success",
          "type": "bool"
        }
      ],
      "stateMutability": "nonpayable",
      "type": "function"
    },
    {
      "inputs": [],
      "name": "version",
      "outputs": [
        {
          "internalType": "string",
          "name": "",
          "type": "string"
        }
      ],
      "stateMutability": "pure",
      "type": "function"
    }
  ],
  "transactionHash": "0x06ffdd1302c72913212005d4058bf74c5bffec806664b0ce0f9f51f4cd10a2bd",
  "args": [
    "0x2EAEd1dad6b6a804F4BBd0292433A522Cd603a5E",
    false,
    "0x90D7d522fa1EAe50c97b0B669f0d9Db2bcfFdb94"
  ],
  "numDeployments": 1,
  "solcInputHash": "11210d6bf88b95799f3b606ff859eca6",
  "bytecode": "0x6080346200032457601f62003d1538819003918201601f1916830192916001600160401b03918285118486101762000329578160609285926040978852833981010312620003245762000052826200033f565b9060209081840151938415948515036200032457856200007391016200033f565b9161ffff199081600854168060085560018060a01b03809616968715620002e05715620002d057506008549160ff92838116158015620002c6575b1562000282571661010117600855600180546001600160a01b0319908116881782556000805490911686881617815588518381018981528482529295919492818b01929190828411828510176200026e57838c5281519020808752600386528b872060020181905595949392916060909101908111828210176200025a578a528581528484526003835289842090815487835580881062000230575b5090845282842086855b8181106200021b575050505050828252838089842001558382526004815287822090815491680100000000000000008310156200020757858301808255831015620001f35783528220018290558291907f480000bb1edad8ca1470381cc334b1917fbd51c6531f3a623ea8e0ec7e38a6e99080a45b60018060a01b03199283600154161760015516906000541617600055516139c09081620003558239f35b634e487b7160e01b84526032600452602484fd5b634e487b7160e01b84526041600452602484fd5b85858551169401938184015501879062000154565b828652878086882092830192015b8281106200024e5750506200014a565b8781550188906200023e565b634e487b7160e01b85526041600452602485fd5b634e487b7160e01b87526041600452602487fd5b885162461bcd60e51b815260048101849052601e60248201527f496e697469616c206b65792077617320616c72656164792073657475702e00006044820152606490fd5b50303b15620000ae565b60011760085550620001c9915050565b885162461bcd60e51b815260048101849052601f60248201527f696e76616c696420617267756d656e74202d207a65726f2061646472657373006044820152606490fd5b600080fd5b634e487b7160e01b600052604160045260246000fd5b51906001600160a01b0382168203620003245756fe60806040526004361015610013575b600080fd5b60003560e01c806312aaac701461017b5780631d3812401461017257806341850d8614610169578063485cc955146101605780634eee424a1461015757806353d413c51461014e57806354fd4d5014610145578063747442d31461013c57806378e751a61461013357806380e9e9e11461012a5780639010f72614610121578063b1a34e0d14610118578063b61d27f61461010f578063c0969a6e14610106578063c3b129e3146100fd578063c9100bcb146100f4578063d202158d146100eb5763fb307b34146100e357600080fd5b61000e610f94565b5061000e610f72565b5061000e610ee7565b5061000e610e44565b5061000e610ddc565b5061000e610c17565b5061000e610b73565b5061000e6109f1565b5061000e61097a565b5061000e610917565b5061000e6108cc565b5061000e61084e565b5061000e61070d565b5061000e610612565b5061000e6103f8565b5061000e610363565b5061000e61021c565b5061000e6101b8565b90815180825260208080930193019160005b8281106101a4575050505090565b835185529381019392810192600101610196565b503461000e57602060031936011261000e57600435600052600360205261020d60406000206001604060002001546101f86002604060002001549261121e565b91604051938493606085526060850190610184565b91602084015260408301520390f35b503461000e57606060031936011261000e57610244600160ff60085460081c16151514610fd5565b30331480156102c4575b8015610288575b61025e9061128f565b610284610272604435602435600435611554565b60405190151581529081906020820190565b0390f35b5060408051336020820190815261025e926102bd92906102b590829081015b03601f198101835282610ab0565b51902061353d565b9050610255565b506001600160a01b03600460206102f26102e66000546001600160a01b031690565b6001600160a01b031690565b60405192838092630fffbaf360e01b82525afa90811561034c575b60009161031e575b5016331461024e565b61033f915060203d8111610345575b6103378183610ab0565b81019061126d565b38610315565b503d61032d565b610354611282565b61030d565b8015150361000e57565b503461000e57602060031936011261000e5760043561038181610359565b6001600160a01b0360005416331490816103de575b506103b1575b602060ff60015460a01c166040519015158152f35b7fffffffffffffffffffffff00ffffffffffffffffffffffffffffffffffffffff6001541660015561039c565b90501538610396565b6001600160a01b0381160361000e57565b503461000e57604060031936011261000e57600435610416816103e7565b60243590610423826103e7565b6001600160a01b0390818116156105ce576104dd60019392849361045061044c60085460ff1690565b1590565b80156105c5575b61046090613904565b610472600160ff196008541617600855565b61048661010061ff00196008541617600855565b6104b3846001600160a01b031673ffffffffffffffffffffffffffffffffffffffff196001541617600155565b166001600160a01b031673ffffffffffffffffffffffffffffffffffffffff196000541617600055565b604051610502816102a76020820194859190916001600160a01b036020820193169052565b51902080600261051c826000526003602052604060002090565b0155610546610529610ad3565b60018152610541836000526003602052604060002090565b61394f565b6105658261055e836000526003602052604060002090565b0160019055565b6001600052600460205261059e817fabd6e7cb50984ff9c2f3e18a2660c3353dadf4e3291deeb275dae2cd1e44fe056113c1565b6113c1565b7f480000bb1edad8ca1470381cc334b1917fbd51c6531f3a623ea8e0ec7e38a6e9600080a4005b50303b15610457565b606460405162461bcd60e51b815260206004820152601f60248201527f696e76616c696420617267756d656e74202d207a65726f2061646472657373006044820152fd5b503461000e57602060031936011261000e5761063a600160ff60085460081c16151514610fd5565b3033148015610694575b8015610662575b61065490612891565b6102846102726004356130a1565b506040805133602082019081526106549261068d929061068590829081016102a7565b5190206135da565b905061064b565b506001600160a01b03600460206106b66102e66000546001600160a01b031690565b60405192838092630fffbaf360e01b82525afa908115610700575b6000916106e2575b50163314610644565b6106fa915060203d8111610345576103378183610ab0565b386106d9565b610708611282565b6106d1565b503461000e57604060031936011261000e57610735600160ff60085460081c16151514610fd5565b303314801561078a575b8015610760575b61074f9061128f565b6102846102726024356004356122c3565b5060408051336020820190815261074f9261078392906102b590829081016102a7565b9050610746565b506001600160a01b03600460206107ac6102e66000546001600160a01b031690565b60405192838092630fffbaf360e01b82525afa9081156107f6575b6000916107d8575b5016331461073f565b6107f0915060203d8111610345576103378183610ab0565b386107cf565b6107fe611282565b6107c7565b600091031261000e57565b919082519283825260005b84811061083a575050601f19601f8460006020809697860101520116010190565b602081830181015184830182015201610819565b503461000e57600060031936011261000e576102846040516040810181811067ffffffffffffffff8211176108bf575b604052600581527f322e322e31000000000000000000000000000000000000000000000000000000602082015260405191829160208352602083019061080e565b6108c7610a5c565b61087e565b503461000e57604060031936011261000e57602061090d6024356108ef81610359565b610905600160ff60085460081c16151514610fd5565b600435612011565b6040519015158152f35b503461000e57600060031936011261000e5760206001600160a01b0360005416604051908152f35b6020908160408183019282815285518094520193019160005b828110610966575050505090565b835185529381019392810192600101610958565b503461000e5760208060031936011261000e5760043560005260078152604060002090604051908181845491828152019360005281600020916000905b8282106109da57610284856109ce81890382610ab0565b6040519182918261093f565b8354865294850194600193840193909101906109b7565b503461000e5760208060031936011261000e5760043560005260048152604060002090604051908181845491828152019360005281600020916000905b828210610a4557610284856109ce81890382610ab0565b835486529485019460019384019390910190610a2e565b50634e487b7160e01b600052604160045260246000fd5b67ffffffffffffffff8111610a8757604052565b610a8f610a5c565b604052565b6060810190811067ffffffffffffffff821117610a8757604052565b90601f601f19910116810190811067ffffffffffffffff821117610a8757604052565b604051906020820182811067ffffffffffffffff821117610a8757604052565b601f19601f60209267ffffffffffffffff8111610b11575b01160190565b610b19610a5c565b610b0b565b929192610b2a82610af3565b91610b386040519384610ab0565b82948184528183011161000e578281602093846000960137010152565b9080601f8301121561000e57816020610b7093359101610b1e565b90565b503461000e5760c060031936011261000e57604435610b91816103e7565b67ffffffffffffffff60643581811161000e57610bb2903690600401610b55565b9160843582811161000e57610bcb903690600401610b55565b60a43592831161000e573660238401121561000e5761028493610bfb610c07943690602481600401359101610b1e565b926024356004356127b0565b6040519081529081906020820190565b50606060031936011261000e57600435610c30816103e7565b6024359060443567ffffffffffffffff811161000e57610284926001600160a01b0392610c64610d3e933690600401610b55565b90610c7b600160ff60085460081c16151514610fd5565b7f8afcfabcb00e47a53a8fc3e9f23ff47ee1926194bb1350dd007c50b412a6cee86002549582610ce28894610cba866000526005602052604060002090565b906001600160a01b031673ffffffffffffffffffffffffffffffffffffffff19825416179055565b856001610cf9866000526005602052604060002090565b0155610d1b856002610d15876000526005602052604060002090565b016110fe565b610d2e610d296002546111f1565b600255565b169485936040519182918261120d565b0390a4604080513360208083019182528252601f199392610d6492906102b59082610ab0565b15610d85575050610d7481611a63565b506040519081529081906020820190565b3014159081610da4575b5015610c0757610d9e81611a63565b50610c07565b604080513360208201908152610dd69450929091610dce9190839081015b03908101835282610ab0565b51902061367f565b38610d8f565b503461000e57608060031936011261000e57600435610dfa816103e7565b67ffffffffffffffff60443581811161000e57610e1b903690600401610b55565b9160643591821161000e57602092610e3a61090d933690600401610b55565b91602435906137ab565b503461000e57604060031936011261000e5760043567ffffffffffffffff811161000e57610e84610e7b6020923690600401610b55565b60243590613880565b6001600160a01b0360405191168152f35b9491936001600160a01b03610ed994610b709896610ecb948952602089015216604087015260c0606087015260c086019061080e565b90848203608086015261080e565b9160a081840391015261080e565b503461000e57602060031936011261000e5760048035600090815260066020526040908190208054600182015460028301548451919592946102849490936005820193926001600160a01b031691610f6791610f619190810190610f5c908690610f55908290600301611cad565b0386610ab0565b613522565b93613522565b935196879687610e95565b503461000e57604060031936011261000e57602061090d602435600435613715565b503461000e57602060031936011261000e576004356000526003602052610284610fc1604060002061121e565b604051918291602083526020830190610184565b15610fdc57565b608460405162461bcd60e51b815260206004820152603360248201527f496e746572616374696e67207769746820746865206c69627261727920636f6e60448201527f747261637420697320666f7262696464656e2e000000000000000000000000006064820152fd5b90600182811c92168015611076575b602083101461106057565b634e487b7160e01b600052602260045260246000fd5b91607f1691611055565b9161109c9183549060031b600019811b9283911b169119161790565b9055565b8181106110ab575050565b600081556001016110a0565b9190601f81116110c657505050565b6110f2926000526020600020906020601f840160051c830193106110f4575b601f0160051c01906110a0565b565b90915081906110e5565b919091825167ffffffffffffffff81116111cd575b611127816111218454611046565b846110b7565b602080601f8311600114611162575081929394600092611157575b50506000198260011b9260031b1c1916179055565b015190503880611142565b90601f1983169561117885600052602060002090565b926000905b8882106111b55750508360019596971061119c575b505050811b019055565b015160001960f88460031b161c19169055388080611192565b8060018596829496860151815501950193019061117d565b6111d5610a5c565b611113565b50634e487b7160e01b600052601160045260246000fd5b6001906000198114611201570190565b6112096111da565b0190565b906020610b7092818152019061080e565b9060405191828154918282526020928383019160005283600020936000905b828210611253575050506110f292500383610ab0565b85548452600195860195889550938101939091019061123d565b9081602091031261000e5751610b70816103e7565b506040513d6000823e3d90fd5b1561129657565b608460405162461bcd60e51b815260206004820152603060248201527f5065726d697373696f6e733a2053656e64657220646f6573206e6f742068617660448201527f65206d616e6167656d656e74206b6579000000000000000000000000000000006064820152fd5b80546001825580600110611312575050565b6110f2916000526001602060002091820191016110a0565b9061133482611300565b906000526020908160002060005b600181106113505750505050565b82518282015591830191600101611342565b50634e487b7160e01b600052603260045260246000fd5b602091815181101561138e575b60051b010190565b611396611362565b611386565b80548210156113b4575b60005260206000200190600090565b6113bc611362565b6113a5565b6113e861109c9180549068010000000000000000821015611401575b60018201815561139b565b819391549060031b600019811b9283911b169119161790565b611409610a5c565b6113dd565b9081602091031261000e5751610b7081610359565b60209067ffffffffffffffff811161143d575b60051b0190565b611445610a5c565b611436565b602090818184031261000e5780519067ffffffffffffffff821161000e57019180601f8401121561000e57825161148081611423565b9361148e6040519586610ab0565b818552838086019260051b82010192831161000e578301905b8282106114b5575050505090565b83809183516114c3816103e7565b8152019101906114a7565b90602090818382031261000e57825167ffffffffffffffff9384821161000e57019281601f8501121561000e57835161150681611423565b946115146040519687610ab0565b818652848087019260051b82010193841161000e578401905b83821061153c57505050505090565b8151838116810361000e57815290840190840161152d565b92909183600261156e826000526003602052604060002090565b015403611a015761159161158c856000526003602052604060002090565b61121e565b9160005b835181101561162857846115a98286611379565b51146115bd576115b8906111f1565b611595565b60405162461bcd60e51b815260206004820152602160248201527f436f6e666c6963743a204b657920616c72656164792068617320707572706f7360448201527f65000000000000000000000000000000000000000000000000000000000000006064820152608490fd5b509291509261164582610599836000526003602052604060002090565b61165d81610599846000526004602052604060002090565b60409081518584837f480000bb1edad8ca1470381cc334b1917fbd51c6531f3a623ea8e0ec7e38a6e9600080a46116ce740100000000000000000000000000000000000000007fffffffffffffffffffffff00ffffffffffffffffffffffffffffffffffffffff6001541617600155565b6116e36102e66000546001600160a01b031690565b60015460a01c60ff16813b1561000e577fa262d8d2000000000000000000000000000000000000000000000000000000008352151560048301526024820183905260448201859052606482018790526000908290608490829084905af180156119f4575b6119e1575b506117626102e66000546001600160a01b031690565b948251631645536f60e11b815260209081816004818b5afa9081156119d4575b6000916119a7575b501561199c576001600160a01b03908451630fffbaf360e01b815281816004818c5afa91821561198f575b600092611972575b5050169083519663e061646b60e01b8852600088600481845afa978815611965575b60009861193b575b506000600491865192838092637b6b91c760e01b82525afa90811561192e575b60009161190b575b5060005b88518110156118fe576118376118298284611379565b5167ffffffffffffffff1690565b90611852611845828c611379565b516001600160a01b031690565b853b1561000e5787517f9dd323a000000000000000000000000000000000000000000000000000000000815267ffffffffffffffff9390931660048401526001600160a01b031660248301526044820186905260648201889052608482018490526118d39160008160a481838a5af180156118f1575b6118d8575b506111f1565b611813565b806118e56118eb92610a73565b80610803565b386118cd565b6118f9611282565b6118c8565b5060019750505050505050565b61192891503d806000833e6119208183610ab0565b8101906114ce565b3861180f565b611936611282565b611807565b600491985061195d6000913d8084833e6119558183610ab0565b81019061144a565b9891506117e7565b61196d611282565b6117df565b6119889250803d10610345576103378183610ab0565b38806117bd565b611997611282565b6117b5565b506001955050505050565b6119c79150823d84116119cd575b6119bf8183610ab0565b81019061140e565b3861178a565b503d6119b5565b6119dc611282565b611782565b806118e56119ee92610a73565b3861174c565b6119fc611282565b611747565b92806002611a1c829594956000526003602052604060002090565b0155611a45611a29610ad3565b838152611a40836000526003602052604060002090565b61132a565b836001611a5c836000526003602052604060002090565b0155611645565b610b7090611a7d600160ff60085460081c16151514610fd5565b611d54565b15611a8957565b608460405162461bcd60e51b815260206004820152602760248201527f43616e6e6f7420617070726f76652061206e6f6e2d6578697374696e6720657860448201527f65637574696f6e000000000000000000000000000000000000000000000000006064820152fd5b15611afa57565b606460405162461bcd60e51b815260206004820152601860248201527f5265717565737420616c726561647920657865637574656400000000000000006044820152fd5b15611b4557565b606460405162461bcd60e51b815260206004820152601f60248201527f53656e64657220646f6573206e6f74206861766520616374696f6e206b6579006044820152fd5b15611b9057565b608460405162461bcd60e51b815260206004820152602360248201527f53656e64657220646f6573206e6f742068617665206d616e6167656d656e742060448201527f6b657900000000000000000000000000000000000000000000000000000000006064820152fd5b600092918154611c0981611046565b92600191808316908115611c625750600114611c26575b50505050565b90919293945060005260209081600020906000915b858310611c515750505050019038808080611c20565b805485840152918301918101611c3b565b60ff1916845250505081151590910201915038808080611c20565b3d15611ca8573d90611c8e82610af3565b91611c9c6040519384610ab0565b82523d6000602084013e565b606090565b9060009291805491611cbe83611046565b918282526001938481169081600014611d1f5750600114611cdf5750505050565b90919394506000526020928360002092846000945b838610611d0b575050505001019038808080611c20565b805485870183015294019385908201611cf4565b915050602094955060ff199193501683830152151560051b01019038808080611c20565b906020610b70928181520190611cad565b611d616002548210611a82565b611d90611d8b61044c6003611d80856000526005602052604060002090565b015460081c60ff1690565b611af3565b611db4611da7826000526005602052604060002090565b546001600160a01b031690565b6001600160a01b03919082163003611fe557604080513360208201908152611ded92611de892906102b590829081016102a7565b611b89565b807fb3932da477fe5d6c8ff2eafef050c0f3a1af18fc07121001482600f36f3715d860405180611e2281906001602083019252565b0390a2611e4c6003611e3e836000526005602052604060002090565b01600160ff19825416179055565b600080611e66611da7846000526005602052604060002090565b611ea46001611e7f866000526005602052604060002090565b01546002611e97876000526005602052604060002090565b0160405192838092611bfa565b03925af1611eb0611c7d565b5015611f6257611edf6003611ecf836000526005602052604060002090565b0161010061ff0019825416179055565b611ef6611da7826000526005602052604060002090565b907f1f920dbda597d7bf95035464170fa58d0a4b57f13a1c315ace6793b9f63688b86001611f2e836000526005602052604060002090565b0154936002611f47846000526005602052604060002090565b0193611f5a604051928392169582611d43565b0390a4600190565b611f79611da7826000526005602052604060002090565b907fe10c49d9f7c71da23262367013434763cfdb2332267641728d25cd712c5c6a686001611fb1836000526005602052604060002090565b0154936002611fca846000526005602052604060002090565b0193611fdd604051928392169582611d43565b0390a4600090565b60408051336020820190815261200c926120079290610dce90829081016102a7565b611b3e565b611ded565b61201e6002548210611a82565b61203d611d8b61044c6003611d80856000526005602052604060002090565b6001612056611da7836000526005602052604060002090565b6001600160a01b039390841630036121055760408051336020820190815261208a92611de892906102b590829081016102a7565b604051811515815283907fb3932da477fe5d6c8ff2eafef050c0f3a1af18fc07121001482600f36f3715d890602090a21515036120da57611e4c6003611e3e836000526005602052604060002090565b61210091506120f56003916000526005602052604060002090565b0160ff198154169055565b600090565b604080513360208201908152612127926120079290610dce90829081016102a7565b61208a565b1561213357565b608460405162461bcd60e51b815260206004820152602160248201527f4e6f6e4578697374696e673a204b65792069736e27742072656769737465726560448201527f64000000000000000000000000000000000000000000000000000000000000006064820152fd5b9060001982019182116121ac57565b6110f26111da565b81519167ffffffffffffffff8311612242575b680100000000000000008311612235575b8154838355808410612217575b50602080910191600052806000209060005b848110612205575050505050565b835183820155928101926001016121f7565b61222f908360005284602060002091820191016110a0565b386121e5565b61223d610a5c565b6121d8565b61224a610a5c565b6121c7565b80549081156122795760001980920191612269838361139b565b909182549160031b1b1916905555565b634e487b7160e01b600052603160045260246000fd5b60026000918054838255806122aa575b508260018201550155565b818452602084206122bd918101906110a0565b3861229f565b916122e68360026122de826000526003602052604060002090565b01541461212c565b6122fd61158c846000526003602052604060002090565b9260005b8361230c8287611379565b51146123955761231b906111f1565b928385511461232a5792612301565b60405162461bcd60e51b815260206004820152602a60248201527f4e6f6e4578697374696e673a204b657920646f65736e2774206861766520737560448201527f636820707572706f7365000000000000000000000000000000000000000000006064820152608490fd5b93909291936123b86123b06123aa845161219d565b84611379565b519183611379565b526123d6816123d1856000526003602052604060002090565b6121b4565b6123f26123ed846000526003602052604060002090565b61224f565b600082815260046020526040812054905b8461242e6124248361241f886000526004602052604060002090565b61139b565b90549060031b1c90565b1461279e5761243c906111f1565b8181106124035761248961247461242461248f945b61246e612468896000526004602052604060002090565b9161219d565b9061139b565b9161241f866000526004602052604060002090565b90611080565b6124a66123ed836000526004602052604060002090565b60019283916124cc836124c3846000526003602052604060002090565b0154915161219d565b1561277d575b60409081519085847f585a4aef50f8267a92b32412b331b20f7f8b96f2245b253b9cc50dcc621d3397600080a46125146102e66000546001600160a01b031690565b94631645536f60e11b82526020600492818185818b5afa908115612770575b600091612753575b5061254b575b5050505050505090565b6001600160a01b03908451630fffbaf360e01b8152818186818c5afa918215612746575b600092612729575b5050169083519663e061646b60e01b88526000888581845afa97881561271c575b6000986126fc575b5060008491865192838092637b6b91c760e01b82525afa9081156126ef575b6000916126d6575b506000875b6125d8575b5050612541565b88518110156126d157836125f26102e6611845848d611379565b03612607575b612601906111f1565b876125cc565b96506126166118298883611379565b612623611845898b611379565b97843b1561000e5786517ff82f1a4300000000000000000000000000000000000000000000000000000000815267ffffffffffffffff9092168287019081526001600160a01b0390991660208a01523060408a015260608901889052608089018490528a9861260192906000908290819060a0010381838a5af180156126c4575b6126b1575b5090506125f8565b806118e56126be92610a73565b386126a9565b6126cc611282565b6126a4565b6125d1565b6126e9913d8091833e6119208183610ab0565b386125c7565b6126f7611282565b6125bf565b61271460009186939a3d8091833e6119558183610ab0565b9891506125a0565b612724611282565b612598565b61273f9250803d10610345576103378183610ab0565b3880612577565b61274e611282565b61256f565b61276a9150823d84116119cd576119bf8183610ab0565b3861253b565b612778611282565b612533565b612799612794836000526003602052604060002090565b61228f565b6124d2565b61248961247461242461248f94612451565b90610b7095949392916127cf600160ff60085460081c16151514610fd5565b3033148015612818575b80156127ee575b6127e990612891565b612a79565b506040805133602082019081526127e992612811929061068590829081016102a7565b90506127e0565b506001600160a01b036004602061283a6102e66000546001600160a01b031690565b60405192838092630fffbaf360e01b82525afa908115612884575b600091612866575b501633146127d9565b61287e915060203d8111610345576103378183610ab0565b3861285d565b61288c611282565b612855565b1561289857565b608460405162461bcd60e51b815260206004820152603260248201527f5065726d697373696f6e733a2053656e64657220646f6573206e6f742068617660448201527f6520636c61696d207369676e6572206b657900000000000000000000000000006064820152fd5b92610b7094926001600160a01b0361292d93168552602085015260806040850152608084019061080e565b91606081840391015261080e565b1561294257565b606460405162461bcd60e51b815260206004820152600d60248201527f696e76616c696420636c61696d000000000000000000000000000000000000006044820152fd5b926129a6610b70959361292d93865260806020870152608086019061080e565b90848203604086015261080e565b9592612a00946001600160a01b03916129f294610b709a989415158a5260208a0152604089015216606087015260e0608087015260e086019061080e565b9084820360a086015261080e565b9160c081840391015261080e565b969394612a6b95612a5d9467ffffffffffffffff610b709b999594168a526001600160a01b0380941660208b015260408a015260608901521660808701526101008060a088015286019061080e565b9084820360c086015261080e565b9160e081840391015261080e565b91946001600160a01b039182871694308603612f41575b604080516001600160a01b038a166020808301918252828401899052838352929592938a92909190612ac3606082610ab0565b5190209a88612adc8d6000526006602052604060002090565b55600199828d888d612af8836000526006602052604060002090565b0155612b0e906000526006602052604060002090565b60030190612b1b916110fe565b848d60049d8e612b35836000526006602052604060002090565b0190612b40916110fe565b612b54906000526006602052604060002090565b60050190612b61916110fe565b898d86858a888d87612b7d876000526006602052604060002090565b600201546001600160a01b031614612f085793612c1b917f46149b18aa084502c3f12bc75e19eda8bda8d102b82cce8474677a6d0d5f43c595612bce886105998b6000526007602052604060002090565b612c118b6002612be88b6000526006602052604060002090565b01906001600160a01b031673ffffffffffffffffffffffffffffffffffffffff19825416179055565b5194859485612986565b0390a45b612c63740100000000000000000000000000000000000000007fffffffffffffffffffffff00ffffffffffffffffffffffffffffffffffffffff6001541617600155565b600097612c7a6102e68a546001600160a01b031690565b8b5460a01c60ff16813b15612f04578b89928f928d8094612ccd8f8c8c8f928d90519b8c9a8b998a987f532f9465000000000000000000000000000000000000000000000000000000008a5289016129b4565b03925af18015612ef7575b612ee4575b50612cf26102e68a546001600160a01b031690565b958c818a518092631645536f60e11b8252818b5afa908115612ed7575b8b91612eba575b50612d2c575b5050505050505050505050505090565b8851630fffbaf360e01b815281818f818b5afa918215612ead575b8b92612e90575b505016958b8989519763e061646b60e01b895281898481845afa988915612e83575b8299612e67575b508a5192838092637b6b91c760e01b82525afa908115612e5a575b8a91612e40575b50898c5b612da8575b50612d1c565b8751811015612e3b57612dbe6118298284611379565b612dcb611845838b611379565b908a3b15612e37578f612e3193928f928f92908f8f92612e1d8f8f8f8f8f8b97519c8d9b8c9a8b997fe1d50193000000000000000000000000000000000000000000000000000000008b528a01612a0e565b03925af180156118f1576118d857506111f1565b8c612d9d565b8c80fd5b612da2565b612e5491503d808c833e6119208183610ab0565b38612d99565b612e62611282565b612d92565b612e7c9199503d8084833e6119558183610ab0565b9738612d77565b612e8b611282565b612d70565b612ea69250803d10610345576103378183610ab0565b3880612d4e565b612eb5611282565b612d47565b612ed19150823d84116119cd576119bf8183610ab0565b38612d16565b612edf611282565b612d0f565b806118e5612ef192610a73565b38612cdd565b612eff611282565b612cd8565b8a80fd5b93612f39917f3bab293fc00db832d7619a9299914251b8747c036867ec056cbd506f60135b13955194859485612986565b0390a4612c1f565b612f996040517fc0969a6e00000000000000000000000000000000000000000000000000000000815260208180612f7e8c878c3060048601612902565b03818b5afa908115612fbc575b600091612f9e575b5061293b565b612a90565b612fb6915060203d81116119cd576119bf8183610ab0565b38612f93565b612fc4611282565b612f8b565b92612fe9610b709593612ff7938652608060208701526080860190611cad565b908482036040860152611cad565b916060818403910152611cad565b61300f8154611046565b9081613019575050565b81601f6000931160011461302b575055565b8183526020832061304791601f0160051c8101906001016110a0565b8160208120915555565b600560009182815582600182015582600282015561307160038201613005565b61307d60048201613005565b016130888154611046565b8061309257505050565b601f811160011461302b575055565b6130b5816000526006602052604060002090565b5480156134b757600081815260076020526040812054905b836130e96124248361241f876000526007602052604060002090565b146134a5576130f7906111f1565b8181106130cd57612489613123612424613138945b61246e612468886000526007602052604060002090565b9161241f856000526007602052604060002090565b61314f6123ed826000526007602052604060002090565b6001828161316881956000526006602052604060002090565b0154926131926002613184846000526006602052604060002090565b01546001600160a01b031690565b9060036131a9846000526006602052604060002090565b0194600491847f3cf57863a89432c61c4a27073c6ee39e8a764bff5a05aebfbcdcdc80b2e6130a846131e5836000526006602052604060002090565b0160056131fc846000526006602052604060002090565b019961321b60409b8c519384936001600160a01b03809c169985612fc9565b0390a461323a613235846000526006602052604060002090565b613051565b61324f6102e66000546001600160a01b031690565b918551631645536f60e11b815260209081818581885afa908115613498575b60009161347b575b50613285575050505050505090565b8651630fffbaf360e01b815281818581885afa91821561346e575b600092613451575b50501685519263e061646b60e01b84526000848481845afa938415613444575b600094613424575b5060008391885192838092637b6b91c760e01b82525afa908115613417575b6000916133fe575b506000865b613307575b50612541565b84518110156133f957826133216102e66118458489611379565b03613336575b613330906111f1565b866132fc565b95506133456118298783611379565b956133536118458287611379565b90833b1561000e5788517f9f9b264100000000000000000000000000000000000000000000000000000000815267ffffffffffffffff9098168589019081526001600160a01b0390921660208301523060408301526060820187905289976133309260009082908190608001038183895af180156133ec575b6133d9575b509050613327565b806118e56133e692610a73565b386133d1565b6133f4611282565b6133cc565b613301565b613411913d8091833e6119208183610ab0565b386132f7565b61341f611282565b6132ef565b61343c6000918593963d8091833e6119558183610ab0565b9491506132d0565b61344c611282565b6132c8565b6134679250803d10610345576103378183610ab0565b38806132a8565b613476611282565b6132a0565b6134929150823d84116119cd576119bf8183610ab0565b38613276565b6134a0611282565b61326e565b6124896131236124246131389461310c565b60405162461bcd60e51b815260206004820152602b60248201527f4e6f6e4578697374696e673a205468657265206973206e6f20636c61696d207760448201527f69746820746869732049440000000000000000000000000000000000000000006064820152608490fd5b906110f26135369260405193848092611cad565b0383610ab0565b6000526003602052604060002060405161355681610a94565b61355f8261121e565b815260026001928381015460208401520154806040830152156135d357600090825b61358e575b505050600090565b80519182518110156135cd57836135a6828295611379565b511480156135c8575b6135c2576135bc906111f1565b91613581565b50505090565b6135af565b50613586565b5050600090565b600052600380602052604060002090604051906135f682610a94565b6135ff8361121e565b8252600260019384810154602085015201548060408401521561358657600091835b61362f575b50505050600090565b805192835181101561367957613646818695611379565b518385821491821561366f575b505061366857613662906111f1565b92613621565b5050505090565b1490508338613653565b50613626565b6000526003602052604060002060405161369881610a94565b6136a18261121e565b81526001918281015460208301526002809101548060408401521561358657600091835b6136d25750505050600090565b8051928351811015613679576136e9818695611379565b518385821491821561370b575b505061366857613705906111f1565b926136c5565b14905083386136f6565b60005260036020526040600020906040519061373082610a94565b6137398361121e565b8252600260019384810154602085015201548060408401521561358657600091835b6137685750505050600090565b80519283518110156136795761377f818695611379565b51838582149182156137a1575b50506136685761379b906111f1565b9261375b565b149050833861378c565b91613872939261384e926137e36040519586926001600160a01b0360208501951685526040840152606080840152608083019061080e565b03936137f7601f1995868101835282610ab0565b51902060405161384581613839602082019485603c917f19457468657265756d205369676e6564204d6573736167653a0a3332000000008252601c8201520190565b03868101835282610ab0565b51902090613880565b604080516001600160a01b0390921660208301908152926106859183908101610dc2565b61387b57600090565b600190565b9060009160418151036138ff576000918160209460ff8660809501519160606040850151940151901a601b81106138e7575b60405194855216868401526040830152606082015282805260015afa156138da575b60005190565b6138e2611282565b6138d4565b601b01818111156138b2576138fa6111da565b6138b2565b505090565b1561390b57565b606460405162461bcd60e51b815260206004820152601e60248201527f496e697469616c206b65792077617320616c72656164792073657475702e00006044820152fd5b9061395982611300565b906000526020908160002060005b600181106139755750505050565b825160ff16828201559183019160010161396756fea2646970667358221220b1198b67420937118e7f1e2a4862aa17f00b80f810aded65c67a9e6679c38c0964736f6c63430008110033",
  "devdoc": {
    "details": "Implementation of the `IERC734` \"KeyHolder\" and the `IERC735` \"ClaimHolder\" interfaces into a common Identity Contract. This implementation has a separate contract were it declares all storage, allowing for it to be used as an upgradable logic contract.",
    "kind": "dev",
    "methods": {
      "addClaim(uint256,uint256,address,bytes,bytes,string)": {
        "details": "See {IERC735-addClaim}.",
        "params": {
          "_data": "The hash of the claim data, sitting in another location, a bit-mask, call data, or actual data based on the claim scheme.",
          "_issuer": "The issuers identity contract address, or the address used to sign the above signature.",
          "_scheme": "The scheme with which this claim SHOULD be verified or how it should be processed.",
          "_signature": "Signature which is the proof that the claim issuer issued a claim of topic for this identity. it MUST be a signed message of the following structure: keccak256(abi.encode(address identityHolder_address, uint256 _ topic, bytes data))",
          "_topic": "The type of claim",
          "_uri": "The location of the claim, this can be HTTP links, swarm hashes, IPFS hashes, and such."
        },
        "returns": {
          "claimRequestId": "Returns claimRequestId: COULD be send to the approve function, to approve or reject this claim. triggers ClaimAdded event."
        }
      },
      "addKey(bytes32,uint256,uint256)": {
        "params": {
          "_key": "keccak256 representation of an ethereum address",
          "_purpose": "a uint256 specifying the key type, like 1 = MANAGEMENT, 2 = ACTION, 3 = CLAIM, 4 = ENCRYPTION",
          "_type": "type of key used, which would be a uint256 for different key types. e.g. 1 = ECDSA, 2 = RSA, etc."
        },
        "returns": {
          "success": "Returns TRUE if the addition was successful and FALSE if not"
        }
      },
      "approve(uint256,bool)": {
        "details": "See {IERC734-approve}."
      },
      "constructor": {
        "params": {
          "_isLibrary": "boolean value stating if the contract is library or not calls __Identity_init if contract is not library",
          "initialManagementKey": "the address of the management key at deployment"
        }
      },
      "execute(address,uint256,bytes)": {
        "details": "See {IERC734-execute}.",
        "returns": {
          "executionId": "to use in the approve function, to approve or reject this execution."
        }
      },
      "getClaim(bytes32)": {
        "details": "See {IERC735-getClaim}.",
        "params": {
          "_claimId": "The identity of the claim i.e. keccak256(abi.encode(_issuer, _topic))"
        },
        "returns": {
          "data": "Returns all the parameters of the claim for the specified _claimId (topic, scheme, signature, issuer, data, uri) .",
          "issuer": "Returns all the parameters of the claim for the specified _claimId (topic, scheme, signature, issuer, data, uri) .",
          "scheme": "Returns all the parameters of the claim for the specified _claimId (topic, scheme, signature, issuer, data, uri) .",
          "signature": "Returns all the parameters of the claim for the specified _claimId (topic, scheme, signature, issuer, data, uri) .",
          "topic": "Returns all the parameters of the claim for the specified _claimId (topic, scheme, signature, issuer, data, uri) .",
          "uri": "Returns all the parameters of the claim for the specified _claimId (topic, scheme, signature, issuer, data, uri) ."
        }
      },
      "getClaimIdsByTopic(uint256)": {
        "details": "See {IERC735-getClaimIdsByTopic}.",
        "params": {
          "_topic": "The identity of the claim i.e. keccak256(abi.encode(_issuer, _topic))"
        },
        "returns": {
          "claimIds": "Returns an array of claim IDs by topic."
        }
      },
      "getKey(bytes32)": {
        "details": "See {IERC734-getKey}.",
        "params": {
          "_key": "The public key.  for non-hex and long keys, its the Keccak256 hash of the key"
        },
        "returns": {
          "key": "Returns the full key data, if present in the identity.",
          "keyType": "Returns the full key data, if present in the identity.",
          "purposes": "Returns the full key data, if present in the identity."
        }
      },
      "getKeyPurposes(bytes32)": {
        "details": "See {IERC734-getKeyPurposes}.",
        "params": {
          "_key": "The public key.  for non-hex and long keys, its the Keccak256 hash of the key"
        },
        "returns": {
          "_purposes": "Returns the purposes of the specified key"
        }
      },
      "getKeysByPurpose(uint256)": {
        "details": "See {IERC734-getKeysByPurpose}.",
        "params": {
          "_purpose": "a uint256[] Array of the key types, like 1 = MANAGEMENT, 2 = ACTION, 3 = CLAIM, 4 = ENCRYPTION"
        },
        "returns": {
          "keys": "Returns an array of public key bytes32 hold by this identity and having the specified purpose"
        }
      },
      "getRecoveredAddress(bytes,bytes32)": {
        "details": "returns the address that signed the given data",
        "params": {
          "dataHash": "the data that was signed returns the address that signed dataHash and created the signature sig",
          "sig": "the signature of the data"
        }
      },
      "initialize(address,address)": {
        "params": {
          "initialManagementKey": "The ethereum address to be set as the management key of the ONCHAINID."
        }
      },
      "isClaimValid(address,uint256,bytes,bytes)": {
        "details": "Checks if a claim is valid. Claims issued by the identity are self-attested claims. They do not have a built-in revocation mechanism and are considered valid as long as their signature is valid and they are still stored by the identity contract.",
        "params": {
          "_identity": "the identity contract related to the claim",
          "claimTopic": "the claim topic of the claim",
          "data": "the data field of the claim",
          "sig": "the signature of the claim"
        },
        "returns": {
          "claimValid": "true if the claim is valid, false otherwise"
        }
      },
      "isComingFromIdentity(bool)": {
        "details": "Returns True if call is coming from Identity Contract"
      },
      "keyHasPurpose(bytes32,uint256)": {
        "details": "See {IERC734-keyHasPurpose}."
      },
      "removeClaim(bytes32)": {
        "details": "See {IERC735-removeClaim}.",
        "params": {
          "_claimId": "The identity of the claim i.e. keccak256(abi.encode(_issuer, _topic))"
        },
        "returns": {
          "success": "Returns TRUE when the claim was removed. triggers ClaimRemoved event"
        }
      },
      "removeKey(bytes32,uint256)": {
        "details": "See {IERC734-removeKey}."
      },
      "version()": {
        "details": "Returns the string of the current version."
      }
    },
    "version": 1
  },
  "userdoc": {
    "kind": "user",
    "methods": {
      "addClaim(uint256,uint256,address,bytes,bytes,string)": {
        "notice": "Implementation of the addClaim function from the ERC-735 standard  Require that the msg.sender has claim signer key."
      },
      "addKey(bytes32,uint256,uint256)": {
        "notice": "implementation of the addKey function of the ERC-734 standard Adds a _key to the identity. The _purpose specifies the purpose of key. Initially we propose four purposes: 1: MANAGEMENT keys, which can manage the identity 2: ACTION keys, which perform actions in this identities name (signing, logins, transactions, etc.) 3: CLAIM signer keys, used to sign claims on other identities which need to be revokable. 4: ENCRYPTION keys, used to encrypt data e.g. hold in claims. MUST only be done by keys of purpose 1, or the identity itself. If its the identity itself, the approval process will determine its approval."
      },
      "approve(uint256,bool)": {
        "notice": "Approves an execution.  If the sender is an ACTION key and the destination address is not the identity contract itself, then the  approval is authorized and the operation would be performed.  If the destination address is the identity itself, then the execution would be authorized and performed only  if the sender is a MANAGEMENT key."
      },
      "constructor": {
        "notice": "constructor of the Identity contract"
      },
      "execute(address,uint256,bytes)": {
        "notice": "Passes an execution instruction to the keymanager. If the sender is an ACTION key and the destination address is not the identity contract itself, then the execution is immediately approved and performed. If the destination address is the identity itself, then the execution would be performed immediately only if the sender is a MANAGEMENT key. Otherwise the execution request must be approved via the `approve` method."
      },
      "getClaim(bytes32)": {
        "notice": "Implementation of the getClaim function from the ERC-735 standard."
      },
      "getClaimIdsByTopic(uint256)": {
        "notice": "Implementation of the getClaimIdsByTopic function from the ERC-735 standard. used to get all the claims from the specified topic"
      },
      "getKey(bytes32)": {
        "notice": "Implementation of the getKey function from the ERC-734 standard"
      },
      "getKeyPurposes(bytes32)": {
        "notice": "gets the purposes of a key"
      },
      "getKeysByPurpose(uint256)": {
        "notice": "gets all the keys with a specific purpose from an identity"
      },
      "initialize(address,address)": {
        "notice": "When using this contract as an implementation for a proxy, call this initializer with a delegatecall."
      },
      "keyHasPurpose(bytes32,uint256)": {
        "notice": "Returns true if the key has MANAGEMENT purpose or the specified purpose."
      },
      "removeClaim(bytes32)": {
        "notice": "Implementation of the removeClaim function from the ERC-735 standard Require that the msg.sender has management key. Can only be removed by the claim issuer, or the claim holder itself."
      },
      "removeKey(bytes32,uint256)": {
        "notice": "Remove the purpose from a key."
      }
    },
    "version": 1
  },
  "storageLayout": {
    "storage": [
      {
        "astId": 16312,
        "contract": "src/Identity.sol:Identity",
        "label": "idFactory",
        "offset": 0,
        "slot": "0",
        "type": "t_contract(IdFactory)15082"
      },
      {
        "astId": 16314,
        "contract": "src/Identity.sol:Identity",
        "label": "userWallet",
        "offset": 0,
        "slot": "1",
        "type": "t_address"
      },
      {
        "astId": 16316,
        "contract": "src/Identity.sol:Identity",
        "label": "isComing",
        "offset": 20,
        "slot": "1",
        "type": "t_bool"
      },
      {
        "astId": 16318,
        "contract": "src/Identity.sol:Identity",
        "label": "_executionNonce",
        "offset": 0,
        "slot": "2",
        "type": "t_uint256"
      },
      {
        "astId": 16323,
        "contract": "src/Identity.sol:Identity",
        "label": "_keys",
        "offset": 0,
        "slot": "3",
        "type": "t_mapping(t_bytes32,t_struct(Key)16365_storage)"
      },
      {
        "astId": 16328,
        "contract": "src/Identity.sol:Identity",
        "label": "_keysByPurpose",
        "offset": 0,
        "slot": "4",
        "type": "t_mapping(t_uint256,t_array(t_bytes32)dyn_storage)"
      },
      {
        "astId": 16333,
        "contract": "src/Identity.sol:Identity",
        "label": "_executions",
        "offset": 0,
        "slot": "5",
        "type": "t_mapping(t_uint256,t_struct(Execution)16376_storage)"
      },
      {
        "astId": 16338,
        "contract": "src/Identity.sol:Identity",
        "label": "_claims",
        "offset": 0,
        "slot": "6",
        "type": "t_mapping(t_bytes32,t_struct(Claim)16389_storage)"
      },
      {
        "astId": 16343,
        "contract": "src/Identity.sol:Identity",
        "label": "_claimsByTopic",
        "offset": 0,
        "slot": "7",
        "type": "t_mapping(t_uint256,t_array(t_bytes32)dyn_storage)"
      },
      {
        "astId": 16346,
        "contract": "src/Identity.sol:Identity",
        "label": "_initialized",
        "offset": 0,
        "slot": "8",
        "type": "t_bool"
      },
      {
        "astId": 16349,
        "contract": "src/Identity.sol:Identity",
        "label": "_canInteract",
        "offset": 1,
        "slot": "8",
        "type": "t_bool"
      },
      {
        "astId": 16354,
        "contract": "src/Identity.sol:Identity",
        "label": "__gap",
        "offset": 0,
        "slot": "9",
        "type": "t_array(t_uint256)49_storage"
      }
    ],
    "types": {
      "t_address": {
        "encoding": "inplace",
        "label": "address",
        "numberOfBytes": "20"
      },
      "t_array(t_bytes32)dyn_storage": {
        "base": "t_bytes32",
        "encoding": "dynamic_array",
        "label": "bytes32[]",
        "numberOfBytes": "32"
      },
      "t_array(t_uint256)49_storage": {
        "base": "t_uint256",
        "encoding": "inplace",
        "label": "uint256[49]",
        "numberOfBytes": "1568"
      },
      "t_array(t_uint256)dyn_storage": {
        "base": "t_uint256",
        "encoding": "dynamic_array",
        "label": "uint256[]",
        "numberOfBytes": "32"
      },
      "t_bool": {
        "encoding": "inplace",
        "label": "bool",
        "numberOfBytes": "1"
      },
      "t_bytes32": {
        "encoding": "inplace",
        "label": "bytes32",
        "numberOfBytes": "32"
      },
      "t_bytes_storage": {
        "encoding": "bytes",
        "label": "bytes",
        "numberOfBytes": "32"
      },
      "t_contract(IdFactory)15082": {
        "encoding": "inplace",
        "label": "contract IdFactory",
        "numberOfBytes": "20"
      },
      "t_mapping(t_bytes32,t_struct(Claim)16389_storage)": {
        "encoding": "mapping",
        "key": "t_bytes32",
        "label": "mapping(bytes32 => struct Structs.Claim)",
        "numberOfBytes": "32",
        "value": "t_struct(Claim)16389_storage"
      },
      "t_mapping(t_bytes32,t_struct(Key)16365_storage)": {
        "encoding": "mapping",
        "key": "t_bytes32",
        "label": "mapping(bytes32 => struct Structs.Key)",
        "numberOfBytes": "32",
        "value": "t_struct(Key)16365_storage"
      },
      "t_mapping(t_uint256,t_array(t_bytes32)dyn_storage)": {
        "encoding": "mapping",
        "key": "t_uint256",
        "label": "mapping(uint256 => bytes32[])",
        "numberOfBytes": "32",
        "value": "t_array(t_bytes32)dyn_storage"
      },
      "t_mapping(t_uint256,t_struct(Execution)16376_storage)": {
        "encoding": "mapping",
        "key": "t_uint256",
        "label": "mapping(uint256 => struct Structs.Execution)",
        "numberOfBytes": "32",
        "value": "t_struct(Execution)16376_storage"
      },
      "t_string_storage": {
        "encoding": "bytes",
        "label": "string",
        "numberOfBytes": "32"
      },
      "t_struct(Claim)16389_storage": {
        "encoding": "inplace",
        "label": "struct Structs.Claim",
        "members": [
          {
            "astId": 16378,
            "contract": "src/Identity.sol:Identity",
            "label": "topic",
            "offset": 0,
            "slot": "0",
            "type": "t_uint256"
          },
          {
            "astId": 16380,
            "contract": "src/Identity.sol:Identity",
            "label": "scheme",
            "offset": 0,
            "slot": "1",
            "type": "t_uint256"
          },
          {
            "astId": 16382,
            "contract": "src/Identity.sol:Identity",
            "label": "issuer",
            "offset": 0,
            "slot": "2",
            "type": "t_address"
          },
          {
            "astId": 16384,
            "contract": "src/Identity.sol:Identity",
            "label": "signature",
            "offset": 0,
            "slot": "3",
            "type": "t_bytes_storage"
          },
          {
            "astId": 16386,
            "contract": "src/Identity.sol:Identity",
            "label": "data",
            "offset": 0,
            "slot": "4",
            "type": "t_bytes_storage"
          },
          {
            "astId": 16388,
            "contract": "src/Identity.sol:Identity",
            "label": "uri",
            "offset": 0,
            "slot": "5",
            "type": "t_string_storage"
          }
        ],
        "numberOfBytes": "192"
      },
      "t_struct(Execution)16376_storage": {
        "encoding": "inplace",
        "label": "struct Structs.Execution",
        "members": [
          {
            "astId": 16367,
            "contract": "src/Identity.sol:Identity",
            "label": "to",
            "offset": 0,
            "slot": "0",
            "type": "t_address"
          },
          {
            "astId": 16369,
            "contract": "src/Identity.sol:Identity",
            "label": "value",
            "offset": 0,
            "slot": "1",
            "type": "t_uint256"
          },
          {
            "astId": 16371,
            "contract": "src/Identity.sol:Identity",
            "label": "data",
            "offset": 0,
            "slot": "2",
            "type": "t_bytes_storage"
          },
          {
            "astId": 16373,
            "contract": "src/Identity.sol:Identity",
            "label": "approved",
            "offset": 0,
            "slot": "3",
            "type": "t_bool"
          },
          {
            "astId": 16375,
            "contract": "src/Identity.sol:Identity",
            "label": "executed",
            "offset": 1,
            "slot": "3",
            "type": "t_bool"
          }
        ],
        "numberOfBytes": "128"
      },
      "t_struct(Key)16365_storage": {
        "encoding": "inplace",
        "label": "struct Structs.Key",
        "members": [
          {
            "astId": 16360,
            "contract": "src/Identity.sol:Identity",
            "label": "purposes",
            "offset": 0,
            "slot": "0",
            "type": "t_array(t_uint256)dyn_storage"
          },
          {
            "astId": 16362,
            "contract": "src/Identity.sol:Identity",
            "label": "keyType",
            "offset": 0,
            "slot": "1",
            "type": "t_uint256"
          },
          {
            "astId": 16364,
            "contract": "src/Identity.sol:Identity",
            "label": "key",
            "offset": 0,
            "slot": "2",
            "type": "t_bytes32"
          }
        ],
        "numberOfBytes": "96"
      },
      "t_uint256": {
        "encoding": "inplace",
        "label": "uint256",
        "numberOfBytes": "32"
      }
    }
  }
}