{
  "address": "0x73dF82Ef55ed3BaAcceBA2F9f8Ddfd09894Cfd11",
  "abi": [
    {
      "inputs": [
        {
          "internalType": "address",
          "name": "_implementationAuthority",
          "type": "address"
        },
        {
          "internalType": "address",
          "name": "initialManagementKey",
          "type": "address"
        }
      ],
      "stateMutability": "nonpayable",
      "type": "constructor"
    },
    {
      "stateMutability": "payable",
      "type": "fallback"
    },
    {
      "inputs": [],
      "name": "implementationAuthority",
      "outputs": [
        {
          "internalType": "address",
          "name": "",
          "type": "address"
        }
      ],
      "stateMutability": "view",
      "type": "function"
    }
  ],
  "transactionHash": "0x50706a14c943875201e1d1017a959e2a2875ff817575c301803251b55ca2f9e6",
  "args": [
    "0x4822CF27eE43aFc6499225E91428F4696647B3a6",
    "0xD4009CBc79B67155f101924AeB398BEb038d428C"
  ],
  "numDeployments": 1,
  "solcInputHash": "1d53299f771fd23f114314547d331b99",
  "bytecode": "0x608060405234801561001057600080fd5b506040516104b03803806104b083398101604081905261002f91610271565b6001600160a01b03821661008a5760405162461bcd60e51b815260206004820152601f60248201527f696e76616c696420617267756d656e74202d207a65726f20616464726573730060448201526064015b60405180910390fd5b6001600160a01b0381166100e05760405162461bcd60e51b815260206004820152601f60248201527f696e76616c696420617267756d656e74202d207a65726f2061646472657373006044820152606401610081565b817f821f3e4d3d679f19eacc940c87acf846ea6eae24a63058ea750304437a62aafc556000826001600160a01b031663aaf10f426040518163ffffffff1660e01b8152600401602060405180830381865afa158015610143573d6000803e3d6000fd5b505050506040513d601f19601f8201168201806040525081019061016791906102a4565b6040516001600160a01b03848116602483015291925060009183169060440160408051601f198184030181529181526020820180516001600160e01b031663189acdbd60e31b179052516101bb91906102c6565b600060405180830381855af49150503d80600081146101f6576040519150601f19603f3d011682016040523d82523d6000602084013e6101fb565b606091505b505090508061024c5760405162461bcd60e51b815260206004820152601660248201527f496e697469616c697a6174696f6e206661696c65642e000000000000000000006044820152606401610081565b505050506102f5565b80516001600160a01b038116811461026c57600080fd5b919050565b6000806040838503121561028457600080fd5b61028d83610255565b915061029b60208401610255565b90509250929050565b6000602082840312156102b657600080fd5b6102bf82610255565b9392505050565b6000825160005b818110156102e757602081860181015185830152016102cd565b506000920191825250919050565b6101ac806103046000396000f3fe60806040526004361061001e5760003560e01c80632307f882146100e1575b60006100487f821f3e4d3d679f19eacc940c87acf846ea6eae24a63058ea750304437a62aafc5490565b73ffffffffffffffffffffffffffffffffffffffff1663aaf10f426040518163ffffffff1660e01b8152600401602060405180830381865afa158015610092573d6000803e3d6000fd5b505050506040513d601f19601f820116820180604052508101906100b69190610139565b90503660008037600080366000846127105a03f43d806000803e8180156100dc57816000f35b816000fd5b3480156100ed57600080fd5b507f821f3e4d3d679f19eacc940c87acf846ea6eae24a63058ea750304437a62aafc5460405173ffffffffffffffffffffffffffffffffffffffff909116815260200160405180910390f35b60006020828403121561014b57600080fd5b815173ffffffffffffffffffffffffffffffffffffffff8116811461016f57600080fd5b939250505056fea264697066735822122084772c21e660be530d4f58ec8c645ae386b1eb8999d049aad644dea992ab041c64736f6c63430008110033",
  "devdoc": {
    "kind": "dev",
    "methods": {
      "constructor": {
        "details": "constructor of the proxy Identity contract",
        "params": {
          "_implementationAuthority": "the implementation Authority contract address",
          "initialManagementKey": "the management key at deployment  the proxy is going to use the logic deployed on the implementation contract  deployed at an address listed in the ImplementationAuthority contract"
        }
      }
    },
    "version": 1
  },
  "userdoc": {
    "kind": "user",
    "methods": {},
    "version": 1
  },
  "storageLayout": {
    "storage": [],
    "types": null
  }
}