{
  "address": "0x82Aa549A0Cb3F16a7CB0611398c4E779b96Da57a",
  "abi": [
    {
      "inputs": [
        {
          "internalType": "address",
          "name": "initialManagementKey",
          "type": "address"
        },
        {
          "internalType": "bool",
          "name": "_isLibrary",
          "type": "bool"
        },
        {
          "internalType": "address",
          "name": "idFactoryAddress",
          "type": "address"
        }
      ],
      "stateMutability": "nonpayable",
      "type": "constructor"
    },
    {
      "anonymous": false,
      "inputs": [
        {
          "indexed": true,
          "internalType": "uint256",
          "name": "executionId",
          "type": "uint256"
        },
        {
          "indexed": false,
          "internalType": "bool",
          "name": "approved",
          "type": "bool"
        }
      ],
      "name": "Approved",
      "type": "event"
    },
    {
      "anonymous": false,
      "inputs": [
        {
          "indexed": true,
          "internalType": "bytes32",
          "name": "claimId",
          "type": "bytes32"
        },
        {
          "indexed": true,
          "internalType": "uint256",
          "name": "topic",
          "type": "uint256"
        },
        {
          "indexed": false,
          "internalType": "uint256",
          "name": "scheme",
          "type": "uint256"
        },
        {
          "indexed": true,
          "internalType": "address",
          "name": "issuer",
          "type": "address"
        },
        {
          "indexed": false,
          "internalType": "bytes",
          "name": "signature",
          "type": "bytes"
        },
        {
          "indexed": false,
          "internalType": "bytes",
          "name": "data",
          "type": "bytes"
        },
        {
          "indexed": false,
          "internalType": "string",
          "name": "uri",
          "type": "string"
        }
      ],
      "name": "ClaimAdded",
      "type": "event"
    },
    {
      "anonymous": false,
      "inputs": [
        {
          "indexed": true,
          "internalType": "bytes32",
          "name": "claimId",
          "type": "bytes32"
        },
        {
          "indexed": true,
          "internalType": "uint256",
          "name": "topic",
          "type": "uint256"
        },
        {
          "indexed": false,
          "internalType": "uint256",
          "name": "scheme",
          "type": "uint256"
        },
        {
          "indexed": true,
          "internalType": "address",
          "name": "issuer",
          "type": "address"
        },
        {
          "indexed": false,
          "internalType": "bytes",
          "name": "signature",
          "type": "bytes"
        },
        {
          "indexed": false,
          "internalType": "bytes",
          "name": "data",
          "type": "bytes"
        },
        {
          "indexed": false,
          "internalType": "string",
          "name": "uri",
          "type": "string"
        }
      ],
      "name": "ClaimChanged",
      "type": "event"
    },
    {
      "anonymous": false,
      "inputs": [
        {
          "indexed": true,
          "internalType": "bytes32",
          "name": "claimId",
          "type": "bytes32"
        },
        {
          "indexed": true,
          "internalType": "uint256",
          "name": "topic",
          "type": "uint256"
        },
        {
          "indexed": false,
          "internalType": "uint256",
          "name": "scheme",
          "type": "uint256"
        },
        {
          "indexed": true,
          "internalType": "address",
          "name": "issuer",
          "type": "address"
        },
        {
          "indexed": false,
          "internalType": "bytes",
          "name": "signature",
          "type": "bytes"
        },
        {
          "indexed": false,
          "internalType": "bytes",
          "name": "data",
          "type": "bytes"
        },
        {
          "indexed": false,
          "internalType": "string",
          "name": "uri",
          "type": "string"
        }
      ],
      "name": "ClaimRemoved",
      "type": "event"
    },
    {
      "anonymous": false,
      "inputs": [
        {
          "indexed": true,
          "internalType": "uint256",
          "name": "executionId",
          "type": "uint256"
        },
        {
          "indexed": true,
          "internalType": "address",
          "name": "to",
          "type": "address"
        },
        {
          "indexed": true,
          "internalType": "uint256",
          "name": "value",
          "type": "uint256"
        },
        {
          "indexed": false,
          "internalType": "bytes",
          "name": "data",
          "type": "bytes"
        }
      ],
      "name": "Executed",
      "type": "event"
    },
    {
      "anonymous": false,
      "inputs": [
        {
          "indexed": true,
          "internalType": "uint256",
          "name": "executionId",
          "type": "uint256"
        },
        {
          "indexed": true,
          "internalType": "address",
          "name": "to",
          "type": "address"
        },
        {
          "indexed": true,
          "internalType": "uint256",
          "name": "value",
          "type": "uint256"
        },
        {
          "indexed": false,
          "internalType": "bytes",
          "name": "data",
          "type": "bytes"
        }
      ],
      "name": "ExecutionFailed",
      "type": "event"
    },
    {
      "anonymous": false,
      "inputs": [
        {
          "indexed": true,
          "internalType": "uint256",
          "name": "executionId",
          "type": "uint256"
        },
        {
          "indexed": true,
          "internalType": "address",
          "name": "to",
          "type": "address"
        },
        {
          "indexed": true,
          "internalType": "uint256",
          "name": "value",
          "type": "uint256"
        },
        {
          "indexed": false,
          "internalType": "bytes",
          "name": "data",
          "type": "bytes"
        }
      ],
      "name": "ExecutionRequested",
      "type": "event"
    },
    {
      "anonymous": false,
      "inputs": [
        {
          "indexed": true,
          "internalType": "bytes32",
          "name": "key",
          "type": "bytes32"
        },
        {
          "indexed": true,
          "internalType": "uint256",
          "name": "purpose",
          "type": "uint256"
        },
        {
          "indexed": true,
          "internalType": "uint256",
          "name": "keyType",
          "type": "uint256"
        }
      ],
      "name": "KeyAdded",
      "type": "event"
    },
    {
      "anonymous": false,
      "inputs": [
        {
          "indexed": true,
          "internalType": "bytes32",
          "name": "key",
          "type": "bytes32"
        },
        {
          "indexed": true,
          "internalType": "uint256",
          "name": "purpose",
          "type": "uint256"
        },
        {
          "indexed": true,
          "internalType": "uint256",
          "name": "keyType",
          "type": "uint256"
        }
      ],
      "name": "KeyRemoved",
      "type": "event"
    },
    {
      "inputs": [
        {
          "internalType": "uint256",
          "name": "_topic",
          "type": "uint256"
        },
        {
          "internalType": "uint256",
          "name": "_scheme",
          "type": "uint256"
        },
        {
          "internalType": "address",
          "name": "_issuer",
          "type": "address"
        },
        {
          "internalType": "bytes",
          "name": "_signature",
          "type": "bytes"
        },
        {
          "internalType": "bytes",
          "name": "_data",
          "type": "bytes"
        },
        {
          "internalType": "string",
          "name": "_uri",
          "type": "string"
        }
      ],
      "name": "addClaim",
      "outputs": [
        {
          "internalType": "bytes32",
          "name": "claimRequestId",
          "type": "bytes32"
        }
      ],
      "stateMutability": "nonpayable",
      "type": "function"
    },
    {
      "inputs": [
        {
          "internalType": "bytes32",
          "name": "_key",
          "type": "bytes32"
        },
        {
          "internalType": "uint256",
          "name": "_purpose",
          "type": "uint256"
        },
        {
          "internalType": "uint256",
          "name": "_type",
          "type": "uint256"
        }
      ],
      "name": "addKey",
      "outputs": [
        {
          "internalType": "bool",
          "name": "success",
          "type": "bool"
        }
      ],
      "stateMutability": "nonpayable",
      "type": "function"
    },
    {
      "inputs": [
        {
          "internalType": "uint256",
          "name": "_id",
          "type": "uint256"
        },
        {
          "internalType": "bool",
          "name": "_approve",
          "type": "bool"
        }
      ],
      "name": "approve",
      "outputs": [
        {
          "internalType": "bool",
          "name": "success",
          "type": "bool"
        }
      ],
      "stateMutability": "nonpayable",
      "type": "function"
    },
    {
      "inputs": [
        {
          "internalType": "address",
          "name": "_to",
          "type": "address"
        },
        {
          "internalType": "uint256",
          "name": "_value",
          "type": "uint256"
        },
        {
          "internalType": "bytes",
          "name": "_data",
          "type": "bytes"
        }
      ],
      "name": "execute",
      "outputs": [
        {
          "internalType": "uint256",
          "name": "executionId",
          "type": "uint256"
        }
      ],
      "stateMutability": "payable",
      "type": "function"
    },
    {
      "inputs": [
        {
          "internalType": "bytes32",
          "name": "_claimId",
          "type": "bytes32"
        }
      ],
      "name": "getClaim",
      "outputs": [
        {
          "internalType": "uint256",
          "name": "topic",
          "type": "uint256"
        },
        {
          "internalType": "uint256",
          "name": "scheme",
          "type": "uint256"
        },
        {
          "internalType": "address",
          "name": "issuer",
          "type": "address"
        },
        {
          "internalType": "bytes",
          "name": "signature",
          "type": "bytes"
        },
        {
          "internalType": "bytes",
          "name": "data",
          "type": "bytes"
        },
        {
          "internalType": "string",
          "name": "uri",
          "type": "string"
        }
      ],
      "stateMutability": "view",
      "type": "function"
    },
    {
      "inputs": [
        {
          "internalType": "uint256",
          "name": "_topic",
          "type": "uint256"
        }
      ],
      "name": "getClaimIdsByTopic",
      "outputs": [
        {
          "internalType": "bytes32[]",
          "name": "claimIds",
          "type": "bytes32[]"
        }
      ],
      "stateMutability": "view",
      "type": "function"
    },
    {
      "inputs": [
        {
          "internalType": "bytes32",
          "name": "_key",
          "type": "bytes32"
        }
      ],
      "name": "getKey",
      "outputs": [
        {
          "internalType": "uint256[]",
          "name": "purposes",
          "type": "uint256[]"
        },
        {
          "internalType": "uint256",
          "name": "keyType",
          "type": "uint256"
        },
        {
          "internalType": "bytes32",
          "name": "key",
          "type": "bytes32"
        }
      ],
      "stateMutability": "view",
      "type": "function"
    },
    {
      "inputs": [
        {
          "internalType": "bytes32",
          "name": "_key",
          "type": "bytes32"
        }
      ],
      "name": "getKeyPurposes",
      "outputs": [
        {
          "internalType": "uint256[]",
          "name": "_purposes",
          "type": "uint256[]"
        }
      ],
      "stateMutability": "view",
      "type": "function"
    },
    {
      "inputs": [
        {
          "internalType": "uint256",
          "name": "_purpose",
          "type": "uint256"
        }
      ],
      "name": "getKeysByPurpose",
      "outputs": [
        {
          "internalType": "bytes32[]",
          "name": "keys",
          "type": "bytes32[]"
        }
      ],
      "stateMutability": "view",
      "type": "function"
    },
    {
      "inputs": [
        {
          "internalType": "bytes",
          "name": "sig",
          "type": "bytes"
        },
        {
          "internalType": "bytes32",
          "name": "dataHash",
          "type": "bytes32"
        }
      ],
      "name": "getRecoveredAddress",
      "outputs": [
        {
          "internalType": "address",
          "name": "addr",
          "type": "address"
        }
      ],
      "stateMutability": "pure",
      "type": "function"
    },
    {
      "inputs": [],
      "name": "idFactory",
      "outputs": [
        {
          "internalType": "contract IdFactory",
          "name": "",
          "type": "address"
        }
      ],
      "stateMutability": "view",
      "type": "function"
    },
    {
      "inputs": [
        {
          "internalType": "address",
          "name": "initialManagementKey",
          "type": "address"
        }
      ],
      "name": "initialize",
      "outputs": [],
      "stateMutability": "nonpayable",
      "type": "function"
    },
    {
      "inputs": [
        {
          "internalType": "contract IIdentity",
          "name": "_identity",
          "type": "address"
        },
        {
          "internalType": "uint256",
          "name": "claimTopic",
          "type": "uint256"
        },
        {
          "internalType": "bytes",
          "name": "sig",
          "type": "bytes"
        },
        {
          "internalType": "bytes",
          "name": "data",
          "type": "bytes"
        }
      ],
      "name": "isClaimValid",
      "outputs": [
        {
          "internalType": "bool",
          "name": "claimValid",
          "type": "bool"
        }
      ],
      "stateMutability": "view",
      "type": "function"
    },
    {
      "inputs": [
        {
          "internalType": "bytes32",
          "name": "_key",
          "type": "bytes32"
        },
        {
          "internalType": "uint256",
          "name": "_purpose",
          "type": "uint256"
        }
      ],
      "name": "keyHasPurpose",
      "outputs": [
        {
          "internalType": "bool",
          "name": "result",
          "type": "bool"
        }
      ],
      "stateMutability": "view",
      "type": "function"
    },
    {
      "inputs": [
        {
          "internalType": "bytes32",
          "name": "_claimId",
          "type": "bytes32"
        }
      ],
      "name": "removeClaim",
      "outputs": [
        {
          "internalType": "bool",
          "name": "success",
          "type": "bool"
        }
      ],
      "stateMutability": "nonpayable",
      "type": "function"
    },
    {
      "inputs": [
        {
          "internalType": "bytes32",
          "name": "_key",
          "type": "bytes32"
        },
        {
          "internalType": "uint256",
          "name": "_purpose",
          "type": "uint256"
        }
      ],
      "name": "removeKey",
      "outputs": [
        {
          "internalType": "bool",
          "name": "success",
          "type": "bool"
        }
      ],
      "stateMutability": "nonpayable",
      "type": "function"
    },
    {
      "inputs": [],
      "name": "version",
      "outputs": [
        {
          "internalType": "string",
          "name": "",
          "type": "string"
        }
      ],
      "stateMutability": "pure",
      "type": "function"
    }
  ],
  "transactionHash": "0x9d70e2842ebf201546b690bc90d5176d2ec994ed4a8a810abf1541214b0908fb",
  "args": [
    "0x30E4422c4276920a32E0fcA2B547Afd6d40cA0C8",
    true,
    "0xb5Cf841dB25F988fd73ff529FEA0b14c9232b115"
  ],
  "numDeployments": 2,
  "solcInputHash": "a9449963cb11d59599815ef7d3f5841f",
  "bytecode": "0x608034620002e357601f62003be938819003918201601f1916830192916001600160401b0391828511848610176200022a578160609285926040978852833981010312620002e3576200005282620002e8565b916020918282015191821592831503620002e35785620000739101620002e8565b9261ffff199081600754168060075560018060a01b038097169485156200029f57156200028e57506007549160ff9283811615801562000284575b1562000240579061010191161760075586519181830194855281835287830194838610858711176200022a5785895283519020936060600094868652600285528660028c88200155019086821090821117620001d75788526001948581528484526002835288842090815487835580881062000200575b5090845282842086855b818110620001eb57505050505082825283808884200155838252600381528682209081549168010000000000000000831015620001d757858301808255831015620001c35783528220018290558291907f480000bb1edad8ca1470381cc334b1917fbd51c6531f3a623ea8e0ec7e38a6e99080a45b1660018060a01b03196000541617600055516138eb9081620002fe8239f35b634e487b7160e01b84526032600452602484fd5b634e487b7160e01b84526041600452602484fd5b8585855116940193818401550187906200012f565b828652878086882092830192015b8281106200021e57505062000125565b8781550188906200020e565b634e487b7160e01b600052604160045260246000fd5b885162461bcd60e51b815260048101849052601e60248201527f496e697469616c206b65792077617320616c72656164792073657475702e00006044820152606490fd5b50303b15620000ae565b60011760075550620001a492505050565b885162461bcd60e51b815260048101849052601f60248201527f696e76616c696420617267756d656e74202d207a65726f2061646472657373006044820152606490fd5b600080fd5b51906001600160a01b0382168203620002e35756fe60806040526004361015610013575b600080fd5b60003560e01c806312aaac70146101675780631d3812401461015e5780634eee424a1461015557806353d413c51461014c57806354fd4d5014610143578063747442d31461013a57806378e751a61461013157806380e9e9e1146101285780639010f7261461011f578063b1a34e0d14610116578063b61d27f61461010d578063c0969a6e14610104578063c3b129e3146100fb578063c4d66de8146100f2578063c9100bcb146100e9578063d202158d146100e05763fb307b34146100d857600080fd5b61000e610e9b565b5061000e610e79565b5061000e610def565b5061000e610bee565b5061000e610b9d565b5061000e610b35565b5061000e610965565b5061000e6108c1565b5061000e61072e565b5061000e6106b7565b5061000e610654565b5061000e610609565b5061000e610581565b5061000e610440565b5061000e610345565b5061000e610208565b5061000e6101a4565b90815180825260208080930193019160005b828110610190575050505090565b835185529381019392810192600101610182565b503461000e57602060031936011261000e5760043560005260026020526101f960406000206001604060002001546101e460026040600020015492611125565b91604051938493606085526060850190610170565b91602084015260408301520390f35b503461000e57606060031936011261000e57610230600160ff60075460081c16151514610edc565b30331480156102b0575b8015610274575b61024a90611196565b61027061025e60443560243560043561145b565b60405190151581529081906020820190565b0390f35b5060408051336020820190815261024a926102a992906102a190829081015b03601f1981018352826107fe565b5190206133d7565b9050610241565b506001600160a01b03600460206102de6102d26000546001600160a01b031690565b6001600160a01b031690565b60405192838092630fffbaf360e01b82525afa908115610338575b60009161030a575b5016331461023a565b61032b915060203d8111610331575b61032381836107fe565b810190611174565b38610301565b503d610319565b610340611189565b6102f9565b503461000e57602060031936011261000e5761036d600160ff60075460081c16151514610edc565b30331480156103c7575b8015610395575b61038790612825565b61027061025e600435612f49565b50604080513360208201908152610387926103c092906103b89082908101610293565b519020613474565b905061037e565b506001600160a01b03600460206103e96102d26000546001600160a01b031690565b60405192838092630fffbaf360e01b82525afa908115610433575b600091610415575b50163314610377565b61042d915060203d81116103315761032381836107fe565b3861040c565b61043b611189565b610404565b503461000e57604060031936011261000e57610468600160ff60075460081c16151514610edc565b30331480156104bd575b8015610493575b61048290611196565b61027061025e602435600435612257565b50604080513360208201908152610482926104b692906102a19082908101610293565b9050610479565b506001600160a01b03600460206104df6102d26000546001600160a01b031690565b60405192838092630fffbaf360e01b82525afa908115610529575b60009161050b575b50163314610472565b610523915060203d81116103315761032381836107fe565b38610502565b610531611189565b6104fa565b600091031261000e57565b919082519283825260005b84811061056d575050601f19601f8460006020809697860101520116010190565b60208183018101518483018201520161054c565b503461000e57600060031936011261000e576102706040516040810181811067ffffffffffffffff8211176105f2575b604052600581527f322e322e310000000000000000000000000000000000000000000000000000006020820152604051918291602083526020830190610541565b6105fa6107aa565b6105b1565b8015150361000e57565b503461000e57604060031936011261000e57602061064a60243561062c816105ff565b610642600160ff60075460081c16151514610edc565b600435611e74565b6040519015158152f35b503461000e57600060031936011261000e5760206001600160a01b0360005416604051908152f35b6020908160408183019282815285518094520193019160005b8281106106a3575050505090565b835185529381019392810192600101610695565b503461000e5760208060031936011261000e5760043560005260068152604060002090604051908181845491828152019360005281600020916000905b828210610717576102708561070b818903826107fe565b6040519182918261067c565b8354865294850194600193840193909101906106f4565b503461000e5760208060031936011261000e5760043560005260038152604060002090604051908181845491828152019360005281600020916000905b828210610782576102708561070b818903826107fe565b83548652948501946001938401939091019061076b565b6001600160a01b0381160361000e57565b50634e487b7160e01b600052604160045260246000fd5b67ffffffffffffffff81116107d557604052565b6107dd6107aa565b604052565b6060810190811067ffffffffffffffff8211176107d557604052565b90601f601f19910116810190811067ffffffffffffffff8211176107d557604052565b604051906020820182811067ffffffffffffffff8211176107d557604052565b601f19601f60209267ffffffffffffffff811161085f575b01160190565b6108676107aa565b610859565b92919261087882610841565b9161088660405193846107fe565b82948184528183011161000e578281602093846000960137010152565b9080601f8301121561000e578160206108be9335910161086c565b90565b503461000e5760c060031936011261000e576044356108df81610799565b67ffffffffffffffff60643581811161000e576109009036906004016108a3565b9160843582811161000e576109199036906004016108a3565b60a43592831161000e573660238401121561000e576102709361094961095594369060248160040135910161086c565b92602435600435612744565b6040519081529081906020820190565b50606060031936011261000e5760043561097e81610799565b6024359060443567ffffffffffffffff811161000e57610270926001600160a01b03926109b2610a979336906004016108a3565b906109c9600160ff60075460081c16151514610edc565b7f8afcfabcb00e47a53a8fc3e9f23ff47ee1926194bb1350dd007c50b412a6cee86001549582610a3b8894610a08866000526004602052604060002090565b906001600160a01b03167fffffffffffffffffffffffff0000000000000000000000000000000000000000825416179055565b856001610a52866000526004602052604060002090565b0155610a74856002610a6e876000526004602052604060002090565b01611005565b610a87610a826001546110f8565b600155565b1694859360405191829182611114565b0390a4604080513360208083019182528252601f199392610abd92906102a190826107fe565b15610ade575050610acd816118be565b506040519081529081906020820190565b3014159081610afd575b501561095557610af7816118be565b50610955565b604080513360208201908152610b2f9450929091610b279190839081015b039081018352826107fe565b519020613506565b38610ae8565b503461000e57608060031936011261000e57600435610b5381610799565b67ffffffffffffffff60443581811161000e57610b749036906004016108a3565b9160643591821161000e57602092610b9361064a9336906004016108a3565b91602435906136d6565b503461000e57604060031936011261000e5760043567ffffffffffffffff811161000e57610bdd610bd460209236906004016108a3565b602435906137ab565b6001600160a01b0360405191168152f35b503461000e57602060031936011261000e57600435610c0c81610799565b6001600160a01b03811615610d595760018091610c32610c2e60075460ff1690565b1590565b8015610d50575b610c429061382f565b610c54600160ff196007541617600755565b610c6861010061ff00196007541617600755565b604051610c8d816102936020820194859190916001600160a01b036020820193169052565b519020806002610ca7826000526002602052604060002090565b0155610cd1610cb4610821565b60018152610ccc836000526002602052604060002090565b61387a565b610cf082610ce9836000526002602052604060002090565b0160019055565b60016000526003602052610d29817fa15bc60c955c405d20d9149c709e2460f1c2d9a497496a7f46004d1772c3054c6112c8565b6112c8565b7f480000bb1edad8ca1470381cc334b1917fbd51c6531f3a623ea8e0ec7e38a6e9600080a4005b50303b15610c39565b606460405162461bcd60e51b815260206004820152601f60248201527f696e76616c696420617267756d656e74202d207a65726f2061646472657373006044820152fd5b9491936001600160a01b03610de1946108be9896610dd3948952602089015216604087015260c0606087015260c0860190610541565b908482036080860152610541565b9160a0818403910152610541565b503461000e57602060031936011261000e5760048035600090815260056020819052604091829020805460018201546002830154909591946102709490936003810193610e5c936001600160a01b031692610e6e92610e6892810191610e63910196885196878092611b08565b03866107fe565b6133bc565b936133bc565b935196879687610d9d565b503461000e57604060031936011261000e57602061064a602435600435613640565b503461000e57602060031936011261000e576004356000526002602052610270610ec86040600020611125565b604051918291602083526020830190610170565b15610ee357565b608460405162461bcd60e51b815260206004820152603360248201527f496e746572616374696e67207769746820746865206c69627261727920636f6e60448201527f747261637420697320666f7262696464656e2e000000000000000000000000006064820152fd5b90600182811c92168015610f7d575b6020831014610f6757565b634e487b7160e01b600052602260045260246000fd5b91607f1691610f5c565b91610fa39183549060031b600019811b9283911b169119161790565b9055565b818110610fb2575050565b60008155600101610fa7565b9190601f8111610fcd57505050565b610ff9926000526020600020906020601f840160051c83019310610ffb575b601f0160051c0190610fa7565b565b9091508190610fec565b919091825167ffffffffffffffff81116110d4575b61102e816110288454610f4d565b84610fbe565b602080601f831160011461106957508192939460009261105e575b50506000198260011b9260031b1c1916179055565b015190503880611049565b90601f1983169561107f85600052602060002090565b926000905b8882106110bc575050836001959697106110a3575b505050811b019055565b015160001960f88460031b161c19169055388080611099565b80600185968294968601518155019501930190611084565b6110dc6107aa565b61101a565b50634e487b7160e01b600052601160045260246000fd5b6001906000198114611108570190565b6111106110e1565b0190565b9060206108be928181520190610541565b9060405191828154918282526020928383019160005283600020936000905b82821061115a57505050610ff9925003836107fe565b855484526001958601958895509381019390910190611144565b9081602091031261000e57516108be81610799565b506040513d6000823e3d90fd5b1561119d57565b608460405162461bcd60e51b815260206004820152603060248201527f5065726d697373696f6e733a2053656e64657220646f6573206e6f742068617660448201527f65206d616e6167656d656e74206b6579000000000000000000000000000000006064820152fd5b80546001825580600110611219575050565b610ff991600052600160206000209182019101610fa7565b9061123b82611207565b906000526020908160002060005b600181106112575750505050565b82518282015591830191600101611249565b50634e487b7160e01b600052603260045260246000fd5b6020918151811015611295575b60051b010190565b61129d611269565b61128d565b80548210156112bb575b60005260206000200190600090565b6112c3611269565b6112ac565b6112ef610fa39180549068010000000000000000821015611308575b6001820181556112a2565b819391549060031b600019811b9283911b169119161790565b6113106107aa565b6112e4565b9081602091031261000e57516108be816105ff565b60209067ffffffffffffffff8111611344575b60051b0190565b61134c6107aa565b61133d565b602090818184031261000e5780519067ffffffffffffffff821161000e57019180601f8401121561000e5782516113878161132a565b9361139560405195866107fe565b818552838086019260051b82010192831161000e578301905b8282106113bc575050505090565b83809183516113ca81610799565b8152019101906113ae565b90602090818382031261000e57825167ffffffffffffffff9384821161000e57019281601f8501121561000e57835161140d8161132a565b9461141b60405196876107fe565b818652848087019260051b82010193841161000e578401905b83821061144357505050505090565b8151838116810361000e578152908401908401611434565b929091836002611475826000526002602052604060002090565b01540361185d57611498611493856000526002602052604060002090565b611125565b9160005b835181101561152f57846114b08286611280565b51146114c4576114bf906110f8565b61149c565b60405162461bcd60e51b815260206004820152602160248201527f436f6e666c6963743a204b657920616c72656164792068617320707572706f7360448201527f65000000000000000000000000000000000000000000000000000000000000006064820152608490fd5b50929093915061154d81610d24846000526002602052604060002090565b61156582610d24836000526003602052604060002090565b6040908151906000928682867f480000bb1edad8ca1470381cc334b1917fbd51c6531f3a623ea8e0ec7e38a6e98780a46115a96102d285546001600160a01b031690565b96631645536f60e11b84526020600494818187818d5afa908115611850575b8791611823575b506115e2575b5060019750505050505050565b8251630fffbaf360e01b81526001600160a01b039190818188818e5afa918215611816575b88926117f9575b5050169282519863e061646b60e01b8a52868a8781845afa998a156117ec575b879a6117c4575b50868691855192838092637b6b91c760e01b82525afa9081156117b7575b8791611795575b50865b8a5181101561177d57856116846102d2611677848f611280565b516001600160a01b031690565b03611698575b611693906110f8565b61165d565b8a6116c1611677836116bb6116ad8288611280565b5167ffffffffffffffff1690565b93611280565b90873b156117795786517fa6e308cd00000000000000000000000000000000000000000000000000000000815267ffffffffffffffff909116818a019081526001600160a01b039092166020830152306040830152606082018b90526080820185905260a0820186905261169392918a908290819060c0010381838c5af1801561176c575b611753575b50905061168a565b80611760611766926107c1565b80610536565b3861174b565b611774611189565b611746565b8980fd5b505050505050505050905080388080808080806115d5565b6117b191503d8089833e6117a981836107fe565b8101906113d5565b3861165a565b6117bf611189565b611653565b86919a506117e488913d8084833e6117dc81836107fe565b810190611351565b9a9150611635565b6117f4611189565b61162e565b61180f9250803d106103315761032381836107fe565b388061160e565b61181e611189565b611607565b6118439150823d8411611849575b61183b81836107fe565b810190611315565b386115cf565b503d611831565b611858611189565b6115c8565b929091816002611877826000526002602052604060002090565b01556118a0611884610821565b82815261189b846000526002602052604060002090565b611231565b8360016118b7846000526002602052604060002090565b015561154d565b6108be906118d8600160ff60075460081c16151514610edc565b611baf565b156118e457565b608460405162461bcd60e51b815260206004820152602760248201527f43616e6e6f7420617070726f76652061206e6f6e2d6578697374696e6720657860448201527f65637574696f6e000000000000000000000000000000000000000000000000006064820152fd5b1561195557565b606460405162461bcd60e51b815260206004820152601860248201527f5265717565737420616c726561647920657865637574656400000000000000006044820152fd5b156119a057565b606460405162461bcd60e51b815260206004820152601f60248201527f53656e64657220646f6573206e6f74206861766520616374696f6e206b6579006044820152fd5b156119eb57565b608460405162461bcd60e51b815260206004820152602360248201527f53656e64657220646f6573206e6f742068617665206d616e6167656d656e742060448201527f6b657900000000000000000000000000000000000000000000000000000000006064820152fd5b600092918154611a6481610f4d565b92600191808316908115611abd5750600114611a81575b50505050565b90919293945060005260209081600020906000915b858310611aac5750505050019038808080611a7b565b805485840152918301918101611a96565b60ff1916845250505081151590910201915038808080611a7b565b3d15611b03573d90611ae982610841565b91611af760405193846107fe565b82523d6000602084013e565b606090565b9060009291805491611b1983610f4d565b918282526001938481169081600014611b7a5750600114611b3a5750505050565b90919394506000526020928360002092846000945b838610611b66575050505001019038808080611a7b565b805485870183015294019385908201611b4f565b915050602094955060ff199193501683830152151560051b01019038808080611a7b565b9060206108be928181520190611b08565b611bbc60015482106118dd565b611beb611be6610c2e6003611bdb856000526004602052604060002090565b015460081c60ff1690565b61194e565b611c0f611c02826000526004602052604060002090565b546001600160a01b031690565b6001600160a01b03919082163003611e4057604080513360208201908152611c4892611c4392906102a19082908101610293565b6119e4565b807fb3932da477fe5d6c8ff2eafef050c0f3a1af18fc07121001482600f36f3715d860405180611c7d81906001602083019252565b0390a2611ca76003611c99836000526004602052604060002090565b01600160ff19825416179055565b600080611cc1611c02846000526004602052604060002090565b611cff6001611cda866000526004602052604060002090565b01546002611cf2876000526004602052604060002090565b0160405192838092611a55565b03925af1611d0b611ad8565b5015611dbd57611d3a6003611d2a836000526004602052604060002090565b0161010061ff0019825416179055565b611d51611c02826000526004602052604060002090565b907f1f920dbda597d7bf95035464170fa58d0a4b57f13a1c315ace6793b9f63688b86001611d89836000526004602052604060002090565b0154936002611da2846000526004602052604060002090565b0193611db5604051928392169582611b9e565b0390a4600190565b611dd4611c02826000526004602052604060002090565b907fe10c49d9f7c71da23262367013434763cfdb2332267641728d25cd712c5c6a686001611e0c836000526004602052604060002090565b0154936002611e25846000526004602052604060002090565b0193611e38604051928392169582611b9e565b0390a4600090565b604080513360208201908152611e6f92611e6a9290611e629082908101610293565b5190206135aa565b611999565b611c48565b90600191611e84835482106118dd565b611ea3611be6610c2e6003611bdb856000526004602052604060002090565b82611ebb611c02836000526004602052604060002090565b6001600160a01b0393908416300361209957604080513360208201908152611eef92611c4392906102a19082908101610293565b604051811515815283907fb3932da477fe5d6c8ff2eafef050c0f3a1af18fc07121001482600f36f3715d890602090a215150361206c57611f3f6003611c99836000526004602052604060002090565b600080611f59611c02846000526004602052604060002090565b611f7186611cda866000526004602052604060002090565b03925af1611f7d611ad8565b501561201c57611f9c6003611d2a836000526004602052604060002090565b611fb3611c02826000526004602052604060002090565b907f1f920dbda597d7bf95035464170fa58d0a4b57f13a1c315ace6793b9f63688b884611fea836000526004602052604060002090565b0154936002612003846000526004602052604060002090565b0193612016604051928392169582611b9e565b0390a490565b7fe10c49d9f7c71da23262367013434763cfdb2332267641728d25cd712c5c6a68612057611c02839594956000526004602052604060002090565b92611e0c836000526004602052604060002090565b612094925060039150612089906000526004602052604060002090565b0160ff198154169055565b600090565b6040805133602082019081526120bb92611e6a9290611e629082908101610293565b611eef565b156120c757565b608460405162461bcd60e51b815260206004820152602160248201527f4e6f6e4578697374696e673a204b65792069736e27742072656769737465726560448201527f64000000000000000000000000000000000000000000000000000000000000006064820152fd5b90600019820191821161214057565b610ff96110e1565b81519167ffffffffffffffff83116121d6575b6801000000000000000083116121c9575b81548383558084106121ab575b50602080910191600052806000209060005b848110612199575050505050565b8351838201559281019260010161218b565b6121c390836000528460206000209182019101610fa7565b38612179565b6121d16107aa565b61216c565b6121de6107aa565b61215b565b805490811561220d57600019809201916121fd83836112a2565b909182549160031b1b1916905555565b634e487b7160e01b600052603160045260246000fd5b600260009180548382558061223e575b508260018201550155565b8184526020842061225191810190610fa7565b38612233565b9161227a836002612272826000526002602052604060002090565b0154146120c0565b612291611493846000526002602052604060002090565b9260005b836122a08287611280565b5114612329576122af906110f8565b92838551146122be5792612295565b60405162461bcd60e51b815260206004820152602a60248201527f4e6f6e4578697374696e673a204b657920646f65736e2774206861766520737560448201527f636820707572706f7365000000000000000000000000000000000000000000006064820152608490fd5b939092919361234c61234461233e8451612131565b84611280565b519183611280565b5261236a81612365856000526002602052604060002090565b612148565b612386612381846000526002602052604060002090565b6121e3565b600082815260036020526040812054905b846123c26123b8836123b3886000526003602052604060002090565b6112a2565b90549060031b1c90565b14612732576123d0906110f8565b8181106123975761241d6124086123b8612423945b6124026123fc896000526003602052604060002090565b91612131565b906112a2565b916123b3866000526003602052604060002090565b90610f87565b61243a612381836000526003602052604060002090565b600192839161246083612457846000526002602052604060002090565b01549151612131565b15612711575b60409081519085847f585a4aef50f8267a92b32412b331b20f7f8b96f2245b253b9cc50dcc621d3397600080a46124a86102d26000546001600160a01b031690565b94631645536f60e11b82526020600492818185818b5afa908115612704575b6000916126e7575b506124df575b5050505050505090565b6001600160a01b03908451630fffbaf360e01b8152818186818c5afa9182156126da575b6000926126bd575b5050169083519663e061646b60e01b88526000888581845afa9788156126b0575b600098612690575b5060008491865192838092637b6b91c760e01b82525afa908115612683575b60009161266a575b506000875b61256c575b50506124d5565b885181101561266557836125866102d2611677848d611280565b0361259b575b612595906110f8565b87612560565b96506125aa6116ad8883611280565b6125b7611677898b611280565b97843b1561000e5786517ff82f1a4300000000000000000000000000000000000000000000000000000000815267ffffffffffffffff9092168287019081526001600160a01b0390991660208a01523060408a015260608901889052608089018490528a9861259592906000908290819060a0010381838a5af18015612658575b612645575b50905061258c565b80611760612652926107c1565b3861263d565b612660611189565b612638565b612565565b61267d913d8091833e6117a981836107fe565b3861255b565b61268b611189565b612553565b6126a860009186939a3d8091833e6117dc81836107fe565b989150612534565b6126b8611189565b61252c565b6126d39250803d106103315761032381836107fe565b388061250b565b6126e2611189565b612503565b6126fe9150823d84116118495761183b81836107fe565b386124cf565b61270c611189565b6124c7565b61272d612728836000526002602052604060002090565b612223565b612466565b61241d6124086123b8612423946123e5565b906108be9594939291612763600160ff60075460081c16151514610edc565b30331480156127ac575b8015612782575b61277d90612825565b6129bc565b5060408051336020820190815261277d926127a592906103b89082908101610293565b9050612774565b506001600160a01b03600460206127ce6102d26000546001600160a01b031690565b60405192838092630fffbaf360e01b82525afa908115612818575b6000916127fa575b5016331461276d565b612812915060203d81116103315761032381836107fe565b386127f1565b612820611189565b6127e9565b1561282c57565b608460405162461bcd60e51b815260206004820152603260248201527f5065726d697373696f6e733a2053656e64657220646f6573206e6f742068617660448201527f6520636c61696d207369676e6572206b657900000000000000000000000000006064820152fd5b926108be94926001600160a01b036128c1931685526020850152608060408501526080840190610541565b916060818403910152610541565b156128d657565b606460405162461bcd60e51b815260206004820152600d60248201527f696e76616c696420636c61696d000000000000000000000000000000000000006044820152fd5b9261293a6108be95936128c1938652608060208701526080860190610541565b908482036040860152610541565b979461299f946108be9a98949367ffffffffffffffff6129ad9994168b526001600160a01b03948580921660208d01521660408b015260608a015260808901521660a08701526101208060c0880152860190610541565b9084820360e0860152610541565b91610100818403910152610541565b919492946001600160a01b039182821694308603612de8575b604080516001600160a01b03851660208083019182528284018990529992939291612a038160608101610293565b519020998a9588612a1e886000526005602052604060002090565b55600199868b612a388a6000526005602052604060002090565b0155612a54836003610a6e8b6000526005602052604060002090565b8982600499612a72878c610a6e846000526005602052604060002090565b612a8c886005610a6e846000526005602052604060002090565b83612ab76102d26002612aa9856000526005602052604060002090565b01546001600160a01b031690565b14612dab57612aed81612add600293610d24612b21976000526006602052604060002090565b6000526005602052604060002090565b01906001600160a01b03167fffffffffffffffffffffffff0000000000000000000000000000000000000000825416179055565b898d7f46149b18aa084502c3f12bc75e19eda8bda8d102b82cce8474677a6d0d5f43c5858a612b568a8a8d519485948561291a565b0390a45b6000978b88612b736102d28c546001600160a01b031690565b9d8e895192838092631645536f60e11b82525afa908115612d9e575b8b91612d81575b50612bac575b5050505050505050505050505090565b88818e895192838092630fffbaf360e01b82525afa918215612d74575b8b92612d57575b5050169585519b63e061646b60e01b8d52898d8a81845afa9c8d15612d4a575b8a9d612d2a575b50898991885192838092637b6b91c760e01b82525afa908115612d1d575b8a91612d03575b50898c5b612c2b575b50612b9c565b8d51811015612cfe5788612c468f611677846102d292611280565b03612c5b575b612c55906110f8565b8c612c20565b8d612c70611677836116bb6116ad8288611280565b908a3b15612cfa578c8c8f92612c559594838f928f8f8f8f8f8f612cc295519c8d9b8c9a8b997ffc6a55a2000000000000000000000000000000000000000000000000000000008b5230928b01612948565b03925af18015612ced575b612cda575b509050612c4c565b80611760612ce7926107c1565b38612cd2565b612cf5611189565b612ccd565b8c80fd5b612c25565b612d1791503d808c833e6117a981836107fe565b38612c1c565b612d25611189565b612c15565b89919d50612d428b913d8084833e6117dc81836107fe565b9d9150612bf7565b612d52611189565b612bf0565b612d6d9250803d106103315761032381836107fe565b3880612bd0565b612d7c611189565b612bc9565b612d989150823d84116118495761183b81836107fe565b38612b96565b612da6611189565b612b8f565b90507f3bab293fc00db832d7619a9299914251b8747c036867ec056cbd506f60135b13858a612de08a8a8d519485948561291a565b0390a4612b5a565b6040517fc0969a6e000000000000000000000000000000000000000000000000000000008152612e419060208180612e268c8e8c3060048601612896565b03818b5afa908115612e64575b600091612e46575b506128cf565b6129d5565b612e5e915060203d81116118495761183b81836107fe565b38612e3b565b612e6c611189565b612e33565b92612e916108be9593612e9f938652608060208701526080860190611b08565b908482036040860152611b08565b916060818403910152611b08565b612eb78154610f4d565b9081612ec1575050565b81601f60009311600114612ed3575055565b81835260208320612eef91601f0160051c810190600101610fa7565b8160208120915555565b6005600091828155826001820155826002820155612f1960038201612ead565b612f2560048201612ead565b01612f308154610f4d565b80612f3a57505050565b601f8111600114612ed3575055565b612f5d816000526005602052604060002090565b54801561335157600081815260066020526040812054905b83612f916123b8836123b3876000526006602052604060002090565b1461333f57612f9f906110f8565b818110612f755761241d612fcb6123b8612fe0945b6124026123fc886000526006602052604060002090565b916123b3856000526006602052604060002090565b612ff7612381826000526006602052604060002090565b6001828161301081956000526005602052604060002090565b01549261302c6002612aa9846000526005602052604060002090565b906003613043846000526005602052604060002090565b0194600491847f3cf57863a89432c61c4a27073c6ee39e8a764bff5a05aebfbcdcdc80b2e6130a8461307f836000526005602052604060002090565b016005613096846000526005602052604060002090565b01996130b560409b8c519384936001600160a01b03809c169985612e71565b0390a46130d46130cf846000526005602052604060002090565b612ef9565b6130e96102d26000546001600160a01b031690565b918551631645536f60e11b815260209081818581885afa908115613332575b600091613315575b5061311f575050505050505090565b8651630fffbaf360e01b815281818581885afa918215613308575b6000926132eb575b50501685519263e061646b60e01b84526000848481845afa9384156132de575b6000946132be575b5060008391885192838092637b6b91c760e01b82525afa9081156132b1575b600091613298575b506000865b6131a1575b506124d5565b845181101561329357826131bb6102d26116778489611280565b036131d0575b6131ca906110f8565b86613196565b95506131df6116ad8783611280565b956131ed6116778287611280565b90833b1561000e5788517f9f9b264100000000000000000000000000000000000000000000000000000000815267ffffffffffffffff9098168589019081526001600160a01b0390921660208301523060408301526060820187905289976131ca9260009082908190608001038183895af18015613286575b613273575b5090506131c1565b80611760613280926107c1565b3861326b565b61328e611189565b613266565b61319b565b6132ab913d8091833e6117a981836107fe565b38613191565b6132b9611189565b613189565b6132d66000918593963d8091833e6117dc81836107fe565b94915061316a565b6132e6611189565b613162565b6133019250803d106103315761032381836107fe565b3880613142565b613310611189565b61313a565b61332c9150823d84116118495761183b81836107fe565b38613110565b61333a611189565b613108565b61241d612fcb6123b8612fe094612fb4565b60405162461bcd60e51b815260206004820152602b60248201527f4e6f6e4578697374696e673a205468657265206973206e6f20636c61696d207760448201527f69746820746869732049440000000000000000000000000000000000000000006064820152608490fd5b90610ff96133d09260405193848092611b08565b03836107fe565b600052600260205260406000206040516133f0816107e2565b6133f982611125565b8152600260019283810154602084015201548060408301521561346d57600090825b613428575b505050600090565b80519182518110156134675783613440828295611280565b51148015613462575b61345c57613456906110f8565b9161341b565b50505090565b613449565b50613420565b5050600090565b6000526002602052604060002060405161348d816107e2565b61349682611125565b8152600260019283810154602084015201548060408301521561346d57600090825b6134c457505050600090565b8051918251811015613467576134db818594611280565b518381149081156134fb575b5061345c576134f5906110f8565b916134b8565b6003915014386134e7565b60005260028060205260406000209060405190613522826107e2565b61352b83611125565b82528060019384810154602085015201548060408401521561342057600091835b61355a575b50505050600090565b80519283518110156135a457613571818695611280565b518385821491821561359a575b50506135935761358d906110f8565b9261354c565b5050505090565b149050833861357e565b50613551565b600052600280602052604060002090604051906135c6826107e2565b6135cf83611125565b82528060019384810154602085015201548060408401521561342057600091835b6135fd5750505050600090565b80519283518110156135a457613614818695611280565b5183858214918215613636575b505061359357613630906110f8565b926135f0565b1490508338613621565b60005260026020526040600020906040519061365b826107e2565b61366483611125565b8252600260019384810154602085015201548060408401521561342057600091835b6136935750505050600090565b80519283518110156135a4576136aa818695611280565b51838582149182156136cc575b5050613593576136c6906110f8565b92613686565b14905083386136b7565b9161379d93926137799261370e6040519586926001600160a01b03602085019516855260408401526060808401526080830190610541565b0393613722601f19958681018352826107fe565b51902060405161377081613764602082019485603c917f19457468657265756d205369676e6564204d6573736167653a0a3332000000008252601c8201520190565b038681018352826107fe565b519020906137ab565b604080516001600160a01b0390921660208301908152926103b89183908101610b1b565b6137a657600090565b600190565b90600091604181510361382a576000918160209460ff8660809501519160606040850151940151901a601b8110613812575b60405194855216868401526040830152606082015282805260015afa15613805575b60005190565b61380d611189565b6137ff565b601b01818111156137dd576138256110e1565b6137dd565b505090565b1561383657565b606460405162461bcd60e51b815260206004820152601e60248201527f496e697469616c206b65792077617320616c72656164792073657475702e00006044820152fd5b9061388482611207565b906000526020908160002060005b600181106138a05750505050565b825160ff16828201559183019160010161389256fea2646970667358221220c212866b368e792d2736e9fe5c1e870daf241798300013372a189e885fbeee6964736f6c63430008110033",
  "devdoc": {
    "details": "Implementation of the `IERC734` \"KeyHolder\" and the `IERC735` \"ClaimHolder\" interfaces into a common Identity Contract. This implementation has a separate contract were it declares all storage, allowing for it to be used as an upgradable logic contract.",
    "kind": "dev",
    "methods": {
      "addClaim(uint256,uint256,address,bytes,bytes,string)": {
        "details": "See {IERC735-addClaim}.",
        "params": {
          "_data": "The hash of the claim data, sitting in another location, a bit-mask, call data, or actual data based on the claim scheme.",
          "_issuer": "The issuers identity contract address, or the address used to sign the above signature.",
          "_scheme": "The scheme with which this claim SHOULD be verified or how it should be processed.",
          "_signature": "Signature which is the proof that the claim issuer issued a claim of topic for this identity. it MUST be a signed message of the following structure: keccak256(abi.encode(address identityHolder_address, uint256 _ topic, bytes data))",
          "_topic": "The type of claim",
          "_uri": "The location of the claim, this can be HTTP links, swarm hashes, IPFS hashes, and such."
        },
        "returns": {
          "claimRequestId": "Returns claimRequestId: COULD be send to the approve function, to approve or reject this claim. triggers ClaimAdded event."
        }
      },
      "addKey(bytes32,uint256,uint256)": {
        "params": {
          "_key": "keccak256 representation of an ethereum address",
          "_purpose": "a uint256 specifying the key type, like 1 = MANAGEMENT, 2 = ACTION, 3 = CLAIM, 4 = ENCRYPTION",
          "_type": "type of key used, which would be a uint256 for different key types. e.g. 1 = ECDSA, 2 = RSA, etc."
        },
        "returns": {
          "success": "Returns TRUE if the addition was successful and FALSE if not"
        }
      },
      "approve(uint256,bool)": {
        "details": "See {IERC734-approve}."
      },
      "constructor": {
        "params": {
          "_isLibrary": "boolean value stating if the contract is library or not calls __Identity_init if contract is not library",
          "initialManagementKey": "the address of the management key at deployment"
        }
      },
      "execute(address,uint256,bytes)": {
        "details": "See {IERC734-execute}.",
        "returns": {
          "executionId": "to use in the approve function, to approve or reject this execution."
        }
      },
      "getClaim(bytes32)": {
        "details": "See {IERC735-getClaim}.",
        "params": {
          "_claimId": "The identity of the claim i.e. keccak256(abi.encode(_issuer, _topic))"
        },
        "returns": {
          "data": "Returns all the parameters of the claim for the specified _claimId (topic, scheme, signature, issuer, data, uri) .",
          "issuer": "Returns all the parameters of the claim for the specified _claimId (topic, scheme, signature, issuer, data, uri) .",
          "scheme": "Returns all the parameters of the claim for the specified _claimId (topic, scheme, signature, issuer, data, uri) .",
          "signature": "Returns all the parameters of the claim for the specified _claimId (topic, scheme, signature, issuer, data, uri) .",
          "topic": "Returns all the parameters of the claim for the specified _claimId (topic, scheme, signature, issuer, data, uri) .",
          "uri": "Returns all the parameters of the claim for the specified _claimId (topic, scheme, signature, issuer, data, uri) ."
        }
      },
      "getClaimIdsByTopic(uint256)": {
        "details": "See {IERC735-getClaimIdsByTopic}.",
        "params": {
          "_topic": "The identity of the claim i.e. keccak256(abi.encode(_issuer, _topic))"
        },
        "returns": {
          "claimIds": "Returns an array of claim IDs by topic."
        }
      },
      "getKey(bytes32)": {
        "details": "See {IERC734-getKey}.",
        "params": {
          "_key": "The public key.  for non-hex and long keys, its the Keccak256 hash of the key"
        },
        "returns": {
          "key": "Returns the full key data, if present in the identity.",
          "keyType": "Returns the full key data, if present in the identity.",
          "purposes": "Returns the full key data, if present in the identity."
        }
      },
      "getKeyPurposes(bytes32)": {
        "details": "See {IERC734-getKeyPurposes}.",
        "params": {
          "_key": "The public key.  for non-hex and long keys, its the Keccak256 hash of the key"
        },
        "returns": {
          "_purposes": "Returns the purposes of the specified key"
        }
      },
      "getKeysByPurpose(uint256)": {
        "details": "See {IERC734-getKeysByPurpose}.",
        "params": {
          "_purpose": "a uint256[] Array of the key types, like 1 = MANAGEMENT, 2 = ACTION, 3 = CLAIM, 4 = ENCRYPTION"
        },
        "returns": {
          "keys": "Returns an array of public key bytes32 hold by this identity and having the specified purpose"
        }
      },
      "getRecoveredAddress(bytes,bytes32)": {
        "details": "returns the address that signed the given data",
        "params": {
          "dataHash": "the data that was signed returns the address that signed dataHash and created the signature sig",
          "sig": "the signature of the data"
        }
      },
      "initialize(address)": {
        "params": {
          "initialManagementKey": "The ethereum address to be set as the management key of the ONCHAINID."
        }
      },
      "isClaimValid(address,uint256,bytes,bytes)": {
        "details": "Checks if a claim is valid. Claims issued by the identity are self-attested claims. They do not have a built-in revocation mechanism and are considered valid as long as their signature is valid and they are still stored by the identity contract.",
        "params": {
          "_identity": "the identity contract related to the claim",
          "claimTopic": "the claim topic of the claim",
          "data": "the data field of the claim",
          "sig": "the signature of the claim"
        },
        "returns": {
          "claimValid": "true if the claim is valid, false otherwise"
        }
      },
      "keyHasPurpose(bytes32,uint256)": {
        "details": "See {IERC734-keyHasPurpose}."
      },
      "removeClaim(bytes32)": {
        "details": "See {IERC735-removeClaim}.",
        "params": {
          "_claimId": "The identity of the claim i.e. keccak256(abi.encode(_issuer, _topic))"
        },
        "returns": {
          "success": "Returns TRUE when the claim was removed. triggers ClaimRemoved event"
        }
      },
      "removeKey(bytes32,uint256)": {
        "details": "See {IERC734-removeKey}."
      },
      "version()": {
        "details": "Returns the string of the current version."
      }
    },
    "version": 1
  },
  "userdoc": {
    "kind": "user",
    "methods": {
      "addClaim(uint256,uint256,address,bytes,bytes,string)": {
        "notice": "Implementation of the addClaim function from the ERC-735 standard  Require that the msg.sender has claim signer key."
      },
      "addKey(bytes32,uint256,uint256)": {
        "notice": "implementation of the addKey function of the ERC-734 standard Adds a _key to the identity. The _purpose specifies the purpose of key. Initially we propose four purposes: 1: MANAGEMENT keys, which can manage the identity 2: ACTION keys, which perform actions in this identities name (signing, logins, transactions, etc.) 3: CLAIM signer keys, used to sign claims on other identities which need to be revokable. 4: ENCRYPTION keys, used to encrypt data e.g. hold in claims. MUST only be done by keys of purpose 1, or the identity itself. If its the identity itself, the approval process will determine its approval."
      },
      "approve(uint256,bool)": {
        "notice": "Approves an execution.  If the sender is an ACTION key and the destination address is not the identity contract itself, then the  approval is authorized and the operation would be performed.  If the destination address is the identity itself, then the execution would be authorized and performed only  if the sender is a MANAGEMENT key."
      },
      "constructor": {
        "notice": "constructor of the Identity contract"
      },
      "execute(address,uint256,bytes)": {
        "notice": "Passes an execution instruction to the keymanager. If the sender is an ACTION key and the destination address is not the identity contract itself, then the execution is immediately approved and performed. If the destination address is the identity itself, then the execution would be performed immediately only if the sender is a MANAGEMENT key. Otherwise the execution request must be approved via the `approve` method."
      },
      "getClaim(bytes32)": {
        "notice": "Implementation of the getClaim function from the ERC-735 standard."
      },
      "getClaimIdsByTopic(uint256)": {
        "notice": "Implementation of the getClaimIdsByTopic function from the ERC-735 standard. used to get all the claims from the specified topic"
      },
      "getKey(bytes32)": {
        "notice": "Implementation of the getKey function from the ERC-734 standard"
      },
      "getKeyPurposes(bytes32)": {
        "notice": "gets the purposes of a key"
      },
      "getKeysByPurpose(uint256)": {
        "notice": "gets all the keys with a specific purpose from an identity"
      },
      "initialize(address)": {
        "notice": "When using this contract as an implementation for a proxy, call this initializer with a delegatecall."
      },
      "keyHasPurpose(bytes32,uint256)": {
        "notice": "Returns true if the key has MANAGEMENT purpose or the specified purpose."
      },
      "removeClaim(bytes32)": {
        "notice": "Implementation of the removeClaim function from the ERC-735 standard Require that the msg.sender has management key. Can only be removed by the claim issuer, or the claim holder itself."
      },
      "removeKey(bytes32,uint256)": {
        "notice": "Remove the purpose from a key."
      }
    },
    "version": 1
  },
  "storageLayout": {
    "storage": [
      {
        "astId": 6765,
        "contract": "src/Identity.sol:Identity",
        "label": "idFactory",
        "offset": 0,
        "slot": "0",
        "type": "t_contract(IdFactory)5598"
      },
      {
        "astId": 6767,
        "contract": "src/Identity.sol:Identity",
        "label": "_executionNonce",
        "offset": 0,
        "slot": "1",
        "type": "t_uint256"
      },
      {
        "astId": 6772,
        "contract": "src/Identity.sol:Identity",
        "label": "_keys",
        "offset": 0,
        "slot": "2",
        "type": "t_mapping(t_bytes32,t_struct(Key)6814_storage)"
      },
      {
        "astId": 6777,
        "contract": "src/Identity.sol:Identity",
        "label": "_keysByPurpose",
        "offset": 0,
        "slot": "3",
        "type": "t_mapping(t_uint256,t_array(t_bytes32)dyn_storage)"
      },
      {
        "astId": 6782,
        "contract": "src/Identity.sol:Identity",
        "label": "_executions",
        "offset": 0,
        "slot": "4",
        "type": "t_mapping(t_uint256,t_struct(Execution)6825_storage)"
      },
      {
        "astId": 6787,
        "contract": "src/Identity.sol:Identity",
        "label": "_claims",
        "offset": 0,
        "slot": "5",
        "type": "t_mapping(t_bytes32,t_struct(Claim)6838_storage)"
      },
      {
        "astId": 6792,
        "contract": "src/Identity.sol:Identity",
        "label": "_claimsByTopic",
        "offset": 0,
        "slot": "6",
        "type": "t_mapping(t_uint256,t_array(t_bytes32)dyn_storage)"
      },
      {
        "astId": 6795,
        "contract": "src/Identity.sol:Identity",
        "label": "_initialized",
        "offset": 0,
        "slot": "7",
        "type": "t_bool"
      },
      {
        "astId": 6798,
        "contract": "src/Identity.sol:Identity",
        "label": "_canInteract",
        "offset": 1,
        "slot": "7",
        "type": "t_bool"
      },
      {
        "astId": 6803,
        "contract": "src/Identity.sol:Identity",
        "label": "__gap",
        "offset": 0,
        "slot": "8",
        "type": "t_array(t_uint256)49_storage"
      }
    ],
    "types": {
      "t_address": {
        "encoding": "inplace",
        "label": "address",
        "numberOfBytes": "20"
      },
      "t_array(t_bytes32)dyn_storage": {
        "base": "t_bytes32",
        "encoding": "dynamic_array",
        "label": "bytes32[]",
        "numberOfBytes": "32"
      },
      "t_array(t_uint256)49_storage": {
        "base": "t_uint256",
        "encoding": "inplace",
        "label": "uint256[49]",
        "numberOfBytes": "1568"
      },
      "t_array(t_uint256)dyn_storage": {
        "base": "t_uint256",
        "encoding": "dynamic_array",
        "label": "uint256[]",
        "numberOfBytes": "32"
      },
      "t_bool": {
        "encoding": "inplace",
        "label": "bool",
        "numberOfBytes": "1"
      },
      "t_bytes32": {
        "encoding": "inplace",
        "label": "bytes32",
        "numberOfBytes": "32"
      },
      "t_bytes_storage": {
        "encoding": "bytes",
        "label": "bytes",
        "numberOfBytes": "32"
      },
      "t_contract(IdFactory)5598": {
        "encoding": "inplace",
        "label": "contract IdFactory",
        "numberOfBytes": "20"
      },
      "t_mapping(t_bytes32,t_struct(Claim)6838_storage)": {
        "encoding": "mapping",
        "key": "t_bytes32",
        "label": "mapping(bytes32 => struct Structs.Claim)",
        "numberOfBytes": "32",
        "value": "t_struct(Claim)6838_storage"
      },
      "t_mapping(t_bytes32,t_struct(Key)6814_storage)": {
        "encoding": "mapping",
        "key": "t_bytes32",
        "label": "mapping(bytes32 => struct Structs.Key)",
        "numberOfBytes": "32",
        "value": "t_struct(Key)6814_storage"
      },
      "t_mapping(t_uint256,t_array(t_bytes32)dyn_storage)": {
        "encoding": "mapping",
        "key": "t_uint256",
        "label": "mapping(uint256 => bytes32[])",
        "numberOfBytes": "32",
        "value": "t_array(t_bytes32)dyn_storage"
      },
      "t_mapping(t_uint256,t_struct(Execution)6825_storage)": {
        "encoding": "mapping",
        "key": "t_uint256",
        "label": "mapping(uint256 => struct Structs.Execution)",
        "numberOfBytes": "32",
        "value": "t_struct(Execution)6825_storage"
      },
      "t_string_storage": {
        "encoding": "bytes",
        "label": "string",
        "numberOfBytes": "32"
      },
      "t_struct(Claim)6838_storage": {
        "encoding": "inplace",
        "label": "struct Structs.Claim",
        "members": [
          {
            "astId": 6827,
            "contract": "src/Identity.sol:Identity",
            "label": "topic",
            "offset": 0,
            "slot": "0",
            "type": "t_uint256"
          },
          {
            "astId": 6829,
            "contract": "src/Identity.sol:Identity",
            "label": "scheme",
            "offset": 0,
            "slot": "1",
            "type": "t_uint256"
          },
          {
            "astId": 6831,
            "contract": "src/Identity.sol:Identity",
            "label": "issuer",
            "offset": 0,
            "slot": "2",
            "type": "t_address"
          },
          {
            "astId": 6833,
            "contract": "src/Identity.sol:Identity",
            "label": "signature",
            "offset": 0,
            "slot": "3",
            "type": "t_bytes_storage"
          },
          {
            "astId": 6835,
            "contract": "src/Identity.sol:Identity",
            "label": "data",
            "offset": 0,
            "slot": "4",
            "type": "t_bytes_storage"
          },
          {
            "astId": 6837,
            "contract": "src/Identity.sol:Identity",
            "label": "uri",
            "offset": 0,
            "slot": "5",
            "type": "t_string_storage"
          }
        ],
        "numberOfBytes": "192"
      },
      "t_struct(Execution)6825_storage": {
        "encoding": "inplace",
        "label": "struct Structs.Execution",
        "members": [
          {
            "astId": 6816,
            "contract": "src/Identity.sol:Identity",
            "label": "to",
            "offset": 0,
            "slot": "0",
            "type": "t_address"
          },
          {
            "astId": 6818,
            "contract": "src/Identity.sol:Identity",
            "label": "value",
            "offset": 0,
            "slot": "1",
            "type": "t_uint256"
          },
          {
            "astId": 6820,
            "contract": "src/Identity.sol:Identity",
            "label": "data",
            "offset": 0,
            "slot": "2",
            "type": "t_bytes_storage"
          },
          {
            "astId": 6822,
            "contract": "src/Identity.sol:Identity",
            "label": "approved",
            "offset": 0,
            "slot": "3",
            "type": "t_bool"
          },
          {
            "astId": 6824,
            "contract": "src/Identity.sol:Identity",
            "label": "executed",
            "offset": 1,
            "slot": "3",
            "type": "t_bool"
          }
        ],
        "numberOfBytes": "128"
      },
      "t_struct(Key)6814_storage": {
        "encoding": "inplace",
        "label": "struct Structs.Key",
        "members": [
          {
            "astId": 6809,
            "contract": "src/Identity.sol:Identity",
            "label": "purposes",
            "offset": 0,
            "slot": "0",
            "type": "t_array(t_uint256)dyn_storage"
          },
          {
            "astId": 6811,
            "contract": "src/Identity.sol:Identity",
            "label": "keyType",
            "offset": 0,
            "slot": "1",
            "type": "t_uint256"
          },
          {
            "astId": 6813,
            "contract": "src/Identity.sol:Identity",
            "label": "key",
            "offset": 0,
            "slot": "2",
            "type": "t_bytes32"
          }
        ],
        "numberOfBytes": "96"
      },
      "t_uint256": {
        "encoding": "inplace",
        "label": "uint256",
        "numberOfBytes": "32"
      }
    }
  }
}