{
  "address": "0x90D7d522fa1EAe50c97b0B669f0d9Db2bcfFdb94",
  "abi": [
    {
      "inputs": [
        {
          "internalType": "address",
          "name": "_owner",
          "type": "address"
        },
        {
          "internalType": "address",
          "name": "implementationAuthority",
          "type": "address"
        },
        {
          "internalType": "bool",
          "name": "isHomeChain",
          "type": "bool"
        }
      ],
      "stateMutability": "nonpayable",
      "type": "constructor"
    },
    {
      "anonymous": false,
      "inputs": [
        {
          "indexed": true,
          "internalType": "address",
          "name": "user",
          "type": "address"
        },
        {
          "indexed": true,
          "internalType": "uint256",
          "name": "topic",
          "type": "uint256"
        },
        {
          "indexed": false,
          "internalType": "uint256",
          "name": "scheme",
          "type": "uint256"
        },
        {
          "indexed": true,
          "internalType": "address",
          "name": "issuer",
          "type": "address"
        },
        {
          "indexed": false,
          "internalType": "bytes",
          "name": "signature",
          "type": "bytes"
        },
        {
          "indexed": false,
          "internalType": "bytes",
          "name": "data",
          "type": "bytes"
        },
        {
          "indexed": false,
          "internalType": "string",
          "name": "uri",
          "type": "string"
        }
      ],
      "name": "AddedClaim",
      "type": "event"
    },
    {
      "anonymous": false,
      "inputs": [
        {
          "indexed": false,
          "internalType": "address",
          "name": "user",
          "type": "address"
        },
        {
          "indexed": true,
          "internalType": "bytes32",
          "name": "key",
          "type": "bytes32"
        },
        {
          "indexed": true,
          "internalType": "uint256",
          "name": "purpose",
          "type": "uint256"
        },
        {
          "indexed": true,
          "internalType": "uint256",
          "name": "keyType",
          "type": "uint256"
        }
      ],
      "name": "AddedKey",
      "type": "event"
    },
    {
      "anonymous": false,
      "inputs": [
        {
          "indexed": true,
          "internalType": "address",
          "name": "_address",
          "type": "address"
        },
        {
          "indexed": true,
          "internalType": "uint64",
          "name": "_type",
          "type": "uint64"
        },
        {
          "indexed": true,
          "internalType": "bool",
          "name": "_status",
          "type": "bool"
        }
      ],
      "name": "AllowedAddress",
      "type": "event"
    },
    {
      "anonymous": false,
      "inputs": [
        {
          "indexed": true,
          "internalType": "address",
          "name": "_addr",
          "type": "address"
        }
      ],
      "name": "Deployed",
      "type": "event"
    },
    {
      "anonymous": false,
      "inputs": [
        {
          "indexed": true,
          "internalType": "address",
          "name": "previousOwner",
          "type": "address"
        },
        {
          "indexed": true,
          "internalType": "address",
          "name": "newOwner",
          "type": "address"
        }
      ],
      "name": "OwnershipTransferred",
      "type": "event"
    },
    {
      "anonymous": false,
      "inputs": [
        {
          "indexed": false,
          "internalType": "uint64",
          "name": "chainSelector",
          "type": "uint64"
        },
        {
          "indexed": false,
          "internalType": "address",
          "name": "receiver",
          "type": "address"
        },
        {
          "indexed": false,
          "internalType": "address",
          "name": "gateway",
          "type": "address"
        }
      ],
      "name": "ReceiverAdded",
      "type": "event"
    },
    {
      "anonymous": false,
      "inputs": [
        {
          "indexed": false,
          "internalType": "uint64",
          "name": "chainSelector",
          "type": "uint64"
        }
      ],
      "name": "ReceiverRemoved",
      "type": "event"
    },
    {
      "anonymous": false,
      "inputs": [
        {
          "indexed": true,
          "internalType": "address",
          "name": "factory",
          "type": "address"
        }
      ],
      "name": "TokenFactoryAdded",
      "type": "event"
    },
    {
      "anonymous": false,
      "inputs": [
        {
          "indexed": true,
          "internalType": "address",
          "name": "factory",
          "type": "address"
        }
      ],
      "name": "TokenFactoryRemoved",
      "type": "event"
    },
    {
      "anonymous": false,
      "inputs": [
        {
          "indexed": true,
          "internalType": "address",
          "name": "token",
          "type": "address"
        },
        {
          "indexed": true,
          "internalType": "address",
          "name": "identity",
          "type": "address"
        }
      ],
      "name": "TokenLinked",
      "type": "event"
    },
    {
      "anonymous": false,
      "inputs": [
        {
          "indexed": true,
          "internalType": "address",
          "name": "wallet",
          "type": "address"
        },
        {
          "indexed": true,
          "internalType": "address",
          "name": "identity",
          "type": "address"
        }
      ],
      "name": "WalletLinked",
      "type": "event"
    },
    {
      "anonymous": false,
      "inputs": [
        {
          "indexed": true,
          "internalType": "address",
          "name": "wallet",
          "type": "address"
        },
        {
          "indexed": true,
          "internalType": "address",
          "name": "identity",
          "type": "address"
        }
      ],
      "name": "WalletUnlinked",
      "type": "event"
    },
    {
      "inputs": [],
      "name": "_isHomeChain",
      "outputs": [
        {
          "internalType": "bool",
          "name": "",
          "type": "bool"
        }
      ],
      "stateMutability": "view",
      "type": "function"
    },
    {
      "inputs": [
        {
          "internalType": "uint64",
          "name": "_chainSelector",
          "type": "uint64"
        },
        {
          "internalType": "address",
          "name": "_receiver",
          "type": "address"
        },
        {
          "internalType": "address",
          "name": "_gateway",
          "type": "address"
        }
      ],
      "name": "addReceiver",
      "outputs": [],
      "stateMutability": "nonpayable",
      "type": "function"
    },
    {
      "inputs": [
        {
          "internalType": "address",
          "name": "_factory",
          "type": "address"
        }
      ],
      "name": "addTokenFactory",
      "outputs": [],
      "stateMutability": "nonpayable",
      "type": "function"
    },
    {
      "inputs": [
        {
          "internalType": "bool",
          "name": "isTrue",
          "type": "bool"
        },
        {
          "internalType": "uint256",
          "name": "_topic",
          "type": "uint256"
        },
        {
          "internalType": "uint256",
          "name": "_scheme",
          "type": "uint256"
        },
        {
          "internalType": "address",
          "name": "_issuer",
          "type": "address"
        },
        {
          "internalType": "bytes",
          "name": "_signature",
          "type": "bytes"
        },
        {
          "internalType": "bytes",
          "name": "_data",
          "type": "bytes"
        },
        {
          "internalType": "string",
          "name": "_uri",
          "type": "string"
        }
      ],
      "name": "addedClaim",
      "outputs": [],
      "stateMutability": "nonpayable",
      "type": "function"
    },
    {
      "inputs": [
        {
          "internalType": "bool",
          "name": "isTrue",
          "type": "bool"
        },
        {
          "internalType": "bytes32",
          "name": "_key",
          "type": "bytes32"
        },
        {
          "internalType": "uint256",
          "name": "_purpose",
          "type": "uint256"
        },
        {
          "internalType": "uint256",
          "name": "_type",
          "type": "uint256"
        }
      ],
      "name": "addedKey",
      "outputs": [],
      "stateMutability": "nonpayable",
      "type": "function"
    },
    {
      "inputs": [],
      "name": "bridge",
      "outputs": [
        {
          "internalType": "address",
          "name": "",
          "type": "address"
        }
      ],
      "stateMutability": "view",
      "type": "function"
    },
    {
      "inputs": [
        {
          "internalType": "address",
          "name": "_wallet",
          "type": "address"
        },
        {
          "internalType": "string",
          "name": "_salt",
          "type": "string"
        }
      ],
      "name": "createIdentity",
      "outputs": [
        {
          "internalType": "address",
          "name": "identity",
          "type": "address"
        }
      ],
      "stateMutability": "nonpayable",
      "type": "function"
    },
    {
      "inputs": [
        {
          "internalType": "address",
          "name": "_wallet",
          "type": "address"
        },
        {
          "internalType": "string",
          "name": "_salt",
          "type": "string"
        },
        {
          "internalType": "bytes32[]",
          "name": "_managementKeys",
          "type": "bytes32[]"
        }
      ],
      "name": "createIdentityWithManagementKeys",
      "outputs": [
        {
          "internalType": "address",
          "name": "",
          "type": "address"
        }
      ],
      "stateMutability": "nonpayable",
      "type": "function"
    },
    {
      "inputs": [
        {
          "internalType": "address",
          "name": "_token",
          "type": "address"
        },
        {
          "internalType": "address",
          "name": "_tokenOwner",
          "type": "address"
        },
        {
          "internalType": "string",
          "name": "_salt",
          "type": "string"
        }
      ],
      "name": "createTokenIdentity",
      "outputs": [
        {
          "internalType": "address",
          "name": "",
          "type": "address"
        }
      ],
      "stateMutability": "nonpayable",
      "type": "function"
    },
    {
      "inputs": [
        {
          "internalType": "uint64",
          "name": "",
          "type": "uint64"
        }
      ],
      "name": "destinationChainSelectorToGateway",
      "outputs": [
        {
          "internalType": "address",
          "name": "",
          "type": "address"
        }
      ],
      "stateMutability": "view",
      "type": "function"
    },
    {
      "inputs": [
        {
          "internalType": "uint64",
          "name": "",
          "type": "uint64"
        }
      ],
      "name": "destinationChainSelectorToReceiver",
      "outputs": [
        {
          "internalType": "address",
          "name": "",
          "type": "address"
        }
      ],
      "stateMutability": "view",
      "type": "function"
    },
    {
      "inputs": [],
      "name": "getBridge",
      "outputs": [
        {
          "internalType": "address",
          "name": "",
          "type": "address"
        }
      ],
      "stateMutability": "view",
      "type": "function"
    },
    {
      "inputs": [],
      "name": "getChainSelectors",
      "outputs": [
        {
          "internalType": "uint64[]",
          "name": "",
          "type": "uint64[]"
        }
      ],
      "stateMutability": "view",
      "type": "function"
    },
    {
      "inputs": [
        {
          "internalType": "uint64",
          "name": "_chainSelector",
          "type": "uint64"
        }
      ],
      "name": "getGateway",
      "outputs": [
        {
          "internalType": "address",
          "name": "",
          "type": "address"
        }
      ],
      "stateMutability": "view",
      "type": "function"
    },
    {
      "inputs": [
        {
          "internalType": "address",
          "name": "_wallet",
          "type": "address"
        }
      ],
      "name": "getIdentity",
      "outputs": [
        {
          "internalType": "address",
          "name": "",
          "type": "address"
        }
      ],
      "stateMutability": "view",
      "type": "function"
    },
    {
      "inputs": [
        {
          "internalType": "uint64",
          "name": "_chainSelector",
          "type": "uint64"
        }
      ],
      "name": "getReceiver",
      "outputs": [
        {
          "internalType": "address",
          "name": "",
          "type": "address"
        }
      ],
      "stateMutability": "view",
      "type": "function"
    },
    {
      "inputs": [],
      "name": "getReceivers",
      "outputs": [
        {
          "internalType": "address[]",
          "name": "",
          "type": "address[]"
        }
      ],
      "stateMutability": "view",
      "type": "function"
    },
    {
      "inputs": [
        {
          "internalType": "address",
          "name": "_identity",
          "type": "address"
        }
      ],
      "name": "getToken",
      "outputs": [
        {
          "internalType": "address",
          "name": "",
          "type": "address"
        }
      ],
      "stateMutability": "view",
      "type": "function"
    },
    {
      "inputs": [
        {
          "internalType": "address",
          "name": "_identity",
          "type": "address"
        }
      ],
      "name": "getWallets",
      "outputs": [
        {
          "internalType": "address[]",
          "name": "",
          "type": "address[]"
        }
      ],
      "stateMutability": "view",
      "type": "function"
    },
    {
      "inputs": [
        {
          "internalType": "address",
          "name": "_identity",
          "type": "address"
        }
      ],
      "name": "identityIsCreated",
      "outputs": [
        {
          "internalType": "bool",
          "name": "",
          "type": "bool"
        }
      ],
      "stateMutability": "view",
      "type": "function"
    },
    {
      "inputs": [],
      "name": "implementationAuthority",
      "outputs": [
        {
          "internalType": "address",
          "name": "",
          "type": "address"
        }
      ],
      "stateMutability": "view",
      "type": "function"
    },
    {
      "inputs": [
        {
          "internalType": "address",
          "name": "",
          "type": "address"
        }
      ],
      "name": "isAllowedContract",
      "outputs": [
        {
          "internalType": "bool",
          "name": "",
          "type": "bool"
        }
      ],
      "stateMutability": "view",
      "type": "function"
    },
    {
      "inputs": [
        {
          "internalType": "address",
          "name": "",
          "type": "address"
        }
      ],
      "name": "isCreatedIdentity",
      "outputs": [
        {
          "internalType": "bool",
          "name": "",
          "type": "bool"
        }
      ],
      "stateMutability": "view",
      "type": "function"
    },
    {
      "inputs": [
        {
          "internalType": "address",
          "name": "",
          "type": "address"
        }
      ],
      "name": "isManager",
      "outputs": [
        {
          "internalType": "bool",
          "name": "",
          "type": "bool"
        }
      ],
      "stateMutability": "view",
      "type": "function"
    },
    {
      "inputs": [
        {
          "internalType": "string",
          "name": "_salt",
          "type": "string"
        }
      ],
      "name": "isSaltTaken",
      "outputs": [
        {
          "internalType": "bool",
          "name": "",
          "type": "bool"
        }
      ],
      "stateMutability": "view",
      "type": "function"
    },
    {
      "inputs": [
        {
          "internalType": "address",
          "name": "_factory",
          "type": "address"
        }
      ],
      "name": "isTokenFactory",
      "outputs": [
        {
          "internalType": "bool",
          "name": "",
          "type": "bool"
        }
      ],
      "stateMutability": "view",
      "type": "function"
    },
    {
      "inputs": [
        {
          "internalType": "address",
          "name": "_newWallet",
          "type": "address"
        }
      ],
      "name": "linkWallet",
      "outputs": [],
      "stateMutability": "nonpayable",
      "type": "function"
    },
    {
      "inputs": [],
      "name": "owner",
      "outputs": [
        {
          "internalType": "address",
          "name": "",
          "type": "address"
        }
      ],
      "stateMutability": "view",
      "type": "function"
    },
    {
      "inputs": [
        {
          "internalType": "uint64",
          "name": "_chainSelector",
          "type": "uint64"
        }
      ],
      "name": "removeReceiver",
      "outputs": [],
      "stateMutability": "nonpayable",
      "type": "function"
    },
    {
      "inputs": [
        {
          "internalType": "address",
          "name": "_factory",
          "type": "address"
        }
      ],
      "name": "removeTokenFactory",
      "outputs": [],
      "stateMutability": "nonpayable",
      "type": "function"
    },
    {
      "inputs": [],
      "name": "renounceOwnership",
      "outputs": [],
      "stateMutability": "nonpayable",
      "type": "function"
    },
    {
      "inputs": [
        {
          "internalType": "address",
          "name": "_contract",
          "type": "address"
        },
        {
          "internalType": "bool",
          "name": "_status",
          "type": "bool"
        }
      ],
      "name": "setAllowedContract",
      "outputs": [],
      "stateMutability": "nonpayable",
      "type": "function"
    },
    {
      "inputs": [
        {
          "internalType": "address",
          "name": "_bridge",
          "type": "address"
        }
      ],
      "name": "setBridge",
      "outputs": [],
      "stateMutability": "nonpayable",
      "type": "function"
    },
    {
      "inputs": [
        {
          "internalType": "address",
          "name": "_manager",
          "type": "address"
        },
        {
          "internalType": "bool",
          "name": "_status",
          "type": "bool"
        }
      ],
      "name": "setManager",
      "outputs": [],
      "stateMutability": "nonpayable",
      "type": "function"
    },
    {
      "inputs": [
        {
          "internalType": "address",
          "name": "newOwner",
          "type": "address"
        }
      ],
      "name": "transferOwnership",
      "outputs": [],
      "stateMutability": "nonpayable",
      "type": "function"
    },
    {
      "inputs": [
        {
          "internalType": "address",
          "name": "_oldWallet",
          "type": "address"
        }
      ],
      "name": "unlinkWallet",
      "outputs": [],
      "stateMutability": "nonpayable",
      "type": "function"
    }
  ],
  "transactionHash": "0x565e17b39bca69967960b629735a25835b27bcb039b4a4de2aa0faa17b0eff27",
  "args": [
    "0x2EAEd1dad6b6a804F4BBd0292433A522Cd603a5E",
    "0x7cbDE0f3A9e31aD92DA658DAe863F15e6a8B76F7",
    false
  ],
  "numDeployments": 1,
  "solcInputHash": "11210d6bf88b95799f3b606ff859eca6",
  "bytecode": "0x60a0346200012b57601f62003cf538819003918201601f19168301916001600160401b0383118484101762000130578084926060946040528339810103126200012b576200004d8162000146565b60406200005d6020840162000146565b920151908115158092036200012b57620000d4916200007c33620001a8565b6001600160a01b036200009385821615156200015b565b821693620000a38515156200015b565b60805260ff199060ff826008541691161760085583600052600e6020526001604060002091825416179055620001a8565b600180604051927f77b360cfa209016bdd91c2800cd667bb8ad1b916258568b44a73da1cfe9a44cc600080a4613b059081620001f082396080518181816104260152818161079e0152818161225601526124500152f35b600080fd5b634e487b7160e01b600052604160045260246000fd5b51906001600160a01b03821682036200012b57565b156200016357565b60405162461bcd60e51b815260206004820152601f60248201527f696e76616c696420617267756d656e74202d207a65726f2061646472657373006044820152606490fd5b600080546001600160a01b039283166001600160a01b03198216811783559216907f8be0079c531659141344cd1fd0a4f28419497f9722a3daafe3b4186f6b6457e09080a356fe6080604052600436101562000014575b600080fd5b60003560e01c80630fffbaf31462000204578063213c9c7a146200021a5780632307f88214620003225780632c8aa6de14620003175780632fea7b81146200030c5780633a50045114620003015780633d56ff6614620002f65780633e3bc3d714620002eb578063422c29a414620002e05780634a2a333214620002465780635027dbe214620002d5578063532f946514620002ca57806355de1faf14620002bf5780635977043814620002b4578063715018a614620002a95780637b6b91c7146200029e5780638da5cb5b14620002935780638dd1480214620002885780638e952bfe146200027d578063937529ef14620002725780639ce1936514620002675780639d7c87b814620001f9578063a262d8d2146200025c578063a5e90eee1462000251578063ab12c35f1462000246578063ad67cd0f146200023b578063b4442b7b1462000230578063b8bb81261462000225578063b97fef86146200021a578063e061646b146200020f578063e78cea921462000204578063edff31f314620001f9578063f2fde38b14620001ee578063f3ae241514620001e3578063f43b855514620001d85763fe5cd59a14620001ce57600080fd5b6200000f62001e5b565b506200000f62001dec565b506200000f62001da8565b506200000f62001cbb565b506200000f62001453565b506200000f62000339565b506200000f62001bed565b506200000f620003bf565b506200000f62001a5f565b506200000f62001899565b506200000f620016fe565b506200000f620009db565b506200000f62001658565b506200000f6200149c565b506200000f6200136f565b506200000f62001280565b506200000f6200116c565b506200000f6200110b565b506200000f620010e1565b506200000f62000f6c565b506200000f62000eb6565b506200000f62000e76565b506200000f62000d35565b506200000f62000c97565b506200000f62000a24565b506200000f62000931565b506200000f620008a7565b506200000f620005f9565b506200000f620004ab565b506200000f62000470565b506200000f6200044a565b506200000f62000403565b60009103126200000f57565b50346200000f5760006003193601126200000f5760206001600160a01b03600c5416604051908152f35b600435906001600160a01b03821682036200000f57565b602435906001600160a01b03821682036200000f57565b606435906001600160a01b03821682036200000f57565b604435906001600160a01b03821682036200000f57565b50346200000f5760206003193601126200000f576001600160a01b03620003e562000363565b16600052600f602052602060ff604060002054166040519015158152f35b50346200000f5760006003193601126200000f5760206040516001600160a01b037f0000000000000000000000000000000000000000000000000000000000000000168152f35b50346200000f5760006003193601126200000f57602060ff600854166040519015158152f35b50346200000f5760206003193601126200000f5760206200049a6200049462000363565b62002e10565b6001600160a01b0360405191168152f35b50346200000f5760206003193601126200000f5760043567ffffffffffffffff8082116200000f57366023830112156200000f5781600401359081116200000f5736602482840101116200000f57620005106200051791602462000529940162002e54565b5460ff1690565b60405190151581529081906020820190565b0390f35b50634e487b7160e01b600052604160045260246000fd5b67ffffffffffffffff81116200055957604052565b620005636200052d565b604052565b90601f601f19910116810190811067ffffffffffffffff8211176200055957604052565b81601f820112156200000f5780359067ffffffffffffffff8211620005e9575b60405192620005c66020601f19601f860116018562000568565b828452602083830101116200000f57816000926020809301838601378301015290565b620005f36200052d565b620005ac565b50346200000f5760606003193601126200000f576200061762000363565b620006216200037a565b9060443567ffffffffffffffff81116200000f5762000649620005299136906004016200058c565b926200066c62000510336001600160a01b03166000526001602052604060002090565b801562000881575b6200067f90620028e5565b620008416001600160a01b0393620007d8620007cb620007c46200073088851699620006ad8b151562001f78565b620006bc8a8916151562001f78565b6200072a6040516020810181620006d4858362002010565b0391620006ea601f199384810183528262000568565b519020906040516200071f602082019282620007128560409060208152600060208201520190565b0390810183528262000568565b519020141562002026565b62002931565b95620007526200074c62000748620005108a62002072565b1590565b6200209a565b6200079c62000795620007896200077c886001600160a01b03166000526006602052604060002090565b546001600160a01b031690565b6001600160a01b031690565b1562002989565b7f00000000000000000000000000000000000000000000000000000000000000008762002e6d565b9462002072565b600160ff19825416179055565b6200082383620007fb836001600160a01b03166000526006602052604060002090565b906001600160a01b031673ffffffffffffffffffffffffffffffffffffffff19825416179055565b620007fb836001600160a01b03166000526007602052604060002090565b6040519384938216907fa8261d398ddc63db24cc53cd0c63c9464cabad1bc478ede2107b32c1c4010b7a600080a36001600160a01b031682526020820190565b506200067f6200089d620007896000546001600160a01b031690565b3314905062000674565b50346200000f5760206003193601126200000f576001600160a01b03620008cd62000363565b166000526001602052602060ff604060002054166040519015158152f35b6020908160408183019282815285518094520193019160005b82811062000913575050505090565b83516001600160a01b03168552938101939281019260010162000904565b50346200000f576020806003193601126200000f576001600160a01b03806200095962000363565b1660005260058252604060002091604051809282855492838152019460005282600020926000915b838310620009a95762000529866200099c818a038262000568565b60405191829182620008eb565b845481168752958101956001948501949092019162000981565b6004359067ffffffffffffffff821682036200000f57565b50346200000f5760206003193601126200000f5767ffffffffffffffff62000a02620009c3565b16600052600960205260206001600160a01b0360406000205416604051908152f35b50346200000f5760206003193601126200000f5762000a4262000363565b6001600160a01b03908181169162000a5c83151562001f78565b62000a6a3384141562002b77565b62000ac062000a906200077c336001600160a01b03166000526003602052604060002090565b8262000ab7620007896200077c876001600160a01b03166000526003602052604060002090565b91161462002be9565b62000b2162000b0462000aea6200077c856001600160a01b03166000526003602052604060002090565b936001600160a01b03166000526003602052604060002090565b73ffffffffffffffffffffffffffffffffffffffff198154169055565b62000b3f826001600160a01b03166000526005602052604060002090565b549160005b83811062000b78575b818316857f35e6fc363a4bf723d53b26c1a751674aca9c3ead425f0591f84f5540ede86f12600080a3005b8462000bbd6200078962000baa8462000ba4876001600160a01b03166000526005602052604060002090565b6200216e565b90546001600160a01b039160031b1c1690565b1462000bd45762000bce9062002809565b62000b44565b62000c3662000c1762000baa84959662000c1062000c0962000c5b976001600160a01b03166000526005602052604060002090565b9162002c35565b906200216e565b9162000ba4856001600160a01b03166000526005602052604060002090565b90919082549060031b916001600160a01b039283811b93849216901b16911916179055565b62000c8362000c7d826001600160a01b03166000526005602052604060002090565b62002c66565b81903862000b4d565b801515036200000f57565b50346200000f5760e06003193601126200000f5760043562000cb98162000c8c565b62000cc362000391565b67ffffffffffffffff91906084358381116200000f5762000ce99036906004016200058c565b60a4358481116200000f5762000d049036906004016200058c565b9160c4359485116200000f5762000d2462000d339536906004016200058c565b93604435906024359062003426565b005b50346200000f5760406003193601126200000f5762000d5362000363565b60243562000d618162000c8c565b60008092338252600e60205262000d84600160ff604085205416151514620032b5565b821515926001841462000df8575b9062000dd06001600160a01b039262000dbe836001600160a01b0316600052600d602052604060002090565b9060ff60ff1983541691151516179055565b167f77b360cfa209016bdd91c2800cd667bb8ad1b916258568b44a73da1cfe9a44cc8280a480f35b908092503b1562000e0c5790839162000d92565b608460405162461bcd60e51b815260206004820152602660248201527f5065726d697373696f6e733a2041646472657373206973206e6f74206120636f60448201527f6e747261637400000000000000000000000000000000000000000000000000006064820152fd5b50346200000f5760206003193601126200000f5760206001600160a01b038062000e9f62000363565b166000526007825260406000205416604051908152f35b50346200000f5760008060031936011262000f225762000ed562001f1f565b806001600160a01b03815473ffffffffffffffffffffffffffffffffffffffff1981168355167f8be0079c531659141344cd1fd0a4f28419497f9722a3daafe3b4186f6b6457e08280a380f35b80fd5b6020908160408183019282815285518094520193019160005b82811062000f4d575050505090565b835167ffffffffffffffff168552938101939281019260010162000f3e565b50346200000f5760006003193601126200000f5760408051600b548082529160208201600b600052927f0175b7a638427703f0dbe7bb9bbf987a2551717b34e79f33b5b1008d1fa01db9906000915b816003840110620010745794620010009285926200052997549181811062001058575b8181106200103a575b8181106200101a575b106200100b575b50038362000568565b519182918262000f25565b60c01c81526020013862000ff7565b608083901c67ffffffffffffffff16845292600190602001930162000ff0565b82871c67ffffffffffffffff16845292600190602001930162000fe7565b67ffffffffffffffff8316845292600190602001930162000fde565b946001600491875490620010d567ffffffffffffffff92620010a18385831667ffffffffffffffff169052565b67ffffffffffffffff818a1c851616602084015267ffffffffffffffff608082811c90951616838a015260c01c6060830152565b01960192019162000fbb565b50346200000f5760006003193601126200000f5760206001600160a01b0360005416604051908152f35b50346200000f5760206003193601126200000f576001600160a01b036200113162000363565b6200113b62001f1f565b166200114981151562001f78565b73ffffffffffffffffffffffffffffffffffffffff19600c541617600c55600080f35b50346200000f5760406003193601126200000f576200118a62000363565b60243567ffffffffffffffff81116200000f57620011ad9036906004016200058c565b9033600052600d602052600160ff60406000205416151514801562001266575b15620011fd576200052991620011e391620021d6565b6040516001600160a01b0390911681529081906020820190565b608460405162461bcd60e51b8152602060048201526024808201527f5065726d697373696f6e733a2053656e646572206973206e6f74206120616c6c60448201527f6f776564000000000000000000000000000000000000000000000000000000006064820152fd5b50600e602052600160ff60406000205416151514620011cd565b50346200000f5760206003193601126200000f576200129e62000363565b620012a862001f1f565b6001600160a01b038116620012bf81151562001f78565b600091818352600160205260ff604084205416156200132b57620012fa62001304916001600160a01b03166000526001602052604060002090565b60ff198154169055565b7fd1fd5274f793d20291c0abfe42e1ef63213a11b34996d485f7afb8fe014248518280a280f35b606460405162461bcd60e51b815260206004820152600d60248201527f6e6f74206120666163746f7279000000000000000000000000000000000000006044820152fd5b50346200000f5760206003193601126200000f576200138d62000363565b6200139762001f1f565b6001600160a01b038116620013ae81151562001f78565b600091818352600160205260ff6040842054166200140f57620007cb620013e8916001600160a01b03166000526001602052604060002090565b7f45eb8ac5344d2d3f306550fe6e969ca4190526313c512afed851d052bf2ab2fd8280a280f35b606460405162461bcd60e51b815260206004820152601160248201527f616c7265616479206120666163746f72790000000000000000000000000000006044820152fd5b50346200000f5760206003193601126200000f5767ffffffffffffffff6200147a620009c3565b16600052600a60205260206001600160a01b0360406000205416604051908152f35b50346200000f5760806003193601126200000f57600435620014be8162000c8c565b620014ef6001620014e662000510336001600160a01b0316600052600f602052604060002090565b15151462003326565b604051906200155b7f41850d8600000000000000000000000000000000000000000000000000000000918284526020938481806200153560048201906001602083019252565b03816000335af190811562001648575b60009162001626575b5015159015151462003372565b6200157d6200077c336001600160a01b03166000526004602052604060002090565b6040516001600160a01b039190911681526064359060443590602435907f6c3e6a5419180ece4a65de295843c99b08bcab9c7272b2a262c6fd40c923648a90602090a4604051908152600060048201528181806024810103816000335af1801562001616575b620015ea57005b8162000d3392903d106200160e575b62001605818362000568565b810190620028c0565b503d620015f9565b62001620620028d8565b620015e3565b620016419150853d87116200160e5762001605818362000568565b386200154e565b62001652620028d8565b62001545565b50346200000f5760406003193601126200000f576200167662000363565b602435620016848162000c8c565b60016001600160a01b03600093338552600e602052620016af8360ff604088205416151514620032b5565b1691828452600e602052620016d481604086209060ff60ff1983541691151516179055565b1515917f77b360cfa209016bdd91c2800cd667bb8ad1b916258568b44a73da1cfe9a44cc8480a480f35b50346200000f5760606003193601126200000f576200171c620009c3565b620017266200037a565b62001730620003a8565b916200173b62001f1f565b6001600160a01b0362001752818416151562001f78565b67ffffffffffffffff82166000526009602052604060002054166200185557620018507faf04939e4a104cb535300983808017af7c8d2d67546d09d7e376284b746d503b93620017c9620017c2620007896200077c8667ffffffffffffffff16600052600a602052604060002090565b1562002ca7565b620017ed84620007fb8567ffffffffffffffff166000526009602052604060002090565b6200181181620007fb8567ffffffffffffffff16600052600a602052604060002090565b6200181c8362002d45565b6040519384938491604091949367ffffffffffffffff60608501961684526001600160a01b03809216602085015216910152565b0390a1005b606460405162461bcd60e51b815260206004820152601660248201527f726563656976657220616c7265616479206164646564000000000000000000006044820152fd5b50346200000f5760206003193601126200000f57620018b7620009c3565b620018c162001f1f565b620018f96001600160a01b03620018f06200077c8467ffffffffffffffff166000526009602052604060002090565b16151562002d81565b6200191c62000b048267ffffffffffffffff166000526009602052604060002090565b6200193f62000b048267ffffffffffffffff16600052600a602052604060002090565b600b5467ffffffffffffffff82811660005b83811062001997575b60405167ffffffffffffffff861681527fcea06f9f2bc78e7d1b24fb4ae56d46f703c06c45641f8ee24441d9331b2228e890806020810162001850565b8183620019bc620019a88462002cf3565b905467ffffffffffffffff9160031b1c1690565b1614620019d457620019ce9062002809565b62001951565b7fcea06f9f2bc78e7d1b24fb4ae56d46f703c06c45641f8ee24441d9331b2228e894925062001a4c915062001a2662001a1f620019a862001a19620018509762002c35565b62002cf3565b9162002cf3565b90919082549060031b9167ffffffffffffffff9283811b93849216901b16911916179055565b62001a5662002dcd565b9138806200195a565b50346200000f5760206003193601126200000f5762001a7d62000363565b6001600160a01b038082169162001a9683151562001f78565b62001ac862001ac0620007896200077c336001600160a01b03166000526003602052604060002090565b1515620029fb565b62001af962001af2620007896200077c846001600160a01b03166000526003602052604060002090565b1562002a6d565b62001b2a62001b23620007896200077c846001600160a01b03166000526006602052604060002090565b1562002ab9565b62001bc462001b506200077c336001600160a01b03166000526003602052604060002090565b9162001b7d606562001b75856001600160a01b03166000526005602052604060002090565b541062002b05565b62001ba083620007fb836001600160a01b03166000526003602052604060002090565b62001bbe836001600160a01b03166000526005602052604060002090565b62002198565b16907f8e0c709111388f5480579514d86663489ab1f206fe6da1a0c4d03ac8c318b3c6600080a3005b50346200000f5760008060031936011262000f2257600b5462001c108162001e30565b9060409262001c228451938462000568565b818352601f1962001c338362001e30565b016020903682860137815b83811062001c5557855180620005298782620008eb565b8067ffffffffffffffff62001c6e62001cb59362002cf3565b90549060031b1c1684526009835262001caf62001c958886206001600160a01b0390541690565b62001ca1838962002828565b906001600160a01b03169052565b62002809565b62001c3e565b50346200000f5760206003193601126200000f5762001cd962000363565b62001ce362001f1f565b6001600160a01b03809116801562001d3e5760009182548273ffffffffffffffffffffffffffffffffffffffff198216178455167f8be0079c531659141344cd1fd0a4f28419497f9722a3daafe3b4186f6b6457e08380a380f35b608460405162461bcd60e51b815260206004820152602660248201527f4f776e61626c653a206e6577206f776e657220697320746865207a65726f206160448201527f64647265737300000000000000000000000000000000000000000000000000006064820152fd5b50346200000f5760206003193601126200000f576001600160a01b0362001dce62000363565b16600052600e602052602060ff604060002054166040519015158152f35b50346200000f5760206003193601126200000f576001600160a01b0362001e1262000363565b16600052600d602052602060ff604060002054166040519015158152f35b60209067ffffffffffffffff811162001e4b575b60051b0190565b62001e556200052d565b62001e44565b50346200000f5760606003193601126200000f5762001e7962000363565b67ffffffffffffffff906024358281116200000f5762001e9e9036906004016200058c565b906044359283116200000f57366023840112156200000f57826004013562001ec68162001e30565b9362001ed6604051958662000568565b81855260209160248387019160051b830101913683116200000f57602401905b82821062001f0f5762000529620011e388888862002366565b8135815290830190830162001ef6565b6001600160a01b0360005416330362001f3457565b606460405162461bcd60e51b815260206004820152602060248201527f4f776e61626c653a2063616c6c6572206973206e6f7420746865206f776e65726044820152fd5b1562001f8057565b606460405162461bcd60e51b815260206004820152601f60248201527f696e76616c696420617267756d656e74202d207a65726f2061646472657373006044820152fd5b60005b83811062001fd85750506000910152565b818101518382015260200162001fc7565b90601f19601f602093620020098151809281875287808801910162001fc4565b0116010190565b9060206200202392818152019062001fe9565b90565b156200202e57565b606460405162461bcd60e51b815260206004820152601f60248201527f696e76616c696420617267756d656e74202d20656d70747920737472696e67006044820152fd5b60206200208d91816040519382858094519384920162001fc4565b8101600281520301902090565b15620020a257565b606460405162461bcd60e51b815260206004820152601260248201527f73616c7420616c72656164792074616b656e00000000000000000000000000006044820152fd5b15620020ee57565b608460405162461bcd60e51b8152602060048201526024808201527f77616c6c657420616c7265616479206c696e6b656420746f20616e206964656e60448201527f74697479000000000000000000000000000000000000000000000000000000006064820152fd5b50634e487b7160e01b600052603260045260246000fd5b805482101562002188575b60005260206000200190600090565b6200219262002157565b62002179565b9062000c36620021c49280549068010000000000000000821015620021c6575b6001820181556200216e565b565b620021d06200052d565b620021b8565b6001600160a01b0391828216620021ef81151562001f78565b620022076040516020810181620006d4868362002010565b6200221e6200074c62000748620005108562002072565b6200224f62002248620007896200077c866001600160a01b03166000526003602052604060002090565b15620020e6565b6200227c837f00000000000000000000000000000000000000000000000000000000000000008462002e6d565b936200228c620007cb8462002072565b620022af85620007fb866001600160a01b03166000526003602052604060002090565b620022d284620007fb876001600160a01b03166000526004602052604060002090565b620022f58462001bbe876001600160a01b03166000526005602052604060002090565b8416907f8e0c709111388f5480579514d86663489ab1f206fe6da1a0c4d03ac8c318b3c6600080a36200233f620007cb846001600160a01b0316600052600f602052604060002090565b60016200234e60085460ff1690565b1515146200235b57505090565b6200202391620030a4565b9190916200237362001f1f565b6001600160a01b0390818116926200238d84151562001f78565b604091825196602095620023e6878a018a620023aa8b8362002010565b039a620023c0601f199c8d810183528262000568565b5190208651898101906200071f8d82620007128560409060208152600060208201520190565b620023f18862002728565b90620024096200074c62000748620005108562002072565b6200243362002248620007896200077c876001600160a01b03166000526003602052604060002090565b620024418551151562002780565b6200247d620007cb62002476307f00000000000000000000000000000000000000000000000000000000000000008662002e6d565b9362002072565b620024a082620007fb866001600160a01b03166000526003602052604060002090565b620024c384620007fb846001600160a01b03166000526004602052604060002090565b620024e68462001bbe846001600160a01b03166000526005602052604060002090565b62002508620007cb836001600160a01b0316600052600f602052604060002090565b6000968216965b8551811015620026105780620025626200252e620025d8938962002828565b518d8c620025578c519182019282620007128d869190916001600160a01b036020820193169052565b51902014156200284e565b60008a620025bf8b62002576858c62002828565b518c519485809481937f1d381240000000000000000000000000000000000000000000000000000000008352600483016040600191939293606081019481528260208201520152565b03925af1801562002600575b620025de575b5062002809565b6200250f565b620025f8908b3d8d116200160e5762001605818362000568565b5038620025d1565b6200260a620028d8565b620025cb565b509596620026879198939581939a81516200264484820192826200071230869190916001600160a01b036020820193169052565b5190209051809381927f53d413c5000000000000000000000000000000000000000000000000000000008352600483016020600191939293604081019481520152565b038160008b5af1801562002718575b620026f5575b50506001620026ad60085460ff1690565b151514620026e1575b5050507f8e0c709111388f5480579514d86663489ab1f206fe6da1a0c4d03ac8c318b3c6600080a390565b620026ec92620031e8565b388080620026b6565b816200270f92903d106200160e5762001605818362000568565b5038806200269c565b62002722620028d8565b62002696565b90620021c4602360405180947f4f4944000000000000000000000000000000000000000000000000000000000060208301526200276f815180926020868601910162001fc4565b810103600381018552018362000568565b156200278857565b608460405162461bcd60e51b815260206004820152602560248201527f696e76616c696420617267756d656e74202d20656d707479206c697374206f6660448201527f206b6579730000000000000000000000000000000000000000000000000000006064820152fd5b50634e487b7160e01b600052601160045260246000fd5b60019060001981146200281a570190565b62002824620027f2565b0190565b60209181518110156200283e575b60051b010190565b6200284862002157565b62002836565b156200285657565b608460405162461bcd60e51b815260206004820152603b60248201527f696e76616c696420617267756d656e74202d2077616c6c657420697320616c7360448201527f6f206c697374656420696e206d616e6167656d656e74206b65797300000000006064820152fd5b908160209103126200000f5751620020238162000c8c565b506040513d6000823e3d90fd5b15620028ed57565b606460405162461bcd60e51b815260206004820152601e60248201527f6f6e6c7920466163746f7279206f72206f776e65722063616e2063616c6c00006044820152fd5b90620021c4602560405180947f546f6b656e000000000000000000000000000000000000000000000000000000602083015262002978815180926020868601910162001fc4565b810103600581018552018362000568565b156200299157565b608460405162461bcd60e51b815260206004820152602360248201527f746f6b656e20616c7265616479206c696e6b656420746f20616e206964656e7460448201527f69747900000000000000000000000000000000000000000000000000000000006064820152fd5b1562002a0357565b608460405162461bcd60e51b815260206004820152602960248201527f77616c6c6574206e6f74206c696e6b656420746f20616e206964656e7469747960448201527f20636f6e747261637400000000000000000000000000000000000000000000006064820152fd5b1562002a7557565b606460405162461bcd60e51b815260206004820152601960248201527f6e65772077616c6c657420616c7265616479206c696e6b6564000000000000006044820152fd5b1562002ac157565b606460405162461bcd60e51b815260206004820152602060248201527f696e76616c696420617267756d656e74202d20746f6b656e20616464726573736044820152fd5b1562002b0d57565b608460405162461bcd60e51b815260206004820152602560248201527f6d617820616d6f756e74206f662077616c6c657473207065722049442065786360448201527f65656465640000000000000000000000000000000000000000000000000000006064820152fd5b1562002b7f57565b608460405162461bcd60e51b815260206004820152602260248201527f63616e6e6f742062652063616c6c6564206f6e2073656e64657220616464726560448201527f73730000000000000000000000000000000000000000000000000000000000006064820152fd5b1562002bf157565b606460405162461bcd60e51b815260206004820152601f60248201527f6f6e6c792061206c696e6b65642077616c6c65742063616e20756e6c696e6b006044820152fd5b90600019820191821162002c4557565b620021c4620027f2565b50634e487b7160e01b600052603160045260246000fd5b6000198154801562002c97575b019062002c8182826200216e565b6001600160a01b0382549160031b1b1916905555565b62002ca162002c4f565b62002c73565b1562002caf57565b606460405162461bcd60e51b815260206004820152601560248201527f6761746577617920616c726561647920616464656400000000000000000000006044820152fd5b90600b5482101562002d35575b600b60005260188260021c7f0175b7a638427703f0dbe7bb9bbf987a2551717b34e79f33b5b1008d1fa01db9019260031b1690565b62002d3f62002157565b62002d00565b620021c49062001a26600b546801000000000000000081101562002d71575b60018101600b5562002cf3565b62002d7b6200052d565b62002d64565b1562002d8957565b606460405162461bcd60e51b815260206004820152601260248201527f7265636569766572206e6f7420616464656400000000000000000000000000006044820152fd5b600019600b54801562002e00575b0162002de78162002cf3565b67ffffffffffffffff82549160031b1b19169055600b55565b62002e0a62002c4f565b62002ddb565b6001600160a01b0390811660008181526006602052604090205482161562002e445760005260066020526040600020541690565b5060036020526040600020541690565b6020908260405193849283378101600281520301902090565b62002f136020620020239493610519946040519562002e8f8482018862000568565b80875283870190620035b7823960405192848401926001600160a01b0380921684521660408401523060608401526060835262002ef1608084019784891067ffffffffffffffff8a111762002f19575b8860405251809260a086019062001fc4565b820162002f068351809360a084019062001fc4565b0103808552018362000568565b62002f29565b62002f236200052d565b62002edf565b60405162002f576020828162002f49818301968781519384920162001fc4565b810103808452018262000568565b519020908051906020016000f5803b156200000f576001600160a01b0381167ff40fcec21964ffb566044d083b4073f29f7f7929110ea19e1b3ebe375d89055e600080a290565b94919367ffffffffffffffff62002fe494921686526001600160a01b03809281602097168789015216604087015216606085015260c0608085015260c084019062001fe9565b9160a08184039101528060605192838152019160809160005b8281106200300c575050505090565b83518552938101939281019260010162002ffd565b9367ffffffffffffffff6200306894929693961685526001600160a01b03809281602098168888015216604086015216606084015260c0608084015260c083019062001fe9565b9060a081830391015281808451928381520193019160005b8281106200308f575050505090565b83518552938101939281019260010162003080565b91909160005b600b54811015620031e257620030d4620007896200078962000789600c546001600160a01b031690565b90620030e4620019a88262002cf3565b620031156200077c620030fb620019a88562002cf3565b67ffffffffffffffff166000526009602052604060002090565b90620031476200077c6200312d620019a88662002cf3565b67ffffffffffffffff16600052600a602052604060002090565b843b156200000f57620031ae94869360008094620031968c604051988997889687957ff75b0ec30000000000000000000000000000000000000000000000000000000087526004870162002f9e565b03925af18015620031d2575b620031b4575062002809565b620030aa565b80620031c4620031cb9262000544565b806200032d565b38620025d1565b620031dc620028d8565b620031a2565b50509050565b9092919260005b600b54811015620032ae5762003219620007896200078962000789600c546001600160a01b031690565b9062003229620019a88262002cf3565b620032406200077c620030fb620019a88562002cf3565b90620032586200077c6200312d620019a88662002cf3565b843b156200000f57620032a894879360008094620031968d8b604051998a98899788967ff75b0ec30000000000000000000000000000000000000000000000000000000088526004880162003021565b620031ef565b5050509050565b15620032bd57565b608460405162461bcd60e51b8152602060048201526024808201527f5065726d697373696f6e733a2053656e646572206973206e6f742061204d616e60448201527f61676572000000000000000000000000000000000000000000000000000000006064820152fd5b156200332e57565b606460405162461bcd60e51b815260206004820152601060248201527f496e76616c6964204964656e74697479000000000000000000000000000000006044820152fd5b156200337a57565b608460405162461bcd60e51b815260206004820152602360248201527f5065726d697373696f6e733a204f6e6c79204964656e746974792063616e204360448201527f616c6c00000000000000000000000000000000000000000000000000000000006064820152fd5b92620034086200202395936200341793865260806020870152608086019062001fe9565b90848203604086015262001fe9565b91606081840391015262001fe9565b94957f6ecc8862e587399c270764c32a5b20be85d8217ea399faa49aa04803f2e645d59193620035286001600160a01b0392969496620034836001620014e662000510336001600160a01b0316600052600f602052604060002090565b60405199620034f27f41850d86000000000000000000000000000000000000000000000000000000009a8b8d5260208d819e8080620034cb6004869401906001602083019252565b03816000335af1918215620035a6575b60009262003584575b505015159015151462003372565b62003518620007896200077c336001600160a01b03166000526004602052604060002090565b96604051958695169985620033e4565b0390a4604051908152600060048201528181806024810103816000335af1801562003574575b62003557575050565b816200357192903d106200160e5762001605818362000568565b50565b6200357e620028d8565b6200354e565b6200359e9250803d106200160e5762001605818362000568565b388e620034e4565b620035b0620028d8565b620034db56fe6080604090808252346101e657606081610519803803809161002182856101eb565b8339810103126101e6576100348161020e565b602091600461004f8561004886850161020e565b930161020e565b916001600160a01b0390859085831690839061006c831515610222565b1695610079871515610222565b7f821f3e4d3d679f19eacc940c87acf846ea6eae24a63058ea750304437a62aafc55875163557887a160e11b815293849182905afa9182156101db576000926101a1575b508551928584019463485cc95560e01b8652602485015216604483015260448252608082019060018060401b039383831085841117610185576000938493885251915af4903d1561019b573d90811161018557835190610126601f8201601f19168501836101eb565b81526000833d92013e5b156101435750516102aa908161026f8239f35b606491519062461bcd60e51b82526004820152601660248201527f496e697469616c697a6174696f6e206661696c65642e000000000000000000006044820152fd5b634e487b7160e01b600052604160045260246000fd5b50610130565b90918582813d83116101d4575b6101b881836101eb565b810103126101d157506101ca9061020e565b90386100bd565b80fd5b503d6101ae565b86513d6000823e3d90fd5b600080fd5b601f909101601f19168101906001600160401b0382119082101761018557604052565b51906001600160a01b03821682036101e657565b1561022957565b60405162461bcd60e51b815260206004820152601f60248201527f696e76616c696420617267756d656e74202d207a65726f2061646472657373006044820152606490fdfe608080604052600436101561011b575b6000816020816004849561006d73ffffffffffffffffffffffffffffffffffffffff7f821f3e4d3d679f19eacc940c87acf846ea6eae24a63058ea750304437a62aafc541673ffffffffffffffffffffffffffffffffffffffff1690565b7faaf10f420000000000000000000000000000000000000000000000000000000082525afa90811561010e575b82916100e1575b50368280378136917fffffffffffffffffffffffffffffffffffffffffffffffffffffffffffffd8f05a01f43d90816000803e156100dd576000f35b6000fd5b61010091506020903d8211610106575b6100fa826101a4565b01610215565b386100a1565b3d91506100f1565b610116610267565b61009a565b6000803560e01c632307f88214610132575061000f565b90346101a057817ffffffffffffffffffffffffffffffffffffffffffffffffffffffffffffffffc3601126101a05760209073ffffffffffffffffffffffffffffffffffffffff7f821f3e4d3d679f19eacc940c87acf846ea6eae24a63058ea750304437a62aafc54168152f35b5080fd5b601f7fffffffffffffffffffffffffffffffffffffffffffffffffffffffffffffffe09101166080016080811067ffffffffffffffff8211176101e657604052565b7f4e487b7100000000000000000000000000000000000000000000000000000000600052604160045260246000fd5b7fffffffffffffffffffffffffffffffffffffffffffffffffffffffffffffff8060209101126102625760805173ffffffffffffffffffffffffffffffffffffffff811681036102625790565b600080fd5b506040513d6000823e3d90fdfea264697066735822122083706edf8447da720c06bd407053cb5f181c237417e1f831e8cfcb4e1a26a3c564736f6c63430008110033a26469706673582212204e4422f41b6f74575cf9b1b077c2c6e7088178e97ac6cd3fede2665688ce279764736f6c63430008110033",
  "devdoc": {
    "kind": "dev",
    "methods": {
      "addReceiver(uint64,address,address)": {
        "details": "See {IdFactory-addReceiver}."
      },
      "addTokenFactory(address)": {
        "details": "See {IdFactory-addTokenFactory}."
      },
      "createIdentity(address,string)": {
        "details": "See {IdFactory-createIdentity}."
      },
      "createIdentityWithManagementKeys(address,string,bytes32[])": {
        "details": "See {IdFactory-createIdentityWithManagementKeys}."
      },
      "createTokenIdentity(address,address,string)": {
        "details": "See {IdFactory-createTokenIdentity}."
      },
      "getBridge()": {
        "details": "get bridge address"
      },
      "getChainSelectors()": {
        "details": "See {IdFactory-getChainSelectors}."
      },
      "getIdentity(address)": {
        "details": "See {IdFactory-getIdentity}."
      },
      "getReceiver(uint64)": {
        "details": "See {IdFactory-getReceiver}."
      },
      "getReceivers()": {
        "details": "See {IdFactory-getReceivers}."
      },
      "getToken(address)": {
        "details": "See {IdFactory-getToken}."
      },
      "getWallets(address)": {
        "details": "See {IdFactory-getWallets}."
      },
      "implementationAuthority()": {
        "details": "See {IdFactory-implementationAuthority}."
      },
      "isSaltTaken(string)": {
        "details": "See {IdFactory-isSaltTaken}."
      },
      "isTokenFactory(address)": {
        "details": "See {IdFactory-isTokenFactory}."
      },
      "linkWallet(address)": {
        "details": "See {IdFactory-linkWallet}."
      },
      "owner()": {
        "details": "Returns the address of the current owner."
      },
      "removeReceiver(uint64)": {
        "details": "See {IdFactory-removeReceiver}."
      },
      "removeTokenFactory(address)": {
        "details": "See {IdFactory-removeTokenFactory}."
      },
      "renounceOwnership()": {
        "details": "Leaves the contract without owner. It will not be possible to call `onlyOwner` functions. Can only be called by the current owner. NOTE: Renouncing ownership will leave the contract without an owner, thereby disabling any functionality that is only available to the owner."
      },
      "setBridge(address)": {
        "params": {
          "_bridge": "the address of the bridge contract"
        }
      },
      "transferOwnership(address)": {
        "details": "Transfers ownership of the contract to a new account (`newOwner`). Can only be called by the current owner."
      },
      "unlinkWallet(address)": {
        "details": "See {IdFactory-unlinkWallet}."
      }
    },
    "stateVariables": {
      "bridge": {
        "details": "getter for the bridge contract address"
      }
    },
    "version": 1
  },
  "userdoc": {
    "events": {
      "AddedKey(address,bytes32,uint256,uint256)": {
        "notice": "events"
      }
    },
    "kind": "user",
    "methods": {},
    "version": 1
  },
  "storageLayout": {
    "storage": [
      {
        "astId": 259,
        "contract": "src/factory/IdFactory.sol:IdFactory",
        "label": "_owner",
        "offset": 0,
        "slot": "0",
        "type": "t_address"
      },
      {
        "astId": 13513,
        "contract": "src/factory/IdFactory.sol:IdFactory",
        "label": "_tokenFactories",
        "offset": 0,
        "slot": "1",
        "type": "t_mapping(t_address,t_bool)"
      },
      {
        "astId": 13519,
        "contract": "src/factory/IdFactory.sol:IdFactory",
        "label": "_saltTaken",
        "offset": 0,
        "slot": "2",
        "type": "t_mapping(t_string_memory_ptr,t_bool)"
      },
      {
        "astId": 13523,
        "contract": "src/factory/IdFactory.sol:IdFactory",
        "label": "_userIdentity",
        "offset": 0,
        "slot": "3",
        "type": "t_mapping(t_address,t_address)"
      },
      {
        "astId": 13527,
        "contract": "src/factory/IdFactory.sol:IdFactory",
        "label": "_identityWallet",
        "offset": 0,
        "slot": "4",
        "type": "t_mapping(t_address,t_address)"
      },
      {
        "astId": 13532,
        "contract": "src/factory/IdFactory.sol:IdFactory",
        "label": "_wallets",
        "offset": 0,
        "slot": "5",
        "type": "t_mapping(t_address,t_array(t_address)dyn_storage)"
      },
      {
        "astId": 13536,
        "contract": "src/factory/IdFactory.sol:IdFactory",
        "label": "_tokenIdentity",
        "offset": 0,
        "slot": "6",
        "type": "t_mapping(t_address,t_address)"
      },
      {
        "astId": 13540,
        "contract": "src/factory/IdFactory.sol:IdFactory",
        "label": "_tokenAddress",
        "offset": 0,
        "slot": "7",
        "type": "t_mapping(t_address,t_address)"
      },
      {
        "astId": 13542,
        "contract": "src/factory/IdFactory.sol:IdFactory",
        "label": "_isHomeChain",
        "offset": 0,
        "slot": "8",
        "type": "t_bool"
      },
      {
        "astId": 13546,
        "contract": "src/factory/IdFactory.sol:IdFactory",
        "label": "destinationChainSelectorToReceiver",
        "offset": 0,
        "slot": "9",
        "type": "t_mapping(t_uint64,t_address)"
      },
      {
        "astId": 13550,
        "contract": "src/factory/IdFactory.sol:IdFactory",
        "label": "destinationChainSelectorToGateway",
        "offset": 0,
        "slot": "10",
        "type": "t_mapping(t_uint64,t_address)"
      },
      {
        "astId": 13553,
        "contract": "src/factory/IdFactory.sol:IdFactory",
        "label": "chainSelectors",
        "offset": 0,
        "slot": "11",
        "type": "t_array(t_uint64)dyn_storage"
      },
      {
        "astId": 13555,
        "contract": "src/factory/IdFactory.sol:IdFactory",
        "label": "bridge",
        "offset": 0,
        "slot": "12",
        "type": "t_address"
      },
      {
        "astId": 13559,
        "contract": "src/factory/IdFactory.sol:IdFactory",
        "label": "isAllowedContract",
        "offset": 0,
        "slot": "13",
        "type": "t_mapping(t_address,t_bool)"
      },
      {
        "astId": 13563,
        "contract": "src/factory/IdFactory.sol:IdFactory",
        "label": "isManager",
        "offset": 0,
        "slot": "14",
        "type": "t_mapping(t_address,t_bool)"
      },
      {
        "astId": 13567,
        "contract": "src/factory/IdFactory.sol:IdFactory",
        "label": "isCreatedIdentity",
        "offset": 0,
        "slot": "15",
        "type": "t_mapping(t_address,t_bool)"
      }
    ],
    "types": {
      "t_address": {
        "encoding": "inplace",
        "label": "address",
        "numberOfBytes": "20"
      },
      "t_array(t_address)dyn_storage": {
        "base": "t_address",
        "encoding": "dynamic_array",
        "label": "address[]",
        "numberOfBytes": "32"
      },
      "t_array(t_uint64)dyn_storage": {
        "base": "t_uint64",
        "encoding": "dynamic_array",
        "label": "uint64[]",
        "numberOfBytes": "32"
      },
      "t_bool": {
        "encoding": "inplace",
        "label": "bool",
        "numberOfBytes": "1"
      },
      "t_mapping(t_address,t_address)": {
        "encoding": "mapping",
        "key": "t_address",
        "label": "mapping(address => address)",
        "numberOfBytes": "32",
        "value": "t_address"
      },
      "t_mapping(t_address,t_array(t_address)dyn_storage)": {
        "encoding": "mapping",
        "key": "t_address",
        "label": "mapping(address => address[])",
        "numberOfBytes": "32",
        "value": "t_array(t_address)dyn_storage"
      },
      "t_mapping(t_address,t_bool)": {
        "encoding": "mapping",
        "key": "t_address",
        "label": "mapping(address => bool)",
        "numberOfBytes": "32",
        "value": "t_bool"
      },
      "t_mapping(t_string_memory_ptr,t_bool)": {
        "encoding": "mapping",
        "key": "t_string_memory_ptr",
        "label": "mapping(string => bool)",
        "numberOfBytes": "32",
        "value": "t_bool"
      },
      "t_mapping(t_uint64,t_address)": {
        "encoding": "mapping",
        "key": "t_uint64",
        "label": "mapping(uint64 => address)",
        "numberOfBytes": "32",
        "value": "t_address"
      },
      "t_string_memory_ptr": {
        "encoding": "bytes",
        "label": "string",
        "numberOfBytes": "32"
      },
      "t_uint64": {
        "encoding": "inplace",
        "label": "uint64",
        "numberOfBytes": "8"
      }
    }
  }
}