{
  "address": "0xA8910Bf0985Ce34585586C558fffAFD3029cFDb6",
  "abi": [
    {
      "inputs": [
        {
          "internalType": "address",
          "name": "_owner",
          "type": "address"
        },
        {
          "internalType": "address",
          "name": "implementationAuthority",
          "type": "address"
        },
        {
          "internalType": "bool",
          "name": "isHomeChain",
          "type": "bool"
        }
      ],
      "stateMutability": "nonpayable",
      "type": "constructor"
    },
    {
      "anonymous": false,
      "inputs": [
        {
          "indexed": true,
          "internalType": "address",
          "name": "_address",
          "type": "address"
        },
        {
          "indexed": true,
          "internalType": "uint64",
          "name": "_type",
          "type": "uint64"
        },
        {
          "indexed": true,
          "internalType": "bool",
          "name": "_status",
          "type": "bool"
        }
      ],
      "name": "AllowedAddress",
      "type": "event"
    },
    {
      "anonymous": false,
      "inputs": [
        {
          "indexed": true,
          "internalType": "address",
          "name": "_addr",
          "type": "address"
        }
      ],
      "name": "Deployed",
      "type": "event"
    },
    {
      "anonymous": false,
      "inputs": [
        {
          "indexed": true,
          "internalType": "address",
          "name": "previousOwner",
          "type": "address"
        },
        {
          "indexed": true,
          "internalType": "address",
          "name": "newOwner",
          "type": "address"
        }
      ],
      "name": "OwnershipTransferred",
      "type": "event"
    },
    {
      "anonymous": false,
      "inputs": [
        {
          "indexed": false,
          "internalType": "uint64",
          "name": "chainSelector",
          "type": "uint64"
        },
        {
          "indexed": false,
          "internalType": "address",
          "name": "receiver",
          "type": "address"
        },
        {
          "indexed": false,
          "internalType": "address",
          "name": "gateway",
          "type": "address"
        }
      ],
      "name": "ReceiverAdded",
      "type": "event"
    },
    {
      "anonymous": false,
      "inputs": [
        {
          "indexed": false,
          "internalType": "uint64",
          "name": "chainSelector",
          "type": "uint64"
        }
      ],
      "name": "ReceiverRemoved",
      "type": "event"
    },
    {
      "anonymous": false,
      "inputs": [
        {
          "indexed": true,
          "internalType": "address",
          "name": "factory",
          "type": "address"
        }
      ],
      "name": "TokenFactoryAdded",
      "type": "event"
    },
    {
      "anonymous": false,
      "inputs": [
        {
          "indexed": true,
          "internalType": "address",
          "name": "factory",
          "type": "address"
        }
      ],
      "name": "TokenFactoryRemoved",
      "type": "event"
    },
    {
      "anonymous": false,
      "inputs": [
        {
          "indexed": true,
          "internalType": "address",
          "name": "token",
          "type": "address"
        },
        {
          "indexed": true,
          "internalType": "address",
          "name": "identity",
          "type": "address"
        }
      ],
      "name": "TokenLinked",
      "type": "event"
    },
    {
      "anonymous": false,
      "inputs": [
        {
          "indexed": true,
          "internalType": "address",
          "name": "wallet",
          "type": "address"
        },
        {
          "indexed": true,
          "internalType": "address",
          "name": "identity",
          "type": "address"
        }
      ],
      "name": "WalletLinked",
      "type": "event"
    },
    {
      "anonymous": false,
      "inputs": [
        {
          "indexed": true,
          "internalType": "address",
          "name": "wallet",
          "type": "address"
        },
        {
          "indexed": true,
          "internalType": "address",
          "name": "identity",
          "type": "address"
        }
      ],
      "name": "WalletUnlinked",
      "type": "event"
    },
    {
      "inputs": [],
      "name": "_isHomeChain",
      "outputs": [
        {
          "internalType": "bool",
          "name": "",
          "type": "bool"
        }
      ],
      "stateMutability": "view",
      "type": "function"
    },
    {
      "inputs": [
        {
          "internalType": "uint64",
          "name": "_chainSelector",
          "type": "uint64"
        },
        {
          "internalType": "address",
          "name": "_receiver",
          "type": "address"
        },
        {
          "internalType": "address",
          "name": "_gateway",
          "type": "address"
        }
      ],
      "name": "addReceiver",
      "outputs": [],
      "stateMutability": "nonpayable",
      "type": "function"
    },
    {
      "inputs": [
        {
          "internalType": "address",
          "name": "_factory",
          "type": "address"
        }
      ],
      "name": "addTokenFactory",
      "outputs": [],
      "stateMutability": "nonpayable",
      "type": "function"
    },
    {
      "inputs": [],
      "name": "bridge",
      "outputs": [
        {
          "internalType": "address",
          "name": "",
          "type": "address"
        }
      ],
      "stateMutability": "view",
      "type": "function"
    },
    {
      "inputs": [
        {
          "internalType": "address",
          "name": "_wallet",
          "type": "address"
        },
        {
          "internalType": "string",
          "name": "_salt",
          "type": "string"
        }
      ],
      "name": "createIdentity",
      "outputs": [
        {
          "internalType": "address",
          "name": "identity",
          "type": "address"
        }
      ],
      "stateMutability": "nonpayable",
      "type": "function"
    },
    {
      "inputs": [
        {
          "internalType": "address",
          "name": "_wallet",
          "type": "address"
        },
        {
          "internalType": "string",
          "name": "_salt",
          "type": "string"
        },
        {
          "internalType": "bytes32[]",
          "name": "_managementKeys",
          "type": "bytes32[]"
        }
      ],
      "name": "createIdentityWithManagementKeys",
      "outputs": [
        {
          "internalType": "address",
          "name": "",
          "type": "address"
        }
      ],
      "stateMutability": "nonpayable",
      "type": "function"
    },
    {
      "inputs": [
        {
          "internalType": "address",
          "name": "_token",
          "type": "address"
        },
        {
          "internalType": "address",
          "name": "_tokenOwner",
          "type": "address"
        },
        {
          "internalType": "string",
          "name": "_salt",
          "type": "string"
        }
      ],
      "name": "createTokenIdentity",
      "outputs": [
        {
          "internalType": "address",
          "name": "",
          "type": "address"
        }
      ],
      "stateMutability": "nonpayable",
      "type": "function"
    },
    {
      "inputs": [
        {
          "internalType": "uint64",
          "name": "",
          "type": "uint64"
        }
      ],
      "name": "destinationChainSelectorToGateway",
      "outputs": [
        {
          "internalType": "address",
          "name": "",
          "type": "address"
        }
      ],
      "stateMutability": "view",
      "type": "function"
    },
    {
      "inputs": [
        {
          "internalType": "uint64",
          "name": "",
          "type": "uint64"
        }
      ],
      "name": "destinationChainSelectorToReceiver",
      "outputs": [
        {
          "internalType": "address",
          "name": "",
          "type": "address"
        }
      ],
      "stateMutability": "view",
      "type": "function"
    },
    {
      "inputs": [],
      "name": "getBridge",
      "outputs": [
        {
          "internalType": "address",
          "name": "",
          "type": "address"
        }
      ],
      "stateMutability": "view",
      "type": "function"
    },
    {
      "inputs": [],
      "name": "getChainSelectors",
      "outputs": [
        {
          "internalType": "uint64[]",
          "name": "",
          "type": "uint64[]"
        }
      ],
      "stateMutability": "view",
      "type": "function"
    },
    {
      "inputs": [
        {
          "internalType": "uint64",
          "name": "_chainSelector",
          "type": "uint64"
        }
      ],
      "name": "getGateway",
      "outputs": [
        {
          "internalType": "address",
          "name": "",
          "type": "address"
        }
      ],
      "stateMutability": "view",
      "type": "function"
    },
    {
      "inputs": [
        {
          "internalType": "address",
          "name": "_wallet",
          "type": "address"
        }
      ],
      "name": "getIdentity",
      "outputs": [
        {
          "internalType": "address",
          "name": "",
          "type": "address"
        }
      ],
      "stateMutability": "view",
      "type": "function"
    },
    {
      "inputs": [
        {
          "internalType": "uint64",
          "name": "_chainSelector",
          "type": "uint64"
        }
      ],
      "name": "getReceiver",
      "outputs": [
        {
          "internalType": "address",
          "name": "",
          "type": "address"
        }
      ],
      "stateMutability": "view",
      "type": "function"
    },
    {
      "inputs": [],
      "name": "getReceivers",
      "outputs": [
        {
          "internalType": "address[]",
          "name": "",
          "type": "address[]"
        }
      ],
      "stateMutability": "view",
      "type": "function"
    },
    {
      "inputs": [
        {
          "internalType": "address",
          "name": "_identity",
          "type": "address"
        }
      ],
      "name": "getToken",
      "outputs": [
        {
          "internalType": "address",
          "name": "",
          "type": "address"
        }
      ],
      "stateMutability": "view",
      "type": "function"
    },
    {
      "inputs": [
        {
          "internalType": "address",
          "name": "_identity",
          "type": "address"
        }
      ],
      "name": "getWallets",
      "outputs": [
        {
          "internalType": "address[]",
          "name": "",
          "type": "address[]"
        }
      ],
      "stateMutability": "view",
      "type": "function"
    },
    {
      "inputs": [
        {
          "internalType": "address",
          "name": "_identity",
          "type": "address"
        }
      ],
      "name": "identityIsCreated",
      "outputs": [
        {
          "internalType": "bool",
          "name": "",
          "type": "bool"
        }
      ],
      "stateMutability": "view",
      "type": "function"
    },
    {
      "inputs": [],
      "name": "implementationAuthority",
      "outputs": [
        {
          "internalType": "address",
          "name": "",
          "type": "address"
        }
      ],
      "stateMutability": "view",
      "type": "function"
    },
    {
      "inputs": [
        {
          "internalType": "address",
          "name": "",
          "type": "address"
        }
      ],
      "name": "isAllowedContract",
      "outputs": [
        {
          "internalType": "bool",
          "name": "",
          "type": "bool"
        }
      ],
      "stateMutability": "view",
      "type": "function"
    },
    {
      "inputs": [
        {
          "internalType": "address",
          "name": "",
          "type": "address"
        }
      ],
      "name": "isCreatedIdentity",
      "outputs": [
        {
          "internalType": "bool",
          "name": "",
          "type": "bool"
        }
      ],
      "stateMutability": "view",
      "type": "function"
    },
    {
      "inputs": [
        {
          "internalType": "address",
          "name": "",
          "type": "address"
        }
      ],
      "name": "isManager",
      "outputs": [
        {
          "internalType": "bool",
          "name": "",
          "type": "bool"
        }
      ],
      "stateMutability": "view",
      "type": "function"
    },
    {
      "inputs": [
        {
          "internalType": "string",
          "name": "_salt",
          "type": "string"
        }
      ],
      "name": "isSaltTaken",
      "outputs": [
        {
          "internalType": "bool",
          "name": "",
          "type": "bool"
        }
      ],
      "stateMutability": "view",
      "type": "function"
    },
    {
      "inputs": [
        {
          "internalType": "address",
          "name": "_factory",
          "type": "address"
        }
      ],
      "name": "isTokenFactory",
      "outputs": [
        {
          "internalType": "bool",
          "name": "",
          "type": "bool"
        }
      ],
      "stateMutability": "view",
      "type": "function"
    },
    {
      "inputs": [
        {
          "internalType": "address",
          "name": "_newWallet",
          "type": "address"
        }
      ],
      "name": "linkWallet",
      "outputs": [],
      "stateMutability": "nonpayable",
      "type": "function"
    },
    {
      "inputs": [],
      "name": "owner",
      "outputs": [
        {
          "internalType": "address",
          "name": "",
          "type": "address"
        }
      ],
      "stateMutability": "view",
      "type": "function"
    },
    {
      "inputs": [
        {
          "internalType": "uint64",
          "name": "_chainSelector",
          "type": "uint64"
        }
      ],
      "name": "removeReceiver",
      "outputs": [],
      "stateMutability": "nonpayable",
      "type": "function"
    },
    {
      "inputs": [
        {
          "internalType": "address",
          "name": "_factory",
          "type": "address"
        }
      ],
      "name": "removeTokenFactory",
      "outputs": [],
      "stateMutability": "nonpayable",
      "type": "function"
    },
    {
      "inputs": [],
      "name": "renounceOwnership",
      "outputs": [],
      "stateMutability": "nonpayable",
      "type": "function"
    },
    {
      "inputs": [
        {
          "internalType": "address",
          "name": "_contract",
          "type": "address"
        },
        {
          "internalType": "bool",
          "name": "_status",
          "type": "bool"
        }
      ],
      "name": "setAllowedContract",
      "outputs": [],
      "stateMutability": "nonpayable",
      "type": "function"
    },
    {
      "inputs": [
        {
          "internalType": "address",
          "name": "_bridge",
          "type": "address"
        }
      ],
      "name": "setBridge",
      "outputs": [],
      "stateMutability": "nonpayable",
      "type": "function"
    },
    {
      "inputs": [
        {
          "internalType": "address",
          "name": "_manager",
          "type": "address"
        },
        {
          "internalType": "bool",
          "name": "_status",
          "type": "bool"
        }
      ],
      "name": "setManager",
      "outputs": [],
      "stateMutability": "nonpayable",
      "type": "function"
    },
    {
      "inputs": [
        {
          "internalType": "address",
          "name": "newOwner",
          "type": "address"
        }
      ],
      "name": "transferOwnership",
      "outputs": [],
      "stateMutability": "nonpayable",
      "type": "function"
    },
    {
      "inputs": [
        {
          "internalType": "address",
          "name": "_oldWallet",
          "type": "address"
        }
      ],
      "name": "unlinkWallet",
      "outputs": [],
      "stateMutability": "nonpayable",
      "type": "function"
    }
  ],
  "transactionHash": "0x11ab3400988ab58340a4a9a388506058c0243a06b9046e42b448bc449cb049a7",
  "args": [
    "0x3B91DE49FC68C9a5B08Ba1d767735F38fa1860bb",
    "0x2e12dCBAab51ed9159f7D1Df4DDb85b3ef4391D2",
    false
  ],
  "numDeployments": 1,
  "solcInputHash": "5b41550b2fa2ea650a59af98b7faaa7d",
  "bytecode": "0x60a0346200012b57601f6200360038819003918201601f19168301916001600160401b0383118484101762000130578084926060946040528339810103126200012b576200004d8162000146565b60406200005d6020840162000146565b920151908115158092036200012b57620000d4916200007c33620001a8565b6001600160a01b036200009385821615156200015b565b821693620000a38515156200015b565b60805260ff199060ff826007541691161760075583600052600d6020526001604060002091825416179055620001a8565b600180604051927f77b360cfa209016bdd91c2800cd667bb8ad1b916258568b44a73da1cfe9a44cc600080a46134109081620001f082396080518181816103e10152818161075901528181611fb701526121900152f35b600080fd5b634e487b7160e01b600052604160045260246000fd5b51906001600160a01b03821682036200012b57565b156200016357565b60405162461bcd60e51b815260206004820152601f60248201527f696e76616c696420617267756d656e74202d207a65726f2061646472657373006044820152606490fd5b600080546001600160a01b039283166001600160a01b03198216811783559216907f8be0079c531659141344cd1fd0a4f28419497f9722a3daafe3b4186f6b6457e09080a356fe6080604052600436101562000014575b600080fd5b60003560e01c80630fffbaf314620001ec578063213c9c7a14620002025780632307f88214620002f45780632c8aa6de14620002e95780632fea7b8114620002de5780633a50045114620002d35780633d56ff6614620002c85780633e3bc3d714620002bd578063422c29a414620002b25780634a2a3332146200022e5780635027dbe214620002a757806355de1faf146200029c578063597704381462000291578063715018a614620002865780637b6b91c7146200027b5780638da5cb5b14620002705780638dd1480214620002655780638e952bfe146200025a578063937529ef146200024f5780639ce1936514620002445780639d7c87b814620001e1578063a5e90eee1462000239578063ab12c35f146200022e578063ad67cd0f1462000223578063b4442b7b1462000218578063b8bb8126146200020d578063b97fef861462000202578063e061646b14620001f7578063e78cea9214620001ec578063edff31f314620001e1578063f2fde38b14620001d6578063f3ae241514620001cb578063f43b855514620001c05763fe5cd59a14620001b657600080fd5b6200000f62001bbc565b506200000f62001b4d565b506200000f62001b09565b506200000f62001a1c565b506200000f62001370565b506200000f6200030b565b506200000f6200194e565b506200000f6200037a565b506200000f620017c0565b506200000f620015fa565b506200000f6200145f565b506200000f62000996565b506200000f620013b9565b506200000f6200128c565b506200000f6200119d565b506200000f62001089565b506200000f62001028565b506200000f62000ffe565b506200000f62000e89565b506200000f62000dd3565b506200000f62000d93565b506200000f62000c52565b506200000f620009df565b506200000f620008ec565b506200000f62000862565b506200000f620005b4565b506200000f62000466565b506200000f6200042b565b506200000f62000405565b506200000f620003be565b60009103126200000f57565b50346200000f5760006003193601126200000f5760206001600160a01b03600b5416604051908152f35b600435906001600160a01b03821682036200000f57565b602435906001600160a01b03821682036200000f57565b604435906001600160a01b03821682036200000f57565b50346200000f5760206003193601126200000f576001600160a01b03620003a062000335565b16600052600e602052602060ff604060002054166040519015158152f35b50346200000f5760006003193601126200000f5760206040516001600160a01b037f0000000000000000000000000000000000000000000000000000000000000000168152f35b50346200000f5760006003193601126200000f57602060ff600754166040519015158152f35b50346200000f5760206003193601126200000f576020620004556200044f62000335565b62002afb565b6001600160a01b0360405191168152f35b50346200000f5760206003193601126200000f5760043567ffffffffffffffff8082116200000f57366023830112156200000f5781600401359081116200000f5736602482840101116200000f57620004cb620004d2916024620004e4940162002b3f565b5460ff1690565b60405190151581529081906020820190565b0390f35b50634e487b7160e01b600052604160045260246000fd5b67ffffffffffffffff81116200051457604052565b6200051e620004e8565b604052565b90601f601f19910116810190811067ffffffffffffffff8211176200051457604052565b81601f820112156200000f5780359067ffffffffffffffff8211620005a4575b60405192620005816020601f19601f860116018562000523565b828452602083830101116200000f57816000926020809301838601378301015290565b620005ae620004e8565b62000567565b50346200000f5760606003193601126200000f57620005d262000335565b620005dc6200034c565b9060443567ffffffffffffffff81116200000f5762000604620004e491369060040162000547565b9262000627620004cb336001600160a01b03166000526001602052604060002090565b80156200083c575b6200063a90620025d0565b620007fc6001600160a01b039362000793620007866200077f620006eb88851699620006688b151562001cd9565b620006778a8916151562001cd9565b620006e560405160208101816200068f858362001d71565b0391620006a5601f199384810183528262000523565b51902090604051620006da602082019282620006cd8560409060208152600060208201520190565b0390810183528262000523565b519020141562001d87565b6200261c565b956200070d6200070762000703620004cb8a62001dd3565b1590565b62001dfb565b62000757620007506200074462000737886001600160a01b03166000526005602052604060002090565b546001600160a01b031690565b6001600160a01b031690565b1562002674565b7f00000000000000000000000000000000000000000000000000000000000000008762002b58565b9462001dd3565b600160ff19825416179055565b620007de83620007b6836001600160a01b03166000526005602052604060002090565b906001600160a01b031673ffffffffffffffffffffffffffffffffffffffff19825416179055565b620007b6836001600160a01b03166000526006602052604060002090565b6040519384938216907fa8261d398ddc63db24cc53cd0c63c9464cabad1bc478ede2107b32c1c4010b7a600080a36001600160a01b031682526020820190565b506200063a62000858620007446000546001600160a01b031690565b331490506200062f565b50346200000f5760206003193601126200000f576001600160a01b036200088862000335565b166000526001602052602060ff604060002054166040519015158152f35b6020908160408183019282815285518094520193019160005b828110620008ce575050505090565b83516001600160a01b031685529381019392810192600101620008bf565b50346200000f576020806003193601126200000f576001600160a01b03806200091462000335565b1660005260048252604060002091604051809282855492838152019460005282600020926000915b8383106200096457620004e48662000957818a038262000523565b60405191829182620008a6565b84548116875295810195600194850194909201916200093c565b6004359067ffffffffffffffff821682036200000f57565b50346200000f5760206003193601126200000f5767ffffffffffffffff620009bd6200097e565b16600052600860205260206001600160a01b0360406000205416604051908152f35b50346200000f5760206003193601126200000f57620009fd62000335565b6001600160a01b03908181169162000a1783151562001cd9565b62000a253384141562002862565b62000a7b62000a4b62000737336001600160a01b03166000526003602052604060002090565b8262000a726200074462000737876001600160a01b03166000526003602052604060002090565b911614620028d4565b62000adc62000abf62000aa562000737856001600160a01b03166000526003602052604060002090565b936001600160a01b03166000526003602052604060002090565b73ffffffffffffffffffffffffffffffffffffffff198154169055565b62000afa826001600160a01b03166000526004602052604060002090565b549160005b83811062000b33575b818316857f35e6fc363a4bf723d53b26c1a751674aca9c3ead425f0591f84f5540ede86f12600080a3005b8462000b786200074462000b658462000b5f876001600160a01b03166000526004602052604060002090565b62001ecf565b90546001600160a01b039160031b1c1690565b1462000b8f5762000b8990620024f4565b62000aff565b62000bf162000bd262000b6584959662000bcb62000bc462000c16976001600160a01b03166000526004602052604060002090565b9162002920565b9062001ecf565b9162000b5f856001600160a01b03166000526004602052604060002090565b90919082549060031b916001600160a01b039283811b93849216901b16911916179055565b62000c3e62000c38826001600160a01b03166000526004602052604060002090565b62002951565b81903862000b08565b801515036200000f57565b50346200000f5760406003193601126200000f5762000c7062000335565b60243562000c7e8162000c47565b60008092338252600d60205262000ca1600160ff60408520541615151462002e50565b821515926001841462000d15575b9062000ced6001600160a01b039262000cdb836001600160a01b0316600052600c602052604060002090565b9060ff60ff1983541691151516179055565b167f77b360cfa209016bdd91c2800cd667bb8ad1b916258568b44a73da1cfe9a44cc8280a480f35b908092503b1562000d295790839162000caf565b608460405162461bcd60e51b815260206004820152602660248201527f5065726d697373696f6e733a2041646472657373206973206e6f74206120636f60448201527f6e747261637400000000000000000000000000000000000000000000000000006064820152fd5b50346200000f5760206003193601126200000f5760206001600160a01b038062000dbc62000335565b166000526006825260406000205416604051908152f35b50346200000f5760008060031936011262000e3f5762000df262001c80565b806001600160a01b03815473ffffffffffffffffffffffffffffffffffffffff1981168355167f8be0079c531659141344cd1fd0a4f28419497f9722a3daafe3b4186f6b6457e08280a380f35b80fd5b6020908160408183019282815285518094520193019160005b82811062000e6a575050505090565b835167ffffffffffffffff168552938101939281019260010162000e5b565b50346200000f5760006003193601126200000f5760408051600a548082529160208201600a600052927fc65a7bb8d6351c1cf70c95a316cc6a92839c986682d98bc35f958f4883f9d2a8906000915b81600384011062000f91579462000f1d928592620004e497549181811062000f75575b81811062000f57575b81811062000f37575b1062000f28575b50038362000523565b519182918262000e42565b60c01c81526020013862000f14565b608083901c67ffffffffffffffff16845292600190602001930162000f0d565b82871c67ffffffffffffffff16845292600190602001930162000f04565b67ffffffffffffffff8316845292600190602001930162000efb565b94600160049187549062000ff267ffffffffffffffff9262000fbe8385831667ffffffffffffffff169052565b67ffffffffffffffff818a1c851616602084015267ffffffffffffffff608082811c90951616838a015260c01c6060830152565b01960192019162000ed8565b50346200000f5760006003193601126200000f5760206001600160a01b0360005416604051908152f35b50346200000f5760206003193601126200000f576001600160a01b036200104e62000335565b6200105862001c80565b166200106681151562001cd9565b73ffffffffffffffffffffffffffffffffffffffff19600b541617600b55600080f35b50346200000f5760406003193601126200000f57620010a762000335565b60243567ffffffffffffffff81116200000f57620010ca90369060040162000547565b9033600052600c602052600160ff60406000205416151514801562001183575b156200111a57620004e491620011009162001f37565b6040516001600160a01b0390911681529081906020820190565b608460405162461bcd60e51b8152602060048201526024808201527f5065726d697373696f6e733a2053656e646572206973206e6f74206120616c6c60448201527f6f776564000000000000000000000000000000000000000000000000000000006064820152fd5b50600d602052600160ff60406000205416151514620010ea565b50346200000f5760206003193601126200000f57620011bb62000335565b620011c562001c80565b6001600160a01b038116620011dc81151562001cd9565b600091818352600160205260ff6040842054161562001248576200121762001221916001600160a01b03166000526001602052604060002090565b60ff198154169055565b7fd1fd5274f793d20291c0abfe42e1ef63213a11b34996d485f7afb8fe014248518280a280f35b606460405162461bcd60e51b815260206004820152600d60248201527f6e6f74206120666163746f7279000000000000000000000000000000000000006044820152fd5b50346200000f5760206003193601126200000f57620012aa62000335565b620012b462001c80565b6001600160a01b038116620012cb81151562001cd9565b600091818352600160205260ff6040842054166200132c576200078662001305916001600160a01b03166000526001602052604060002090565b7f45eb8ac5344d2d3f306550fe6e969ca4190526313c512afed851d052bf2ab2fd8280a280f35b606460405162461bcd60e51b815260206004820152601160248201527f616c7265616479206120666163746f72790000000000000000000000000000006044820152fd5b50346200000f5760206003193601126200000f5767ffffffffffffffff620013976200097e565b16600052600960205260206001600160a01b0360406000205416604051908152f35b50346200000f5760406003193601126200000f57620013d762000335565b602435620013e58162000c47565b60016001600160a01b03600093338552600d602052620014108360ff60408820541615151462002e50565b1691828452600d6020526200143581604086209060ff60ff1983541691151516179055565b1515917f77b360cfa209016bdd91c2800cd667bb8ad1b916258568b44a73da1cfe9a44cc8480a480f35b50346200000f5760606003193601126200000f576200147d6200097e565b620014876200034c565b6200149162000363565b916200149c62001c80565b6001600160a01b03620014b3818416151562001cd9565b67ffffffffffffffff8216600052600860205260406000205416620015b657620015b17faf04939e4a104cb535300983808017af7c8d2d67546d09d7e376284b746d503b936200152a6200152362000744620007378667ffffffffffffffff166000526009602052604060002090565b1562002992565b6200154e84620007b68567ffffffffffffffff166000526008602052604060002090565b6200157281620007b68567ffffffffffffffff166000526009602052604060002090565b6200157d8362002a30565b6040519384938491604091949367ffffffffffffffff60608501961684526001600160a01b03809216602085015216910152565b0390a1005b606460405162461bcd60e51b815260206004820152601660248201527f726563656976657220616c7265616479206164646564000000000000000000006044820152fd5b50346200000f5760206003193601126200000f57620016186200097e565b6200162262001c80565b6200165a6001600160a01b0362001651620007378467ffffffffffffffff166000526008602052604060002090565b16151562002a6c565b6200167d62000abf8267ffffffffffffffff166000526008602052604060002090565b620016a062000abf8267ffffffffffffffff166000526009602052604060002090565b600a5467ffffffffffffffff82811660005b838110620016f8575b60405167ffffffffffffffff861681527fcea06f9f2bc78e7d1b24fb4ae56d46f703c06c45641f8ee24441d9331b2228e8908060208101620015b1565b81836200171d6200170984620029de565b905467ffffffffffffffff9160031b1c1690565b161462001735576200172f90620024f4565b620016b2565b7fcea06f9f2bc78e7d1b24fb4ae56d46f703c06c45641f8ee24441d9331b2228e8949250620017ad91506200178762001780620017096200177a620015b19762002920565b620029de565b91620029de565b90919082549060031b9167ffffffffffffffff9283811b93849216901b16911916179055565b620017b762002ab8565b913880620016bb565b50346200000f5760206003193601126200000f57620017de62000335565b6001600160a01b0380821691620017f783151562001cd9565b62001829620018216200074462000737336001600160a01b03166000526003602052604060002090565b1515620026e6565b6200185a620018536200074462000737846001600160a01b03166000526003602052604060002090565b1562002758565b6200188b620018846200074462000737846001600160a01b03166000526005602052604060002090565b15620027a4565b62001925620018b162000737336001600160a01b03166000526003602052604060002090565b91620018de6065620018d6856001600160a01b03166000526004602052604060002090565b5410620027f0565b6200190183620007b6836001600160a01b03166000526003602052604060002090565b6200191f836001600160a01b03166000526004602052604060002090565b62001ef9565b16907f8e0c709111388f5480579514d86663489ab1f206fe6da1a0c4d03ac8c318b3c6600080a3005b50346200000f5760008060031936011262000e3f57600a54620019718162001b91565b90604092620019838451938462000523565b818352601f19620019948362001b91565b016020903682860137815b838110620019b657855180620004e48782620008a6565b8067ffffffffffffffff620019cf62001a1693620029de565b90549060031b1c1684526008835262001a10620019f68886206001600160a01b0390541690565b62001a02838962002513565b906001600160a01b03169052565b620024f4565b6200199f565b50346200000f5760206003193601126200000f5762001a3a62000335565b62001a4462001c80565b6001600160a01b03809116801562001a9f5760009182548273ffffffffffffffffffffffffffffffffffffffff198216178455167f8be0079c531659141344cd1fd0a4f28419497f9722a3daafe3b4186f6b6457e08380a380f35b608460405162461bcd60e51b815260206004820152602660248201527f4f776e61626c653a206e6577206f776e657220697320746865207a65726f206160448201527f64647265737300000000000000000000000000000000000000000000000000006064820152fd5b50346200000f5760206003193601126200000f576001600160a01b0362001b2f62000335565b16600052600d602052602060ff604060002054166040519015158152f35b50346200000f5760206003193601126200000f576001600160a01b0362001b7362000335565b16600052600c602052602060ff604060002054166040519015158152f35b60209067ffffffffffffffff811162001bac575b60051b0190565b62001bb6620004e8565b62001ba5565b50346200000f5760606003193601126200000f5762001bda62000335565b67ffffffffffffffff906024358281116200000f5762001bff90369060040162000547565b906044359283116200000f57366023840112156200000f57826004013562001c278162001b91565b9362001c37604051958662000523565b81855260209160248387019160051b830101913683116200000f57602401905b82821062001c7057620004e462001100888888620020a4565b8135815290830190830162001c57565b6001600160a01b0360005416330362001c9557565b606460405162461bcd60e51b815260206004820152602060248201527f4f776e61626c653a2063616c6c6572206973206e6f7420746865206f776e65726044820152fd5b1562001ce157565b606460405162461bcd60e51b815260206004820152601f60248201527f696e76616c696420617267756d656e74202d207a65726f2061646472657373006044820152fd5b60005b83811062001d395750506000910152565b818101518382015260200162001d28565b90601f19601f60209362001d6a8151809281875287808801910162001d25565b0116010190565b90602062001d8492818152019062001d4a565b90565b1562001d8f57565b606460405162461bcd60e51b815260206004820152601f60248201527f696e76616c696420617267756d656e74202d20656d70747920737472696e67006044820152fd5b602062001dee91816040519382858094519384920162001d25565b8101600281520301902090565b1562001e0357565b606460405162461bcd60e51b815260206004820152601260248201527f73616c7420616c72656164792074616b656e00000000000000000000000000006044820152fd5b1562001e4f57565b608460405162461bcd60e51b8152602060048201526024808201527f77616c6c657420616c7265616479206c696e6b656420746f20616e206964656e60448201527f74697479000000000000000000000000000000000000000000000000000000006064820152fd5b50634e487b7160e01b600052603260045260246000fd5b805482101562001ee9575b60005260206000200190600090565b62001ef362001eb8565b62001eda565b9062000bf162001f25928054906801000000000000000082101562001f27575b60018201815562001ecf565b565b62001f31620004e8565b62001f19565b6001600160a01b039182821662001f5081151562001cd9565b62001f6860405160208101816200068f868362001d71565b62001f7f6200070762000703620004cb8562001dd3565b62001fb062001fa96200074462000737866001600160a01b03166000526003602052604060002090565b1562001e47565b62001fdd837f00000000000000000000000000000000000000000000000000000000000000008462002b58565b9362001fed620007868462001dd3565b6200201085620007b6866001600160a01b03166000526003602052604060002090565b62002033846200191f876001600160a01b03166000526004602052604060002090565b8416907f8e0c709111388f5480579514d86663489ab1f206fe6da1a0c4d03ac8c318b3c6600080a36200207d62000786846001600160a01b0316600052600e602052604060002090565b60016200208c60075460ff1690565b1515146200209957505090565b62001d849162002d0c565b9291620020b062001c80565b6001600160a01b039081851693620020ca85151562001cd9565b604095865191620021396020966200213388860186620020eb848362001d71565b039662002101601f199889810183528262000523565b5190208b518a810190620006da81620021268460409060208152600060208201520190565b038a810183528262000523565b62002413565b96620021516200070762000703620004cb8b62001dd3565b6200217b62001fa96200074462000737866001600160a01b03166000526003602052604060002090565b62002189855115156200246b565b620021b6837f00000000000000000000000000000000000000000000000000000000000000008a62002b58565b906000968216965b8651811015620022d4578060008a620022718b8f62002228868e620022228f8f620006cd62002217620021f66200228a9f8762002513565b51938c8a51938491820195869190916001600160a01b036020820193169052565b519020141562002539565b62002513565b5190519485809481937f1d381240000000000000000000000000000000000000000000000000000000008352600483016040600191939293606081019481528260208201520152565b03925af18015620022c4575b62002290575b50620024f4565b620021be565b620022b4908b3d8d11620022bc575b620022ab818362000523565b810190620025ab565b503862002283565b503d6200229f565b620022ce620025c3565b6200227d565b509596620023b895506200235a8162000786949b6200237796979b949b8151620023178482019282620006cd30869190916001600160a01b036020820193169052565b5190209051809381927f53d413c5000000000000000000000000000000000000000000000000000000008352600483016020600191939293604081019481520152565b038160008d5af1801562002403575b620023e0575b505062001dd3565b6200239a85620007b6836001600160a01b03166000526003602052604060002090565b6200191f856001600160a01b03166000526004602052604060002090565b7f8e0c709111388f5480579514d86663489ab1f206fe6da1a0c4d03ac8c318b3c6600080a390565b81620023fa92903d10620022bc57620022ab818362000523565b5038806200236f565b6200240d620025c3565b62002369565b9062001f25602360405180947f4f4944000000000000000000000000000000000000000000000000000000000060208301526200245a815180926020868601910162001d25565b810103600381018552018362000523565b156200247357565b608460405162461bcd60e51b815260206004820152602560248201527f696e76616c696420617267756d656e74202d20656d707479206c697374206f6660448201527f206b6579730000000000000000000000000000000000000000000000000000006064820152fd5b50634e487b7160e01b600052601160045260246000fd5b600190600019811462002505570190565b6200250f620024dd565b0190565b602091815181101562002529575b60051b010190565b6200253362001eb8565b62002521565b156200254157565b608460405162461bcd60e51b815260206004820152603b60248201527f696e76616c696420617267756d656e74202d2077616c6c657420697320616c7360448201527f6f206c697374656420696e206d616e6167656d656e74206b65797300000000006064820152fd5b908160209103126200000f575162001d848162000c47565b506040513d6000823e3d90fd5b15620025d857565b606460405162461bcd60e51b815260206004820152601e60248201527f6f6e6c7920466163746f7279206f72206f776e65722063616e2063616c6c00006044820152fd5b9062001f25602560405180947f546f6b656e000000000000000000000000000000000000000000000000000000602083015262002663815180926020868601910162001d25565b810103600581018552018362000523565b156200267c57565b608460405162461bcd60e51b815260206004820152602360248201527f746f6b656e20616c7265616479206c696e6b656420746f20616e206964656e7460448201527f69747900000000000000000000000000000000000000000000000000000000006064820152fd5b15620026ee57565b608460405162461bcd60e51b815260206004820152602960248201527f77616c6c6574206e6f74206c696e6b656420746f20616e206964656e7469747960448201527f20636f6e747261637400000000000000000000000000000000000000000000006064820152fd5b156200276057565b606460405162461bcd60e51b815260206004820152601960248201527f6e65772077616c6c657420616c7265616479206c696e6b6564000000000000006044820152fd5b15620027ac57565b606460405162461bcd60e51b815260206004820152602060248201527f696e76616c696420617267756d656e74202d20746f6b656e20616464726573736044820152fd5b15620027f857565b608460405162461bcd60e51b815260206004820152602560248201527f6d617820616d6f756e74206f662077616c6c657473207065722049442065786360448201527f65656465640000000000000000000000000000000000000000000000000000006064820152fd5b156200286a57565b608460405162461bcd60e51b815260206004820152602260248201527f63616e6e6f742062652063616c6c6564206f6e2073656e64657220616464726560448201527f73730000000000000000000000000000000000000000000000000000000000006064820152fd5b15620028dc57565b606460405162461bcd60e51b815260206004820152601f60248201527f6f6e6c792061206c696e6b65642077616c6c65742063616e20756e6c696e6b006044820152fd5b9060001982019182116200293057565b62001f25620024dd565b50634e487b7160e01b600052603160045260246000fd5b6000198154801562002982575b01906200296c828262001ecf565b6001600160a01b0382549160031b1b1916905555565b6200298c6200293a565b6200295e565b156200299a57565b606460405162461bcd60e51b815260206004820152601560248201527f6761746577617920616c726561647920616464656400000000000000000000006044820152fd5b90600a5482101562002a20575b600a60005260188260021c7fc65a7bb8d6351c1cf70c95a316cc6a92839c986682d98bc35f958f4883f9d2a8019260031b1690565b62002a2a62001eb8565b620029eb565b62001f259062001787600a546801000000000000000081101562002a5c575b60018101600a55620029de565b62002a66620004e8565b62002a4f565b1562002a7457565b606460405162461bcd60e51b815260206004820152601260248201527f7265636569766572206e6f7420616464656400000000000000000000000000006044820152fd5b600019600a54801562002aeb575b0162002ad281620029de565b67ffffffffffffffff82549160031b1b19169055600a55565b62002af56200293a565b62002ac6565b6001600160a01b0390811660008181526005602052604090205482161562002b2f5760005260056020526040600020541690565b5060036020526040600020541690565b6020908260405193849283378101600281520301902090565b62002bfe602062001d849493610519946040519562002b7a8482018862000523565b8087528387019062002ec2823960405192848401926001600160a01b0380921684521660408401523060608401526060835262002bdc608084019784891067ffffffffffffffff8a111762002c04575b8860405251809260a086019062001d25565b820162002bf18351809360a084019062001d25565b0103808552018362000523565b62002c14565b62002c0e620004e8565b62002bca565b60405162002c426020828162002c34818301968781519384920162001d25565b810103808452018262000523565b519020908051906020016000f5803b156200000f576001600160a01b0381167ff40fcec21964ffb566044d083b4073f29f7f7929110ea19e1b3ebe375d89055e600080a290565b94919367ffffffffffffffff62002ccf94921686526001600160a01b03809281602097168789015216604087015216606085015260c0608085015260c084019062001d4a565b9160a08184039101528060605192838152019160809160005b82811062002cf7575050505090565b83518552938101939281019260010162002ce8565b91909160005b600a5481101562002e4a5762002d3c620007446200074462000744600b546001600160a01b031690565b9062002d4c6200170982620029de565b62002d7d6200073762002d636200170985620029de565b67ffffffffffffffff166000526008602052604060002090565b9062002daf6200073762002d956200170986620029de565b67ffffffffffffffff166000526009602052604060002090565b843b156200000f5762002e169486936000809462002dfe8c604051988997889687957ff75b0ec30000000000000000000000000000000000000000000000000000000087526004870162002c89565b03925af1801562002e3a575b62002e1c5750620024f4565b62002d12565b8062002e2c62002e3392620004ff565b80620002ff565b3862002283565b62002e44620025c3565b62002e0a565b50509050565b1562002e5857565b608460405162461bcd60e51b8152602060048201526024808201527f5065726d697373696f6e733a2053656e646572206973206e6f742061204d616e60448201527f61676572000000000000000000000000000000000000000000000000000000006064820152fdfe6080604090808252346101e657606081610519803803809161002182856101eb565b8339810103126101e6576100348161020e565b602091600461004f8561004886850161020e565b930161020e565b916001600160a01b0390859085831690839061006c831515610222565b1695610079871515610222565b7f821f3e4d3d679f19eacc940c87acf846ea6eae24a63058ea750304437a62aafc55875163557887a160e11b815293849182905afa9182156101db576000926101a1575b508551928584019463485cc95560e01b8652602485015216604483015260448252608082019060018060401b039383831085841117610185576000938493885251915af4903d1561019b573d90811161018557835190610126601f8201601f19168501836101eb565b81526000833d92013e5b156101435750516102aa908161026f8239f35b606491519062461bcd60e51b82526004820152601660248201527f496e697469616c697a6174696f6e206661696c65642e000000000000000000006044820152fd5b634e487b7160e01b600052604160045260246000fd5b50610130565b90918582813d83116101d4575b6101b881836101eb565b810103126101d157506101ca9061020e565b90386100bd565b80fd5b503d6101ae565b86513d6000823e3d90fd5b600080fd5b601f909101601f19168101906001600160401b0382119082101761018557604052565b51906001600160a01b03821682036101e657565b1561022957565b60405162461bcd60e51b815260206004820152601f60248201527f696e76616c696420617267756d656e74202d207a65726f2061646472657373006044820152606490fdfe608080604052600436101561011b575b6000816020816004849561006d73ffffffffffffffffffffffffffffffffffffffff7f821f3e4d3d679f19eacc940c87acf846ea6eae24a63058ea750304437a62aafc541673ffffffffffffffffffffffffffffffffffffffff1690565b7faaf10f420000000000000000000000000000000000000000000000000000000082525afa90811561010e575b82916100e1575b50368280378136917fffffffffffffffffffffffffffffffffffffffffffffffffffffffffffffd8f05a01f43d90816000803e156100dd576000f35b6000fd5b61010091506020903d8211610106575b6100fa826101a4565b01610215565b386100a1565b3d91506100f1565b610116610267565b61009a565b6000803560e01c632307f88214610132575061000f565b90346101a057817ffffffffffffffffffffffffffffffffffffffffffffffffffffffffffffffffc3601126101a05760209073ffffffffffffffffffffffffffffffffffffffff7f821f3e4d3d679f19eacc940c87acf846ea6eae24a63058ea750304437a62aafc54168152f35b5080fd5b601f7fffffffffffffffffffffffffffffffffffffffffffffffffffffffffffffffe09101166080016080811067ffffffffffffffff8211176101e657604052565b7f4e487b7100000000000000000000000000000000000000000000000000000000600052604160045260246000fd5b7fffffffffffffffffffffffffffffffffffffffffffffffffffffffffffffff8060209101126102625760805173ffffffffffffffffffffffffffffffffffffffff811681036102625790565b600080fd5b506040513d6000823e3d90fdfea264697066735822122083706edf8447da720c06bd407053cb5f181c237417e1f831e8cfcb4e1a26a3c564736f6c63430008110033a264697066735822122001693e0701f332067340d514a9deb2b7e9008b993c0a8b0d51a4606ff18e7e6164736f6c63430008110033",
  "devdoc": {
    "kind": "dev",
    "methods": {
      "addReceiver(uint64,address,address)": {
        "details": "See {IdFactory-addReceiver}."
      },
      "addTokenFactory(address)": {
        "details": "See {IdFactory-addTokenFactory}."
      },
      "createIdentity(address,string)": {
        "details": "See {IdFactory-createIdentity}."
      },
      "createIdentityWithManagementKeys(address,string,bytes32[])": {
        "details": "See {IdFactory-createIdentityWithManagementKeys}."
      },
      "createTokenIdentity(address,address,string)": {
        "details": "See {IdFactory-createTokenIdentity}."
      },
      "getBridge()": {
        "details": "get bridge address"
      },
      "getChainSelectors()": {
        "details": "See {IdFactory-getChainSelectors}."
      },
      "getIdentity(address)": {
        "details": "See {IdFactory-getIdentity}."
      },
      "getReceiver(uint64)": {
        "details": "See {IdFactory-getReceiver}."
      },
      "getReceivers()": {
        "details": "See {IdFactory-getReceivers}."
      },
      "getToken(address)": {
        "details": "See {IdFactory-getToken}."
      },
      "getWallets(address)": {
        "details": "See {IdFactory-getWallets}."
      },
      "implementationAuthority()": {
        "details": "See {IdFactory-implementationAuthority}."
      },
      "isSaltTaken(string)": {
        "details": "See {IdFactory-isSaltTaken}."
      },
      "isTokenFactory(address)": {
        "details": "See {IdFactory-isTokenFactory}."
      },
      "linkWallet(address)": {
        "details": "See {IdFactory-linkWallet}."
      },
      "owner()": {
        "details": "Returns the address of the current owner."
      },
      "removeReceiver(uint64)": {
        "details": "See {IdFactory-removeReceiver}."
      },
      "removeTokenFactory(address)": {
        "details": "See {IdFactory-removeTokenFactory}."
      },
      "renounceOwnership()": {
        "details": "Leaves the contract without owner. It will not be possible to call `onlyOwner` functions. Can only be called by the current owner. NOTE: Renouncing ownership will leave the contract without an owner, thereby disabling any functionality that is only available to the owner."
      },
      "setBridge(address)": {
        "params": {
          "_bridge": "the address of the bridge contract"
        }
      },
      "transferOwnership(address)": {
        "details": "Transfers ownership of the contract to a new account (`newOwner`). Can only be called by the current owner."
      },
      "unlinkWallet(address)": {
        "details": "See {IdFactory-unlinkWallet}."
      }
    },
    "stateVariables": {
      "bridge": {
        "details": "getter for the bridge contract address"
      }
    },
    "version": 1
  },
  "userdoc": {
    "events": {
      "Deployed(address)": {
        "notice": "events"
      }
    },
    "kind": "user",
    "methods": {},
    "version": 1
  },
  "storageLayout": {
    "storage": [
      {
        "astId": 259,
        "contract": "src/factory/IdFactory.sol:IdFactory",
        "label": "_owner",
        "offset": 0,
        "slot": "0",
        "type": "t_address"
      },
      {
        "astId": 13405,
        "contract": "src/factory/IdFactory.sol:IdFactory",
        "label": "_tokenFactories",
        "offset": 0,
        "slot": "1",
        "type": "t_mapping(t_address,t_bool)"
      },
      {
        "astId": 13411,
        "contract": "src/factory/IdFactory.sol:IdFactory",
        "label": "_saltTaken",
        "offset": 0,
        "slot": "2",
        "type": "t_mapping(t_string_memory_ptr,t_bool)"
      },
      {
        "astId": 13415,
        "contract": "src/factory/IdFactory.sol:IdFactory",
        "label": "_userIdentity",
        "offset": 0,
        "slot": "3",
        "type": "t_mapping(t_address,t_address)"
      },
      {
        "astId": 13420,
        "contract": "src/factory/IdFactory.sol:IdFactory",
        "label": "_wallets",
        "offset": 0,
        "slot": "4",
        "type": "t_mapping(t_address,t_array(t_address)dyn_storage)"
      },
      {
        "astId": 13424,
        "contract": "src/factory/IdFactory.sol:IdFactory",
        "label": "_tokenIdentity",
        "offset": 0,
        "slot": "5",
        "type": "t_mapping(t_address,t_address)"
      },
      {
        "astId": 13428,
        "contract": "src/factory/IdFactory.sol:IdFactory",
        "label": "_tokenAddress",
        "offset": 0,
        "slot": "6",
        "type": "t_mapping(t_address,t_address)"
      },
      {
        "astId": 13430,
        "contract": "src/factory/IdFactory.sol:IdFactory",
        "label": "_isHomeChain",
        "offset": 0,
        "slot": "7",
        "type": "t_bool"
      },
      {
        "astId": 13434,
        "contract": "src/factory/IdFactory.sol:IdFactory",
        "label": "destinationChainSelectorToReceiver",
        "offset": 0,
        "slot": "8",
        "type": "t_mapping(t_uint64,t_address)"
      },
      {
        "astId": 13438,
        "contract": "src/factory/IdFactory.sol:IdFactory",
        "label": "destinationChainSelectorToGateway",
        "offset": 0,
        "slot": "9",
        "type": "t_mapping(t_uint64,t_address)"
      },
      {
        "astId": 13441,
        "contract": "src/factory/IdFactory.sol:IdFactory",
        "label": "chainSelectors",
        "offset": 0,
        "slot": "10",
        "type": "t_array(t_uint64)dyn_storage"
      },
      {
        "astId": 13443,
        "contract": "src/factory/IdFactory.sol:IdFactory",
        "label": "bridge",
        "offset": 0,
        "slot": "11",
        "type": "t_address"
      },
      {
        "astId": 13447,
        "contract": "src/factory/IdFactory.sol:IdFactory",
        "label": "isAllowedContract",
        "offset": 0,
        "slot": "12",
        "type": "t_mapping(t_address,t_bool)"
      },
      {
        "astId": 13451,
        "contract": "src/factory/IdFactory.sol:IdFactory",
        "label": "isManager",
        "offset": 0,
        "slot": "13",
        "type": "t_mapping(t_address,t_bool)"
      },
      {
        "astId": 13455,
        "contract": "src/factory/IdFactory.sol:IdFactory",
        "label": "isCreatedIdentity",
        "offset": 0,
        "slot": "14",
        "type": "t_mapping(t_address,t_bool)"
      }
    ],
    "types": {
      "t_address": {
        "encoding": "inplace",
        "label": "address",
        "numberOfBytes": "20"
      },
      "t_array(t_address)dyn_storage": {
        "base": "t_address",
        "encoding": "dynamic_array",
        "label": "address[]",
        "numberOfBytes": "32"
      },
      "t_array(t_uint64)dyn_storage": {
        "base": "t_uint64",
        "encoding": "dynamic_array",
        "label": "uint64[]",
        "numberOfBytes": "32"
      },
      "t_bool": {
        "encoding": "inplace",
        "label": "bool",
        "numberOfBytes": "1"
      },
      "t_mapping(t_address,t_address)": {
        "encoding": "mapping",
        "key": "t_address",
        "label": "mapping(address => address)",
        "numberOfBytes": "32",
        "value": "t_address"
      },
      "t_mapping(t_address,t_array(t_address)dyn_storage)": {
        "encoding": "mapping",
        "key": "t_address",
        "label": "mapping(address => address[])",
        "numberOfBytes": "32",
        "value": "t_array(t_address)dyn_storage"
      },
      "t_mapping(t_address,t_bool)": {
        "encoding": "mapping",
        "key": "t_address",
        "label": "mapping(address => bool)",
        "numberOfBytes": "32",
        "value": "t_bool"
      },
      "t_mapping(t_string_memory_ptr,t_bool)": {
        "encoding": "mapping",
        "key": "t_string_memory_ptr",
        "label": "mapping(string => bool)",
        "numberOfBytes": "32",
        "value": "t_bool"
      },
      "t_mapping(t_uint64,t_address)": {
        "encoding": "mapping",
        "key": "t_uint64",
        "label": "mapping(uint64 => address)",
        "numberOfBytes": "32",
        "value": "t_address"
      },
      "t_string_memory_ptr": {
        "encoding": "bytes",
        "label": "string",
        "numberOfBytes": "32"
      },
      "t_uint64": {
        "encoding": "inplace",
        "label": "uint64",
        "numberOfBytes": "8"
      }
    }
  }
}