{
  "address": "0x86B367f7B843F957273254361961A69bD184aCAc",
  "abi": [
    {
      "inputs": [
        {
          "internalType": "address",
          "name": "implementationAuthority",
          "type": "address"
        }
      ],
      "stateMutability": "nonpayable",
      "type": "constructor"
    },
    {
      "anonymous": false,
      "inputs": [
        {
          "indexed": true,
          "internalType": "address",
          "name": "_addr",
          "type": "address"
        }
      ],
      "name": "Deployed",
      "type": "event"
    },
    {
      "anonymous": false,
      "inputs": [
        {
          "indexed": true,
          "internalType": "address",
          "name": "previousOwner",
          "type": "address"
        },
        {
          "indexed": true,
          "internalType": "address",
          "name": "newOwner",
          "type": "address"
        }
      ],
      "name": "OwnershipTransferred",
      "type": "event"
    },
    {
      "anonymous": false,
      "inputs": [
        {
          "indexed": true,
          "internalType": "address",
          "name": "factory",
          "type": "address"
        }
      ],
      "name": "TokenFactoryAdded",
      "type": "event"
    },
    {
      "anonymous": false,
      "inputs": [
        {
          "indexed": true,
          "internalType": "address",
          "name": "factory",
          "type": "address"
        }
      ],
      "name": "TokenFactoryRemoved",
      "type": "event"
    },
    {
      "anonymous": false,
      "inputs": [
        {
          "indexed": true,
          "internalType": "address",
          "name": "token",
          "type": "address"
        },
        {
          "indexed": true,
          "internalType": "address",
          "name": "identity",
          "type": "address"
        }
      ],
      "name": "TokenLinked",
      "type": "event"
    },
    {
      "anonymous": false,
      "inputs": [
        {
          "indexed": true,
          "internalType": "address",
          "name": "wallet",
          "type": "address"
        },
        {
          "indexed": true,
          "internalType": "address",
          "name": "identity",
          "type": "address"
        }
      ],
      "name": "WalletLinked",
      "type": "event"
    },
    {
      "anonymous": false,
      "inputs": [
        {
          "indexed": true,
          "internalType": "address",
          "name": "wallet",
          "type": "address"
        },
        {
          "indexed": true,
          "internalType": "address",
          "name": "identity",
          "type": "address"
        }
      ],
      "name": "WalletUnlinked",
      "type": "event"
    },
    {
      "inputs": [
        {
          "internalType": "address",
          "name": "_factory",
          "type": "address"
        }
      ],
      "name": "addTokenFactory",
      "outputs": [],
      "stateMutability": "nonpayable",
      "type": "function"
    },
    {
      "inputs": [
        {
          "internalType": "address",
          "name": "_wallet",
          "type": "address"
        },
        {
          "internalType": "string",
          "name": "_salt",
          "type": "string"
        }
      ],
      "name": "createIdentity",
      "outputs": [
        {
          "internalType": "address",
          "name": "",
          "type": "address"
        }
      ],
      "stateMutability": "nonpayable",
      "type": "function"
    },
    {
      "inputs": [
        {
          "internalType": "address",
          "name": "_wallet",
          "type": "address"
        },
        {
          "internalType": "string",
          "name": "_salt",
          "type": "string"
        },
        {
          "internalType": "bytes32[]",
          "name": "_managementKeys",
          "type": "bytes32[]"
        }
      ],
      "name": "createIdentityWithManagementKeys",
      "outputs": [
        {
          "internalType": "address",
          "name": "",
          "type": "address"
        }
      ],
      "stateMutability": "nonpayable",
      "type": "function"
    },
    {
      "inputs": [
        {
          "internalType": "address",
          "name": "_token",
          "type": "address"
        },
        {
          "internalType": "address",
          "name": "_tokenOwner",
          "type": "address"
        },
        {
          "internalType": "string",
          "name": "_salt",
          "type": "string"
        }
      ],
      "name": "createTokenIdentity",
      "outputs": [
        {
          "internalType": "address",
          "name": "",
          "type": "address"
        }
      ],
      "stateMutability": "nonpayable",
      "type": "function"
    },
    {
      "inputs": [
        {
          "internalType": "address",
          "name": "_wallet",
          "type": "address"
        }
      ],
      "name": "getIdentity",
      "outputs": [
        {
          "internalType": "address",
          "name": "",
          "type": "address"
        }
      ],
      "stateMutability": "view",
      "type": "function"
    },
    {
      "inputs": [
        {
          "internalType": "address",
          "name": "_identity",
          "type": "address"
        }
      ],
      "name": "getToken",
      "outputs": [
        {
          "internalType": "address",
          "name": "",
          "type": "address"
        }
      ],
      "stateMutability": "view",
      "type": "function"
    },
    {
      "inputs": [
        {
          "internalType": "address",
          "name": "_identity",
          "type": "address"
        }
      ],
      "name": "getWallets",
      "outputs": [
        {
          "internalType": "address[]",
          "name": "",
          "type": "address[]"
        }
      ],
      "stateMutability": "view",
      "type": "function"
    },
    {
      "inputs": [],
      "name": "implementationAuthority",
      "outputs": [
        {
          "internalType": "address",
          "name": "",
          "type": "address"
        }
      ],
      "stateMutability": "view",
      "type": "function"
    },
    {
      "inputs": [
        {
          "internalType": "string",
          "name": "_salt",
          "type": "string"
        }
      ],
      "name": "isSaltTaken",
      "outputs": [
        {
          "internalType": "bool",
          "name": "",
          "type": "bool"
        }
      ],
      "stateMutability": "view",
      "type": "function"
    },
    {
      "inputs": [
        {
          "internalType": "address",
          "name": "_factory",
          "type": "address"
        }
      ],
      "name": "isTokenFactory",
      "outputs": [
        {
          "internalType": "bool",
          "name": "",
          "type": "bool"
        }
      ],
      "stateMutability": "view",
      "type": "function"
    },
    {
      "inputs": [
        {
          "internalType": "address",
          "name": "_newWallet",
          "type": "address"
        }
      ],
      "name": "linkWallet",
      "outputs": [],
      "stateMutability": "nonpayable",
      "type": "function"
    },
    {
      "inputs": [],
      "name": "owner",
      "outputs": [
        {
          "internalType": "address",
          "name": "",
          "type": "address"
        }
      ],
      "stateMutability": "view",
      "type": "function"
    },
    {
      "inputs": [
        {
          "internalType": "address",
          "name": "_factory",
          "type": "address"
        }
      ],
      "name": "removeTokenFactory",
      "outputs": [],
      "stateMutability": "nonpayable",
      "type": "function"
    },
    {
      "inputs": [],
      "name": "renounceOwnership",
      "outputs": [],
      "stateMutability": "nonpayable",
      "type": "function"
    },
    {
      "inputs": [
        {
          "internalType": "address",
          "name": "newOwner",
          "type": "address"
        }
      ],
      "name": "transferOwnership",
      "outputs": [],
      "stateMutability": "nonpayable",
      "type": "function"
    },
    {
      "inputs": [
        {
          "internalType": "address",
          "name": "_oldWallet",
          "type": "address"
        }
      ],
      "name": "unlinkWallet",
      "outputs": [],
      "stateMutability": "nonpayable",
      "type": "function"
    }
  ],
  "transactionHash": "0x5064cf4075ba946408a0ca2301e9484ff4c32048583cf764d836e9907e66a5cf",
  "args": [
    "0x4822CF27eE43aFc6499225E91428F4696647B3a6"
  ],
  "numDeployments": 1,
  "solcInputHash": "1d53299f771fd23f114314547d331b99",
  "bytecode": "0x60a06040523480156200001157600080fd5b506040516200276e3803806200276e8339810160408190526200003491620000fc565b6200003f33620000ac565b6001600160a01b0381166200009a5760405162461bcd60e51b815260206004820152601f60248201527f696e76616c696420617267756d656e74202d207a65726f206164647265737300604482015260640160405180910390fd5b6001600160a01b03166080526200012e565b600080546001600160a01b038381166001600160a01b0319831681178455604051919092169283917f8be0079c531659141344cd1fd0a4f28419497f9722a3daafe3b4186f6b6457e09190a35050565b6000602082840312156200010f57600080fd5b81516001600160a01b03811681146200012757600080fd5b9392505050565b60805161260f6200015f6000396000818161011c0152818161069201528181610d8601526116d7015261260f6000f3fe60806040523480156200001157600080fd5b5060043610620001155760003560e01c8063715018a611620000a35780639ce19365116200006e5780639ce193651462000296578063b8bb812614620002ad578063f2fde38b14620002c4578063fe5cd59a14620002db57600080fd5b8063715018a6146200024c5780638da5cb5b14620002565780638e952bfe1462000268578063937529ef146200027f57600080fd5b80633e3bc3d711620000e45780633e3bc3d714620001af578063422c29a414620001de5780635027dbe2146200020457806359770438146200021d57600080fd5b80632307f882146200011a5780632fea7b8114620001595780633a50045114620001705780633d56ff661462000198575b600080fd5b7f00000000000000000000000000000000000000000000000000000000000000005b6040516001600160a01b0390911681526020015b60405180910390f35b6200013c6200016a36600462001bf3565b620002f2565b620001876200018136600462001c18565b62000358565b604051901515815260200162000150565b6200013c620001a936600462001d50565b6200038a565b62000187620001c036600462001bf3565b6001600160a01b031660009081526001602052604090205460ff1690565b620001f5620001ef36600462001bf3565b6200076d565b60405162000150919062001db6565b6200021b6200021536600462001bf3565b620007e5565b005b6200013c6200022e36600462001bf3565b6001600160a01b039081166000908152600660205260409020541690565b6200021b62000b2e565b6000546001600160a01b03166200013c565b6200013c6200027936600462001e05565b62000b46565b6200021b6200029036600462001bf3565b62000e71565b6200021b620002a736600462001bf3565b62000f86565b6200021b620002be36600462001bf3565b620010a2565b6200021b620002d536600462001bf3565b62001388565b6200013c620002ec36600462001e59565b6200141e565b6001600160a01b03818116600090815260056020526040812054909116156200033457506001600160a01b039081166000908152600560205260409020541690565b506001600160a01b039081166000908152600360205260409020541690565b919050565b6000600283836040516200036e92919062001f46565b9081526040519081900360200190205460ff1690505b92915050565b3360009081526001602052604081205460ff1680620003b357506000546001600160a01b031633145b620004055760405162461bcd60e51b815260206004820152601e60248201527f6f6e6c7920466163746f7279206f72206f776e65722063616e2063616c6c000060448201526064015b60405180910390fd5b6001600160a01b0384166200045d5760405162461bcd60e51b815260206004820152601f60248201527f696e76616c696420617267756d656e74202d207a65726f2061646472657373006044820152606401620003fc565b6001600160a01b038316620004b55760405162461bcd60e51b815260206004820152601f60248201527f696e76616c696420617267756d656e74202d207a65726f2061646472657373006044820152606401620003fc565b604051602001620004d190602080825260009082015260400190565b6040516020818303038152906040528051906020012082604051602001620004fa919062001f7c565b60405160208183030381529060405280519060200120036200055f5760405162461bcd60e51b815260206004820152601f60248201527f696e76616c696420617267756d656e74202d20656d70747920737472696e67006044820152606401620003fc565b60008260405160200162000574919062001fb1565b604051602081830303815290604052905060028160405162000597919062001ff8565b9081526040519081900360200190205460ff1615620005f95760405162461bcd60e51b815260206004820152601260248201527f73616c7420616c72656164792074616b656e00000000000000000000000000006044820152606401620003fc565b6001600160a01b038581166000908152600560205260409020541615620006895760405162461bcd60e51b815260206004820152602360248201527f746f6b656e20616c7265616479206c696e6b656420746f20616e206964656e7460448201527f69747900000000000000000000000000000000000000000000000000000000006064820152608401620003fc565b6000620006b8827f000000000000000000000000000000000000000000000000000000000000000087620019fc565b90506001600283604051620006ce919062001ff8565b9081526040805160209281900383018120805460ff1916941515949094179093556001600160a01b03898116600081815260058552838120805473ffffffffffffffffffffffffffffffffffffffff19908116948916948517909155838252600690955292832080549094168117909355927fa8261d398ddc63db24cc53cd0c63c9464cabad1bc478ede2107b32c1c4010b7a9190a395945050505050565b6001600160a01b038116600090815260046020908152604091829020805483518184028101840190945280845260609392830182828015620007d957602002820191906000526020600020905b81546001600160a01b03168152600190910190602001808311620007ba575b50505050509050919050565b6001600160a01b0381166200083d5760405162461bcd60e51b815260206004820152601f60248201527f696e76616c696420617267756d656e74202d207a65726f2061646472657373006044820152606401620003fc565b336001600160a01b03821603620008bd5760405162461bcd60e51b815260206004820152602260248201527f63616e6e6f742062652063616c6c6564206f6e2073656e64657220616464726560448201527f73730000000000000000000000000000000000000000000000000000000000006064820152608401620003fc565b6001600160a01b03808216600090815260036020526040808220543383529120548216911614620009315760405162461bcd60e51b815260206004820152601f60248201527f6f6e6c792061206c696e6b65642077616c6c65742063616e20756e6c696e6b006044820152606401620003fc565b6001600160a01b038082166000908152600360209081526040808320805473ffffffffffffffffffffffffffffffffffffffff198116909155909316808352600490915291812054905b8181101562000ae8576001600160a01b03838116600090815260046020526040902080549186169183908110620009b657620009b662002016565b6000918252602090912001546001600160a01b03160362000ad3576001600160a01b0383166000908152600460205260409020620009f660018462002042565b8154811062000a095762000a0962002016565b60009182526020808320909101546001600160a01b0386811684526004909252604090922080549190921691908390811062000a495762000a4962002016565b6000918252602080832091909101805473ffffffffffffffffffffffffffffffffffffffff19166001600160a01b03948516179055918516815260049091526040902080548062000a9e5762000a9e62002058565b6000828152602090208101600019908101805473ffffffffffffffffffffffffffffffffffffffff1916905501905562000ae8565b8062000adf816200206e565b9150506200097b565b50816001600160a01b0316836001600160a01b03167f35e6fc363a4bf723d53b26c1a751674aca9c3ead425f0591f84f5540ede86f1260405160405180910390a3505050565b62000b3862001a8c565b62000b44600062001ae8565b565b600062000b5262001a8c565b6001600160a01b03831662000baa5760405162461bcd60e51b815260206004820152601f60248201527f696e76616c696420617267756d656e74202d207a65726f2061646472657373006044820152606401620003fc565b60405160200162000bc690602080825260009082015260400190565b604051602081830303815290604052805190602001208260405160200162000bef919062001f7c565b604051602081830303815290604052805190602001200362000c545760405162461bcd60e51b815260206004820152601f60248201527f696e76616c696420617267756d656e74202d20656d70747920737472696e67006044820152606401620003fc565b60008260405160200162000c6991906200208b565b604051602081830303815290604052905060028160405162000c8c919062001ff8565b9081526040519081900360200190205460ff161562000cee5760405162461bcd60e51b815260206004820152601260248201527f73616c7420616c72656164792074616b656e00000000000000000000000000006044820152606401620003fc565b6001600160a01b03848116600090815260036020526040902054161562000d7d5760405162461bcd60e51b8152602060048201526024808201527f77616c6c657420616c7265616479206c696e6b656420746f20616e206964656e60448201527f74697479000000000000000000000000000000000000000000000000000000006064820152608401620003fc565b600062000dac827f000000000000000000000000000000000000000000000000000000000000000087620019fc565b9050600160028360405162000dc2919062001ff8565b9081526040805160209281900383018120805460ff1916941515949094179093556001600160a01b03888116600081815260038552838120805473ffffffffffffffffffffffffffffffffffffffff19908116948916948517909155838252600486529381208054600181018255908252948120909401805490931681179092559290917f8e0c709111388f5480579514d86663489ab1f206fe6da1a0c4d03ac8c318b3c691a3949350505050565b62000e7b62001a8c565b6001600160a01b03811662000ed35760405162461bcd60e51b815260206004820152601f60248201527f696e76616c696420617267756d656e74202d207a65726f2061646472657373006044820152606401620003fc565b6001600160a01b03811660009081526001602052604090205460ff1662000f3d5760405162461bcd60e51b815260206004820152600d60248201527f6e6f74206120666163746f7279000000000000000000000000000000000000006044820152606401620003fc565b6001600160a01b038116600081815260016020526040808220805460ff19169055517fd1fd5274f793d20291c0abfe42e1ef63213a11b34996d485f7afb8fe014248519190a250565b62000f9062001a8c565b6001600160a01b03811662000fe85760405162461bcd60e51b815260206004820152601f60248201527f696e76616c696420617267756d656e74202d207a65726f2061646472657373006044820152606401620003fc565b6001600160a01b03811660009081526001602052604090205460ff1615620010535760405162461bcd60e51b815260206004820152601160248201527f616c7265616479206120666163746f72790000000000000000000000000000006044820152606401620003fc565b6001600160a01b0381166000818152600160208190526040808320805460ff1916909217909155517f45eb8ac5344d2d3f306550fe6e969ca4190526313c512afed851d052bf2ab2fd9190a250565b6001600160a01b038116620010fa5760405162461bcd60e51b815260206004820152601f60248201527f696e76616c696420617267756d656e74202d207a65726f2061646472657373006044820152606401620003fc565b336000908152600360205260409020546001600160a01b0316620011875760405162461bcd60e51b815260206004820152602960248201527f77616c6c6574206e6f74206c696e6b656420746f20616e206964656e7469747960448201527f20636f6e747261637400000000000000000000000000000000000000000000006064820152608401620003fc565b6001600160a01b038181166000908152600360205260409020541615620011f15760405162461bcd60e51b815260206004820152601960248201527f6e65772077616c6c657420616c7265616479206c696e6b6564000000000000006044820152606401620003fc565b6001600160a01b0381811660009081526005602052604090205416156200125b5760405162461bcd60e51b815260206004820181905260248201527f696e76616c696420617267756d656e74202d20746f6b656e20616464726573736044820152606401620003fc565b336000908152600360209081526040808320546001600160a01b0316808452600490925290912054606511620012fa5760405162461bcd60e51b815260206004820152602560248201527f6d617820616d6f756e74206f662077616c6c657473207065722049442065786360448201527f65656465640000000000000000000000000000000000000000000000000000006064820152608401620003fc565b6001600160a01b038083166000818152600360209081526040808320805495871673ffffffffffffffffffffffffffffffffffffffff1996871681179091558084526004835281842080546001810182559085529284209092018054909516841790945592517f8e0c709111388f5480579514d86663489ab1f206fe6da1a0c4d03ac8c318b3c69190a35050565b6200139262001a8c565b6001600160a01b038116620014105760405162461bcd60e51b815260206004820152602660248201527f4f776e61626c653a206e6577206f776e657220697320746865207a65726f206160448201527f64647265737300000000000000000000000000000000000000000000000000006064820152608401620003fc565b6200141b8162001ae8565b50565b60006200142a62001a8c565b6001600160a01b038416620014825760405162461bcd60e51b815260206004820152601f60248201527f696e76616c696420617267756d656e74202d207a65726f2061646472657373006044820152606401620003fc565b6040516020016200149e90602080825260009082015260400190565b6040516020818303038152906040528051906020012083604051602001620014c7919062001f7c565b60405160208183030381529060405280519060200120036200152c5760405162461bcd60e51b815260206004820152601f60248201527f696e76616c696420617267756d656e74202d20656d70747920737472696e67006044820152606401620003fc565b6000836040516020016200154191906200208b565b604051602081830303815290604052905060028160405162001564919062001ff8565b9081526040519081900360200190205460ff1615620015c65760405162461bcd60e51b815260206004820152601260248201527f73616c7420616c72656164792074616b656e00000000000000000000000000006044820152606401620003fc565b6001600160a01b038581166000908152600360205260409020541615620016555760405162461bcd60e51b8152602060048201526024808201527f77616c6c657420616c7265616479206c696e6b656420746f20616e206964656e60448201527f74697479000000000000000000000000000000000000000000000000000000006064820152608401620003fc565b6000835111620016ce5760405162461bcd60e51b815260206004820152602560248201527f696e76616c696420617267756d656e74202d20656d707479206c697374206f6660448201527f206b6579730000000000000000000000000000000000000000000000000000006064820152608401620003fc565b6000620016fd827f000000000000000000000000000000000000000000000000000000000000000030620019fc565b905060005b84518110156200188357604080516001600160a01b038916602082015201604051602081830303815290604052805190602001208582815181106200174b576200174b62002016565b602002602001015103620017c85760405162461bcd60e51b815260206004820152603b60248201527f696e76616c696420617267756d656e74202d2077616c6c657420697320616c7360448201527f6f206c697374656420696e206d616e6167656d656e74206b65797300000000006064820152608401620003fc565b816001600160a01b0316631d381240868381518110620017ec57620017ec62002016565b60200260200101516001806040518463ffffffff1660e01b815260040162001827939291909283526020830191909152604082015260600190565b6020604051808303816000875af115801562001847573d6000803e3d6000fd5b505050506040513d601f19601f820116820180604052508101906200186d9190620020d2565b50806200187a816200206e565b91505062001702565b50604080513060208201526001600160a01b038316916353d413c5910160408051601f198184030181529082905280516020909101207fffffffff0000000000000000000000000000000000000000000000000000000060e084901b1682526004820152600160248201526044016020604051808303816000875af115801562001911573d6000803e3d6000fd5b505050506040513d601f19601f82011682018060405250810190620019379190620020d2565b5060016002836040516200194c919062001ff8565b9081526040805160209281900383018120805460ff1916941515949094179093556001600160a01b03898116600081815260038552838120805473ffffffffffffffffffffffffffffffffffffffff19908116948916948517909155838252600486529381208054600181018255908252948120909401805490931681179092559290917f8e0c709111388f5480579514d86663489ab1f206fe6da1a0c4d03ac8c318b3c691a395945050505050565b6000806040518060200162001a119062001bcd565b601f1982820381018352601f9091011660408181526001600160a01b0387811660208401528616818301528051808303820181526060830190915291925060009062001a649084908490608001620020f6565b604051602081830303815290604052905062001a81878262001b45565b979650505050505050565b6000546001600160a01b0316331462000b445760405162461bcd60e51b815260206004820181905260248201527f4f776e61626c653a2063616c6c6572206973206e6f7420746865206f776e65726044820152606401620003fc565b600080546001600160a01b0383811673ffffffffffffffffffffffffffffffffffffffff19831681178455604051919092169283917f8be0079c531659141344cd1fd0a4f28419497f9722a3daafe3b4186f6b6457e09190a35050565b6000808360405160200162001b5b919062001ff8565b60405160208183030381529060405280519060200120905060008360200184518381836000f592505050803b62001b9157600080fd5b6040516001600160a01b038216907ff40fcec21964ffb566044d083b4073f29f7f7929110ea19e1b3ebe375d89055e90600090a2949350505050565b6104b0806200212a83390190565b80356001600160a01b03811681146200035357600080fd5b60006020828403121562001c0657600080fd5b62001c118262001bdb565b9392505050565b6000806020838503121562001c2c57600080fd5b823567ffffffffffffffff8082111562001c4557600080fd5b818501915085601f83011262001c5a57600080fd5b81358181111562001c6a57600080fd5b86602082850101111562001c7d57600080fd5b60209290920196919550909350505050565b634e487b7160e01b600052604160045260246000fd5b604051601f8201601f1916810167ffffffffffffffff8111828210171562001cd15762001cd162001c8f565b604052919050565b600082601f83011262001ceb57600080fd5b813567ffffffffffffffff81111562001d085762001d0862001c8f565b62001d1d6020601f19601f8401160162001ca5565b81815284602083860101111562001d3357600080fd5b816020850160208301376000918101602001919091529392505050565b60008060006060848603121562001d6657600080fd5b62001d718462001bdb565b925062001d816020850162001bdb565b9150604084013567ffffffffffffffff81111562001d9e57600080fd5b62001dac8682870162001cd9565b9150509250925092565b6020808252825182820181905260009190848201906040850190845b8181101562001df95783516001600160a01b03168352928401929184019160010162001dd2565b50909695505050505050565b6000806040838503121562001e1957600080fd5b62001e248362001bdb565b9150602083013567ffffffffffffffff81111562001e4157600080fd5b62001e4f8582860162001cd9565b9150509250929050565b60008060006060848603121562001e6f57600080fd5b62001e7a8462001bdb565b925060208085013567ffffffffffffffff8082111562001e9957600080fd5b62001ea78883890162001cd9565b9450604087013591508082111562001ebe57600080fd5b818701915087601f83011262001ed357600080fd5b81358181111562001ee85762001ee862001c8f565b8060051b915062001efb84830162001ca5565b818152918301840191848101908a84111562001f1657600080fd5b938501935b8385101562001f365784358252938501939085019062001f1b565b8096505050505050509250925092565b8183823760009101908152919050565b60005b8381101562001f7357818101518382015260200162001f59565b50506000910152565b602081526000825180602084015262001f9d81604085016020870162001f56565b601f01601f19169190910160400192915050565b7f546f6b656e00000000000000000000000000000000000000000000000000000081526000825162001feb81600585016020870162001f56565b9190910160050192915050565b600082516200200c81846020870162001f56565b9190910192915050565b634e487b7160e01b600052603260045260246000fd5b634e487b7160e01b600052601160045260246000fd5b818103818111156200038457620003846200202c565b634e487b7160e01b600052603160045260246000fd5b600060001982036200208457620020846200202c565b5060010190565b7f4f49440000000000000000000000000000000000000000000000000000000000815260008251620020c581600385016020870162001f56565b9190910160030192915050565b600060208284031215620020e557600080fd5b8151801515811462001c1157600080fd5b600083516200210a81846020880162001f56565b8351908301906200212081836020880162001f56565b0194935050505056fe608060405234801561001057600080fd5b506040516104b03803806104b083398101604081905261002f91610271565b6001600160a01b03821661008a5760405162461bcd60e51b815260206004820152601f60248201527f696e76616c696420617267756d656e74202d207a65726f20616464726573730060448201526064015b60405180910390fd5b6001600160a01b0381166100e05760405162461bcd60e51b815260206004820152601f60248201527f696e76616c696420617267756d656e74202d207a65726f2061646472657373006044820152606401610081565b817f821f3e4d3d679f19eacc940c87acf846ea6eae24a63058ea750304437a62aafc556000826001600160a01b031663aaf10f426040518163ffffffff1660e01b8152600401602060405180830381865afa158015610143573d6000803e3d6000fd5b505050506040513d601f19601f8201168201806040525081019061016791906102a4565b6040516001600160a01b03848116602483015291925060009183169060440160408051601f198184030181529181526020820180516001600160e01b031663189acdbd60e31b179052516101bb91906102c6565b600060405180830381855af49150503d80600081146101f6576040519150601f19603f3d011682016040523d82523d6000602084013e6101fb565b606091505b505090508061024c5760405162461bcd60e51b815260206004820152601660248201527f496e697469616c697a6174696f6e206661696c65642e000000000000000000006044820152606401610081565b505050506102f5565b80516001600160a01b038116811461026c57600080fd5b919050565b6000806040838503121561028457600080fd5b61028d83610255565b915061029b60208401610255565b90509250929050565b6000602082840312156102b657600080fd5b6102bf82610255565b9392505050565b6000825160005b818110156102e757602081860181015185830152016102cd565b506000920191825250919050565b6101ac806103046000396000f3fe60806040526004361061001e5760003560e01c80632307f882146100e1575b60006100487f821f3e4d3d679f19eacc940c87acf846ea6eae24a63058ea750304437a62aafc5490565b73ffffffffffffffffffffffffffffffffffffffff1663aaf10f426040518163ffffffff1660e01b8152600401602060405180830381865afa158015610092573d6000803e3d6000fd5b505050506040513d601f19601f820116820180604052508101906100b69190610139565b90503660008037600080366000846127105a03f43d806000803e8180156100dc57816000f35b816000fd5b3480156100ed57600080fd5b507f821f3e4d3d679f19eacc940c87acf846ea6eae24a63058ea750304437a62aafc5460405173ffffffffffffffffffffffffffffffffffffffff909116815260200160405180910390f35b60006020828403121561014b57600080fd5b815173ffffffffffffffffffffffffffffffffffffffff8116811461016f57600080fd5b939250505056fea264697066735822122084772c21e660be530d4f58ec8c645ae386b1eb8999d049aad644dea992ab041c64736f6c63430008110033a26469706673582212203c17a6922283475fa59652dd274ad3b4b9e3c3203c4b64a25bb746649add6d0964736f6c63430008110033",
  "devdoc": {
    "kind": "dev",
    "methods": {
      "addTokenFactory(address)": {
        "details": "See {IdFactory-addTokenFactory}."
      },
      "createIdentity(address,string)": {
        "details": "See {IdFactory-createIdentity}."
      },
      "createIdentityWithManagementKeys(address,string,bytes32[])": {
        "details": "See {IdFactory-createIdentityWithManagementKeys}."
      },
      "createTokenIdentity(address,address,string)": {
        "details": "See {IdFactory-createTokenIdentity}."
      },
      "getIdentity(address)": {
        "details": "See {IdFactory-getIdentity}."
      },
      "getToken(address)": {
        "details": "See {IdFactory-getToken}."
      },
      "getWallets(address)": {
        "details": "See {IdFactory-getWallets}."
      },
      "implementationAuthority()": {
        "details": "See {IdFactory-implementationAuthority}."
      },
      "isSaltTaken(string)": {
        "details": "See {IdFactory-isSaltTaken}."
      },
      "isTokenFactory(address)": {
        "details": "See {IdFactory-isTokenFactory}."
      },
      "linkWallet(address)": {
        "details": "See {IdFactory-linkWallet}."
      },
      "owner()": {
        "details": "Returns the address of the current owner."
      },
      "removeTokenFactory(address)": {
        "details": "See {IdFactory-removeTokenFactory}."
      },
      "renounceOwnership()": {
        "details": "Leaves the contract without owner. It will not be possible to call `onlyOwner` functions. Can only be called by the current owner. NOTE: Renouncing ownership will leave the contract without an owner, thereby disabling any functionality that is only available to the owner."
      },
      "transferOwnership(address)": {
        "details": "Transfers ownership of the contract to a new account (`newOwner`). Can only be called by the current owner."
      },
      "unlinkWallet(address)": {
        "details": "See {IdFactory-unlinkWallet}."
      }
    },
    "version": 1
  },
  "userdoc": {
    "events": {
      "Deployed(address)": {
        "notice": "events"
      }
    },
    "kind": "user",
    "methods": {},
    "version": 1
  },
  "storageLayout": {
    "storage": [
      {
        "astId": 7,
        "contract": "src/factory/IdFactory.sol:IdFactory",
        "label": "_owner",
        "offset": 0,
        "slot": "0",
        "type": "t_address"
      },
      {
        "astId": 1821,
        "contract": "src/factory/IdFactory.sol:IdFactory",
        "label": "_tokenFactories",
        "offset": 0,
        "slot": "1",
        "type": "t_mapping(t_address,t_bool)"
      },
      {
        "astId": 1827,
        "contract": "src/factory/IdFactory.sol:IdFactory",
        "label": "_saltTaken",
        "offset": 0,
        "slot": "2",
        "type": "t_mapping(t_string_memory_ptr,t_bool)"
      },
      {
        "astId": 1831,
        "contract": "src/factory/IdFactory.sol:IdFactory",
        "label": "_userIdentity",
        "offset": 0,
        "slot": "3",
        "type": "t_mapping(t_address,t_address)"
      },
      {
        "astId": 1836,
        "contract": "src/factory/IdFactory.sol:IdFactory",
        "label": "_wallets",
        "offset": 0,
        "slot": "4",
        "type": "t_mapping(t_address,t_array(t_address)dyn_storage)"
      },
      {
        "astId": 1840,
        "contract": "src/factory/IdFactory.sol:IdFactory",
        "label": "_tokenIdentity",
        "offset": 0,
        "slot": "5",
        "type": "t_mapping(t_address,t_address)"
      },
      {
        "astId": 1844,
        "contract": "src/factory/IdFactory.sol:IdFactory",
        "label": "_tokenAddress",
        "offset": 0,
        "slot": "6",
        "type": "t_mapping(t_address,t_address)"
      }
    ],
    "types": {
      "t_address": {
        "encoding": "inplace",
        "label": "address",
        "numberOfBytes": "20"
      },
      "t_array(t_address)dyn_storage": {
        "base": "t_address",
        "encoding": "dynamic_array",
        "label": "address[]",
        "numberOfBytes": "32"
      },
      "t_bool": {
        "encoding": "inplace",
        "label": "bool",
        "numberOfBytes": "1"
      },
      "t_mapping(t_address,t_address)": {
        "encoding": "mapping",
        "key": "t_address",
        "label": "mapping(address => address)",
        "numberOfBytes": "32",
        "value": "t_address"
      },
      "t_mapping(t_address,t_array(t_address)dyn_storage)": {
        "encoding": "mapping",
        "key": "t_address",
        "label": "mapping(address => address[])",
        "numberOfBytes": "32",
        "value": "t_array(t_address)dyn_storage"
      },
      "t_mapping(t_address,t_bool)": {
        "encoding": "mapping",
        "key": "t_address",
        "label": "mapping(address => bool)",
        "numberOfBytes": "32",
        "value": "t_bool"
      },
      "t_mapping(t_string_memory_ptr,t_bool)": {
        "encoding": "mapping",
        "key": "t_string_memory_ptr",
        "label": "mapping(string => bool)",
        "numberOfBytes": "32",
        "value": "t_bool"
      },
      "t_string_memory_ptr": {
        "encoding": "bytes",
        "label": "string",
        "numberOfBytes": "32"
      }
    }
  }
}