{
  "address": "0xF96E3e5a3949A3015AE5026d29fE12f98a95a4b7",
  "abi": [
    {
      "inputs": [
        {
          "internalType": "address",
          "name": "_owner",
          "type": "address"
        },
        {
          "internalType": "address",
          "name": "implementationAuthority",
          "type": "address"
        },
        {
          "internalType": "bool",
          "name": "isHomeChain",
          "type": "bool"
        }
      ],
      "stateMutability": "nonpayable",
      "type": "constructor"
    },
    {
      "anonymous": false,
      "inputs": [
        {
          "indexed": true,
          "internalType": "address",
          "name": "user",
          "type": "address"
        },
        {
          "indexed": true,
          "internalType": "uint256",
          "name": "topic",
          "type": "uint256"
        },
        {
          "indexed": false,
          "internalType": "uint256",
          "name": "scheme",
          "type": "uint256"
        },
        {
          "indexed": true,
          "internalType": "address",
          "name": "issuer",
          "type": "address"
        },
        {
          "indexed": false,
          "internalType": "bytes",
          "name": "signature",
          "type": "bytes"
        },
        {
          "indexed": false,
          "internalType": "bytes",
          "name": "data",
          "type": "bytes"
        },
        {
          "indexed": false,
          "internalType": "string",
          "name": "uri",
          "type": "string"
        }
      ],
      "name": "AddedClaim",
      "type": "event"
    },
    {
      "anonymous": false,
      "inputs": [
        {
          "indexed": false,
          "internalType": "address",
          "name": "user",
          "type": "address"
        },
        {
          "indexed": true,
          "internalType": "bytes32",
          "name": "key",
          "type": "bytes32"
        },
        {
          "indexed": true,
          "internalType": "uint256",
          "name": "purpose",
          "type": "uint256"
        },
        {
          "indexed": true,
          "internalType": "uint256",
          "name": "keyType",
          "type": "uint256"
        }
      ],
      "name": "AddedKey",
      "type": "event"
    },
    {
      "anonymous": false,
      "inputs": [
        {
          "indexed": true,
          "internalType": "address",
          "name": "_address",
          "type": "address"
        },
        {
          "indexed": true,
          "internalType": "uint64",
          "name": "_type",
          "type": "uint64"
        },
        {
          "indexed": true,
          "internalType": "bool",
          "name": "_status",
          "type": "bool"
        }
      ],
      "name": "AllowedAddress",
      "type": "event"
    },
    {
      "anonymous": false,
      "inputs": [
        {
          "indexed": true,
          "internalType": "address",
          "name": "_addr",
          "type": "address"
        }
      ],
      "name": "Deployed",
      "type": "event"
    },
    {
      "anonymous": false,
      "inputs": [
        {
          "indexed": true,
          "internalType": "address",
          "name": "previousOwner",
          "type": "address"
        },
        {
          "indexed": true,
          "internalType": "address",
          "name": "newOwner",
          "type": "address"
        }
      ],
      "name": "OwnershipTransferred",
      "type": "event"
    },
    {
      "anonymous": false,
      "inputs": [
        {
          "indexed": false,
          "internalType": "uint64",
          "name": "chainSelector",
          "type": "uint64"
        },
        {
          "indexed": false,
          "internalType": "address",
          "name": "receiver",
          "type": "address"
        },
        {
          "indexed": false,
          "internalType": "address",
          "name": "gateway",
          "type": "address"
        }
      ],
      "name": "ReceiverAdded",
      "type": "event"
    },
    {
      "anonymous": false,
      "inputs": [
        {
          "indexed": false,
          "internalType": "uint64",
          "name": "chainSelector",
          "type": "uint64"
        }
      ],
      "name": "ReceiverRemoved",
      "type": "event"
    },
    {
      "anonymous": false,
      "inputs": [
        {
          "indexed": false,
          "internalType": "address",
          "name": "user",
          "type": "address"
        },
        {
          "indexed": true,
          "internalType": "bytes32",
          "name": "claimId",
          "type": "bytes32"
        },
        {
          "indexed": true,
          "internalType": "uint256",
          "name": "topic",
          "type": "uint256"
        },
        {
          "indexed": false,
          "internalType": "uint256",
          "name": "scheme",
          "type": "uint256"
        },
        {
          "indexed": true,
          "internalType": "address",
          "name": "issuer",
          "type": "address"
        },
        {
          "indexed": false,
          "internalType": "bytes",
          "name": "signature",
          "type": "bytes"
        },
        {
          "indexed": false,
          "internalType": "bytes",
          "name": "data",
          "type": "bytes"
        },
        {
          "indexed": false,
          "internalType": "string",
          "name": "uri",
          "type": "string"
        }
      ],
      "name": "RemovedClaim",
      "type": "event"
    },
    {
      "anonymous": false,
      "inputs": [
        {
          "indexed": false,
          "internalType": "address",
          "name": "user",
          "type": "address"
        },
        {
          "indexed": true,
          "internalType": "bytes32",
          "name": "key",
          "type": "bytes32"
        },
        {
          "indexed": true,
          "internalType": "uint256",
          "name": "purpose",
          "type": "uint256"
        },
        {
          "indexed": true,
          "internalType": "uint256",
          "name": "keyType",
          "type": "uint256"
        }
      ],
      "name": "RemovedKey",
      "type": "event"
    },
    {
      "anonymous": false,
      "inputs": [
        {
          "indexed": true,
          "internalType": "address",
          "name": "factory",
          "type": "address"
        }
      ],
      "name": "TokenFactoryAdded",
      "type": "event"
    },
    {
      "anonymous": false,
      "inputs": [
        {
          "indexed": true,
          "internalType": "address",
          "name": "factory",
          "type": "address"
        }
      ],
      "name": "TokenFactoryRemoved",
      "type": "event"
    },
    {
      "anonymous": false,
      "inputs": [
        {
          "indexed": true,
          "internalType": "address",
          "name": "token",
          "type": "address"
        },
        {
          "indexed": true,
          "internalType": "address",
          "name": "identity",
          "type": "address"
        }
      ],
      "name": "TokenLinked",
      "type": "event"
    },
    {
      "anonymous": false,
      "inputs": [
        {
          "indexed": true,
          "internalType": "address",
          "name": "wallet",
          "type": "address"
        },
        {
          "indexed": true,
          "internalType": "address",
          "name": "identity",
          "type": "address"
        }
      ],
      "name": "WalletLinked",
      "type": "event"
    },
    {
      "anonymous": false,
      "inputs": [
        {
          "indexed": true,
          "internalType": "address",
          "name": "wallet",
          "type": "address"
        },
        {
          "indexed": true,
          "internalType": "address",
          "name": "identity",
          "type": "address"
        }
      ],
      "name": "WalletUnlinked",
      "type": "event"
    },
    {
      "inputs": [],
      "name": "_isHomeChain",
      "outputs": [
        {
          "internalType": "bool",
          "name": "",
          "type": "bool"
        }
      ],
      "stateMutability": "view",
      "type": "function"
    },
    {
      "inputs": [
        {
          "internalType": "uint64",
          "name": "_chainSelector",
          "type": "uint64"
        },
        {
          "internalType": "address",
          "name": "_receiver",
          "type": "address"
        },
        {
          "internalType": "address",
          "name": "_gateway",
          "type": "address"
        }
      ],
      "name": "addReceiver",
      "outputs": [],
      "stateMutability": "nonpayable",
      "type": "function"
    },
    {
      "inputs": [
        {
          "internalType": "address",
          "name": "_factory",
          "type": "address"
        }
      ],
      "name": "addTokenFactory",
      "outputs": [],
      "stateMutability": "nonpayable",
      "type": "function"
    },
    {
      "inputs": [
        {
          "internalType": "bool",
          "name": "isTrue",
          "type": "bool"
        },
        {
          "internalType": "uint256",
          "name": "_topic",
          "type": "uint256"
        },
        {
          "internalType": "uint256",
          "name": "_scheme",
          "type": "uint256"
        },
        {
          "internalType": "address",
          "name": "_issuer",
          "type": "address"
        },
        {
          "internalType": "bytes",
          "name": "_signature",
          "type": "bytes"
        },
        {
          "internalType": "bytes",
          "name": "_data",
          "type": "bytes"
        },
        {
          "internalType": "string",
          "name": "_uri",
          "type": "string"
        }
      ],
      "name": "addedClaim",
      "outputs": [],
      "stateMutability": "nonpayable",
      "type": "function"
    },
    {
      "inputs": [
        {
          "internalType": "bool",
          "name": "isTrue",
          "type": "bool"
        },
        {
          "internalType": "bytes32",
          "name": "_key",
          "type": "bytes32"
        },
        {
          "internalType": "uint256",
          "name": "_purpose",
          "type": "uint256"
        },
        {
          "internalType": "uint256",
          "name": "_type",
          "type": "uint256"
        }
      ],
      "name": "addedKey",
      "outputs": [],
      "stateMutability": "nonpayable",
      "type": "function"
    },
    {
      "inputs": [],
      "name": "bridge",
      "outputs": [
        {
          "internalType": "address",
          "name": "",
          "type": "address"
        }
      ],
      "stateMutability": "view",
      "type": "function"
    },
    {
      "inputs": [
        {
          "internalType": "address",
          "name": "_wallet",
          "type": "address"
        },
        {
          "internalType": "string",
          "name": "_salt",
          "type": "string"
        }
      ],
      "name": "createIdentity",
      "outputs": [
        {
          "internalType": "address",
          "name": "identity",
          "type": "address"
        }
      ],
      "stateMutability": "nonpayable",
      "type": "function"
    },
    {
      "inputs": [
        {
          "internalType": "address",
          "name": "_wallet",
          "type": "address"
        },
        {
          "internalType": "string",
          "name": "_salt",
          "type": "string"
        },
        {
          "internalType": "bytes32[]",
          "name": "_managementKeys",
          "type": "bytes32[]"
        }
      ],
      "name": "createIdentityWithManagementKeys",
      "outputs": [
        {
          "internalType": "address",
          "name": "",
          "type": "address"
        }
      ],
      "stateMutability": "nonpayable",
      "type": "function"
    },
    {
      "inputs": [
        {
          "internalType": "address",
          "name": "_token",
          "type": "address"
        },
        {
          "internalType": "address",
          "name": "_tokenOwner",
          "type": "address"
        },
        {
          "internalType": "string",
          "name": "_salt",
          "type": "string"
        }
      ],
      "name": "createTokenIdentity",
      "outputs": [
        {
          "internalType": "address",
          "name": "",
          "type": "address"
        }
      ],
      "stateMutability": "nonpayable",
      "type": "function"
    },
    {
      "inputs": [
        {
          "internalType": "uint64",
          "name": "",
          "type": "uint64"
        }
      ],
      "name": "destinationChainSelectorToGateway",
      "outputs": [
        {
          "internalType": "address",
          "name": "",
          "type": "address"
        }
      ],
      "stateMutability": "view",
      "type": "function"
    },
    {
      "inputs": [
        {
          "internalType": "uint64",
          "name": "",
          "type": "uint64"
        }
      ],
      "name": "destinationChainSelectorToReceiver",
      "outputs": [
        {
          "internalType": "address",
          "name": "",
          "type": "address"
        }
      ],
      "stateMutability": "view",
      "type": "function"
    },
    {
      "inputs": [],
      "name": "getBridge",
      "outputs": [
        {
          "internalType": "address",
          "name": "",
          "type": "address"
        }
      ],
      "stateMutability": "view",
      "type": "function"
    },
    {
      "inputs": [],
      "name": "getChainSelectors",
      "outputs": [
        {
          "internalType": "uint64[]",
          "name": "",
          "type": "uint64[]"
        }
      ],
      "stateMutability": "view",
      "type": "function"
    },
    {
      "inputs": [
        {
          "internalType": "uint64",
          "name": "_chainSelector",
          "type": "uint64"
        }
      ],
      "name": "getGateway",
      "outputs": [
        {
          "internalType": "address",
          "name": "",
          "type": "address"
        }
      ],
      "stateMutability": "view",
      "type": "function"
    },
    {
      "inputs": [
        {
          "internalType": "address",
          "name": "_wallet",
          "type": "address"
        }
      ],
      "name": "getIdentity",
      "outputs": [
        {
          "internalType": "address",
          "name": "",
          "type": "address"
        }
      ],
      "stateMutability": "view",
      "type": "function"
    },
    {
      "inputs": [
        {
          "internalType": "uint64",
          "name": "_chainSelector",
          "type": "uint64"
        }
      ],
      "name": "getReceiver",
      "outputs": [
        {
          "internalType": "address",
          "name": "",
          "type": "address"
        }
      ],
      "stateMutability": "view",
      "type": "function"
    },
    {
      "inputs": [],
      "name": "getReceivers",
      "outputs": [
        {
          "internalType": "address[]",
          "name": "",
          "type": "address[]"
        }
      ],
      "stateMutability": "view",
      "type": "function"
    },
    {
      "inputs": [
        {
          "internalType": "address",
          "name": "_identity",
          "type": "address"
        }
      ],
      "name": "getToken",
      "outputs": [
        {
          "internalType": "address",
          "name": "",
          "type": "address"
        }
      ],
      "stateMutability": "view",
      "type": "function"
    },
    {
      "inputs": [
        {
          "internalType": "address",
          "name": "_identity",
          "type": "address"
        }
      ],
      "name": "getWallets",
      "outputs": [
        {
          "internalType": "address[]",
          "name": "",
          "type": "address[]"
        }
      ],
      "stateMutability": "view",
      "type": "function"
    },
    {
      "inputs": [
        {
          "internalType": "address",
          "name": "_identity",
          "type": "address"
        }
      ],
      "name": "identityIsCreated",
      "outputs": [
        {
          "internalType": "bool",
          "name": "",
          "type": "bool"
        }
      ],
      "stateMutability": "view",
      "type": "function"
    },
    {
      "inputs": [],
      "name": "implementationAuthority",
      "outputs": [
        {
          "internalType": "address",
          "name": "",
          "type": "address"
        }
      ],
      "stateMutability": "view",
      "type": "function"
    },
    {
      "inputs": [
        {
          "internalType": "address",
          "name": "",
          "type": "address"
        }
      ],
      "name": "isAllowedContract",
      "outputs": [
        {
          "internalType": "bool",
          "name": "",
          "type": "bool"
        }
      ],
      "stateMutability": "view",
      "type": "function"
    },
    {
      "inputs": [
        {
          "internalType": "address",
          "name": "",
          "type": "address"
        }
      ],
      "name": "isCreatedIdentity",
      "outputs": [
        {
          "internalType": "bool",
          "name": "",
          "type": "bool"
        }
      ],
      "stateMutability": "view",
      "type": "function"
    },
    {
      "inputs": [
        {
          "internalType": "address",
          "name": "",
          "type": "address"
        }
      ],
      "name": "isManager",
      "outputs": [
        {
          "internalType": "bool",
          "name": "",
          "type": "bool"
        }
      ],
      "stateMutability": "view",
      "type": "function"
    },
    {
      "inputs": [
        {
          "internalType": "string",
          "name": "_salt",
          "type": "string"
        }
      ],
      "name": "isSaltTaken",
      "outputs": [
        {
          "internalType": "bool",
          "name": "",
          "type": "bool"
        }
      ],
      "stateMutability": "view",
      "type": "function"
    },
    {
      "inputs": [
        {
          "internalType": "address",
          "name": "_factory",
          "type": "address"
        }
      ],
      "name": "isTokenFactory",
      "outputs": [
        {
          "internalType": "bool",
          "name": "",
          "type": "bool"
        }
      ],
      "stateMutability": "view",
      "type": "function"
    },
    {
      "inputs": [
        {
          "internalType": "address",
          "name": "_newWallet",
          "type": "address"
        }
      ],
      "name": "linkWallet",
      "outputs": [],
      "stateMutability": "nonpayable",
      "type": "function"
    },
    {
      "inputs": [],
      "name": "owner",
      "outputs": [
        {
          "internalType": "address",
          "name": "",
          "type": "address"
        }
      ],
      "stateMutability": "view",
      "type": "function"
    },
    {
      "inputs": [
        {
          "internalType": "uint64",
          "name": "_chainSelector",
          "type": "uint64"
        }
      ],
      "name": "removeReceiver",
      "outputs": [],
      "stateMutability": "nonpayable",
      "type": "function"
    },
    {
      "inputs": [
        {
          "internalType": "address",
          "name": "_factory",
          "type": "address"
        }
      ],
      "name": "removeTokenFactory",
      "outputs": [],
      "stateMutability": "nonpayable",
      "type": "function"
    },
    {
      "inputs": [
        {
          "internalType": "bool",
          "name": "isTrue",
          "type": "bool"
        },
        {
          "internalType": "bytes32",
          "name": "_claimId",
          "type": "bytes32"
        },
        {
          "internalType": "uint256",
          "name": "_topic",
          "type": "uint256"
        },
        {
          "internalType": "uint256",
          "name": "_scheme",
          "type": "uint256"
        },
        {
          "internalType": "address",
          "name": "_issuer",
          "type": "address"
        },
        {
          "internalType": "bytes",
          "name": "_signature",
          "type": "bytes"
        },
        {
          "internalType": "bytes",
          "name": "_data",
          "type": "bytes"
        },
        {
          "internalType": "string",
          "name": "_uri",
          "type": "string"
        }
      ],
      "name": "removedClaim",
      "outputs": [],
      "stateMutability": "nonpayable",
      "type": "function"
    },
    {
      "inputs": [
        {
          "internalType": "bool",
          "name": "isTrue",
          "type": "bool"
        },
        {
          "internalType": "bytes32",
          "name": "_key",
          "type": "bytes32"
        },
        {
          "internalType": "uint256",
          "name": "_purpose",
          "type": "uint256"
        },
        {
          "internalType": "uint256",
          "name": "_type",
          "type": "uint256"
        }
      ],
      "name": "removedKey",
      "outputs": [],
      "stateMutability": "nonpayable",
      "type": "function"
    },
    {
      "inputs": [],
      "name": "renounceOwnership",
      "outputs": [],
      "stateMutability": "nonpayable",
      "type": "function"
    },
    {
      "inputs": [
        {
          "internalType": "address",
          "name": "_contract",
          "type": "address"
        },
        {
          "internalType": "bool",
          "name": "_status",
          "type": "bool"
        }
      ],
      "name": "setAllowedContract",
      "outputs": [],
      "stateMutability": "nonpayable",
      "type": "function"
    },
    {
      "inputs": [
        {
          "internalType": "address",
          "name": "_bridge",
          "type": "address"
        }
      ],
      "name": "setBridge",
      "outputs": [],
      "stateMutability": "nonpayable",
      "type": "function"
    },
    {
      "inputs": [
        {
          "internalType": "address",
          "name": "_manager",
          "type": "address"
        },
        {
          "internalType": "bool",
          "name": "_status",
          "type": "bool"
        }
      ],
      "name": "setManager",
      "outputs": [],
      "stateMutability": "nonpayable",
      "type": "function"
    },
    {
      "inputs": [
        {
          "internalType": "address",
          "name": "newOwner",
          "type": "address"
        }
      ],
      "name": "transferOwnership",
      "outputs": [],
      "stateMutability": "nonpayable",
      "type": "function"
    },
    {
      "inputs": [
        {
          "internalType": "address",
          "name": "_oldWallet",
          "type": "address"
        }
      ],
      "name": "unlinkWallet",
      "outputs": [],
      "stateMutability": "nonpayable",
      "type": "function"
    }
  ],
  "transactionHash": "0xbd255cd4d5c27875307ff93c0991bd5c4619da53c0f208eae2f0dfa51efd2d63",
  "args": [
    "0x6D571882684d4d34733F204a4612613D666250EC",
    "0x3C37e05b696345010afA7b1624912289769aDcd5",
    false
  ],
  "numDeployments": 1,
  "solcInputHash": "e8dd1848045d2086f6e3761ce86f1225",
  "bytecode": "0x60a0346200012b57601f6200406d38819003918201601f19168301916001600160401b0383118484101762000130578084926060946040528339810103126200012b576200004d8162000146565b60406200005d6020840162000146565b920151908115158092036200012b57620000d4916200007c33620001a8565b6001600160a01b036200009385821615156200015b565b821693620000a38515156200015b565b60805260ff199060ff826008541691161760085583600052600e6020526001604060002091825416179055620001a8565b600180604051927f77b360cfa209016bdd91c2800cd667bb8ad1b916258568b44a73da1cfe9a44cc600080a4613e7d9081620001f0823960805181818161046b015281816107e30152818161138c01526126640152f35b600080fd5b634e487b7160e01b600052604160045260246000fd5b51906001600160a01b03821682036200012b57565b156200016357565b60405162461bcd60e51b815260206004820152601f60248201527f696e76616c696420617267756d656e74202d207a65726f2061646472657373006044820152606490fd5b600080546001600160a01b039283166001600160a01b03198216811783559216907f8be0079c531659141344cd1fd0a4f28419497f9722a3daafe3b4186f6b6457e09080a356fe6080604052600436101562000014575b600080fd5b60003560e01c80630fffbaf31462000227578063213c9c7a146200023d5780632307f88214620003505780632c8aa6de14620003455780632fea7b81146200033a5780633a500451146200032f5780633d56ff6614620003245780633e3bc3d71462000319578063422c29a4146200030e5780634a2a333214620002695780635027dbe21462000303578063532f946514620002f857806355de1faf14620002ed5780635977043814620002e25780635cdfd64214620002d7578063715018a614620002cc5780637b6b91c714620002c15780638da5cb5b14620002b65780638dd1480214620002ab5780638e952bfe14620002a0578063937529ef14620002955780639ce19365146200028a5780639d7c87b8146200021c578063a262d8d2146200027f578063a5e90eee1462000274578063ab12c35f1462000269578063ad67cd0f146200025e578063b4442b7b1462000253578063b8bb81261462000248578063b97fef86146200023d578063e061646b1462000232578063e78cea921462000227578063edff31f3146200021c578063f2fde38b1462000211578063f3ae24151462000206578063f43b855514620001fb578063fe5cd59a14620001f05763fe5e2e1b14620001e657600080fd5b6200000f62002177565b506200000f620020b3565b506200000f62002044565b506200000f62002000565b506200000f62001f13565b506200000f620016ad565b506200000f62000367565b506200000f62001e45565b506200000f62000404565b506200000f62001cbd565b506200000f62001af7565b506200000f6200195c565b506200000f62000a20565b506200000f620018b6565b506200000f62001720565b506200000f620015c9565b506200000f620014da565b506200000f6200125f565b506200000f620011fe565b506200000f620011d4565b506200000f6200105f565b506200000f62000fa9565b506200000f62000f0c565b506200000f62000ecc565b506200000f62000d8b565b506200000f62000ced565b506200000f62000a69565b506200000f62000976565b506200000f620008ec565b506200000f6200063e565b506200000f620004f0565b506200000f620004b5565b506200000f6200048f565b506200000f62000448565b60009103126200000f57565b50346200000f5760006003193601126200000f5760206001600160a01b03600c5416604051908152f35b600435906001600160a01b03821682036200000f57565b602435906001600160a01b03821682036200000f57565b606435906001600160a01b03821682036200000f57565b608435906001600160a01b03821682036200000f57565b604435906001600160a01b03821682036200000f57565b50346200000f5760206003193601126200000f576001600160a01b036200042a62000391565b16600052600f602052602060ff604060002054166040519015158152f35b50346200000f5760006003193601126200000f5760206040516001600160a01b037f0000000000000000000000000000000000000000000000000000000000000000168152f35b50346200000f5760006003193601126200000f57602060ff600854166040519015158152f35b50346200000f5760206003193601126200000f576020620004df620004d962000391565b62003043565b6001600160a01b0360405191168152f35b50346200000f5760206003193601126200000f5760043567ffffffffffffffff8082116200000f57366023830112156200000f5781600401359081116200000f5736602482840101116200000f57620005556200055c9160246200056e940162003087565b5460ff1690565b60405190151581529081906020820190565b0390f35b50634e487b7160e01b600052604160045260246000fd5b67ffffffffffffffff81116200059e57604052565b620005a862000572565b604052565b90601f601f19910116810190811067ffffffffffffffff8211176200059e57604052565b81601f820112156200000f5780359067ffffffffffffffff82116200062e575b604051926200060b6020601f19601f8601160185620005ad565b828452602083830101116200000f57816000926020809301838601378301015290565b6200063862000572565b620005f1565b50346200000f5760606003193601126200000f576200065c62000391565b62000666620003a8565b9060443567ffffffffffffffff81116200000f576200068e6200056e913690600401620005d1565b92620006b162000555336001600160a01b03166000526001602052604060002090565b8015620008c6575b620006c49062002b18565b620008866001600160a01b03936200081d62000810620008096200077588851699620006f28b151562002282565b620007018a8916151562002282565b6200076f60405160208101816200071985836200238b565b03916200072f601f1993848101835282620005ad565b5190209060405162000764602082019282620007578560409060208152600060208201520190565b03908101835282620005ad565b5190201415620023a1565b62002b64565b9562000797620007916200078d620005558a620023ed565b1590565b62002415565b620007e1620007da620007ce620007c1886001600160a01b03166000526006602052604060002090565b546001600160a01b031690565b6001600160a01b031690565b1562002bbc565b7f000000000000000000000000000000000000000000000000000000000000000087620030a0565b94620023ed565b600160ff19825416179055565b620008688362000840836001600160a01b03166000526006602052604060002090565b906001600160a01b031673ffffffffffffffffffffffffffffffffffffffff19825416179055565b62000840836001600160a01b03166000526007602052604060002090565b6040519384938216907fa8261d398ddc63db24cc53cd0c63c9464cabad1bc478ede2107b32c1c4010b7a600080a36001600160a01b031682526020820190565b50620006c4620008e2620007ce6000546001600160a01b031690565b33149050620006b9565b50346200000f5760206003193601126200000f576001600160a01b036200091262000391565b166000526001602052602060ff604060002054166040519015158152f35b6020908160408183019282815285518094520193019160005b82811062000958575050505090565b83516001600160a01b03168552938101939281019260010162000949565b50346200000f576020806003193601126200000f576001600160a01b03806200099e62000391565b1660005260058252604060002091604051809282855492838152019460005282600020926000915b838310620009ee576200056e86620009e1818a0382620005ad565b6040519182918262000930565b8454811687529581019560019485019490920191620009c6565b6004359067ffffffffffffffff821682036200000f57565b50346200000f5760206003193601126200000f5767ffffffffffffffff62000a4762000a08565b16600052600960205260206001600160a01b0360406000205416604051908152f35b50346200000f5760206003193601126200000f5762000a8762000391565b6001600160a01b03908181169162000aa183151562002282565b62000aaf3384141562002daa565b62000b0562000ad5620007c1336001600160a01b03166000526003602052604060002090565b8262000afc620007ce620007c1876001600160a01b03166000526003602052604060002090565b91161462002e1c565b62000b6662000b4962000b2f620007c1856001600160a01b03166000526003602052604060002090565b936001600160a01b03166000526003602052604060002090565b73ffffffffffffffffffffffffffffffffffffffff198154169055565b62000b84826001600160a01b03166000526005602052604060002090565b549160005b83811062000bbd575b818316857f35e6fc363a4bf723d53b26c1a751674aca9c3ead425f0591f84f5540ede86f12600080a3005b8462000c02620007ce62000bef8462000be9876001600160a01b03166000526005602052604060002090565b620024e9565b90546001600160a01b039160031b1c1690565b1462000c195762000c139062002a3c565b62000b89565b62000c7b62000c5c62000bef84959662000c5562000c4e62000ca0976001600160a01b03166000526005602052604060002090565b9162002e68565b90620024e9565b9162000be9856001600160a01b03166000526005602052604060002090565b90919082549060031b916001600160a01b039283811b93849216901b16911916179055565b62000cc862000cc2826001600160a01b03166000526005602052604060002090565b62002e99565b81903862000b92565b801515036200000f57565b6004359062000ceb8262000cd1565b565b50346200000f5760e06003193601126200000f5760043562000d0f8162000cd1565b62000d19620003bf565b67ffffffffffffffff91906084358381116200000f5762000d3f903690600401620005d1565b60a4358481116200000f5762000d5a903690600401620005d1565b9160c4359485116200000f5762000d7a62000d89953690600401620005d1565b93604435906024359062003659565b005b50346200000f5760406003193601126200000f5762000da962000391565b60243562000db78162000cd1565b60008092338252600e60205262000dda600160ff604085205416151514620034e8565b821515926001841462000e4e575b9062000e266001600160a01b039262000e14836001600160a01b0316600052600d602052604060002090565b9060ff60ff1983541691151516179055565b167f77b360cfa209016bdd91c2800cd667bb8ad1b916258568b44a73da1cfe9a44cc8280a480f35b908092503b1562000e625790839162000de8565b608460405162461bcd60e51b815260206004820152602660248201527f5065726d697373696f6e733a2041646472657373206973206e6f74206120636f60448201527f6e747261637400000000000000000000000000000000000000000000000000006064820152fd5b50346200000f5760206003193601126200000f5760206001600160a01b038062000ef562000391565b166000526007825260406000205416604051908152f35b50346200000f576101006003193601126200000f5762000f2b62000cdc565b62000f35620003d6565b67ffffffffffffffff919060a4358381116200000f5762000f5b903690600401620005d1565b60c4358481116200000f5762000f76903690600401620005d1565b9160e4359485116200000f5762000f9662000d89953690600401620005d1565b9360643590604435906024359062003822565b50346200000f57600080600319360112620010155762000fc862002229565b806001600160a01b03815473ffffffffffffffffffffffffffffffffffffffff1981168355167f8be0079c531659141344cd1fd0a4f28419497f9722a3daafe3b4186f6b6457e08280a380f35b80fd5b6020908160408183019282815285518094520193019160005b82811062001040575050505090565b835167ffffffffffffffff168552938101939281019260010162001031565b50346200000f5760006003193601126200000f5760408051600b548082529160208201600b600052927f0175b7a638427703f0dbe7bb9bbf987a2551717b34e79f33b5b1008d1fa01db9906000915b816003840110620011675794620010f39285926200056e9754918181106200114b575b8181106200112d575b8181106200110d575b10620010fe575b500383620005ad565b519182918262001018565b60c01c815260200138620010ea565b608083901c67ffffffffffffffff168452926001906020019301620010e3565b82871c67ffffffffffffffff168452926001906020019301620010da565b67ffffffffffffffff83168452926001906020019301620010d1565b946001600491875490620011c867ffffffffffffffff92620011948385831667ffffffffffffffff169052565b67ffffffffffffffff818a1c851616602084015267ffffffffffffffff608082811c90951616838a015260c01c6060830152565b019601920191620010ae565b50346200000f5760006003193601126200000f5760206001600160a01b0360005416604051908152f35b50346200000f5760206003193601126200000f576001600160a01b036200122462000391565b6200122e62002229565b166200123c81151562002282565b73ffffffffffffffffffffffffffffffffffffffff19600c541617600c55600080f35b50346200000f576040806003193601126200000f576200127e62000391565b6024359167ffffffffffffffff83116200000f57620012a66200056e933690600401620005d1565b9133600052600d602052600160ff8360002054161515148015620014c0575b620012d090620022ce565b6001600160a01b0392838216620012e981151562002282565b6200133d845160208101816200130086836200238b565b039162001316601f1993848101835282620005ad565b51902090865162000764602082019282620007578560409060208152600060208201520190565b62001354620007916200078d6200055585620023ed565b620013856200137e620007ce620007c1866001600160a01b03166000526003602052604060002090565b1562002461565b620013b2837f000000000000000000000000000000000000000000000000000000000000000084620030a0565b94620013c26200081084620023ed565b620013e58662000840866001600160a01b03166000526003602052604060002090565b620014088462000840886001600160a01b03166000526004602052604060002090565b62001431846200142b886001600160a01b03166000526005602052604060002090565b62002513565b8516907f8e0c709111388f5480579514d86663489ab1f206fe6da1a0c4d03ac8c318b3c6600080a36200147b62000810856001600160a01b0316600052600f602052604060002090565b60016200148a60085460ff1690565b151514620014ad575b5050516001600160a01b0390911681529081906020820190565b620014b891620032d7565b388062001493565b50600e60205260008290205460ff161515600114620012c5565b50346200000f5760206003193601126200000f57620014f862000391565b6200150262002229565b6001600160a01b0381166200151981151562002282565b600091818352600160205260ff604084205416156200158557620015546200155e916001600160a01b03166000526001602052604060002090565b60ff198154169055565b7fd1fd5274f793d20291c0abfe42e1ef63213a11b34996d485f7afb8fe014248518280a280f35b606460405162461bcd60e51b815260206004820152600d60248201527f6e6f74206120666163746f7279000000000000000000000000000000000000006044820152fd5b50346200000f5760206003193601126200000f57620015e762000391565b620015f162002229565b6001600160a01b0381166200160881151562002282565b600091818352600160205260ff60408420541662001669576200081062001642916001600160a01b03166000526001602052604060002090565b7f45eb8ac5344d2d3f306550fe6e969ca4190526313c512afed851d052bf2ab2fd8280a280f35b606460405162461bcd60e51b815260206004820152601160248201527f616c7265616479206120666163746f72790000000000000000000000000000006044820152fd5b50346200000f5760206003193601126200000f5767ffffffffffffffff620016d462000a08565b16600052600a60205260206001600160a01b0360406000205416604051908152f35b60031960809101126200000f57600435620017118162000cd1565b90602435906044359060643590565b50346200000f576200173236620016f6565b906200176760016200175e62000555969596336001600160a01b0316600052600f602052604060002090565b15151462003559565b60405193620017ba6320c286c360e11b948587526020968781806200179460048201906001602083019252565b03816000335af1908115620018a6575b60009162001884575b50151590151514620035a5565b7f6c3e6a5419180ece4a65de295843c99b08bcab9c7272b2a262c6fd40c923648a6200181b62001801620007c1336001600160a01b03166000526004602052604060002090565b6040516001600160a01b0390911681529081906020820190565b0390a4604051908152600060048201528181806024810103816000335af1801562001874575b6200184857005b8162000d8992903d106200186c575b620018638183620005ad565b81019062002af3565b503d62001857565b6200187e62002b0b565b62001841565b6200189f9150883d8a116200186c57620018638183620005ad565b38620017ad565b620018b062002b0b565b620017a4565b50346200000f5760406003193601126200000f57620018d462000391565b602435620018e28162000cd1565b60016001600160a01b03600093338552600e6020526200190d8360ff604088205416151514620034e8565b1691828452600e6020526200193281604086209060ff60ff1983541691151516179055565b1515917f77b360cfa209016bdd91c2800cd667bb8ad1b916258568b44a73da1cfe9a44cc8480a480f35b50346200000f5760606003193601126200000f576200197a62000a08565b62001984620003a8565b6200198e620003ed565b916200199962002229565b6001600160a01b03620019b0818416151562002282565b67ffffffffffffffff821660005260096020526040600020541662001ab35762001aae7faf04939e4a104cb535300983808017af7c8d2d67546d09d7e376284b746d503b9362001a2762001a20620007ce620007c18667ffffffffffffffff16600052600a602052604060002090565b1562002eda565b62001a4b84620008408567ffffffffffffffff166000526009602052604060002090565b62001a6f81620008408567ffffffffffffffff16600052600a602052604060002090565b62001a7a8362002f78565b6040519384938491604091949367ffffffffffffffff60608501961684526001600160a01b03809216602085015216910152565b0390a1005b606460405162461bcd60e51b815260206004820152601660248201527f726563656976657220616c7265616479206164646564000000000000000000006044820152fd5b50346200000f5760206003193601126200000f5762001b1562000a08565b62001b1f62002229565b62001b576001600160a01b0362001b4e620007c18467ffffffffffffffff166000526009602052604060002090565b16151562002fb4565b62001b7a62000b498267ffffffffffffffff166000526009602052604060002090565b62001b9d62000b498267ffffffffffffffff16600052600a602052604060002090565b600b5467ffffffffffffffff82811660005b83811062001bf5575b60405167ffffffffffffffff861681527fcea06f9f2bc78e7d1b24fb4ae56d46f703c06c45641f8ee24441d9331b2228e890806020810162001aae565b818362001c1a62001c068462002f26565b905467ffffffffffffffff9160031b1c1690565b161462001c325762001c2c9062002a3c565b62001baf565b7fcea06f9f2bc78e7d1b24fb4ae56d46f703c06c45641f8ee24441d9331b2228e894925062001caa915062001c8462001c7d62001c0662001c7762001aae9762002e68565b62002f26565b9162002f26565b90919082549060031b9167ffffffffffffffff9283811b93849216901b16911916179055565b62001cb462003000565b91388062001bb8565b50346200000f5760206003193601126200000f5762001cdb62000391565b6001600160a01b038082169162001cf483151562002282565b62001d2662001d1e620007ce620007c1336001600160a01b03166000526003602052604060002090565b151562002c2e565b62001d5762001d50620007ce620007c1846001600160a01b03166000526003602052604060002090565b1562002ca0565b62001d8862001d81620007ce620007c1846001600160a01b03166000526006602052604060002090565b1562002cec565b62001e1c62001dae620007c1336001600160a01b03166000526003602052604060002090565b9162001ddb606562001dd3856001600160a01b03166000526005602052604060002090565b541062002d38565b62001dfe8362000840836001600160a01b03166000526003602052604060002090565b6200142b836001600160a01b03166000526005602052604060002090565b16907f8e0c709111388f5480579514d86663489ab1f206fe6da1a0c4d03ac8c318b3c6600080a3005b50346200000f576000806003193601126200101557600b5462001e688162002088565b9060409262001e7a84519384620005ad565b818352601f1962001e8b8362002088565b016020903682860137815b83811062001ead578551806200056e878262000930565b8067ffffffffffffffff62001ec662001f0d9362002f26565b90549060031b1c1684526009835262001f0762001eed8886206001600160a01b0390541690565b62001ef9838962002a5b565b906001600160a01b03169052565b62002a3c565b62001e96565b50346200000f5760206003193601126200000f5762001f3162000391565b62001f3b62002229565b6001600160a01b03809116801562001f965760009182548273ffffffffffffffffffffffffffffffffffffffff198216178455167f8be0079c531659141344cd1fd0a4f28419497f9722a3daafe3b4186f6b6457e08380a380f35b608460405162461bcd60e51b815260206004820152602660248201527f4f776e61626c653a206e6577206f776e657220697320746865207a65726f206160448201527f64647265737300000000000000000000000000000000000000000000000000006064820152fd5b50346200000f5760206003193601126200000f576001600160a01b036200202662000391565b16600052600e602052602060ff604060002054166040519015158152f35b50346200000f5760206003193601126200000f576001600160a01b036200206a62000391565b16600052600d602052602060ff604060002054166040519015158152f35b60209067ffffffffffffffff8111620020a3575b60051b0190565b620020ad62000572565b6200209c565b50346200000f5760606003193601126200000f57620020d162000391565b67ffffffffffffffff906024358281116200000f57620020f6903690600401620005d1565b906044359283116200000f57366023840112156200000f5782600401356200211e8162002088565b936200212e6040519586620005ad565b81855260209160248387019160051b830101913683116200000f57602401905b82821062002167576200056e620018018888886200254f565b813581529083019083016200214e565b50346200000f576200218936620016f6565b90620021b560016200175e62000555969596336001600160a01b0316600052600f602052604060002090565b60405193620021e26320c286c360e11b948587526020968781806200179460048201906001602083019252565b7fc1a817229c15999766e602bca79965ec75780caeb4c58b34fc0b29b332ab2d896200181b62001801620007c1336001600160a01b03166000526004602052604060002090565b6001600160a01b036000541633036200223e57565b606460405162461bcd60e51b815260206004820152602060248201527f4f776e61626c653a2063616c6c6572206973206e6f7420746865206f776e65726044820152fd5b156200228a57565b606460405162461bcd60e51b815260206004820152601f60248201527f696e76616c696420617267756d656e74202d207a65726f2061646472657373006044820152fd5b15620022d657565b608460405162461bcd60e51b8152602060048201526024808201527f5065726d697373696f6e733a2053656e646572206973206e6f74206120616c6c60448201527f6f776564000000000000000000000000000000000000000000000000000000006064820152fd5b60005b838110620023535750506000910152565b818101518382015260200162002342565b90601f19601f60209362002384815180928187528780880191016200233f565b0116010190565b9060206200239e92818152019062002364565b90565b15620023a957565b606460405162461bcd60e51b815260206004820152601f60248201527f696e76616c696420617267756d656e74202d20656d70747920737472696e67006044820152fd5b6020620024089181604051938285809451938492016200233f565b8101600281520301902090565b156200241d57565b606460405162461bcd60e51b815260206004820152601260248201527f73616c7420616c72656164792074616b656e00000000000000000000000000006044820152fd5b156200246957565b608460405162461bcd60e51b8152602060048201526024808201527f77616c6c657420616c7265616479206c696e6b656420746f20616e206964656e60448201527f74697479000000000000000000000000000000000000000000000000000000006064820152fd5b50634e487b7160e01b600052603260045260246000fd5b805482101562002503575b60005260206000200190600090565b6200250d620024d2565b620024f4565b9062000c7b62000ceb92805490680100000000000000008210156200253f575b600182018155620024e9565b6200254962000572565b62002533565b6200055592600090338252602090600d82526001946040918660ff8487205416151514801562002945575b6200258590620022ce565b6001600160a01b0390818716966200259f88151562002282565b845193620025fe87860186620025b684836200238b565b0396620025cc601f1998898101835282620005ad565b5190208751898101906200076481620025f18460409060208152600060208201520190565b038a8101835282620005ad565b6200261d620007916200078d62002615846200295b565b9d8e620023ed565b620026476200137e620007ce620007c1856001600160a01b03166000526003602052604060002090565b6200265583511515620029b3565b62002691620008106200268a307f00000000000000000000000000000000000000000000000000000000000000008f620030a0565b9c620023ed565b620026b48b62000840846001600160a01b03166000526003602052604060002090565b620026d782620008408d6001600160a01b03166000526004602052604060002090565b620026fa826200142b8d6001600160a01b03166000526005602052604060002090565b6200271c620008108c6001600160a01b0316600052600f602052604060002090565b828a6200272b60085460ff1690565b15151462002931575b5050889287908b16995b62002829575b505050508282620027db927f8e0c709111388f5480579514d86663489ab1f206fe6da1a0c4d03ac8c318b3c6969594516200279884820192826200075730869190916001600160a01b036020820193169052565b5190209051809381927f53d413c5000000000000000000000000000000000000000000000000000000008352600483016020600191939293604081019481520152565b0381868a5af1801562002819575b620027f6575b505080a390565b816200281092903d106200186c57620018638183620005ad565b503880620027ef565b6200282362002b0b565b620027e9565b82518110156200292b57806200287d62002848620028f2938662002a5b565b5188516001600160a01b0386168b820190815290620028728160208401038b8101835282620005ad565b519020141562002a81565b8888620028d98d62002890858962002a5b565b518b519485809481937f1d381240000000000000000000000000000000000000000000000000000000008352600483016040600191939293606081019481528260208201520152565b03925af180156200291b575b620028f9575b5062002a3c565b836200273e565b6200291390893d8b116200186c57620018638183620005ad565b5038620028eb565b6200292562002b0b565b620028e5565b62002744565b6200293d91836200341b565b388262002734565b50600e84528285205460ff16151587146200257a565b9062000ceb602360405180947f4f494400000000000000000000000000000000000000000000000000000000006020830152620029a281518092602086860191016200233f565b8101036003810185520183620005ad565b15620029bb57565b608460405162461bcd60e51b815260206004820152602560248201527f696e76616c696420617267756d656e74202d20656d707479206c697374206f6660448201527f206b6579730000000000000000000000000000000000000000000000000000006064820152fd5b50634e487b7160e01b600052601160045260246000fd5b600190600019811462002a4d570190565b62002a5762002a25565b0190565b602091815181101562002a71575b60051b010190565b62002a7b620024d2565b62002a69565b1562002a8957565b608460405162461bcd60e51b815260206004820152603b60248201527f696e76616c696420617267756d656e74202d2077616c6c657420697320616c7360448201527f6f206c697374656420696e206d616e6167656d656e74206b65797300000000006064820152fd5b908160209103126200000f57516200239e8162000cd1565b506040513d6000823e3d90fd5b1562002b2057565b606460405162461bcd60e51b815260206004820152601e60248201527f6f6e6c7920466163746f7279206f72206f776e65722063616e2063616c6c00006044820152fd5b9062000ceb602560405180947f546f6b656e000000000000000000000000000000000000000000000000000000602083015262002bab81518092602086860191016200233f565b8101036005810185520183620005ad565b1562002bc457565b608460405162461bcd60e51b815260206004820152602360248201527f746f6b656e20616c7265616479206c696e6b656420746f20616e206964656e7460448201527f69747900000000000000000000000000000000000000000000000000000000006064820152fd5b1562002c3657565b608460405162461bcd60e51b815260206004820152602960248201527f77616c6c6574206e6f74206c696e6b656420746f20616e206964656e7469747960448201527f20636f6e747261637400000000000000000000000000000000000000000000006064820152fd5b1562002ca857565b606460405162461bcd60e51b815260206004820152601960248201527f6e65772077616c6c657420616c7265616479206c696e6b6564000000000000006044820152fd5b1562002cf457565b606460405162461bcd60e51b815260206004820152602060248201527f696e76616c696420617267756d656e74202d20746f6b656e20616464726573736044820152fd5b1562002d4057565b608460405162461bcd60e51b815260206004820152602560248201527f6d617820616d6f756e74206f662077616c6c657473207065722049442065786360448201527f65656465640000000000000000000000000000000000000000000000000000006064820152fd5b1562002db257565b608460405162461bcd60e51b815260206004820152602260248201527f63616e6e6f742062652063616c6c6564206f6e2073656e64657220616464726560448201527f73730000000000000000000000000000000000000000000000000000000000006064820152fd5b1562002e2457565b606460405162461bcd60e51b815260206004820152601f60248201527f6f6e6c792061206c696e6b65642077616c6c65742063616e20756e6c696e6b006044820152fd5b90600019820191821162002e7857565b62000ceb62002a25565b50634e487b7160e01b600052603160045260246000fd5b6000198154801562002eca575b019062002eb48282620024e9565b6001600160a01b0382549160031b1b1916905555565b62002ed462002e82565b62002ea6565b1562002ee257565b606460405162461bcd60e51b815260206004820152601560248201527f6761746577617920616c726561647920616464656400000000000000000000006044820152fd5b90600b5482101562002f68575b600b60005260188260021c7f0175b7a638427703f0dbe7bb9bbf987a2551717b34e79f33b5b1008d1fa01db9019260031b1690565b62002f72620024d2565b62002f33565b62000ceb9062001c84600b546801000000000000000081101562002fa4575b60018101600b5562002f26565b62002fae62000572565b62002f97565b1562002fbc57565b606460405162461bcd60e51b815260206004820152601260248201527f7265636569766572206e6f7420616464656400000000000000000000000000006044820152fd5b600019600b54801562003033575b016200301a8162002f26565b67ffffffffffffffff82549160031b1b19169055600b55565b6200303d62002e82565b6200300e565b6001600160a01b03908116600081815260066020526040902054821615620030775760005260066020526040600020541690565b5060036020526040600020541690565b6020908260405193849283378101600281520301902090565b6200314660206200239e94936105199460405195620030c284820188620005ad565b808752838701906200392f823960405192848401926001600160a01b0380921684521660408401523060608401526060835262003124608084019784891067ffffffffffffffff8a11176200314c575b8860405251809260a08601906200233f565b8201620031398351809360a08401906200233f565b01038085520183620005ad565b6200315c565b6200315662000572565b62003112565b6040516200318a602082816200317c81830196878151938492016200233f565b8101038084520182620005ad565b519020908051906020016000f5803b156200000f576001600160a01b0381167ff40fcec21964ffb566044d083b4073f29f7f7929110ea19e1b3ebe375d89055e600080a290565b94919367ffffffffffffffff6200321794921686526001600160a01b03809281602097168789015216604087015216606085015260c0608085015260c084019062002364565b9160a08184039101528060605192838152019160809160005b8281106200323f575050505090565b83518552938101939281019260010162003230565b9367ffffffffffffffff6200329b94929693961685526001600160a01b03809281602098168888015216604086015216606084015260c0608084015260c083019062002364565b9060a081830391015281808451928381520193019160005b828110620032c2575050505090565b835185529381019392810192600101620032b3565b91909160005b600b54811015620034155762003307620007ce620007ce620007ce600c546001600160a01b031690565b906200331762001c068262002f26565b62003348620007c16200332e62001c068562002f26565b67ffffffffffffffff166000526009602052604060002090565b906200337a620007c16200336062001c068662002f26565b67ffffffffffffffff16600052600a602052604060002090565b843b156200000f57620033e194869360008094620033c98c604051988997889687957ff75b0ec300000000000000000000000000000000000000000000000000000000875260048701620031d1565b03925af1801562003405575b620033e7575062002a3c565b620032dd565b80620033f7620033fe9262000589565b806200035b565b38620028eb565b6200340f62002b0b565b620033d5565b50509050565b9092919260005b600b54811015620034e1576200344c620007ce620007ce620007ce600c546001600160a01b031690565b906200345c62001c068262002f26565b62003473620007c16200332e62001c068562002f26565b906200348b620007c16200336062001c068662002f26565b843b156200000f57620034db94879360008094620033c98d8b604051998a98899788967ff75b0ec30000000000000000000000000000000000000000000000000000000088526004880162003254565b62003422565b5050509050565b15620034f057565b608460405162461bcd60e51b8152602060048201526024808201527f5065726d697373696f6e733a2053656e646572206973206e6f742061204d616e60448201527f61676572000000000000000000000000000000000000000000000000000000006064820152fd5b156200356157565b606460405162461bcd60e51b815260206004820152601060248201527f496e76616c6964204964656e74697479000000000000000000000000000000006044820152fd5b15620035ad57565b608460405162461bcd60e51b815260206004820152602360248201527f5065726d697373696f6e733a204f6e6c79204964656e746974792063616e204360448201527f616c6c00000000000000000000000000000000000000000000000000000000006064820152fd5b926200363b6200239e95936200364a93865260806020870152608086019062002364565b90848203604086015262002364565b91606081840391015262002364565b94957f6ecc8862e587399c270764c32a5b20be85d8217ea399faa49aa04803f2e645d59193620037426001600160a01b0392969496620036b660016200175e62000555336001600160a01b0316600052600f602052604060002090565b604051996200370c6320c286c360e11b9a8b8d5260208d819e8080620036e56004869401906001602083019252565b03816000335af1918215620037c0575b6000926200379e575b5050151590151514620035a5565b62003732620007ce620007c1336001600160a01b03166000526004602052604060002090565b9660405195869516998562003617565b0390a4604051908152600060048201528181806024810103816000335af180156200378e575b62003771575050565b816200378b92903d106200186c57620018638183620005ad565b50565b6200379862002b0b565b62003768565b620037b89250803d106200186c57620018638183620005ad565b388e620036fe565b620037ca62002b0b565b620036f5565b93906200239e959362003813936001600160a01b036200380493168752602087015260a0604087015260a086019062002364565b90848203606086015262002364565b91608081840391015262002364565b959362003742620038ca987f4a4d2944838c03f4f55259ccea3b43da71c7ae20941cbf3981d737d0df2636b994966001600160a01b039496986200388360016200175e62000555336001600160a01b0316600052600f602052604060002090565b6040516320c286c360e11b8082526001600483015260209d909c90918e9081816024816000335af19182156200391e575b600092620038fc575050151590151514620035a5565b620038ec620007c1336001600160a01b03166000526004602052604060002090565b99604051968796169a86620037d0565b620039169250803d106200186c57620018638183620005ad565b388f620036fe565b6200392862002b0b565b620038b456fe6080604090808252346101e657606081610519803803809161002182856101eb565b8339810103126101e6576100348161020e565b602091600461004f8561004886850161020e565b930161020e565b916001600160a01b0390859085831690839061006c831515610222565b1695610079871515610222565b7f821f3e4d3d679f19eacc940c87acf846ea6eae24a63058ea750304437a62aafc55875163557887a160e11b815293849182905afa9182156101db576000926101a1575b508551928584019463485cc95560e01b8652602485015216604483015260448252608082019060018060401b039383831085841117610185576000938493885251915af4903d1561019b573d90811161018557835190610126601f8201601f19168501836101eb565b81526000833d92013e5b156101435750516102aa908161026f8239f35b606491519062461bcd60e51b82526004820152601660248201527f496e697469616c697a6174696f6e206661696c65642e000000000000000000006044820152fd5b634e487b7160e01b600052604160045260246000fd5b50610130565b90918582813d83116101d4575b6101b881836101eb565b810103126101d157506101ca9061020e565b90386100bd565b80fd5b503d6101ae565b86513d6000823e3d90fd5b600080fd5b601f909101601f19168101906001600160401b0382119082101761018557604052565b51906001600160a01b03821682036101e657565b1561022957565b60405162461bcd60e51b815260206004820152601f60248201527f696e76616c696420617267756d656e74202d207a65726f2061646472657373006044820152606490fdfe608080604052600436101561011b575b6000816020816004849561006d73ffffffffffffffffffffffffffffffffffffffff7f821f3e4d3d679f19eacc940c87acf846ea6eae24a63058ea750304437a62aafc541673ffffffffffffffffffffffffffffffffffffffff1690565b7faaf10f420000000000000000000000000000000000000000000000000000000082525afa90811561010e575b82916100e1575b50368280378136917fffffffffffffffffffffffffffffffffffffffffffffffffffffffffffffd8f05a01f43d90816000803e156100dd576000f35b6000fd5b61010091506020903d8211610106575b6100fa826101a4565b01610215565b386100a1565b3d91506100f1565b610116610267565b61009a565b6000803560e01c632307f88214610132575061000f565b90346101a057817ffffffffffffffffffffffffffffffffffffffffffffffffffffffffffffffffc3601126101a05760209073ffffffffffffffffffffffffffffffffffffffff7f821f3e4d3d679f19eacc940c87acf846ea6eae24a63058ea750304437a62aafc54168152f35b5080fd5b601f7fffffffffffffffffffffffffffffffffffffffffffffffffffffffffffffffe09101166080016080811067ffffffffffffffff8211176101e657604052565b7f4e487b7100000000000000000000000000000000000000000000000000000000600052604160045260246000fd5b7fffffffffffffffffffffffffffffffffffffffffffffffffffffffffffffff8060209101126102625760805173ffffffffffffffffffffffffffffffffffffffff811681036102625790565b600080fd5b506040513d6000823e3d90fdfea264697066735822122083706edf8447da720c06bd407053cb5f181c237417e1f831e8cfcb4e1a26a3c564736f6c63430008110033a2646970667358221220805a152c14f11f092a35d442663bef7ed2d4216fa38b72aea6acf13ad7ed49b964736f6c63430008110033",
  "devdoc": {
    "kind": "dev",
    "methods": {
      "addReceiver(uint64,address,address)": {
        "details": "See {IdFactory-addReceiver}."
      },
      "addTokenFactory(address)": {
        "details": "See {IdFactory-addTokenFactory}."
      },
      "createIdentity(address,string)": {
        "details": "See {IdFactory-createIdentity}."
      },
      "createIdentityWithManagementKeys(address,string,bytes32[])": {
        "details": "See {IdFactory-createIdentityWithManagementKeys}."
      },
      "createTokenIdentity(address,address,string)": {
        "details": "See {IdFactory-createTokenIdentity}."
      },
      "getBridge()": {
        "details": "get bridge address"
      },
      "getChainSelectors()": {
        "details": "See {IdFactory-getChainSelectors}."
      },
      "getIdentity(address)": {
        "details": "See {IdFactory-getIdentity}."
      },
      "getReceiver(uint64)": {
        "details": "See {IdFactory-getReceiver}."
      },
      "getReceivers()": {
        "details": "See {IdFactory-getReceivers}."
      },
      "getToken(address)": {
        "details": "See {IdFactory-getToken}."
      },
      "getWallets(address)": {
        "details": "See {IdFactory-getWallets}."
      },
      "implementationAuthority()": {
        "details": "See {IdFactory-implementationAuthority}."
      },
      "isSaltTaken(string)": {
        "details": "See {IdFactory-isSaltTaken}."
      },
      "isTokenFactory(address)": {
        "details": "See {IdFactory-isTokenFactory}."
      },
      "linkWallet(address)": {
        "details": "See {IdFactory-linkWallet}."
      },
      "owner()": {
        "details": "Returns the address of the current owner."
      },
      "removeReceiver(uint64)": {
        "details": "See {IdFactory-removeReceiver}."
      },
      "removeTokenFactory(address)": {
        "details": "See {IdFactory-removeTokenFactory}."
      },
      "renounceOwnership()": {
        "details": "Leaves the contract without owner. It will not be possible to call `onlyOwner` functions. Can only be called by the current owner. NOTE: Renouncing ownership will leave the contract without an owner, thereby disabling any functionality that is only available to the owner."
      },
      "setBridge(address)": {
        "params": {
          "_bridge": "the address of the bridge contract"
        }
      },
      "transferOwnership(address)": {
        "details": "Transfers ownership of the contract to a new account (`newOwner`). Can only be called by the current owner."
      },
      "unlinkWallet(address)": {
        "details": "See {IdFactory-unlinkWallet}."
      }
    },
    "stateVariables": {
      "bridge": {
        "details": "getter for the bridge contract address"
      }
    },
    "version": 1
  },
  "userdoc": {
    "events": {
      "AddedKey(address,bytes32,uint256,uint256)": {
        "notice": "events"
      }
    },
    "kind": "user",
    "methods": {},
    "version": 1
  },
  "storageLayout": {
    "storage": [
      {
        "astId": 259,
        "contract": "src/factory/IdFactory.sol:IdFactory",
        "label": "_owner",
        "offset": 0,
        "slot": "0",
        "type": "t_address"
      },
      {
        "astId": 13710,
        "contract": "src/factory/IdFactory.sol:IdFactory",
        "label": "_tokenFactories",
        "offset": 0,
        "slot": "1",
        "type": "t_mapping(t_address,t_bool)"
      },
      {
        "astId": 13716,
        "contract": "src/factory/IdFactory.sol:IdFactory",
        "label": "_saltTaken",
        "offset": 0,
        "slot": "2",
        "type": "t_mapping(t_string_memory_ptr,t_bool)"
      },
      {
        "astId": 13720,
        "contract": "src/factory/IdFactory.sol:IdFactory",
        "label": "_userIdentity",
        "offset": 0,
        "slot": "3",
        "type": "t_mapping(t_address,t_address)"
      },
      {
        "astId": 13724,
        "contract": "src/factory/IdFactory.sol:IdFactory",
        "label": "_identityWallet",
        "offset": 0,
        "slot": "4",
        "type": "t_mapping(t_address,t_address)"
      },
      {
        "astId": 13729,
        "contract": "src/factory/IdFactory.sol:IdFactory",
        "label": "_wallets",
        "offset": 0,
        "slot": "5",
        "type": "t_mapping(t_address,t_array(t_address)dyn_storage)"
      },
      {
        "astId": 13733,
        "contract": "src/factory/IdFactory.sol:IdFactory",
        "label": "_tokenIdentity",
        "offset": 0,
        "slot": "6",
        "type": "t_mapping(t_address,t_address)"
      },
      {
        "astId": 13737,
        "contract": "src/factory/IdFactory.sol:IdFactory",
        "label": "_tokenAddress",
        "offset": 0,
        "slot": "7",
        "type": "t_mapping(t_address,t_address)"
      },
      {
        "astId": 13739,
        "contract": "src/factory/IdFactory.sol:IdFactory",
        "label": "_isHomeChain",
        "offset": 0,
        "slot": "8",
        "type": "t_bool"
      },
      {
        "astId": 13743,
        "contract": "src/factory/IdFactory.sol:IdFactory",
        "label": "destinationChainSelectorToReceiver",
        "offset": 0,
        "slot": "9",
        "type": "t_mapping(t_uint64,t_address)"
      },
      {
        "astId": 13747,
        "contract": "src/factory/IdFactory.sol:IdFactory",
        "label": "destinationChainSelectorToGateway",
        "offset": 0,
        "slot": "10",
        "type": "t_mapping(t_uint64,t_address)"
      },
      {
        "astId": 13750,
        "contract": "src/factory/IdFactory.sol:IdFactory",
        "label": "chainSelectors",
        "offset": 0,
        "slot": "11",
        "type": "t_array(t_uint64)dyn_storage"
      },
      {
        "astId": 13752,
        "contract": "src/factory/IdFactory.sol:IdFactory",
        "label": "bridge",
        "offset": 0,
        "slot": "12",
        "type": "t_address"
      },
      {
        "astId": 13756,
        "contract": "src/factory/IdFactory.sol:IdFactory",
        "label": "isAllowedContract",
        "offset": 0,
        "slot": "13",
        "type": "t_mapping(t_address,t_bool)"
      },
      {
        "astId": 13760,
        "contract": "src/factory/IdFactory.sol:IdFactory",
        "label": "isManager",
        "offset": 0,
        "slot": "14",
        "type": "t_mapping(t_address,t_bool)"
      },
      {
        "astId": 13764,
        "contract": "src/factory/IdFactory.sol:IdFactory",
        "label": "isCreatedIdentity",
        "offset": 0,
        "slot": "15",
        "type": "t_mapping(t_address,t_bool)"
      }
    ],
    "types": {
      "t_address": {
        "encoding": "inplace",
        "label": "address",
        "numberOfBytes": "20"
      },
      "t_array(t_address)dyn_storage": {
        "base": "t_address",
        "encoding": "dynamic_array",
        "label": "address[]",
        "numberOfBytes": "32"
      },
      "t_array(t_uint64)dyn_storage": {
        "base": "t_uint64",
        "encoding": "dynamic_array",
        "label": "uint64[]",
        "numberOfBytes": "32"
      },
      "t_bool": {
        "encoding": "inplace",
        "label": "bool",
        "numberOfBytes": "1"
      },
      "t_mapping(t_address,t_address)": {
        "encoding": "mapping",
        "key": "t_address",
        "label": "mapping(address => address)",
        "numberOfBytes": "32",
        "value": "t_address"
      },
      "t_mapping(t_address,t_array(t_address)dyn_storage)": {
        "encoding": "mapping",
        "key": "t_address",
        "label": "mapping(address => address[])",
        "numberOfBytes": "32",
        "value": "t_array(t_address)dyn_storage"
      },
      "t_mapping(t_address,t_bool)": {
        "encoding": "mapping",
        "key": "t_address",
        "label": "mapping(address => bool)",
        "numberOfBytes": "32",
        "value": "t_bool"
      },
      "t_mapping(t_string_memory_ptr,t_bool)": {
        "encoding": "mapping",
        "key": "t_string_memory_ptr",
        "label": "mapping(string => bool)",
        "numberOfBytes": "32",
        "value": "t_bool"
      },
      "t_mapping(t_uint64,t_address)": {
        "encoding": "mapping",
        "key": "t_uint64",
        "label": "mapping(uint64 => address)",
        "numberOfBytes": "32",
        "value": "t_address"
      },
      "t_string_memory_ptr": {
        "encoding": "bytes",
        "label": "string",
        "numberOfBytes": "32"
      },
      "t_uint64": {
        "encoding": "inplace",
        "label": "uint64",
        "numberOfBytes": "8"
      }
    }
  }
}