{
  "address": "0x63521521021963Ea465173f17aDC8E897ebCE6cd",
  "abi": [
    {
      "inputs": [
        {
          "internalType": "address",
          "name": "implementation",
          "type": "address"
        }
      ],
      "stateMutability": "nonpayable",
      "type": "constructor"
    },
    {
      "anonymous": false,
      "inputs": [
        {
          "indexed": true,
          "internalType": "address",
          "name": "previousOwner",
          "type": "address"
        },
        {
          "indexed": true,
          "internalType": "address",
          "name": "newOwner",
          "type": "address"
        }
      ],
      "name": "OwnershipTransferred",
      "type": "event"
    },
    {
      "anonymous": false,
      "inputs": [
        {
          "indexed": false,
          "internalType": "address",
          "name": "newAddress",
          "type": "address"
        }
      ],
      "name": "UpdatedImplementation",
      "type": "event"
    },
    {
      "inputs": [],
      "name": "getImplementation",
      "outputs": [
        {
          "internalType": "address",
          "name": "",
          "type": "address"
        }
      ],
      "stateMutability": "view",
      "type": "function"
    },
    {
      "inputs": [],
      "name": "owner",
      "outputs": [
        {
          "internalType": "address",
          "name": "",
          "type": "address"
        }
      ],
      "stateMutability": "view",
      "type": "function"
    },
    {
      "inputs": [],
      "name": "renounceOwnership",
      "outputs": [],
      "stateMutability": "nonpayable",
      "type": "function"
    },
    {
      "inputs": [
        {
          "internalType": "address",
          "name": "newOwner",
          "type": "address"
        }
      ],
      "name": "transferOwnership",
      "outputs": [],
      "stateMutability": "nonpayable",
      "type": "function"
    },
    {
      "inputs": [
        {
          "internalType": "address",
          "name": "_newImplementation",
          "type": "address"
        }
      ],
      "name": "updateImplementation",
      "outputs": [],
      "stateMutability": "nonpayable",
      "type": "function"
    }
  ],
  "transactionHash": "0x782fc5bc0152bb1d4f95b65e244a220f8e65eb663dd06a0300959f9b99078f0e",
  "args": [
    "0x990aaA4C636adD70B1DD940a1470BF3B02396cEa"
  ],
  "numDeployments": 1,
  "solcInputHash": "1d53299f771fd23f114314547d331b99",
  "bytecode": "0x608060405234801561001057600080fd5b5060405161055e38038061055e83398101604081905261002f91610139565b610038336100e9565b6001600160a01b0381166100925760405162461bcd60e51b815260206004820152601f60248201527f696e76616c696420617267756d656e74202d207a65726f206164647265737300604482015260640160405180910390fd5b600180546001600160a01b0319166001600160a01b0383169081179091556040519081527f87c4e67a766ffddda27f441d63853a36ae64fbb07775a7c59d395e064b204eeb9060200160405180910390a150610169565b600080546001600160a01b038381166001600160a01b0319831681178455604051919092169283917f8be0079c531659141344cd1fd0a4f28419497f9722a3daafe3b4186f6b6457e09190a35050565b60006020828403121561014b57600080fd5b81516001600160a01b038116811461016257600080fd5b9392505050565b6103e6806101786000396000f3fe608060405234801561001057600080fd5b50600436106100675760003560e01c80638da5cb5b116100505780638da5cb5b14610089578063aaf10f42146100cc578063f2fde38b146100ea57600080fd5b8063025b22bc1461006c578063715018a614610081575b600080fd5b61007f61007a366004610373565b6100fd565b005b61007f6101e6565b60005473ffffffffffffffffffffffffffffffffffffffff165b60405173ffffffffffffffffffffffffffffffffffffffff909116815260200160405180910390f35b60015473ffffffffffffffffffffffffffffffffffffffff166100a3565b61007f6100f8366004610373565b6101fa565b610105610297565b73ffffffffffffffffffffffffffffffffffffffff811661016d5760405162461bcd60e51b815260206004820152601f60248201527f696e76616c696420617267756d656e74202d207a65726f20616464726573730060448201526064015b60405180910390fd5b600180547fffffffffffffffffffffffff00000000000000000000000000000000000000001673ffffffffffffffffffffffffffffffffffffffff83169081179091556040519081527f87c4e67a766ffddda27f441d63853a36ae64fbb07775a7c59d395e064b204eeb9060200160405180910390a150565b6101ee610297565b6101f860006102fe565b565b610202610297565b73ffffffffffffffffffffffffffffffffffffffff811661028b5760405162461bcd60e51b815260206004820152602660248201527f4f776e61626c653a206e6577206f776e657220697320746865207a65726f206160448201527f64647265737300000000000000000000000000000000000000000000000000006064820152608401610164565b610294816102fe565b50565b60005473ffffffffffffffffffffffffffffffffffffffff1633146101f85760405162461bcd60e51b815260206004820181905260248201527f4f776e61626c653a2063616c6c6572206973206e6f7420746865206f776e65726044820152606401610164565b6000805473ffffffffffffffffffffffffffffffffffffffff8381167fffffffffffffffffffffffff0000000000000000000000000000000000000000831681178455604051919092169283917f8be0079c531659141344cd1fd0a4f28419497f9722a3daafe3b4186f6b6457e09190a35050565b60006020828403121561038557600080fd5b813573ffffffffffffffffffffffffffffffffffffffff811681146103a957600080fd5b939250505056fea264697066735822122055a6d5e9fa41f46c70ff59fb2cec0d2c6119510c672b707b47f93e17abc1572264736f6c63430008110033",
  "devdoc": {
    "kind": "dev",
    "methods": {
      "getImplementation()": {
        "details": "See {IImplementationAuthority-getImplementation}."
      },
      "owner()": {
        "details": "Returns the address of the current owner."
      },
      "renounceOwnership()": {
        "details": "Leaves the contract without owner. It will not be possible to call `onlyOwner` functions. Can only be called by the current owner. NOTE: Renouncing ownership will leave the contract without an owner, thereby disabling any functionality that is only available to the owner."
      },
      "transferOwnership(address)": {
        "details": "Transfers ownership of the contract to a new account (`newOwner`). Can only be called by the current owner."
      },
      "updateImplementation(address)": {
        "details": "See {IImplementationAuthority-updateImplementation}."
      }
    },
    "version": 1
  },
  "userdoc": {
    "kind": "user",
    "methods": {},
    "version": 1
  },
  "storageLayout": {
    "storage": [
      {
        "astId": 7,
        "contract": "src/proxy/ImplementationAuthority.sol:ImplementationAuthority",
        "label": "_owner",
        "offset": 0,
        "slot": "0",
        "type": "t_address"
      },
      {
        "astId": 3147,
        "contract": "src/proxy/ImplementationAuthority.sol:ImplementationAuthority",
        "label": "_implementation",
        "offset": 0,
        "slot": "1",
        "type": "t_address"
      }
    ],
    "types": {
      "t_address": {
        "encoding": "inplace",
        "label": "address",
        "numberOfBytes": "20"
      }
    }
  }
}