{
  "address": "0x46d0228a8Cb6f3F13292453ecAeDaAB6fd109036",
  "abi": [
    {
      "inputs": [
        {
          "internalType": "contract IIdFactory",
          "name": "_factory",
          "type": "address"
        },
        {
          "internalType": "contract IClaimIssuer",
          "name": "_claimIssuer",
          "type": "address"
        }
      ],
      "stateMutability": "nonpayable",
      "type": "constructor"
    },
    {
      "anonymous": false,
      "inputs": [
        {
          "indexed": false,
          "internalType": "bytes32",
          "name": "fundId",
          "type": "bytes32"
        },
        {
          "indexed": false,
          "internalType": "address",
          "name": "identityAddr",
          "type": "address"
        }
      ],
      "name": "AccessGranted",
      "type": "event"
    },
    {
      "anonymous": false,
      "inputs": [
        {
          "indexed": false,
          "internalType": "bytes32",
          "name": "fundId",
          "type": "bytes32"
        },
        {
          "indexed": false,
          "internalType": "address",
          "name": "identityAddr",
          "type": "address"
        }
      ],
      "name": "AccessRevoked",
      "type": "event"
    },
    {
      "anonymous": false,
      "inputs": [
        {
          "indexed": true,
          "internalType": "address",
          "name": "previousOwner",
          "type": "address"
        },
        {
          "indexed": true,
          "internalType": "address",
          "name": "newOwner",
          "type": "address"
        }
      ],
      "name": "OwnershipTransferred",
      "type": "event"
    },
    {
      "anonymous": false,
      "inputs": [
        {
          "indexed": false,
          "internalType": "bytes32",
          "name": "fundId",
          "type": "bytes32"
        },
        {
          "indexed": false,
          "internalType": "uint256[]",
          "name": "claimTopics",
          "type": "uint256[]"
        }
      ],
      "name": "RequiredClaimsUpdated",
      "type": "event"
    },
    {
      "inputs": [
        {
          "internalType": "bytes32",
          "name": "",
          "type": "bytes32"
        }
      ],
      "name": "access",
      "outputs": [
        {
          "internalType": "bool",
          "name": "",
          "type": "bool"
        }
      ],
      "stateMutability": "view",
      "type": "function"
    },
    {
      "inputs": [],
      "name": "claimIssuer",
      "outputs": [
        {
          "internalType": "contract IClaimIssuer",
          "name": "",
          "type": "address"
        }
      ],
      "stateMutability": "view",
      "type": "function"
    },
    {
      "inputs": [
        {
          "internalType": "bytes32",
          "name": "fundId",
          "type": "bytes32"
        },
        {
          "internalType": "address",
          "name": "identityAddr",
          "type": "address"
        }
      ],
      "name": "computeKey",
      "outputs": [
        {
          "internalType": "bytes32",
          "name": "",
          "type": "bytes32"
        }
      ],
      "stateMutability": "pure",
      "type": "function"
    },
    {
      "inputs": [],
      "name": "factory",
      "outputs": [
        {
          "internalType": "contract IIdFactory",
          "name": "",
          "type": "address"
        }
      ],
      "stateMutability": "view",
      "type": "function"
    },
    {
      "inputs": [
        {
          "internalType": "address",
          "name": "",
          "type": "address"
        }
      ],
      "name": "fundsContract",
      "outputs": [
        {
          "internalType": "bytes32",
          "name": "",
          "type": "bytes32"
        }
      ],
      "stateMutability": "view",
      "type": "function"
    },
    {
      "inputs": [
        {
          "internalType": "bytes32",
          "name": "fundId",
          "type": "bytes32"
        },
        {
          "internalType": "address",
          "name": "identityAddr",
          "type": "address"
        }
      ],
      "name": "grantAccess",
      "outputs": [],
      "stateMutability": "nonpayable",
      "type": "function"
    },
    {
      "inputs": [
        {
          "internalType": "address",
          "name": "account",
          "type": "address"
        },
        {
          "internalType": "address",
          "name": "caller",
          "type": "address"
        },
        {
          "internalType": "bytes",
          "name": "data",
          "type": "bytes"
        }
      ],
      "name": "hasAccess",
      "outputs": [
        {
          "internalType": "bool",
          "name": "",
          "type": "bool"
        }
      ],
      "stateMutability": "view",
      "type": "function"
    },
    {
      "inputs": [],
      "name": "owner",
      "outputs": [
        {
          "internalType": "address",
          "name": "",
          "type": "address"
        }
      ],
      "stateMutability": "view",
      "type": "function"
    },
    {
      "inputs": [],
      "name": "renounceOwnership",
      "outputs": [],
      "stateMutability": "nonpayable",
      "type": "function"
    },
    {
      "inputs": [
        {
          "internalType": "bytes32",
          "name": "",
          "type": "bytes32"
        },
        {
          "internalType": "uint256",
          "name": "",
          "type": "uint256"
        }
      ],
      "name": "requiredClaims",
      "outputs": [
        {
          "internalType": "uint256",
          "name": "",
          "type": "uint256"
        }
      ],
      "stateMutability": "view",
      "type": "function"
    },
    {
      "inputs": [
        {
          "internalType": "bytes32",
          "name": "fundId",
          "type": "bytes32"
        },
        {
          "internalType": "address",
          "name": "identityAddr",
          "type": "address"
        }
      ],
      "name": "revokeAccess",
      "outputs": [],
      "stateMutability": "nonpayable",
      "type": "function"
    },
    {
      "inputs": [
        {
          "internalType": "address",
          "name": "newOwner",
          "type": "address"
        }
      ],
      "name": "transferOwnership",
      "outputs": [],
      "stateMutability": "nonpayable",
      "type": "function"
    },
    {
      "inputs": [
        {
          "internalType": "bytes32",
          "name": "fundId",
          "type": "bytes32"
        },
        {
          "internalType": "uint256[]",
          "name": "claimTopics",
          "type": "uint256[]"
        }
      ],
      "name": "updateRequiredClaims",
      "outputs": [],
      "stateMutability": "nonpayable",
      "type": "function"
    }
  ],
  "transactionHash": "0x79f30e46a4958939c535d22d9d4c65b0d4b4523a25f240b105fe3992a65f7f27",
  "args": [
    "0x5728B9736E1784cB7086A871fAb27a7CD8FC9042",
    "0x5ECA35D6b9e5cad23DD4033df2d5dC77999e7bF2"
  ],
  "numDeployments": 1,
  "solcInputHash": "0bc1609a12f6e68f0bdc3590255138b9",
  "bytecode": "0x6080346100c057601f610eaf38819003918201601f19168301916001600160401b038311848410176100c55780849260409485528339810103126100c05780516001600160a01b0391828216918290036100c05760200151908282168092036100c0576000549060018060a01b0319913383821617600055604051943391167f8be0079c531659141344cd1fd0a4f28419497f9722a3daafe3b4186f6b6457e0600080a38160015416176001556002541617600255610dd390816100dc8239f35b600080fd5b634e487b7160e01b600052604160045260246000fdfe608080604052600436101561001357600080fd5b60003560e01c9081630c6f78a914610bad5750806330b2ae9014610b6b5780633f96f55714610b3157806340554c3a14610aa457806367dd95f7146109305780636d43c4c9146108ff578063715018a61461088e5780638d53b208146107ff5780638da5cb5b146107d8578063c45a0155146107b1578063c5b8a6b614610783578063eefb7e9a146101a35763f2fde38b146100ae57600080fd5b3461019e57602060031936011261019e576100c7610bd1565b6100cf610bfd565b6001600160a01b0380911690811561013457600054827fffffffffffffffffffffffff0000000000000000000000000000000000000000821617600055167f8be0079c531659141344cd1fd0a4f28419497f9722a3daafe3b4186f6b6457e0600080a3005b608460405162461bcd60e51b815260206004820152602660248201527f4f776e61626c653a206e6577206f776e657220697320746865207a65726f206160448201527f64647265737300000000000000000000000000000000000000000000000000006064820152fd5b600080fd5b3461019e57606060031936011261019e576101bc610bd1565b6101c4610be7565b5067ffffffffffffffff6044351161019e5736602360443501121561019e5767ffffffffffffffff604435600401351161019e573660246044356004013560443501011161019e576001600160a01b0360015416906001600160a01b03604051917f2fea7b81000000000000000000000000000000000000000000000000000000008352166004820152602081602481855afa90811561056257600091610749575b506044356004013560041161019e5760406044356004810135810103600319011261019e57602860443501356001600160a01b03811680910361019e576020906024604051809581937f2fea7b8100000000000000000000000000000000000000000000000000000000835260048301525afa91821561056257600092610705575b506001600160a01b0316156106c1573360005260046020526040600020546103108282610d54565b6000526003602052600160ff604060002054161515036106575760005260056020526040600020906040518083602082955493848152019060005260206000209260005b81811061063e57505061036992500383610c71565b6002546001600160a01b031660005b83518110156106335760208160051b8501015160405160208101918483526040820152604081526103a881610c55565b519020604051907fc9100bcb00000000000000000000000000000000000000000000000000000000825260048201526000816024816001600160a01b0388165afa80156105625760009060009260009161056e575b509160209161046b6104599460405195869485947fc0969a6e0000000000000000000000000000000000000000000000000000000086526001600160a01b038c1660048701526024860152608060448601526084850190610d2f565b90600319848303016064850152610d2f565b0381865afa90811561056257600091610527575b50156104e3577fffffffffffffffffffffffffffffffffffffffffffffffffffffffffffffffff81146104b457600101610378565b7f4e487b7100000000000000000000000000000000000000000000000000000000600052601160045260246000fd5b606460405162461bcd60e51b815260206004820152601260248201527f436c61696d206973206e6f742076616c696400000000000000000000000000006044820152fd5b90506020813d60201161055a575b8161054260209383610c71565b8101031261019e5751801515810361019e578561047f565b3d9150610535565b6040513d6000823e3d90fd5b925050503d90816000823e6105838282610c71565b60c081838101031261019e5780519061059e60408201610c94565b50606081015167ffffffffffffffff811161019e576105c290848301908301610d12565b608082015167ffffffffffffffff811161019e576105e590858401908401610d12565b9160a08101519367ffffffffffffffff851161019e57858201601f86840101121561019e5761062860209583876104599961046b96019280830151920101610ccb565b5091945050916103fd565b602060405160018152f35b8454835260019485019487945060209093019201610354565b608460405162461bcd60e51b815260206004820152602560248201527f7265636569766572206964656e7469747920646f65736e27742068617665206160448201527f63636573730000000000000000000000000000000000000000000000000000006064820152fd5b606460405162461bcd60e51b815260206004820152601960248201527f7265636569766572206964656e74697479206973206e756c6c000000000000006044820152fd5b9091506020813d602011610741575b8161072160209383610c71565b8101031261019e5761073a6001600160a01b0391610c94565b91906102e8565b3d9150610714565b90506020813d60201161077b575b8161076460209383610c71565b8101031261019e5761077590610c94565b82610266565b3d9150610757565b3461019e57604060031936011261019e5760206107a96107a1610be7565b600435610d54565b604051908152f35b3461019e57600060031936011261019e5760206001600160a01b0360015416604051908152f35b3461019e57600060031936011261019e5760206001600160a01b0360005416604051908152f35b3461019e57604060031936011261019e577fe7906b77ea165c70ad8268ce5b59b778a198edf9c1ae4118378eefdc76fce5f460043561083c610be7565b90610845610bfd565b61084f8282610d54565b6000526003602052604060002060ff198154169055610889604051928392839092916001600160a01b036020916040840195845216910152565b0390a1005b3461019e57600060031936011261019e576108a7610bfd565b60006001600160a01b0381547fffffffffffffffffffffffff000000000000000000000000000000000000000081168355167f8be0079c531659141344cd1fd0a4f28419497f9722a3daafe3b4186f6b6457e08280a3005b3461019e57602060031936011261019e576004356000526003602052602060ff604060002054166040519015158152f35b3461019e57604060031936011261019e5767ffffffffffffffff60043560243582811161019e573660238201121561019e57806004013592831161019e5760248101928060051b91602483369201011161019e5761098c610bfd565b826000526020600581526040600020680100000000000000008311610a75578054838255808410610a4d575b508590600052816000209060005b848110610a3b575050509060407f07ffffffffffffffffffffffffffffffffffffffffffffffffffffffffffffff9281519586528501528060408501521161019e5781816060927f7c769db54a25afd07a9e50f502e0b9881e964323620166bdf47f5a9e5034ec5a95848401378101030190a1005b813583820155908301906001016109c6565b81600052838360002091820191015b818110610a6957506109b8565b60008155600101610a5c565b7f4e487b7100000000000000000000000000000000000000000000000000000000600052604160045260246000fd5b3461019e57604060031936011261019e577ff20afd7b032307b01752ee91e3f6a4b83a5b4ab631f9ab279322fd45634382c0600435610ae1610be7565b90610aea610bfd565b610af48282610d54565b60005260036020526040600020600160ff19825416179055610889604051928392839092916001600160a01b036020916040840195845216910152565b3461019e57602060031936011261019e576001600160a01b03610b52610bd1565b1660005260046020526020604060002054604051908152f35b3461019e57604060031936011261019e576024356004356000526005602052604060002090815481101561019e57602091600052816000200154604051908152f35b3461019e57600060031936011261019e576020906001600160a01b03600254168152f35b600435906001600160a01b038216820361019e57565b602435906001600160a01b038216820361019e57565b6001600160a01b03600054163303610c1157565b606460405162461bcd60e51b815260206004820152602060248201527f4f776e61626c653a2063616c6c6572206973206e6f7420746865206f776e65726044820152fd5b6060810190811067ffffffffffffffff821117610a7557604052565b90601f601f19910116810190811067ffffffffffffffff821117610a7557604052565b51906001600160a01b038216820361019e57565b60005b838110610cbb5750506000910152565b8181015183820152602001610cab565b9092919267ffffffffffffffff8111610a755760405191610cf66020601f19601f8501160184610c71565b82948284528282011161019e576020610d10930190610ca8565b565b9080601f8301121561019e578151610d2c92602001610ccb565b90565b90601f19601f602093610d4d81518092818752878088019101610ca8565b0116010190565b907fffffffffffffffffffffffffffffffffffffffff000000000000000000000000604051916020830193845260601b16604082015260348152610d9781610c55565b5190209056fea264697066735822122042c69b4cff01f1941f63e4b2c22a91d9518a78ce948e7cf8295a803cd5be10c764736f6c63430008110033",
  "devdoc": {
    "kind": "dev",
    "methods": {
      "hasAccess(address,address,bytes)": {
        "params": {
          "account": "The account to be checked.",
          "caller": "The account calling the function requiring an access check.",
          "data": "The data associated with the function call"
        },
        "returns": {
          "_0": "true if the account is allowed to access the system (false otherwise)."
        }
      },
      "owner()": {
        "details": "Returns the address of the current owner."
      },
      "renounceOwnership()": {
        "details": "Leaves the contract without owner. It will not be possible to call `onlyOwner` functions. Can only be called by the current owner. NOTE: Renouncing ownership will leave the contract without an owner, thereby disabling any functionality that is only available to the owner."
      },
      "transferOwnership(address)": {
        "details": "Transfers ownership of the contract to a new account (`newOwner`). Can only be called by the current owner."
      }
    },
    "version": 1
  },
  "userdoc": {
    "kind": "user",
    "methods": {
      "hasAccess(address,address,bytes)": {
        "notice": "This function is used to check if the account has necessary permissions to access the system."
      }
    },
    "version": 1
  },
  "storageLayout": {
    "storage": [
      {
        "astId": 7,
        "contract": "src/gated/xAuthAccessRegistry.sol:xAuthAccessRegistry",
        "label": "_owner",
        "offset": 0,
        "slot": "0",
        "type": "t_address"
      },
      {
        "astId": 419,
        "contract": "src/gated/xAuthAccessRegistry.sol:xAuthAccessRegistry",
        "label": "factory",
        "offset": 0,
        "slot": "1",
        "type": "t_contract(IIdFactory)406"
      },
      {
        "astId": 422,
        "contract": "src/gated/xAuthAccessRegistry.sol:xAuthAccessRegistry",
        "label": "claimIssuer",
        "offset": 0,
        "slot": "2",
        "type": "t_contract(IClaimIssuer)775"
      },
      {
        "astId": 426,
        "contract": "src/gated/xAuthAccessRegistry.sol:xAuthAccessRegistry",
        "label": "access",
        "offset": 0,
        "slot": "3",
        "type": "t_mapping(t_bytes32,t_bool)"
      },
      {
        "astId": 430,
        "contract": "src/gated/xAuthAccessRegistry.sol:xAuthAccessRegistry",
        "label": "fundsContract",
        "offset": 0,
        "slot": "4",
        "type": "t_mapping(t_address,t_bytes32)"
      },
      {
        "astId": 435,
        "contract": "src/gated/xAuthAccessRegistry.sol:xAuthAccessRegistry",
        "label": "requiredClaims",
        "offset": 0,
        "slot": "5",
        "type": "t_mapping(t_bytes32,t_array(t_uint256)dyn_storage)"
      }
    ],
    "types": {
      "t_address": {
        "encoding": "inplace",
        "label": "address",
        "numberOfBytes": "20"
      },
      "t_array(t_uint256)dyn_storage": {
        "base": "t_uint256",
        "encoding": "dynamic_array",
        "label": "uint256[]",
        "numberOfBytes": "32"
      },
      "t_bool": {
        "encoding": "inplace",
        "label": "bool",
        "numberOfBytes": "1"
      },
      "t_bytes32": {
        "encoding": "inplace",
        "label": "bytes32",
        "numberOfBytes": "32"
      },
      "t_contract(IClaimIssuer)775": {
        "encoding": "inplace",
        "label": "contract IClaimIssuer",
        "numberOfBytes": "20"
      },
      "t_contract(IIdFactory)406": {
        "encoding": "inplace",
        "label": "contract IIdFactory",
        "numberOfBytes": "20"
      },
      "t_mapping(t_address,t_bytes32)": {
        "encoding": "mapping",
        "key": "t_address",
        "label": "mapping(address => bytes32)",
        "numberOfBytes": "32",
        "value": "t_bytes32"
      },
      "t_mapping(t_bytes32,t_array(t_uint256)dyn_storage)": {
        "encoding": "mapping",
        "key": "t_bytes32",
        "label": "mapping(bytes32 => uint256[])",
        "numberOfBytes": "32",
        "value": "t_array(t_uint256)dyn_storage"
      },
      "t_mapping(t_bytes32,t_bool)": {
        "encoding": "mapping",
        "key": "t_bytes32",
        "label": "mapping(bytes32 => bool)",
        "numberOfBytes": "32",
        "value": "t_bool"
      },
      "t_uint256": {
        "encoding": "inplace",
        "label": "uint256",
        "numberOfBytes": "32"
      }
    }
  }
}