{
  "address": "0x4D5483c8699390F2C3D6866E8908eF68108649a8",
  "abi": [
    {
      "inputs": [
        {
          "internalType": "contract IIdFactory",
          "name": "_factory",
          "type": "address"
        },
        {
          "internalType": "contract IClaimIssuer",
          "name": "_claimIssuer",
          "type": "address"
        }
      ],
      "stateMutability": "nonpayable",
      "type": "constructor"
    },
    {
      "anonymous": false,
      "inputs": [
        {
          "indexed": false,
          "internalType": "bytes32",
          "name": "fundId",
          "type": "bytes32"
        },
        {
          "indexed": false,
          "internalType": "address",
          "name": "identityAddr",
          "type": "address"
        }
      ],
      "name": "AccessGranted",
      "type": "event"
    },
    {
      "anonymous": false,
      "inputs": [
        {
          "indexed": false,
          "internalType": "bytes32",
          "name": "fundId",
          "type": "bytes32"
        },
        {
          "indexed": false,
          "internalType": "address",
          "name": "identityAddr",
          "type": "address"
        }
      ],
      "name": "AccessRevoked",
      "type": "event"
    },
    {
      "anonymous": false,
      "inputs": [
        {
          "indexed": true,
          "internalType": "address",
          "name": "previousOwner",
          "type": "address"
        },
        {
          "indexed": true,
          "internalType": "address",
          "name": "newOwner",
          "type": "address"
        }
      ],
      "name": "OwnershipTransferred",
      "type": "event"
    },
    {
      "anonymous": false,
      "inputs": [
        {
          "indexed": false,
          "internalType": "bytes32",
          "name": "fundId",
          "type": "bytes32"
        },
        {
          "indexed": false,
          "internalType": "uint256[]",
          "name": "claimTopics",
          "type": "uint256[]"
        }
      ],
      "name": "RequiredClaimsUpdated",
      "type": "event"
    },
    {
      "inputs": [
        {
          "internalType": "bytes32",
          "name": "",
          "type": "bytes32"
        }
      ],
      "name": "access",
      "outputs": [
        {
          "internalType": "bool",
          "name": "",
          "type": "bool"
        }
      ],
      "stateMutability": "view",
      "type": "function"
    },
    {
      "inputs": [],
      "name": "claimIssuer",
      "outputs": [
        {
          "internalType": "contract IClaimIssuer",
          "name": "",
          "type": "address"
        }
      ],
      "stateMutability": "view",
      "type": "function"
    },
    {
      "inputs": [
        {
          "internalType": "bytes32",
          "name": "fundId",
          "type": "bytes32"
        },
        {
          "internalType": "address",
          "name": "identityAddr",
          "type": "address"
        }
      ],
      "name": "computeKey",
      "outputs": [
        {
          "internalType": "bytes32",
          "name": "",
          "type": "bytes32"
        }
      ],
      "stateMutability": "pure",
      "type": "function"
    },
    {
      "inputs": [],
      "name": "factory",
      "outputs": [
        {
          "internalType": "contract IIdFactory",
          "name": "",
          "type": "address"
        }
      ],
      "stateMutability": "view",
      "type": "function"
    },
    {
      "inputs": [
        {
          "internalType": "address",
          "name": "",
          "type": "address"
        }
      ],
      "name": "fundsContract",
      "outputs": [
        {
          "internalType": "bytes32",
          "name": "",
          "type": "bytes32"
        }
      ],
      "stateMutability": "view",
      "type": "function"
    },
    {
      "inputs": [
        {
          "internalType": "bytes32",
          "name": "fundId",
          "type": "bytes32"
        },
        {
          "internalType": "address",
          "name": "identityAddr",
          "type": "address"
        }
      ],
      "name": "grantAccess",
      "outputs": [],
      "stateMutability": "nonpayable",
      "type": "function"
    },
    {
      "inputs": [
        {
          "internalType": "address",
          "name": "account",
          "type": "address"
        },
        {
          "internalType": "address",
          "name": "caller",
          "type": "address"
        },
        {
          "internalType": "bytes",
          "name": "data",
          "type": "bytes"
        }
      ],
      "name": "hasAccess",
      "outputs": [
        {
          "internalType": "bool",
          "name": "",
          "type": "bool"
        }
      ],
      "stateMutability": "view",
      "type": "function"
    },
    {
      "inputs": [],
      "name": "owner",
      "outputs": [
        {
          "internalType": "address",
          "name": "",
          "type": "address"
        }
      ],
      "stateMutability": "view",
      "type": "function"
    },
    {
      "inputs": [],
      "name": "renounceOwnership",
      "outputs": [],
      "stateMutability": "nonpayable",
      "type": "function"
    },
    {
      "inputs": [
        {
          "internalType": "bytes32",
          "name": "",
          "type": "bytes32"
        },
        {
          "internalType": "uint256",
          "name": "",
          "type": "uint256"
        }
      ],
      "name": "requiredClaims",
      "outputs": [
        {
          "internalType": "uint256",
          "name": "",
          "type": "uint256"
        }
      ],
      "stateMutability": "view",
      "type": "function"
    },
    {
      "inputs": [
        {
          "internalType": "bytes32",
          "name": "fundId",
          "type": "bytes32"
        },
        {
          "internalType": "address",
          "name": "identityAddr",
          "type": "address"
        }
      ],
      "name": "revokeAccess",
      "outputs": [],
      "stateMutability": "nonpayable",
      "type": "function"
    },
    {
      "inputs": [
        {
          "internalType": "bytes4",
          "name": "interfaceId",
          "type": "bytes4"
        }
      ],
      "name": "supportsInterface",
      "outputs": [
        {
          "internalType": "bool",
          "name": "",
          "type": "bool"
        }
      ],
      "stateMutability": "view",
      "type": "function"
    },
    {
      "inputs": [
        {
          "internalType": "address",
          "name": "newOwner",
          "type": "address"
        }
      ],
      "name": "transferOwnership",
      "outputs": [],
      "stateMutability": "nonpayable",
      "type": "function"
    },
    {
      "inputs": [
        {
          "internalType": "contract IClaimIssuer",
          "name": "_claimIssuer",
          "type": "address"
        }
      ],
      "name": "updateClaimIssuer",
      "outputs": [],
      "stateMutability": "nonpayable",
      "type": "function"
    },
    {
      "inputs": [
        {
          "internalType": "contract IIdFactory",
          "name": "_factory",
          "type": "address"
        }
      ],
      "name": "updateFactory",
      "outputs": [],
      "stateMutability": "nonpayable",
      "type": "function"
    },
    {
      "inputs": [
        {
          "internalType": "bytes32",
          "name": "fundId",
          "type": "bytes32"
        },
        {
          "internalType": "uint256[]",
          "name": "claimTopics",
          "type": "uint256[]"
        }
      ],
      "name": "updateRequiredClaims",
      "outputs": [],
      "stateMutability": "nonpayable",
      "type": "function"
    }
  ],
  "transactionHash": "0xb2cdaf57b719e15d9af6a55bd1d8a1929c03ab72637378393c9d8094f780312a",
  "args": [
    "0x8A0Fa067dE12a527501FA009a2806AAD3d9df630",
    "0x6b0a61Bd492655845963044BFA70EB77FA1512a7"
  ],
  "numDeployments": 3,
  "solcInputHash": "4914c933cd395ac5252c0dc5fb2e7920",
  "bytecode": "0x6080346100c057601f610acf38819003918201601f19168301916001600160401b038311848410176100c55780849260409485528339810103126100c05780516001600160a01b0391828216918290036100c05760200151908282168092036100c0576000549060018060a01b0319913383821617600055604051943391167f8be0079c531659141344cd1fd0a4f28419497f9722a3daafe3b4186f6b6457e0600080a381600154161760015560025416176002556109f390816100dc8239f35b600080fd5b634e487b7160e01b600052604160045260246000fdfe6080604081815260048036101561001557600080fd5b600092833560e01c90816301ffc9a7146107ff575080630c6f78a9146107d757806330b2ae901461079d5780633f96f5571461076857806340554c3a146106e05780634ef1660b1461069257806367dd95f71461053d5780636d43c4c914610511578063715018a6146104ab5780638d53b208146104205780638da5cb5b146103fa578063c45a0155146103d2578063c5b8a6b6146103a3578063d9f165dc14610355578063eefb7e9a146101bc5763f2fde38b146100d357600080fd5b346101b85760206003193601126101b8576100ec610850565b906100f5610881565b6001600160a01b0380921692831561014f57505082548273ffffffffffffffffffffffffffffffffffffffff198216178455167f8be0079c531659141344cd1fd0a4f28419497f9722a3daafe3b4186f6b6457e08380a380f35b906020608492519162461bcd60e51b8352820152602660248201527f4f776e61626c653a206e6577206f776e657220697320746865207a65726f206160448201527f64647265737300000000000000000000000000000000000000000000000000006064820152fd5b8280fd5b50346101b85760606003193601126101b8576101d6610850565b6101de61086b565b5067ffffffffffffffff6044358181116103515736602382011215610351578084013582811161034d5736910160240111610349576001600160a01b03948592836001541686519788927f2fea7b8100000000000000000000000000000000000000000000000000000000845216868301528160246020998a935afa92831561033f5782936102ba575b505050161561027957505160018152f35b82606492519162461bcd60e51b8352820152601860248201527f6163636f756e74206964656e74697479206973206e756c6c00000000000000006044820152fd5b9091925086903d8811610337575b601f82017fffffffffffffffffffffffffffffffffffffffffffffffffffffffffffffffe0168301908111838210176103245787918391885281010312610320575190828216820361031d5750388080610268565b80fd5b5080fd5b602484604188634e487b7160e01b835252fd5b3d91506102c8565b86513d84823e3d90fd5b8480fd5b8680fd5b8580fd5b83823461032057602060031936011261032057356001600160a01b03811680910361032057610382610881565b73ffffffffffffffffffffffffffffffffffffffff19600154161760015580f35b50913461031d578160031936011261031d57506103cb6020926103c461086b565b90356108d9565b9051908152f35b5050346103205781600319360112610320576020906001600160a01b03600154169051908152f35b5050346103205781600319360112610320576001600160a01b0360209254169051908152f35b5090346101b857806003193601126101b8577fe7906b77ea165c70ad8268ce5b59b778a198edf9c1ae4118378eefdc76fce5f491356104a561046061086b565b92610469610881565b61047384846108d9565b8652600360205280862060ff19815416905551928392839092916001600160a01b036020916040840195845216910152565b0390a180f35b833461031d578060031936011261031d576104c4610881565b806001600160a01b03815473ffffffffffffffffffffffffffffffffffffffff1981168355167f8be0079c531659141344cd1fd0a4f28419497f9722a3daafe3b4186f6b6457e08280a380f35b50346101b85760206003193601126101b8578160209360ff923581526003855220541690519015158152f35b5090346101b857806003193601126101b8578135906024359067ffffffffffffffff90818311610351573660238401121561035157828501359182116103515760248301948260051b93602485369201011161034d5761059b610881565b848752602090600582528288209068010000000000000000851161067f5750805484825580851061065a575b50875280872086885b858110610648575050509181807f07ffffffffffffffffffffffffffffffffffffffffffffffffffffffffffffff94839451978852870152850152116106445781816060927f7c769db54a25afd07a9e50f502e0b9881e964323620166bdf47f5a9e5034ec5a95848401378101030190a180f35b8380fd5b813583820155908301906001016105d0565b81895284838a2091820191015b81811061067457506105c7565b898155600101610667565b886041602492634e487b7160e01b835252fd5b83823461032057602060031936011261032057356001600160a01b038116809103610320576106bf610881565b73ffffffffffffffffffffffffffffffffffffffff19600254161760025580f35b5090346101b857806003193601126101b8577ff20afd7b032307b01752ee91e3f6a4b83a5b4ab631f9ab279322fd45634382c091356104a561072061086b565b92610729610881565b61073384846108d9565b86526003602052808620600160ff1982541617905551928392839092916001600160a01b036020916040840195845216910152565b50346101b85760206003193601126101b85760209282916001600160a01b0361078f610850565b168252845220549051908152f35b50346101b857816003193601126101b857602435903583526005602052818320805482101561064457835260209283902001549051908152f35b5050346103205781600319360112610320576020906001600160a01b03600254169051908152f35b925050346101b85760206003193601126101b85735917fffffffff000000000000000000000000000000000000000000000000000000008316830361031d575061084a602092610949565b15158152f35b600435906001600160a01b038216820361086657565b600080fd5b602435906001600160a01b038216820361086657565b6001600160a01b0360005416330361089557565b606460405162461bcd60e51b815260206004820152602060248201527f4f776e61626c653a2063616c6c6572206973206e6f7420746865206f776e65726044820152fd5b907fffffffffffffffffffffffffffffffffffffffff000000000000000000000000604051916020830193845260601b166040820152603481526060810181811067ffffffffffffffff8211176109335760405251902090565b634e487b7160e01b600052604160045260246000fd5b7fffffffff00000000000000000000000000000000000000000000000000000000167feefb7e9a0000000000000000000000000000000000000000000000000000000081146109b7577f01ffc9a7000000000000000000000000000000000000000000000000000000001490565b5060019056fea26469706673582212202560ccfb37a0fdbc0f3e0e7a88d22ac35527fd386d19ccbac95f7d6216ad55ef64736f6c63430008110033",
  "devdoc": {
    "kind": "dev",
    "methods": {
      "hasAccess(address,address,bytes)": {
        "params": {
          "account": "The account to be checked.",
          "caller": "The account calling the function requiring an access check.",
          "data": "The data associated with the function call"
        },
        "returns": {
          "_0": "true if the account is allowed to access the system (false otherwise)."
        }
      },
      "owner()": {
        "details": "Returns the address of the current owner."
      },
      "renounceOwnership()": {
        "details": "Leaves the contract without owner. It will not be possible to call `onlyOwner` functions. Can only be called by the current owner. NOTE: Renouncing ownership will leave the contract without an owner, thereby disabling any functionality that is only available to the owner."
      },
      "supportsInterface(bytes4)": {
        "details": "See {IERC165-supportsInterface}."
      },
      "transferOwnership(address)": {
        "details": "Transfers ownership of the contract to a new account (`newOwner`). Can only be called by the current owner."
      }
    },
    "version": 1
  },
  "userdoc": {
    "kind": "user",
    "methods": {
      "hasAccess(address,address,bytes)": {
        "notice": "This function is used to check if the account has necessary permissions to access the system."
      }
    },
    "version": 1
  },
  "storageLayout": {
    "storage": [
      {
        "astId": 7,
        "contract": "src/gated/xAuthAccessRegistry.sol:xAuthAccessRegistry",
        "label": "_owner",
        "offset": 0,
        "slot": "0",
        "type": "t_address"
      },
      {
        "astId": 458,
        "contract": "src/gated/xAuthAccessRegistry.sol:xAuthAccessRegistry",
        "label": "factory",
        "offset": 0,
        "slot": "1",
        "type": "t_contract(IIdFactory)442"
      },
      {
        "astId": 461,
        "contract": "src/gated/xAuthAccessRegistry.sol:xAuthAccessRegistry",
        "label": "claimIssuer",
        "offset": 0,
        "slot": "2",
        "type": "t_contract(IClaimIssuer)758"
      },
      {
        "astId": 465,
        "contract": "src/gated/xAuthAccessRegistry.sol:xAuthAccessRegistry",
        "label": "access",
        "offset": 0,
        "slot": "3",
        "type": "t_mapping(t_bytes32,t_bool)"
      },
      {
        "astId": 469,
        "contract": "src/gated/xAuthAccessRegistry.sol:xAuthAccessRegistry",
        "label": "fundsContract",
        "offset": 0,
        "slot": "4",
        "type": "t_mapping(t_address,t_bytes32)"
      },
      {
        "astId": 474,
        "contract": "src/gated/xAuthAccessRegistry.sol:xAuthAccessRegistry",
        "label": "requiredClaims",
        "offset": 0,
        "slot": "5",
        "type": "t_mapping(t_bytes32,t_array(t_uint256)dyn_storage)"
      }
    ],
    "types": {
      "t_address": {
        "encoding": "inplace",
        "label": "address",
        "numberOfBytes": "20"
      },
      "t_array(t_uint256)dyn_storage": {
        "base": "t_uint256",
        "encoding": "dynamic_array",
        "label": "uint256[]",
        "numberOfBytes": "32"
      },
      "t_bool": {
        "encoding": "inplace",
        "label": "bool",
        "numberOfBytes": "1"
      },
      "t_bytes32": {
        "encoding": "inplace",
        "label": "bytes32",
        "numberOfBytes": "32"
      },
      "t_contract(IClaimIssuer)758": {
        "encoding": "inplace",
        "label": "contract IClaimIssuer",
        "numberOfBytes": "20"
      },
      "t_contract(IIdFactory)442": {
        "encoding": "inplace",
        "label": "contract IIdFactory",
        "numberOfBytes": "20"
      },
      "t_mapping(t_address,t_bytes32)": {
        "encoding": "mapping",
        "key": "t_address",
        "label": "mapping(address => bytes32)",
        "numberOfBytes": "32",
        "value": "t_bytes32"
      },
      "t_mapping(t_bytes32,t_array(t_uint256)dyn_storage)": {
        "encoding": "mapping",
        "key": "t_bytes32",
        "label": "mapping(bytes32 => uint256[])",
        "numberOfBytes": "32",
        "value": "t_array(t_uint256)dyn_storage"
      },
      "t_mapping(t_bytes32,t_bool)": {
        "encoding": "mapping",
        "key": "t_bytes32",
        "label": "mapping(bytes32 => bool)",
        "numberOfBytes": "32",
        "value": "t_bool"
      },
      "t_uint256": {
        "encoding": "inplace",
        "label": "uint256",
        "numberOfBytes": "32"
      }
    }
  }
}