{
  "address": "0x88356Ab016D11572F27cbEd2f9BB7cDD1f98954c",
  "abi": [
    {
      "inputs": [
        {
          "internalType": "address",
          "name": "initialManagementKey",
          "type": "address"
        },
        {
          "internalType": "address",
          "name": "_idFactory",
          "type": "address"
        }
      ],
      "stateMutability": "nonpayable",
      "type": "constructor"
    },
    {
      "anonymous": false,
      "inputs": [
        {
          "indexed": true,
          "internalType": "uint256",
          "name": "executionId",
          "type": "uint256"
        },
        {
          "indexed": false,
          "internalType": "bool",
          "name": "approved",
          "type": "bool"
        }
      ],
      "name": "Approved",
      "type": "event"
    },
    {
      "anonymous": false,
      "inputs": [
        {
          "indexed": true,
          "internalType": "bytes32",
          "name": "claimId",
          "type": "bytes32"
        },
        {
          "indexed": true,
          "internalType": "uint256",
          "name": "topic",
          "type": "uint256"
        },
        {
          "indexed": false,
          "internalType": "uint256",
          "name": "scheme",
          "type": "uint256"
        },
        {
          "indexed": true,
          "internalType": "address",
          "name": "issuer",
          "type": "address"
        },
        {
          "indexed": false,
          "internalType": "bytes",
          "name": "signature",
          "type": "bytes"
        },
        {
          "indexed": false,
          "internalType": "bytes",
          "name": "data",
          "type": "bytes"
        },
        {
          "indexed": false,
          "internalType": "string",
          "name": "uri",
          "type": "string"
        }
      ],
      "name": "ClaimAdded",
      "type": "event"
    },
    {
      "anonymous": false,
      "inputs": [
        {
          "indexed": true,
          "internalType": "bytes32",
          "name": "claimId",
          "type": "bytes32"
        },
        {
          "indexed": true,
          "internalType": "uint256",
          "name": "topic",
          "type": "uint256"
        },
        {
          "indexed": false,
          "internalType": "uint256",
          "name": "scheme",
          "type": "uint256"
        },
        {
          "indexed": true,
          "internalType": "address",
          "name": "issuer",
          "type": "address"
        },
        {
          "indexed": false,
          "internalType": "bytes",
          "name": "signature",
          "type": "bytes"
        },
        {
          "indexed": false,
          "internalType": "bytes",
          "name": "data",
          "type": "bytes"
        },
        {
          "indexed": false,
          "internalType": "string",
          "name": "uri",
          "type": "string"
        }
      ],
      "name": "ClaimChanged",
      "type": "event"
    },
    {
      "anonymous": false,
      "inputs": [
        {
          "indexed": true,
          "internalType": "bytes32",
          "name": "claimId",
          "type": "bytes32"
        },
        {
          "indexed": true,
          "internalType": "uint256",
          "name": "topic",
          "type": "uint256"
        },
        {
          "indexed": false,
          "internalType": "uint256",
          "name": "scheme",
          "type": "uint256"
        },
        {
          "indexed": true,
          "internalType": "address",
          "name": "issuer",
          "type": "address"
        },
        {
          "indexed": false,
          "internalType": "bytes",
          "name": "signature",
          "type": "bytes"
        },
        {
          "indexed": false,
          "internalType": "bytes",
          "name": "data",
          "type": "bytes"
        },
        {
          "indexed": false,
          "internalType": "string",
          "name": "uri",
          "type": "string"
        }
      ],
      "name": "ClaimRemoved",
      "type": "event"
    },
    {
      "anonymous": false,
      "inputs": [
        {
          "indexed": true,
          "internalType": "bytes",
          "name": "signature",
          "type": "bytes"
        }
      ],
      "name": "ClaimRevoked",
      "type": "event"
    },
    {
      "anonymous": false,
      "inputs": [
        {
          "indexed": true,
          "internalType": "uint256",
          "name": "executionId",
          "type": "uint256"
        },
        {
          "indexed": true,
          "internalType": "address",
          "name": "to",
          "type": "address"
        },
        {
          "indexed": true,
          "internalType": "uint256",
          "name": "value",
          "type": "uint256"
        },
        {
          "indexed": false,
          "internalType": "bytes",
          "name": "data",
          "type": "bytes"
        }
      ],
      "name": "Executed",
      "type": "event"
    },
    {
      "anonymous": false,
      "inputs": [
        {
          "indexed": true,
          "internalType": "uint256",
          "name": "executionId",
          "type": "uint256"
        },
        {
          "indexed": true,
          "internalType": "address",
          "name": "to",
          "type": "address"
        },
        {
          "indexed": true,
          "internalType": "uint256",
          "name": "value",
          "type": "uint256"
        },
        {
          "indexed": false,
          "internalType": "bytes",
          "name": "data",
          "type": "bytes"
        }
      ],
      "name": "ExecutionFailed",
      "type": "event"
    },
    {
      "anonymous": false,
      "inputs": [
        {
          "indexed": true,
          "internalType": "uint256",
          "name": "executionId",
          "type": "uint256"
        },
        {
          "indexed": true,
          "internalType": "address",
          "name": "to",
          "type": "address"
        },
        {
          "indexed": true,
          "internalType": "uint256",
          "name": "value",
          "type": "uint256"
        },
        {
          "indexed": false,
          "internalType": "bytes",
          "name": "data",
          "type": "bytes"
        }
      ],
      "name": "ExecutionRequested",
      "type": "event"
    },
    {
      "anonymous": false,
      "inputs": [
        {
          "indexed": true,
          "internalType": "bytes32",
          "name": "key",
          "type": "bytes32"
        },
        {
          "indexed": true,
          "internalType": "uint256",
          "name": "purpose",
          "type": "uint256"
        },
        {
          "indexed": true,
          "internalType": "uint256",
          "name": "keyType",
          "type": "uint256"
        }
      ],
      "name": "KeyAdded",
      "type": "event"
    },
    {
      "anonymous": false,
      "inputs": [
        {
          "indexed": true,
          "internalType": "bytes32",
          "name": "key",
          "type": "bytes32"
        },
        {
          "indexed": true,
          "internalType": "uint256",
          "name": "purpose",
          "type": "uint256"
        },
        {
          "indexed": true,
          "internalType": "uint256",
          "name": "keyType",
          "type": "uint256"
        }
      ],
      "name": "KeyRemoved",
      "type": "event"
    },
    {
      "inputs": [
        {
          "internalType": "uint256",
          "name": "_topic",
          "type": "uint256"
        },
        {
          "internalType": "uint256",
          "name": "_scheme",
          "type": "uint256"
        },
        {
          "internalType": "address",
          "name": "_issuer",
          "type": "address"
        },
        {
          "internalType": "bytes",
          "name": "_signature",
          "type": "bytes"
        },
        {
          "internalType": "bytes",
          "name": "_data",
          "type": "bytes"
        },
        {
          "internalType": "string",
          "name": "_uri",
          "type": "string"
        }
      ],
      "name": "addClaim",
      "outputs": [
        {
          "internalType": "bytes32",
          "name": "claimRequestId",
          "type": "bytes32"
        }
      ],
      "stateMutability": "nonpayable",
      "type": "function"
    },
    {
      "inputs": [
        {
          "internalType": "bytes32",
          "name": "_key",
          "type": "bytes32"
        },
        {
          "internalType": "uint256",
          "name": "_purpose",
          "type": "uint256"
        },
        {
          "internalType": "uint256",
          "name": "_type",
          "type": "uint256"
        }
      ],
      "name": "addKey",
      "outputs": [
        {
          "internalType": "bool",
          "name": "success",
          "type": "bool"
        }
      ],
      "stateMutability": "nonpayable",
      "type": "function"
    },
    {
      "inputs": [
        {
          "internalType": "uint256",
          "name": "_id",
          "type": "uint256"
        },
        {
          "internalType": "bool",
          "name": "_approve",
          "type": "bool"
        }
      ],
      "name": "approve",
      "outputs": [
        {
          "internalType": "bool",
          "name": "success",
          "type": "bool"
        }
      ],
      "stateMutability": "nonpayable",
      "type": "function"
    },
    {
      "inputs": [
        {
          "internalType": "address",
          "name": "_to",
          "type": "address"
        },
        {
          "internalType": "uint256",
          "name": "_value",
          "type": "uint256"
        },
        {
          "internalType": "bytes",
          "name": "_data",
          "type": "bytes"
        }
      ],
      "name": "execute",
      "outputs": [
        {
          "internalType": "uint256",
          "name": "executionId",
          "type": "uint256"
        }
      ],
      "stateMutability": "payable",
      "type": "function"
    },
    {
      "inputs": [
        {
          "internalType": "bytes32",
          "name": "_claimId",
          "type": "bytes32"
        }
      ],
      "name": "getClaim",
      "outputs": [
        {
          "internalType": "uint256",
          "name": "topic",
          "type": "uint256"
        },
        {
          "internalType": "uint256",
          "name": "scheme",
          "type": "uint256"
        },
        {
          "internalType": "address",
          "name": "issuer",
          "type": "address"
        },
        {
          "internalType": "bytes",
          "name": "signature",
          "type": "bytes"
        },
        {
          "internalType": "bytes",
          "name": "data",
          "type": "bytes"
        },
        {
          "internalType": "string",
          "name": "uri",
          "type": "string"
        }
      ],
      "stateMutability": "view",
      "type": "function"
    },
    {
      "inputs": [
        {
          "internalType": "uint256",
          "name": "_topic",
          "type": "uint256"
        }
      ],
      "name": "getClaimIdsByTopic",
      "outputs": [
        {
          "internalType": "bytes32[]",
          "name": "claimIds",
          "type": "bytes32[]"
        }
      ],
      "stateMutability": "view",
      "type": "function"
    },
    {
      "inputs": [
        {
          "internalType": "bytes32",
          "name": "_key",
          "type": "bytes32"
        }
      ],
      "name": "getKey",
      "outputs": [
        {
          "internalType": "uint256[]",
          "name": "purposes",
          "type": "uint256[]"
        },
        {
          "internalType": "uint256",
          "name": "keyType",
          "type": "uint256"
        },
        {
          "internalType": "bytes32",
          "name": "key",
          "type": "bytes32"
        }
      ],
      "stateMutability": "view",
      "type": "function"
    },
    {
      "inputs": [
        {
          "internalType": "bytes32",
          "name": "_key",
          "type": "bytes32"
        }
      ],
      "name": "getKeyPurposes",
      "outputs": [
        {
          "internalType": "uint256[]",
          "name": "_purposes",
          "type": "uint256[]"
        }
      ],
      "stateMutability": "view",
      "type": "function"
    },
    {
      "inputs": [
        {
          "internalType": "uint256",
          "name": "_purpose",
          "type": "uint256"
        }
      ],
      "name": "getKeysByPurpose",
      "outputs": [
        {
          "internalType": "bytes32[]",
          "name": "keys",
          "type": "bytes32[]"
        }
      ],
      "stateMutability": "view",
      "type": "function"
    },
    {
      "inputs": [
        {
          "internalType": "bytes",
          "name": "sig",
          "type": "bytes"
        },
        {
          "internalType": "bytes32",
          "name": "dataHash",
          "type": "bytes32"
        }
      ],
      "name": "getRecoveredAddress",
      "outputs": [
        {
          "internalType": "address",
          "name": "addr",
          "type": "address"
        }
      ],
      "stateMutability": "pure",
      "type": "function"
    },
    {
      "inputs": [],
      "name": "idFactory",
      "outputs": [
        {
          "internalType": "contract IdFactory",
          "name": "",
          "type": "address"
        }
      ],
      "stateMutability": "view",
      "type": "function"
    },
    {
      "inputs": [
        {
          "internalType": "address",
          "name": "initialManagementKey",
          "type": "address"
        },
        {
          "internalType": "address",
          "name": "_idFactoryAddress",
          "type": "address"
        }
      ],
      "name": "initialize",
      "outputs": [],
      "stateMutability": "nonpayable",
      "type": "function"
    },
    {
      "inputs": [
        {
          "internalType": "bytes",
          "name": "_sig",
          "type": "bytes"
        }
      ],
      "name": "isClaimRevoked",
      "outputs": [
        {
          "internalType": "bool",
          "name": "",
          "type": "bool"
        }
      ],
      "stateMutability": "view",
      "type": "function"
    },
    {
      "inputs": [
        {
          "internalType": "contract IIdentity",
          "name": "_identity",
          "type": "address"
        },
        {
          "internalType": "uint256",
          "name": "claimTopic",
          "type": "uint256"
        },
        {
          "internalType": "bytes",
          "name": "sig",
          "type": "bytes"
        },
        {
          "internalType": "bytes",
          "name": "data",
          "type": "bytes"
        }
      ],
      "name": "isClaimValid",
      "outputs": [
        {
          "internalType": "bool",
          "name": "claimValid",
          "type": "bool"
        }
      ],
      "stateMutability": "view",
      "type": "function"
    },
    {
      "inputs": [
        {
          "internalType": "bool",
          "name": "done",
          "type": "bool"
        }
      ],
      "name": "isComingFromIdentity",
      "outputs": [
        {
          "internalType": "bool",
          "name": "",
          "type": "bool"
        }
      ],
      "stateMutability": "nonpayable",
      "type": "function"
    },
    {
      "inputs": [
        {
          "internalType": "bytes32",
          "name": "_key",
          "type": "bytes32"
        },
        {
          "internalType": "uint256",
          "name": "_purpose",
          "type": "uint256"
        }
      ],
      "name": "keyHasPurpose",
      "outputs": [
        {
          "internalType": "bool",
          "name": "result",
          "type": "bool"
        }
      ],
      "stateMutability": "view",
      "type": "function"
    },
    {
      "inputs": [
        {
          "internalType": "bytes32",
          "name": "_claimId",
          "type": "bytes32"
        }
      ],
      "name": "removeClaim",
      "outputs": [
        {
          "internalType": "bool",
          "name": "success",
          "type": "bool"
        }
      ],
      "stateMutability": "nonpayable",
      "type": "function"
    },
    {
      "inputs": [
        {
          "internalType": "bytes32",
          "name": "_key",
          "type": "bytes32"
        },
        {
          "internalType": "uint256",
          "name": "_purpose",
          "type": "uint256"
        }
      ],
      "name": "removeKey",
      "outputs": [
        {
          "internalType": "bool",
          "name": "success",
          "type": "bool"
        }
      ],
      "stateMutability": "nonpayable",
      "type": "function"
    },
    {
      "inputs": [
        {
          "internalType": "bytes32",
          "name": "_claimId",
          "type": "bytes32"
        },
        {
          "internalType": "address",
          "name": "_identity",
          "type": "address"
        }
      ],
      "name": "revokeClaim",
      "outputs": [
        {
          "internalType": "bool",
          "name": "",
          "type": "bool"
        }
      ],
      "stateMutability": "nonpayable",
      "type": "function"
    },
    {
      "inputs": [
        {
          "internalType": "bytes",
          "name": "signature",
          "type": "bytes"
        }
      ],
      "name": "revokeClaimBySignature",
      "outputs": [],
      "stateMutability": "nonpayable",
      "type": "function"
    },
    {
      "inputs": [
        {
          "internalType": "bytes",
          "name": "",
          "type": "bytes"
        }
      ],
      "name": "revokedClaims",
      "outputs": [
        {
          "internalType": "bool",
          "name": "",
          "type": "bool"
        }
      ],
      "stateMutability": "view",
      "type": "function"
    },
    {
      "inputs": [],
      "name": "version",
      "outputs": [
        {
          "internalType": "string",
          "name": "",
          "type": "string"
        }
      ],
      "stateMutability": "pure",
      "type": "function"
    }
  ],
  "transactionHash": "0x122f941d0cd2d0cdfbe6f6fb2d47fc6a2c084219e76911dc7146456fa0dd88d5",
  "args": [
    "0xB14Aa20a0c4313F15f85D5edEcF06E5047fa54dd",
    "0x90D7d522fa1EAe50c97b0B669f0d9Db2bcfFdb94"
  ],
  "numDeployments": 1,
  "solcInputHash": "11210d6bf88b95799f3b606ff859eca6",
  "bytecode": "0x6080346200025e576200426f906001600160401b03601f38849003908101601f1916830190828211848310176200026357808491604096879485528339810103126200025e57620000508262000279565b6200005f602080940162000279565b6008546001600160a01b039283169061ffff191681156200021a576101011760085560018060a01b0319926001928285855416178455169360009585858854161787558751918183019084825282845289840191848310828411176200020657828b5284519020808a52600384528a8a206002018190559360600190811182821017620001b257895284815282885260038252888820908154868355808710620001dc575b509088528188209085895b818110620001c6575050505081875283808989200155838752600481528787209081549168010000000000000000831015620001b2578583018082558310156200019e578852872001819055829081907f480000bb1edad8ca1470381cc334b1917fbd51c6531f3a623ea8e0ec7e38a6e98880a48282541617905582541617905551613fe090816200028f8239f35b634e487b7160e01b89526032600452602489fd5b634e487b7160e01b89526041600452602489fd5b8460ff845116930192818501550186906200010f565b828a528680858c2092830192015b828110620001fa57505062000104565b8b8155018790620001ea565b634e487b7160e01b8a52604160045260248afd5b865162461bcd60e51b815260048101879052601f60248201527f696e76616c696420617267756d656e74202d207a65726f2061646472657373006044820152606490fd5b600080fd5b634e487b7160e01b600052604160045260246000fd5b51906001600160a01b03821682036200025e5756fe60806040526004361015610013575b600080fd5b60003560e01c806312aaac70146101cb5780631d381240146101c25780632646b264146101b957806341850d86146101b0578063485cc955146101a75780634eee424a1461019e57806353d413c51461019557806354fd4d501461018c57806373c3370814610183578063747442d31461017a57806378e751a61461017157806380e9e9e1146101685780639010f7261461015f5780639f7f9edd14610156578063b1a34e0d1461014d578063b61d27f614610144578063c0969a6e1461013b578063c3b129e314610132578063c9100bcb14610129578063d202158d14610120578063d2345249146101175763fb307b341461010f57600080fd5b61000e6112be565b5061000e61127e565b5061000e611236565b5061000e6111ab565b5061000e611108565b5061000e6110a0565b5061000e610edb565b5061000e610e37565b5061000e610d0e565b5061000e610ca3565b5061000e610c2c565b5061000e610bc9565b5061000e610b88565b5061000e610a89565b5061000e610a0b565b5061000e6108c2565b5061000e6107c7565b5061000e6105ad565b5061000e610518565b5061000e6104eb565b5061000e61026c565b5061000e610208565b90815180825260208080930193019160005b8281106101f4575050505090565b8351855293810193928101926001016101e6565b503461000e57602060031936011261000e57600435600052600360205261025d6040600020600160406000200154610248600260406000200154926119a6565b916040519384936060855260608501906101d4565b91602084015260408301520390f35b503461000e57606060031936011261000e57610294600160ff60085460081c161515146112ff565b3033148015610314575b80156102d8575b6102ae90611392565b6102d46102c2604435602435600435611c49565b60405190151581529081906020820190565b0390f35b506040805133602082019081526102ae9261030d929061030590829081015b03601f1981018352826103fd565b519020613c32565b90506102a5565b506001600160a01b03600460206103426103366000546001600160a01b031690565b6001600160a01b031690565b60405192838092630fffbaf360e01b82525afa90811561039c575b60009161036e575b5016331461029e565b61038f915060203d8111610395575b61038781836103fd565b810190611370565b38610365565b503d61037d565b6103a4611385565b61035d565b50634e487b7160e01b600052604160045260246000fd5b67ffffffffffffffff81116103d457604052565b6103dc6103a9565b604052565b6060810190811067ffffffffffffffff8211176103d457604052565b90601f601f19910116810190811067ffffffffffffffff8211176103d457604052565b604051906020820182811067ffffffffffffffff8211176103d457604052565b601f19601f60209267ffffffffffffffff811161045e575b01160190565b6104666103a9565b610458565b92919261047782610440565b9161048560405193846103fd565b82948184528183011161000e578281602093846000960137010152565b9080601f8301121561000e578160206104bd9335910161046b565b90565b602060031982011261000e576004359067ffffffffffffffff821161000e576104bd916004016104a2565b503461000e5760206105046104ff366104c0565b6117ba565b6040519015158152f35b8015150361000e57565b503461000e57602060031936011261000e576004356105368161050e565b6001600160a01b036000541633149081610593575b50610566575b602060ff60015460a01c166040519015158152f35b7fffffffffffffffffffffff00ffffffffffffffffffffffffffffffffffffffff60015416600155610551565b9050153861054b565b6001600160a01b0381160361000e57565b503461000e57604060031936011261000e576004356105cb8161059c565b602435906105d88261059c565b6001600160a01b0390818116156107835761069260019392849361060561060160085460ff1690565b1590565b801561077a575b61061590613f24565b610627600160ff196008541617600855565b61063b61010061ff00196008541617600855565b610668846001600160a01b031673ffffffffffffffffffffffffffffffffffffffff196001541617600155565b166001600160a01b031673ffffffffffffffffffffffffffffffffffffffff196000541617600055565b6040516106b7816102f76020820194859190916001600160a01b036020820193169052565b5190208060026106d1826000526003602052604060002090565b01556106fb6106de610420565b600181526106f6836000526003602052604060002090565b613f6f565b61071a82610713836000526003602052604060002090565b0160019055565b60016000526004602052610753817fabd6e7cb50984ff9c2f3e18a2660c3353dadf4e3291deeb275dae2cd1e44fe05611ab6565b611ab6565b7f480000bb1edad8ca1470381cc334b1917fbd51c6531f3a623ea8e0ec7e38a6e9600080a4005b50303b1561060c565b606460405162461bcd60e51b815260206004820152601f60248201527f696e76616c696420617267756d656e74202d207a65726f2061646472657373006044820152fd5b503461000e57602060031936011261000e576107ef600160ff60085460081c161515146112ff565b3033148015610849575b8015610817575b61080990612f86565b6102d46102c2600435613796565b5060408051336020820190815261080992610842929061083a90829081016102f7565b519020613ccf565b9050610800565b506001600160a01b036004602061086b6103366000546001600160a01b031690565b60405192838092630fffbaf360e01b82525afa9081156108b5575b600091610897575b501633146107f9565b6108af915060203d81116103955761038781836103fd565b3861088e565b6108bd611385565b610886565b503461000e57604060031936011261000e576108ea600160ff60085460081c161515146112ff565b303314801561093f575b8015610915575b61090490611392565b6102d46102c26024356004356129b8565b5060408051336020820190815261090492610938929061030590829081016102f7565b90506108fb565b506001600160a01b03600460206109616103366000546001600160a01b031690565b60405192838092630fffbaf360e01b82525afa9081156109ab575b60009161098d575b501633146108f4565b6109a5915060203d81116103955761038781836103fd565b38610984565b6109b3611385565b61097c565b600091031261000e57565b60005b8381106109d65750506000910152565b81810151838201526020016109c6565b90601f19601f602093610a04815180928187528780880191016109c3565b0116010190565b503461000e57600060031936011261000e576102d46040516040810181811067ffffffffffffffff821117610a7c575b604052600581527f322e322e3100000000000000000000000000000000000000000000000000000060208201526040519182916020835260208301906109e6565b610a846103a9565b610a3b565b503461000e57604060031936011261000e576102d46102c2602435610aad8161059c565b610ac3600160ff60085460081c161515146112ff565b3033148015610b0f575b8015610ae5575b610add90611392565b60043561153a565b50604080513360208201908152610add92610b08929061030590829081016102f7565b9050610ad4565b506001600160a01b0360046020610b316103366000546001600160a01b031690565b60405192838092630fffbaf360e01b82525afa908115610b7b575b600091610b5d575b50163314610acd565b610b75915060203d81116103955761038781836103fd565b38610b54565b610b83611385565b610b4c565b503461000e57604060031936011261000e576020610504602435610bab8161050e565b610bc1600160ff60085460081c161515146112ff565b600435612706565b503461000e57600060031936011261000e5760206001600160a01b0360005416604051908152f35b6020908160408183019282815285518094520193019160005b828110610c18575050505090565b835185529381019392810192600101610c0a565b503461000e5760208060031936011261000e5760043560005260078152604060002090604051908181845491828152019360005281600020916000905b828210610c8c576102d485610c80818903826103fd565b60405191829182610bf1565b835486529485019460019384019390910190610c69565b503461000e5760208060031936011261000e5760043560005260048152604060002090604051908181845491828152019360005281600020916000905b828210610cf7576102d485610c80818903826103fd565b835486529485019460019384019390910190610ce0565b503461000e57602060031936011261000e5760043567ffffffffffffffff80821161000e573660238301121561000e57816004013590811161000e57366024828401011161000e576024610d9292610d72600160ff60085460081c161515146112ff565b3033148015610dbe575b8015610d94575b610d8c90611392565b0161144e565b005b50604080513360208201908152610d8c92610db7929061030590829081016102f7565b9050610d83565b506001600160a01b0360046020610de06103366000546001600160a01b031690565b60405192838092630fffbaf360e01b82525afa908115610e2a575b600091610e0c575b50163314610d7c565b610e24915060203d81116103955761038781836103fd565b38610e03565b610e32611385565b610dfb565b503461000e5760c060031936011261000e57604435610e558161059c565b67ffffffffffffffff60643581811161000e57610e769036906004016104a2565b9160843582811161000e57610e8f9036906004016104a2565b60a43592831161000e573660238401121561000e576102d493610ebf610ecb94369060248160040135910161046b565b92602435600435612ea5565b6040519081529081906020820190565b50606060031936011261000e57600435610ef48161059c565b6024359060443567ffffffffffffffff811161000e576102d4926001600160a01b0392610f286110029336906004016104a2565b90610f3f600160ff60085460081c161515146112ff565b7f8afcfabcb00e47a53a8fc3e9f23ff47ee1926194bb1350dd007c50b412a6cee86002549582610fa68894610f7e866000526005602052604060002090565b906001600160a01b031673ffffffffffffffffffffffffffffffffffffffff19825416179055565b856001610fbd866000526005602052604060002090565b0155610fdf856002610fd9876000526005602052604060002090565b01611886565b610ff2610fed600254611979565b600255565b1694859360405191829182611995565b0390a4604080513360208083019182528252601f199392611028929061030590826103fd565b1561104957505061103881612158565b506040519081529081906020820190565b3014159081611068575b5015610ecb5761106281612158565b50610ecb565b60408051336020820190815261109a94509290916110929190839081015b039081018352826103fd565b519020613d74565b38611053565b503461000e57608060031936011261000e576004356110be8161059c565b67ffffffffffffffff60443581811161000e576110df9036906004016104a2565b9160643591821161000e576020926110fe6105049336906004016104a2565b91602435906116cc565b503461000e57604060031936011261000e5760043567ffffffffffffffff811161000e5761114861113f60209236906004016104a2565b60243590613ea0565b6001600160a01b0360405191168152f35b9491936001600160a01b0361119d946104bd989661118f948952602089015216604087015260c0606087015260c08601906109e6565b9084820360808601526109e6565b9160a08184039101526109e6565b503461000e57602060031936011261000e5760048035600090815260066020526040908190208054600182015460028301548451919592946102d49490936005820193926001600160a01b03169161122b9161122591908101906112209086906112199082906003016123a2565b03866103fd565b613c17565b93613c17565b935196879687611159565b503461000e57604060031936011261000e576020610504602435600435613e0a565b60206112719181604051938285809451938492016109c3565b8101603a81520301902090565b503461000e57602060ff6112a882611295366104c0565b81604051938285809451938492016109c3565b8101603a81520301902054166040519015158152f35b503461000e57602060031936011261000e5760043560005260036020526102d46112eb60406000206119a6565b6040519182916020835260208301906101d4565b1561130657565b608460405162461bcd60e51b815260206004820152603360248201527f496e746572616374696e67207769746820746865206c69627261727920636f6e60448201527f747261637420697320666f7262696464656e2e000000000000000000000000006064820152fd5b9081602091031261000e57516104bd8161059c565b506040513d6000823e3d90fd5b1561139957565b608460405162461bcd60e51b815260206004820152603060248201527f5065726d697373696f6e733a2053656e64657220646f6573206e6f742068617660448201527f65206d616e6167656d656e74206b6579000000000000000000000000000000006064820152fd5b1561140a57565b606460405162461bcd60e51b815260206004820152601f60248201527f436f6e666c6963743a20436c61696d20616c7265616479207265766f6b6564006044820152fd5b61147060ff60405184848237602081868101603a815203019020541615611403565b60405182828237602081848101603a815203019020600160ff198254161790558160405192839283378101600081520390207f7f484e37f24c0a92f81dd74afa3027b3ea31f2e9fb6b9fa29fe9865f81ac5569600080a2565b909291926114d681610440565b916114e460405193846103fd565b82948284528282011161000e5760206114fe9301906109c3565b565b9080601f8301121561000e5781516104bd926020016114c9565b611532906020604051928284809451938492016109c3565b810103902090565b6001600160a01b0391604051917fc9100bcb0000000000000000000000000000000000000000000000000000000083526004830152816024816000958694165afa9081156116bf575b82916115f4575b506115ec816115ce6115c96106016115c27f7f484e37f24c0a92f81dd74afa3027b3ea31f2e9fb6b9fa29fe9865f81ac556996611258565b5460ff1690565b611403565b6115e76115da82611258565b600160ff19825416179055565b61151a565b9180a2600190565b90503d8083833e61160581836103fd565b810160c0828203126116bb5761161e604083015161059c565b606082015167ffffffffffffffff908181116116b35782611640918501611500565b9260808101518281116116b75783611659918301611500565b5060a08101519182116116b3570181601f820112156116af57916116a76115ec928460207f7f484e37f24c0a92f81dd74afa3027b3ea31f2e9fb6b9fa29fe9865f81ac5569965191016114c9565b50915061158a565b8380fd5b8480fd5b8580fd5b8280fd5b6116c7611385565b611583565b61176f906117939394926117046040519485926001600160a01b036020850195168552604084015260608084015260808301906109e6565b0392611718601f19948581018352826103fd565b5190206040516117668161175a602082019485603c917f19457468657265756d205369676e6564204d6573736167653a0a3332000000008252601c8201520190565b038581018352826103fd565b51902084613ea0565b604080516001600160a01b03909216602083019081529261083a9183908101611086565b90816117a9575b506117a457600090565b600190565b6117b391506117ba565b153861179a565b6117c560ff91611258565b54166117a457600090565b90600182811c92168015611800575b60208310146117ea57565b634e487b7160e01b600052602260045260246000fd5b91607f16916117df565b916118269183549060031b600019811b9283911b169119161790565b9055565b818110611835575050565b6000815560010161182a565b9190601f811161185057505050565b6114fe926000526020600020906020601f840160051c8301931061187c575b601f0160051c019061182a565b909150819061186f565b919091825167ffffffffffffffff8111611955575b6118af816118a984546117d0565b84611841565b602080601f83116001146118ea5750819293946000926118df575b50506000198260011b9260031b1c1916179055565b0151905038806118ca565b90601f1983169561190085600052602060002090565b926000905b88821061193d57505083600195969710611924575b505050811b019055565b015160001960f88460031b161c1916905538808061191a565b80600185968294968601518155019501930190611905565b61195d6103a9565b61189b565b50634e487b7160e01b600052601160045260246000fd5b6001906000198114611989570190565b611991611962565b0190565b9060206104bd9281815201906109e6565b9060405191828154918282526020928383019160005283600020936000905b8282106119db575050506114fe925003836103fd565b8554845260019586019588955093810193909101906119c5565b80546001825580600110611a07575050565b6114fe9160005260016020600020918201910161182a565b90611a29826119f5565b906000526020908160002060005b60018110611a455750505050565b82518282015591830191600101611a37565b50634e487b7160e01b600052603260045260246000fd5b6020918151811015611a83575b60051b010190565b611a8b611a57565b611a7b565b8054821015611aa9575b60005260206000200190600090565b611ab1611a57565b611a9a565b611add6118269180549068010000000000000000821015611af6575b600182018155611a90565b819391549060031b600019811b9283911b169119161790565b611afe6103a9565b611ad2565b9081602091031261000e57516104bd8161050e565b60209067ffffffffffffffff8111611b32575b60051b0190565b611b3a6103a9565b611b2b565b602090818184031261000e5780519067ffffffffffffffff821161000e57019180601f8401121561000e578251611b7581611b18565b93611b8360405195866103fd565b818552838086019260051b82010192831161000e578301905b828210611baa575050505090565b8380918351611bb88161059c565b815201910190611b9c565b90602090818382031261000e57825167ffffffffffffffff9384821161000e57019281601f8501121561000e578351611bfb81611b18565b94611c0960405196876103fd565b818652848087019260051b82010193841161000e578401905b838210611c3157505050505090565b8151838116810361000e578152908401908401611c22565b929091836002611c63826000526003602052604060002090565b0154036120f657611c86611c81856000526003602052604060002090565b6119a6565b9160005b8351811015611d1d5784611c9e8286611a6e565b5114611cb257611cad90611979565b611c8a565b60405162461bcd60e51b815260206004820152602160248201527f436f6e666c6963743a204b657920616c72656164792068617320707572706f7360448201527f65000000000000000000000000000000000000000000000000000000000000006064820152608490fd5b5092915092611d3a8261074e836000526003602052604060002090565b611d528161074e846000526004602052604060002090565b60409081518584837f480000bb1edad8ca1470381cc334b1917fbd51c6531f3a623ea8e0ec7e38a6e9600080a4611dc3740100000000000000000000000000000000000000007fffffffffffffffffffffff00ffffffffffffffffffffffffffffffffffffffff6001541617600155565b611dd86103366000546001600160a01b031690565b60015460a01c60ff16813b1561000e577fa262d8d2000000000000000000000000000000000000000000000000000000008352151560048301526024820183905260448201859052606482018790526000908290608490829084905af180156120e9575b6120d6575b50611e576103366000546001600160a01b031690565b948251631645536f60e11b815260209081816004818b5afa9081156120c9575b60009161209c575b5015612091576001600160a01b03908451630fffbaf360e01b815281816004818c5afa918215612084575b600092612067575b5050169083519663e061646b60e01b8852600088600481845afa97881561205a575b600098612030575b506000600491865192838092637b6b91c760e01b82525afa908115612023575b600091612000575b5060005b8851811015611ff357611f2c611f1e8284611a6e565b5167ffffffffffffffff1690565b90611f47611f3a828c611a6e565b516001600160a01b031690565b853b1561000e5787517f9dd323a000000000000000000000000000000000000000000000000000000000815267ffffffffffffffff9390931660048401526001600160a01b03166024830152604482018690526064820188905260848201849052611fc89160008160a481838a5af18015611fe6575b611fcd575b50611979565b611f08565b80611fda611fe0926103c0565b806109b8565b38611fc2565b611fee611385565b611fbd565b5060019750505050505050565b61201d91503d806000833e61201581836103fd565b810190611bc3565b38611f04565b61202b611385565b611efc565b60049198506120526000913d8084833e61204a81836103fd565b810190611b3f565b989150611edc565b612062611385565b611ed4565b61207d9250803d106103955761038781836103fd565b3880611eb2565b61208c611385565b611eaa565b506001955050505050565b6120bc9150823d84116120c2575b6120b481836103fd565b810190611b03565b38611e7f565b503d6120aa565b6120d1611385565b611e77565b80611fda6120e3926103c0565b38611e41565b6120f1611385565b611e3c565b92806002612111829594956000526003602052604060002090565b015561213a61211e610420565b838152612135836000526003602052604060002090565b611a1f565b836001612151836000526003602052604060002090565b0155611d3a565b6104bd90612172600160ff60085460081c161515146112ff565b612449565b1561217e57565b608460405162461bcd60e51b815260206004820152602760248201527f43616e6e6f7420617070726f76652061206e6f6e2d6578697374696e6720657860448201527f65637574696f6e000000000000000000000000000000000000000000000000006064820152fd5b156121ef57565b606460405162461bcd60e51b815260206004820152601860248201527f5265717565737420616c726561647920657865637574656400000000000000006044820152fd5b1561223a57565b606460405162461bcd60e51b815260206004820152601f60248201527f53656e64657220646f6573206e6f74206861766520616374696f6e206b6579006044820152fd5b1561228557565b608460405162461bcd60e51b815260206004820152602360248201527f53656e64657220646f6573206e6f742068617665206d616e6167656d656e742060448201527f6b657900000000000000000000000000000000000000000000000000000000006064820152fd5b6000929181546122fe816117d0565b92600191808316908115612357575060011461231b575b50505050565b90919293945060005260209081600020906000915b8583106123465750505050019038808080612315565b805485840152918301918101612330565b60ff1916845250505081151590910201915038808080612315565b3d1561239d573d9061238382610440565b9161239160405193846103fd565b82523d6000602084013e565b606090565b90600092918054916123b3836117d0565b91828252600193848116908160001461241457506001146123d45750505050565b90919394506000526020928360002092846000945b838610612400575050505001019038808080612315565b8054858701830152940193859082016123e9565b915050602094955060ff199193501683830152151560051b01019038808080612315565b9060206104bd9281815201906123a2565b6124566002548210612177565b6124856124806106016003612475856000526005602052604060002090565b015460081c60ff1690565b6121e8565b6124a961249c826000526005602052604060002090565b546001600160a01b031690565b6001600160a01b039190821630036126da576040805133602082019081526124e2926124dd929061030590829081016102f7565b61227e565b807fb3932da477fe5d6c8ff2eafef050c0f3a1af18fc07121001482600f36f3715d86040518061251781906001602083019252565b0390a26125416003612533836000526005602052604060002090565b01600160ff19825416179055565b60008061255b61249c846000526005602052604060002090565b6125996001612574866000526005602052604060002090565b0154600261258c876000526005602052604060002090565b01604051928380926122ef565b03925af16125a5612372565b5015612657576125d460036125c4836000526005602052604060002090565b0161010061ff0019825416179055565b6125eb61249c826000526005602052604060002090565b907f1f920dbda597d7bf95035464170fa58d0a4b57f13a1c315ace6793b9f63688b86001612623836000526005602052604060002090565b015493600261263c846000526005602052604060002090565b019361264f604051928392169582612438565b0390a4600190565b61266e61249c826000526005602052604060002090565b907fe10c49d9f7c71da23262367013434763cfdb2332267641728d25cd712c5c6a6860016126a6836000526005602052604060002090565b01549360026126bf846000526005602052604060002090565b01936126d2604051928392169582612438565b0390a4600090565b604080513360208201908152612701926126fc929061109290829081016102f7565b612233565b6124e2565b6127136002548210612177565b6127326124806106016003612475856000526005602052604060002090565b600161274b61249c836000526005602052604060002090565b6001600160a01b039390841630036127fa5760408051336020820190815261277f926124dd929061030590829081016102f7565b604051811515815283907fb3932da477fe5d6c8ff2eafef050c0f3a1af18fc07121001482600f36f3715d890602090a21515036127cf576125416003612533836000526005602052604060002090565b6127f591506127ea6003916000526005602052604060002090565b0160ff198154169055565b600090565b60408051336020820190815261281c926126fc929061109290829081016102f7565b61277f565b1561282857565b608460405162461bcd60e51b815260206004820152602160248201527f4e6f6e4578697374696e673a204b65792069736e27742072656769737465726560448201527f64000000000000000000000000000000000000000000000000000000000000006064820152fd5b9060001982019182116128a157565b6114fe611962565b81519167ffffffffffffffff8311612937575b68010000000000000000831161292a575b815483835580841061290c575b50602080910191600052806000209060005b8481106128fa575050505050565b835183820155928101926001016128ec565b6129249083600052846020600020918201910161182a565b386128da565b6129326103a9565b6128cd565b61293f6103a9565b6128bc565b805490811561296e576000198092019161295e8383611a90565b909182549160031b1b1916905555565b634e487b7160e01b600052603160045260246000fd5b600260009180548382558061299f575b508260018201550155565b818452602084206129b29181019061182a565b38612994565b916129db8360026129d3826000526003602052604060002090565b015414612821565b6129f2611c81846000526003602052604060002090565b9260005b83612a018287611a6e565b5114612a8a57612a1090611979565b9283855114612a1f57926129f6565b60405162461bcd60e51b815260206004820152602a60248201527f4e6f6e4578697374696e673a204b657920646f65736e2774206861766520737560448201527f636820707572706f7365000000000000000000000000000000000000000000006064820152608490fd5b9390929193612aad612aa5612a9f8451612892565b84611a6e565b519183611a6e565b52612acb81612ac6856000526003602052604060002090565b6128a9565b612ae7612ae2846000526003602052604060002090565b612944565b600082815260046020526040812054905b84612b23612b1983612b14886000526004602052604060002090565b611a90565b90549060031b1c90565b14612e9357612b3190611979565b818110612af857612b7e612b69612b19612b84945b612b63612b5d896000526004602052604060002090565b91612892565b90611a90565b91612b14866000526004602052604060002090565b9061180a565b612b9b612ae2836000526004602052604060002090565b6001928391612bc183612bb8846000526003602052604060002090565b01549151612892565b15612e72575b60409081519085847f585a4aef50f8267a92b32412b331b20f7f8b96f2245b253b9cc50dcc621d3397600080a4612c096103366000546001600160a01b031690565b94631645536f60e11b82526020600492818185818b5afa908115612e65575b600091612e48575b50612c40575b5050505050505090565b6001600160a01b03908451630fffbaf360e01b8152818186818c5afa918215612e3b575b600092612e1e575b5050169083519663e061646b60e01b88526000888581845afa978815612e11575b600098612df1575b5060008491865192838092637b6b91c760e01b82525afa908115612de4575b600091612dcb575b506000875b612ccd575b5050612c36565b8851811015612dc65783612ce7610336611f3a848d611a6e565b03612cfc575b612cf690611979565b87612cc1565b9650612d0b611f1e8883611a6e565b612d18611f3a898b611a6e565b97843b1561000e5786517ff82f1a4300000000000000000000000000000000000000000000000000000000815267ffffffffffffffff9092168287019081526001600160a01b0390991660208a01523060408a015260608901889052608089018490528a98612cf692906000908290819060a0010381838a5af18015612db9575b612da6575b509050612ced565b80611fda612db3926103c0565b38612d9e565b612dc1611385565b612d99565b612cc6565b612dde913d8091833e61201581836103fd565b38612cbc565b612dec611385565b612cb4565b612e0960009186939a3d8091833e61204a81836103fd565b989150612c95565b612e19611385565b612c8d565b612e349250803d106103955761038781836103fd565b3880612c6c565b612e43611385565b612c64565b612e5f9150823d84116120c2576120b481836103fd565b38612c30565b612e6d611385565b612c28565b612e8e612e89836000526003602052604060002090565b612984565b612bc7565b612b7e612b69612b19612b8494612b46565b906104bd9594939291612ec4600160ff60085460081c161515146112ff565b3033148015612f0d575b8015612ee3575b612ede90612f86565b61316e565b50604080513360208201908152612ede92612f06929061083a90829081016102f7565b9050612ed5565b506001600160a01b0360046020612f2f6103366000546001600160a01b031690565b60405192838092630fffbaf360e01b82525afa908115612f79575b600091612f5b575b50163314612ece565b612f73915060203d81116103955761038781836103fd565b38612f52565b612f81611385565b612f4a565b15612f8d57565b608460405162461bcd60e51b815260206004820152603260248201527f5065726d697373696f6e733a2053656e64657220646f6573206e6f742068617660448201527f6520636c61696d207369676e6572206b657900000000000000000000000000006064820152fd5b926104bd94926001600160a01b036130229316855260208501526080604085015260808401906109e6565b9160608184039101526109e6565b1561303757565b606460405162461bcd60e51b815260206004820152600d60248201527f696e76616c696420636c61696d000000000000000000000000000000000000006044820152fd5b9261309b6104bd95936130229386526080602087015260808601906109e6565b9084820360408601526109e6565b95926130f5946001600160a01b03916130e7946104bd9a989415158a5260208a0152604089015216606087015260e0608087015260e08601906109e6565b9084820360a08601526109e6565b9160c08184039101526109e6565b969394613160956131529467ffffffffffffffff6104bd9b999594168a526001600160a01b0380941660208b015260408a015260608901521660808701526101008060a08801528601906109e6565b9084820360c08601526109e6565b9160e08184039101526109e6565b91946001600160a01b039182871694308603613636575b604080516001600160a01b038a166020808301918252828401899052838352929592938a929091906131b86060826103fd565b5190209a886131d18d6000526006602052604060002090565b55600199828d888d6131ed836000526006602052604060002090565b0155613203906000526006602052604060002090565b6003019061321091611886565b848d60049d8e61322a836000526006602052604060002090565b019061323591611886565b613249906000526006602052604060002090565b6005019061325691611886565b898d86858a888d87613272876000526006602052604060002090565b600201546001600160a01b0316146135fd5793613310917f46149b18aa084502c3f12bc75e19eda8bda8d102b82cce8474677a6d0d5f43c5956132c38861074e8b6000526007602052604060002090565b6133068b60026132dd8b6000526006602052604060002090565b01906001600160a01b031673ffffffffffffffffffffffffffffffffffffffff19825416179055565b519485948561307b565b0390a45b613358740100000000000000000000000000000000000000007fffffffffffffffffffffff00ffffffffffffffffffffffffffffffffffffffff6001541617600155565b60009761336f6103368a546001600160a01b031690565b8b5460a01c60ff16813b156135f9578b89928f928d80946133c28f8c8c8f928d90519b8c9a8b998a987f532f9465000000000000000000000000000000000000000000000000000000008a5289016130a9565b03925af180156135ec575b6135d9575b506133e76103368a546001600160a01b031690565b958c818a518092631645536f60e11b8252818b5afa9081156135cc575b8b916135af575b50613421575b5050505050505050505050505090565b8851630fffbaf360e01b815281818f818b5afa9182156135a2575b8b92613585575b505016958b8989519763e061646b60e01b895281898481845afa988915613578575b829961355c575b508a5192838092637b6b91c760e01b82525afa90811561354f575b8a91613535575b50898c5b61349d575b50613411565b8751811015613530576134b3611f1e8284611a6e565b6134c0611f3a838b611a6e565b908a3b1561352c578f61352693928f928f92908f8f926135128f8f8f8f8f8b97519c8d9b8c9a8b997fe1d50193000000000000000000000000000000000000000000000000000000008b528a01613103565b03925af18015611fe657611fcd5750611979565b8c613492565b8c80fd5b613497565b61354991503d808c833e61201581836103fd565b3861348e565b613557611385565b613487565b6135719199503d8084833e61204a81836103fd565b973861346c565b613580611385565b613465565b61359b9250803d106103955761038781836103fd565b3880613443565b6135aa611385565b61343c565b6135c69150823d84116120c2576120b481836103fd565b3861340b565b6135d4611385565b613404565b80611fda6135e6926103c0565b386133d2565b6135f4611385565b6133cd565b8a80fd5b9361362e917f3bab293fc00db832d7619a9299914251b8747c036867ec056cbd506f60135b1395519485948561307b565b0390a4613314565b61368e6040517fc0969a6e000000000000000000000000000000000000000000000000000000008152602081806136738c878c3060048601612ff7565b03818b5afa9081156136b1575b600091613693575b50613030565b613185565b6136ab915060203d81116120c2576120b481836103fd565b38613688565b6136b9611385565b613680565b926136de6104bd95936136ec9386526080602087015260808601906123a2565b9084820360408601526123a2565b9160608184039101526123a2565b61370481546117d0565b908161370e575050565b81601f60009311600114613720575055565b8183526020832061373c91601f0160051c81019060010161182a565b8160208120915555565b6005600091828155826001820155826002820155613766600382016136fa565b613772600482016136fa565b0161377d81546117d0565b8061378757505050565b601f8111600114613720575055565b6137aa816000526006602052604060002090565b548015613bac57600081815260076020526040812054905b836137de612b1983612b14876000526007602052604060002090565b14613b9a576137ec90611979565b8181106137c257612b7e613818612b1961382d945b612b63612b5d886000526007602052604060002090565b91612b14856000526007602052604060002090565b613844612ae2826000526007602052604060002090565b6001828161385d81956000526006602052604060002090565b0154926138876002613879846000526006602052604060002090565b01546001600160a01b031690565b90600361389e846000526006602052604060002090565b0194600491847f3cf57863a89432c61c4a27073c6ee39e8a764bff5a05aebfbcdcdc80b2e6130a846138da836000526006602052604060002090565b0160056138f1846000526006602052604060002090565b019961391060409b8c519384936001600160a01b03809c1699856136be565b0390a461392f61392a846000526006602052604060002090565b613746565b6139446103366000546001600160a01b031690565b918551631645536f60e11b815260209081818581885afa908115613b8d575b600091613b70575b5061397a575050505050505090565b8651630fffbaf360e01b815281818581885afa918215613b63575b600092613b46575b50501685519263e061646b60e01b84526000848481845afa938415613b39575b600094613b19575b5060008391885192838092637b6b91c760e01b82525afa908115613b0c575b600091613af3575b506000865b6139fc575b50612c36565b8451811015613aee5782613a16610336611f3a8489611a6e565b03613a2b575b613a2590611979565b866139f1565b9550613a3a611f1e8783611a6e565b95613a48611f3a8287611a6e565b90833b1561000e5788517f9f9b264100000000000000000000000000000000000000000000000000000000815267ffffffffffffffff9098168589019081526001600160a01b039092166020830152306040830152606082018790528997613a259260009082908190608001038183895af18015613ae1575b613ace575b509050613a1c565b80611fda613adb926103c0565b38613ac6565b613ae9611385565b613ac1565b6139f6565b613b06913d8091833e61201581836103fd565b386139ec565b613b14611385565b6139e4565b613b316000918593963d8091833e61204a81836103fd565b9491506139c5565b613b41611385565b6139bd565b613b5c9250803d106103955761038781836103fd565b388061399d565b613b6b611385565b613995565b613b879150823d84116120c2576120b481836103fd565b3861396b565b613b95611385565b613963565b612b7e613818612b1961382d94613801565b60405162461bcd60e51b815260206004820152602b60248201527f4e6f6e4578697374696e673a205468657265206973206e6f20636c61696d207760448201527f69746820746869732049440000000000000000000000000000000000000000006064820152608490fd5b906114fe613c2b92604051938480926123a2565b03836103fd565b60005260036020526040600020604051613c4b816103e1565b613c54826119a6565b81526002600192838101546020840152015480604083015215613cc857600090825b613c83575b505050600090565b8051918251811015613cc25783613c9b828295611a6e565b51148015613cbd575b613cb757613cb190611979565b91613c76565b50505090565b613ca4565b50613c7b565b5050600090565b60005260038060205260406000209060405190613ceb826103e1565b613cf4836119a6565b82526002600193848101546020850152015480604084015215613c7b57600091835b613d24575b50505050600090565b8051928351811015613d6e57613d3b818695611a6e565b5183858214918215613d64575b5050613d5d57613d5790611979565b92613d16565b5050505090565b1490508338613d48565b50613d1b565b60005260036020526040600020604051613d8d816103e1565b613d96826119a6565b815260019182810154602083015260028091015480604084015215613c7b57600091835b613dc75750505050600090565b8051928351811015613d6e57613dde818695611a6e565b5183858214918215613e00575b5050613d5d57613dfa90611979565b92613dba565b1490508338613deb565b600052600360205260406000209060405190613e25826103e1565b613e2e836119a6565b82526002600193848101546020850152015480604084015215613c7b57600091835b613e5d5750505050600090565b8051928351811015613d6e57613e74818695611a6e565b5183858214918215613e96575b5050613d5d57613e9090611979565b92613e50565b1490508338613e81565b906000916041815103613f1f576000918160209460ff8660809501519160606040850151940151901a601b8110613f07575b60405194855216868401526040830152606082015282805260015afa15613efa575b60005190565b613f02611385565b613ef4565b601b0181811115613ed257613f1a611962565b613ed2565b505090565b15613f2b57565b606460405162461bcd60e51b815260206004820152601e60248201527f496e697469616c206b65792077617320616c72656164792073657475702e00006044820152fd5b90613f79826119f5565b906000526020908160002060005b60018110613f955750505050565b825160ff168282015591830191600101613f8756fea26469706673582212202cb09f24a44d7fa420298dc77ff35ab4034a3515700340c30a587605b8dc777d64736f6c63430008110033",
  "devdoc": {
    "kind": "dev",
    "methods": {
      "addClaim(uint256,uint256,address,bytes,bytes,string)": {
        "details": "See {IERC735-addClaim}.",
        "params": {
          "_data": "The hash of the claim data, sitting in another location, a bit-mask, call data, or actual data based on the claim scheme.",
          "_issuer": "The issuers identity contract address, or the address used to sign the above signature.",
          "_scheme": "The scheme with which this claim SHOULD be verified or how it should be processed.",
          "_signature": "Signature which is the proof that the claim issuer issued a claim of topic for this identity. it MUST be a signed message of the following structure: keccak256(abi.encode(address identityHolder_address, uint256 _ topic, bytes data))",
          "_topic": "The type of claim",
          "_uri": "The location of the claim, this can be HTTP links, swarm hashes, IPFS hashes, and such."
        },
        "returns": {
          "claimRequestId": "Returns claimRequestId: COULD be send to the approve function, to approve or reject this claim. triggers ClaimAdded event."
        }
      },
      "addKey(bytes32,uint256,uint256)": {
        "params": {
          "_key": "keccak256 representation of an ethereum address",
          "_purpose": "a uint256 specifying the key type, like 1 = MANAGEMENT, 2 = ACTION, 3 = CLAIM, 4 = ENCRYPTION",
          "_type": "type of key used, which would be a uint256 for different key types. e.g. 1 = ECDSA, 2 = RSA, etc."
        },
        "returns": {
          "success": "Returns TRUE if the addition was successful and FALSE if not"
        }
      },
      "approve(uint256,bool)": {
        "details": "See {IERC734-approve}."
      },
      "execute(address,uint256,bytes)": {
        "details": "See {IERC734-execute}.",
        "returns": {
          "executionId": "to use in the approve function, to approve or reject this execution."
        }
      },
      "getClaim(bytes32)": {
        "details": "See {IERC735-getClaim}.",
        "params": {
          "_claimId": "The identity of the claim i.e. keccak256(abi.encode(_issuer, _topic))"
        },
        "returns": {
          "data": "Returns all the parameters of the claim for the specified _claimId (topic, scheme, signature, issuer, data, uri) .",
          "issuer": "Returns all the parameters of the claim for the specified _claimId (topic, scheme, signature, issuer, data, uri) .",
          "scheme": "Returns all the parameters of the claim for the specified _claimId (topic, scheme, signature, issuer, data, uri) .",
          "signature": "Returns all the parameters of the claim for the specified _claimId (topic, scheme, signature, issuer, data, uri) .",
          "topic": "Returns all the parameters of the claim for the specified _claimId (topic, scheme, signature, issuer, data, uri) .",
          "uri": "Returns all the parameters of the claim for the specified _claimId (topic, scheme, signature, issuer, data, uri) ."
        }
      },
      "getClaimIdsByTopic(uint256)": {
        "details": "See {IERC735-getClaimIdsByTopic}.",
        "params": {
          "_topic": "The identity of the claim i.e. keccak256(abi.encode(_issuer, _topic))"
        },
        "returns": {
          "claimIds": "Returns an array of claim IDs by topic."
        }
      },
      "getKey(bytes32)": {
        "details": "See {IERC734-getKey}.",
        "params": {
          "_key": "The public key.  for non-hex and long keys, its the Keccak256 hash of the key"
        },
        "returns": {
          "key": "Returns the full key data, if present in the identity.",
          "keyType": "Returns the full key data, if present in the identity.",
          "purposes": "Returns the full key data, if present in the identity."
        }
      },
      "getKeyPurposes(bytes32)": {
        "details": "See {IERC734-getKeyPurposes}.",
        "params": {
          "_key": "The public key.  for non-hex and long keys, its the Keccak256 hash of the key"
        },
        "returns": {
          "_purposes": "Returns the purposes of the specified key"
        }
      },
      "getKeysByPurpose(uint256)": {
        "details": "See {IERC734-getKeysByPurpose}.",
        "params": {
          "_purpose": "a uint256[] Array of the key types, like 1 = MANAGEMENT, 2 = ACTION, 3 = CLAIM, 4 = ENCRYPTION"
        },
        "returns": {
          "keys": "Returns an array of public key bytes32 hold by this identity and having the specified purpose"
        }
      },
      "getRecoveredAddress(bytes,bytes32)": {
        "details": "returns the address that signed the given data",
        "params": {
          "dataHash": "the data that was signed returns the address that signed dataHash and created the signature sig",
          "sig": "the signature of the data"
        }
      },
      "initialize(address,address)": {
        "params": {
          "initialManagementKey": "The ethereum address to be set as the management key of the ONCHAINID."
        }
      },
      "isClaimRevoked(bytes)": {
        "details": "See {IClaimIssuer-isClaimRevoked}."
      },
      "isClaimValid(address,uint256,bytes,bytes)": {
        "details": "See {IClaimIssuer-isClaimValid}."
      },
      "isComingFromIdentity(bool)": {
        "details": "Returns True if call is coming from Identity Contract"
      },
      "keyHasPurpose(bytes32,uint256)": {
        "details": "See {IERC734-keyHasPurpose}."
      },
      "removeClaim(bytes32)": {
        "details": "See {IERC735-removeClaim}.",
        "params": {
          "_claimId": "The identity of the claim i.e. keccak256(abi.encode(_issuer, _topic))"
        },
        "returns": {
          "success": "Returns TRUE when the claim was removed. triggers ClaimRemoved event"
        }
      },
      "removeKey(bytes32,uint256)": {
        "details": "See {IERC734-removeKey}."
      },
      "revokeClaim(bytes32,address)": {
        "details": "See {IClaimIssuer-revokeClaim}."
      },
      "revokeClaimBySignature(bytes)": {
        "details": "See {IClaimIssuer-revokeClaimBySignature}."
      },
      "version()": {
        "details": "Returns the string of the current version."
      }
    },
    "version": 1
  },
  "userdoc": {
    "kind": "user",
    "methods": {
      "addClaim(uint256,uint256,address,bytes,bytes,string)": {
        "notice": "Implementation of the addClaim function from the ERC-735 standard  Require that the msg.sender has claim signer key."
      },
      "addKey(bytes32,uint256,uint256)": {
        "notice": "implementation of the addKey function of the ERC-734 standard Adds a _key to the identity. The _purpose specifies the purpose of key. Initially we propose four purposes: 1: MANAGEMENT keys, which can manage the identity 2: ACTION keys, which perform actions in this identities name (signing, logins, transactions, etc.) 3: CLAIM signer keys, used to sign claims on other identities which need to be revokable. 4: ENCRYPTION keys, used to encrypt data e.g. hold in claims. MUST only be done by keys of purpose 1, or the identity itself. If its the identity itself, the approval process will determine its approval."
      },
      "approve(uint256,bool)": {
        "notice": "Approves an execution.  If the sender is an ACTION key and the destination address is not the identity contract itself, then the  approval is authorized and the operation would be performed.  If the destination address is the identity itself, then the execution would be authorized and performed only  if the sender is a MANAGEMENT key."
      },
      "execute(address,uint256,bytes)": {
        "notice": "Passes an execution instruction to the keymanager. If the sender is an ACTION key and the destination address is not the identity contract itself, then the execution is immediately approved and performed. If the destination address is the identity itself, then the execution would be performed immediately only if the sender is a MANAGEMENT key. Otherwise the execution request must be approved via the `approve` method."
      },
      "getClaim(bytes32)": {
        "notice": "Implementation of the getClaim function from the ERC-735 standard."
      },
      "getClaimIdsByTopic(uint256)": {
        "notice": "Implementation of the getClaimIdsByTopic function from the ERC-735 standard. used to get all the claims from the specified topic"
      },
      "getKey(bytes32)": {
        "notice": "Implementation of the getKey function from the ERC-734 standard"
      },
      "getKeyPurposes(bytes32)": {
        "notice": "gets the purposes of a key"
      },
      "getKeysByPurpose(uint256)": {
        "notice": "gets all the keys with a specific purpose from an identity"
      },
      "initialize(address,address)": {
        "notice": "When using this contract as an implementation for a proxy, call this initializer with a delegatecall."
      },
      "keyHasPurpose(bytes32,uint256)": {
        "notice": "Returns true if the key has MANAGEMENT purpose or the specified purpose."
      },
      "removeClaim(bytes32)": {
        "notice": "Implementation of the removeClaim function from the ERC-735 standard Require that the msg.sender has management key. Can only be removed by the claim issuer, or the claim holder itself."
      },
      "removeKey(bytes32,uint256)": {
        "notice": "Remove the purpose from a key."
      }
    },
    "version": 1
  },
  "storageLayout": {
    "storage": [
      {
        "astId": 16312,
        "contract": "src/ClaimIssuer.sol:ClaimIssuer",
        "label": "idFactory",
        "offset": 0,
        "slot": "0",
        "type": "t_contract(IdFactory)15082"
      },
      {
        "astId": 16314,
        "contract": "src/ClaimIssuer.sol:ClaimIssuer",
        "label": "userWallet",
        "offset": 0,
        "slot": "1",
        "type": "t_address"
      },
      {
        "astId": 16316,
        "contract": "src/ClaimIssuer.sol:ClaimIssuer",
        "label": "isComing",
        "offset": 20,
        "slot": "1",
        "type": "t_bool"
      },
      {
        "astId": 16318,
        "contract": "src/ClaimIssuer.sol:ClaimIssuer",
        "label": "_executionNonce",
        "offset": 0,
        "slot": "2",
        "type": "t_uint256"
      },
      {
        "astId": 16323,
        "contract": "src/ClaimIssuer.sol:ClaimIssuer",
        "label": "_keys",
        "offset": 0,
        "slot": "3",
        "type": "t_mapping(t_bytes32,t_struct(Key)16365_storage)"
      },
      {
        "astId": 16328,
        "contract": "src/ClaimIssuer.sol:ClaimIssuer",
        "label": "_keysByPurpose",
        "offset": 0,
        "slot": "4",
        "type": "t_mapping(t_uint256,t_array(t_bytes32)dyn_storage)"
      },
      {
        "astId": 16333,
        "contract": "src/ClaimIssuer.sol:ClaimIssuer",
        "label": "_executions",
        "offset": 0,
        "slot": "5",
        "type": "t_mapping(t_uint256,t_struct(Execution)16376_storage)"
      },
      {
        "astId": 16338,
        "contract": "src/ClaimIssuer.sol:ClaimIssuer",
        "label": "_claims",
        "offset": 0,
        "slot": "6",
        "type": "t_mapping(t_bytes32,t_struct(Claim)16389_storage)"
      },
      {
        "astId": 16343,
        "contract": "src/ClaimIssuer.sol:ClaimIssuer",
        "label": "_claimsByTopic",
        "offset": 0,
        "slot": "7",
        "type": "t_mapping(t_uint256,t_array(t_bytes32)dyn_storage)"
      },
      {
        "astId": 16346,
        "contract": "src/ClaimIssuer.sol:ClaimIssuer",
        "label": "_initialized",
        "offset": 0,
        "slot": "8",
        "type": "t_bool"
      },
      {
        "astId": 16349,
        "contract": "src/ClaimIssuer.sol:ClaimIssuer",
        "label": "_canInteract",
        "offset": 1,
        "slot": "8",
        "type": "t_bool"
      },
      {
        "astId": 16354,
        "contract": "src/ClaimIssuer.sol:ClaimIssuer",
        "label": "__gap",
        "offset": 0,
        "slot": "9",
        "type": "t_array(t_uint256)49_storage"
      },
      {
        "astId": 10452,
        "contract": "src/ClaimIssuer.sol:ClaimIssuer",
        "label": "revokedClaims",
        "offset": 0,
        "slot": "58",
        "type": "t_mapping(t_bytes_memory_ptr,t_bool)"
      }
    ],
    "types": {
      "t_address": {
        "encoding": "inplace",
        "label": "address",
        "numberOfBytes": "20"
      },
      "t_array(t_bytes32)dyn_storage": {
        "base": "t_bytes32",
        "encoding": "dynamic_array",
        "label": "bytes32[]",
        "numberOfBytes": "32"
      },
      "t_array(t_uint256)49_storage": {
        "base": "t_uint256",
        "encoding": "inplace",
        "label": "uint256[49]",
        "numberOfBytes": "1568"
      },
      "t_array(t_uint256)dyn_storage": {
        "base": "t_uint256",
        "encoding": "dynamic_array",
        "label": "uint256[]",
        "numberOfBytes": "32"
      },
      "t_bool": {
        "encoding": "inplace",
        "label": "bool",
        "numberOfBytes": "1"
      },
      "t_bytes32": {
        "encoding": "inplace",
        "label": "bytes32",
        "numberOfBytes": "32"
      },
      "t_bytes_memory_ptr": {
        "encoding": "bytes",
        "label": "bytes",
        "numberOfBytes": "32"
      },
      "t_bytes_storage": {
        "encoding": "bytes",
        "label": "bytes",
        "numberOfBytes": "32"
      },
      "t_contract(IdFactory)15082": {
        "encoding": "inplace",
        "label": "contract IdFactory",
        "numberOfBytes": "20"
      },
      "t_mapping(t_bytes32,t_struct(Claim)16389_storage)": {
        "encoding": "mapping",
        "key": "t_bytes32",
        "label": "mapping(bytes32 => struct Structs.Claim)",
        "numberOfBytes": "32",
        "value": "t_struct(Claim)16389_storage"
      },
      "t_mapping(t_bytes32,t_struct(Key)16365_storage)": {
        "encoding": "mapping",
        "key": "t_bytes32",
        "label": "mapping(bytes32 => struct Structs.Key)",
        "numberOfBytes": "32",
        "value": "t_struct(Key)16365_storage"
      },
      "t_mapping(t_bytes_memory_ptr,t_bool)": {
        "encoding": "mapping",
        "key": "t_bytes_memory_ptr",
        "label": "mapping(bytes => bool)",
        "numberOfBytes": "32",
        "value": "t_bool"
      },
      "t_mapping(t_uint256,t_array(t_bytes32)dyn_storage)": {
        "encoding": "mapping",
        "key": "t_uint256",
        "label": "mapping(uint256 => bytes32[])",
        "numberOfBytes": "32",
        "value": "t_array(t_bytes32)dyn_storage"
      },
      "t_mapping(t_uint256,t_struct(Execution)16376_storage)": {
        "encoding": "mapping",
        "key": "t_uint256",
        "label": "mapping(uint256 => struct Structs.Execution)",
        "numberOfBytes": "32",
        "value": "t_struct(Execution)16376_storage"
      },
      "t_string_storage": {
        "encoding": "bytes",
        "label": "string",
        "numberOfBytes": "32"
      },
      "t_struct(Claim)16389_storage": {
        "encoding": "inplace",
        "label": "struct Structs.Claim",
        "members": [
          {
            "astId": 16378,
            "contract": "src/ClaimIssuer.sol:ClaimIssuer",
            "label": "topic",
            "offset": 0,
            "slot": "0",
            "type": "t_uint256"
          },
          {
            "astId": 16380,
            "contract": "src/ClaimIssuer.sol:ClaimIssuer",
            "label": "scheme",
            "offset": 0,
            "slot": "1",
            "type": "t_uint256"
          },
          {
            "astId": 16382,
            "contract": "src/ClaimIssuer.sol:ClaimIssuer",
            "label": "issuer",
            "offset": 0,
            "slot": "2",
            "type": "t_address"
          },
          {
            "astId": 16384,
            "contract": "src/ClaimIssuer.sol:ClaimIssuer",
            "label": "signature",
            "offset": 0,
            "slot": "3",
            "type": "t_bytes_storage"
          },
          {
            "astId": 16386,
            "contract": "src/ClaimIssuer.sol:ClaimIssuer",
            "label": "data",
            "offset": 0,
            "slot": "4",
            "type": "t_bytes_storage"
          },
          {
            "astId": 16388,
            "contract": "src/ClaimIssuer.sol:ClaimIssuer",
            "label": "uri",
            "offset": 0,
            "slot": "5",
            "type": "t_string_storage"
          }
        ],
        "numberOfBytes": "192"
      },
      "t_struct(Execution)16376_storage": {
        "encoding": "inplace",
        "label": "struct Structs.Execution",
        "members": [
          {
            "astId": 16367,
            "contract": "src/ClaimIssuer.sol:ClaimIssuer",
            "label": "to",
            "offset": 0,
            "slot": "0",
            "type": "t_address"
          },
          {
            "astId": 16369,
            "contract": "src/ClaimIssuer.sol:ClaimIssuer",
            "label": "value",
            "offset": 0,
            "slot": "1",
            "type": "t_uint256"
          },
          {
            "astId": 16371,
            "contract": "src/ClaimIssuer.sol:ClaimIssuer",
            "label": "data",
            "offset": 0,
            "slot": "2",
            "type": "t_bytes_storage"
          },
          {
            "astId": 16373,
            "contract": "src/ClaimIssuer.sol:ClaimIssuer",
            "label": "approved",
            "offset": 0,
            "slot": "3",
            "type": "t_bool"
          },
          {
            "astId": 16375,
            "contract": "src/ClaimIssuer.sol:ClaimIssuer",
            "label": "executed",
            "offset": 1,
            "slot": "3",
            "type": "t_bool"
          }
        ],
        "numberOfBytes": "128"
      },
      "t_struct(Key)16365_storage": {
        "encoding": "inplace",
        "label": "struct Structs.Key",
        "members": [
          {
            "astId": 16360,
            "contract": "src/ClaimIssuer.sol:ClaimIssuer",
            "label": "purposes",
            "offset": 0,
            "slot": "0",
            "type": "t_array(t_uint256)dyn_storage"
          },
          {
            "astId": 16362,
            "contract": "src/ClaimIssuer.sol:ClaimIssuer",
            "label": "keyType",
            "offset": 0,
            "slot": "1",
            "type": "t_uint256"
          },
          {
            "astId": 16364,
            "contract": "src/ClaimIssuer.sol:ClaimIssuer",
            "label": "key",
            "offset": 0,
            "slot": "2",
            "type": "t_bytes32"
          }
        ],
        "numberOfBytes": "96"
      },
      "t_uint256": {
        "encoding": "inplace",
        "label": "uint256",
        "numberOfBytes": "32"
      }
    }
  }
}