{
  "address": "0x224e6f44F26cDE9fC24F0c28c5405837429b5dA6",
  "abi": [
    {
      "inputs": [
        {
          "internalType": "address",
          "name": "initialManagementKey",
          "type": "address"
        },
        {
          "internalType": "address",
          "name": "_idFactory",
          "type": "address"
        }
      ],
      "stateMutability": "nonpayable",
      "type": "constructor"
    },
    {
      "anonymous": false,
      "inputs": [
        {
          "indexed": true,
          "internalType": "uint256",
          "name": "executionId",
          "type": "uint256"
        },
        {
          "indexed": false,
          "internalType": "bool",
          "name": "approved",
          "type": "bool"
        }
      ],
      "name": "Approved",
      "type": "event"
    },
    {
      "anonymous": false,
      "inputs": [
        {
          "indexed": true,
          "internalType": "bytes32",
          "name": "claimId",
          "type": "bytes32"
        },
        {
          "indexed": true,
          "internalType": "uint256",
          "name": "topic",
          "type": "uint256"
        },
        {
          "indexed": false,
          "internalType": "uint256",
          "name": "scheme",
          "type": "uint256"
        },
        {
          "indexed": true,
          "internalType": "address",
          "name": "issuer",
          "type": "address"
        },
        {
          "indexed": false,
          "internalType": "bytes",
          "name": "signature",
          "type": "bytes"
        },
        {
          "indexed": false,
          "internalType": "bytes",
          "name": "data",
          "type": "bytes"
        },
        {
          "indexed": false,
          "internalType": "string",
          "name": "uri",
          "type": "string"
        }
      ],
      "name": "ClaimAdded",
      "type": "event"
    },
    {
      "anonymous": false,
      "inputs": [
        {
          "indexed": true,
          "internalType": "bytes32",
          "name": "claimId",
          "type": "bytes32"
        },
        {
          "indexed": true,
          "internalType": "uint256",
          "name": "topic",
          "type": "uint256"
        },
        {
          "indexed": false,
          "internalType": "uint256",
          "name": "scheme",
          "type": "uint256"
        },
        {
          "indexed": true,
          "internalType": "address",
          "name": "issuer",
          "type": "address"
        },
        {
          "indexed": false,
          "internalType": "bytes",
          "name": "signature",
          "type": "bytes"
        },
        {
          "indexed": false,
          "internalType": "bytes",
          "name": "data",
          "type": "bytes"
        },
        {
          "indexed": false,
          "internalType": "string",
          "name": "uri",
          "type": "string"
        }
      ],
      "name": "ClaimChanged",
      "type": "event"
    },
    {
      "anonymous": false,
      "inputs": [
        {
          "indexed": true,
          "internalType": "bytes32",
          "name": "claimId",
          "type": "bytes32"
        },
        {
          "indexed": true,
          "internalType": "uint256",
          "name": "topic",
          "type": "uint256"
        },
        {
          "indexed": false,
          "internalType": "uint256",
          "name": "scheme",
          "type": "uint256"
        },
        {
          "indexed": true,
          "internalType": "address",
          "name": "issuer",
          "type": "address"
        },
        {
          "indexed": false,
          "internalType": "bytes",
          "name": "signature",
          "type": "bytes"
        },
        {
          "indexed": false,
          "internalType": "bytes",
          "name": "data",
          "type": "bytes"
        },
        {
          "indexed": false,
          "internalType": "string",
          "name": "uri",
          "type": "string"
        }
      ],
      "name": "ClaimRemoved",
      "type": "event"
    },
    {
      "anonymous": false,
      "inputs": [
        {
          "indexed": true,
          "internalType": "bytes",
          "name": "signature",
          "type": "bytes"
        }
      ],
      "name": "ClaimRevoked",
      "type": "event"
    },
    {
      "anonymous": false,
      "inputs": [
        {
          "indexed": true,
          "internalType": "uint256",
          "name": "executionId",
          "type": "uint256"
        },
        {
          "indexed": true,
          "internalType": "address",
          "name": "to",
          "type": "address"
        },
        {
          "indexed": true,
          "internalType": "uint256",
          "name": "value",
          "type": "uint256"
        },
        {
          "indexed": false,
          "internalType": "bytes",
          "name": "data",
          "type": "bytes"
        }
      ],
      "name": "Executed",
      "type": "event"
    },
    {
      "anonymous": false,
      "inputs": [
        {
          "indexed": true,
          "internalType": "uint256",
          "name": "executionId",
          "type": "uint256"
        },
        {
          "indexed": true,
          "internalType": "address",
          "name": "to",
          "type": "address"
        },
        {
          "indexed": true,
          "internalType": "uint256",
          "name": "value",
          "type": "uint256"
        },
        {
          "indexed": false,
          "internalType": "bytes",
          "name": "data",
          "type": "bytes"
        }
      ],
      "name": "ExecutionFailed",
      "type": "event"
    },
    {
      "anonymous": false,
      "inputs": [
        {
          "indexed": true,
          "internalType": "uint256",
          "name": "executionId",
          "type": "uint256"
        },
        {
          "indexed": true,
          "internalType": "address",
          "name": "to",
          "type": "address"
        },
        {
          "indexed": true,
          "internalType": "uint256",
          "name": "value",
          "type": "uint256"
        },
        {
          "indexed": false,
          "internalType": "bytes",
          "name": "data",
          "type": "bytes"
        }
      ],
      "name": "ExecutionRequested",
      "type": "event"
    },
    {
      "anonymous": false,
      "inputs": [
        {
          "indexed": true,
          "internalType": "bytes32",
          "name": "key",
          "type": "bytes32"
        },
        {
          "indexed": true,
          "internalType": "uint256",
          "name": "purpose",
          "type": "uint256"
        },
        {
          "indexed": true,
          "internalType": "uint256",
          "name": "keyType",
          "type": "uint256"
        }
      ],
      "name": "KeyAdded",
      "type": "event"
    },
    {
      "anonymous": false,
      "inputs": [
        {
          "indexed": true,
          "internalType": "bytes32",
          "name": "key",
          "type": "bytes32"
        },
        {
          "indexed": true,
          "internalType": "uint256",
          "name": "purpose",
          "type": "uint256"
        },
        {
          "indexed": true,
          "internalType": "uint256",
          "name": "keyType",
          "type": "uint256"
        }
      ],
      "name": "KeyRemoved",
      "type": "event"
    },
    {
      "inputs": [
        {
          "internalType": "uint256",
          "name": "_topic",
          "type": "uint256"
        },
        {
          "internalType": "uint256",
          "name": "_scheme",
          "type": "uint256"
        },
        {
          "internalType": "address",
          "name": "_issuer",
          "type": "address"
        },
        {
          "internalType": "bytes",
          "name": "_signature",
          "type": "bytes"
        },
        {
          "internalType": "bytes",
          "name": "_data",
          "type": "bytes"
        },
        {
          "internalType": "string",
          "name": "_uri",
          "type": "string"
        }
      ],
      "name": "addClaim",
      "outputs": [
        {
          "internalType": "bytes32",
          "name": "claimRequestId",
          "type": "bytes32"
        }
      ],
      "stateMutability": "nonpayable",
      "type": "function"
    },
    {
      "inputs": [
        {
          "internalType": "bytes32",
          "name": "_key",
          "type": "bytes32"
        },
        {
          "internalType": "uint256",
          "name": "_purpose",
          "type": "uint256"
        },
        {
          "internalType": "uint256",
          "name": "_type",
          "type": "uint256"
        }
      ],
      "name": "addKey",
      "outputs": [
        {
          "internalType": "bool",
          "name": "success",
          "type": "bool"
        }
      ],
      "stateMutability": "nonpayable",
      "type": "function"
    },
    {
      "inputs": [
        {
          "internalType": "uint256",
          "name": "_id",
          "type": "uint256"
        },
        {
          "internalType": "bool",
          "name": "_approve",
          "type": "bool"
        }
      ],
      "name": "approve",
      "outputs": [
        {
          "internalType": "bool",
          "name": "success",
          "type": "bool"
        }
      ],
      "stateMutability": "nonpayable",
      "type": "function"
    },
    {
      "inputs": [
        {
          "internalType": "address",
          "name": "_to",
          "type": "address"
        },
        {
          "internalType": "uint256",
          "name": "_value",
          "type": "uint256"
        },
        {
          "internalType": "bytes",
          "name": "_data",
          "type": "bytes"
        }
      ],
      "name": "execute",
      "outputs": [
        {
          "internalType": "uint256",
          "name": "executionId",
          "type": "uint256"
        }
      ],
      "stateMutability": "payable",
      "type": "function"
    },
    {
      "inputs": [
        {
          "internalType": "bytes32",
          "name": "_claimId",
          "type": "bytes32"
        }
      ],
      "name": "getClaim",
      "outputs": [
        {
          "internalType": "uint256",
          "name": "topic",
          "type": "uint256"
        },
        {
          "internalType": "uint256",
          "name": "scheme",
          "type": "uint256"
        },
        {
          "internalType": "address",
          "name": "issuer",
          "type": "address"
        },
        {
          "internalType": "bytes",
          "name": "signature",
          "type": "bytes"
        },
        {
          "internalType": "bytes",
          "name": "data",
          "type": "bytes"
        },
        {
          "internalType": "string",
          "name": "uri",
          "type": "string"
        }
      ],
      "stateMutability": "view",
      "type": "function"
    },
    {
      "inputs": [
        {
          "internalType": "uint256",
          "name": "_topic",
          "type": "uint256"
        }
      ],
      "name": "getClaimIdsByTopic",
      "outputs": [
        {
          "internalType": "bytes32[]",
          "name": "claimIds",
          "type": "bytes32[]"
        }
      ],
      "stateMutability": "view",
      "type": "function"
    },
    {
      "inputs": [
        {
          "internalType": "bytes32",
          "name": "_key",
          "type": "bytes32"
        }
      ],
      "name": "getKey",
      "outputs": [
        {
          "internalType": "uint256[]",
          "name": "purposes",
          "type": "uint256[]"
        },
        {
          "internalType": "uint256",
          "name": "keyType",
          "type": "uint256"
        },
        {
          "internalType": "bytes32",
          "name": "key",
          "type": "bytes32"
        }
      ],
      "stateMutability": "view",
      "type": "function"
    },
    {
      "inputs": [
        {
          "internalType": "bytes32",
          "name": "_key",
          "type": "bytes32"
        }
      ],
      "name": "getKeyPurposes",
      "outputs": [
        {
          "internalType": "uint256[]",
          "name": "_purposes",
          "type": "uint256[]"
        }
      ],
      "stateMutability": "view",
      "type": "function"
    },
    {
      "inputs": [
        {
          "internalType": "uint256",
          "name": "_purpose",
          "type": "uint256"
        }
      ],
      "name": "getKeysByPurpose",
      "outputs": [
        {
          "internalType": "bytes32[]",
          "name": "keys",
          "type": "bytes32[]"
        }
      ],
      "stateMutability": "view",
      "type": "function"
    },
    {
      "inputs": [
        {
          "internalType": "bytes",
          "name": "sig",
          "type": "bytes"
        },
        {
          "internalType": "bytes32",
          "name": "dataHash",
          "type": "bytes32"
        }
      ],
      "name": "getRecoveredAddress",
      "outputs": [
        {
          "internalType": "address",
          "name": "addr",
          "type": "address"
        }
      ],
      "stateMutability": "pure",
      "type": "function"
    },
    {
      "inputs": [],
      "name": "idFactory",
      "outputs": [
        {
          "internalType": "contract IdFactory",
          "name": "",
          "type": "address"
        }
      ],
      "stateMutability": "view",
      "type": "function"
    },
    {
      "inputs": [
        {
          "internalType": "address",
          "name": "initialManagementKey",
          "type": "address"
        },
        {
          "internalType": "address",
          "name": "_idFactoryAddress",
          "type": "address"
        }
      ],
      "name": "initialize",
      "outputs": [],
      "stateMutability": "nonpayable",
      "type": "function"
    },
    {
      "inputs": [
        {
          "internalType": "bytes",
          "name": "_sig",
          "type": "bytes"
        }
      ],
      "name": "isClaimRevoked",
      "outputs": [
        {
          "internalType": "bool",
          "name": "",
          "type": "bool"
        }
      ],
      "stateMutability": "view",
      "type": "function"
    },
    {
      "inputs": [
        {
          "internalType": "contract IIdentity",
          "name": "_identity",
          "type": "address"
        },
        {
          "internalType": "uint256",
          "name": "claimTopic",
          "type": "uint256"
        },
        {
          "internalType": "bytes",
          "name": "sig",
          "type": "bytes"
        },
        {
          "internalType": "bytes",
          "name": "data",
          "type": "bytes"
        }
      ],
      "name": "isClaimValid",
      "outputs": [
        {
          "internalType": "bool",
          "name": "claimValid",
          "type": "bool"
        }
      ],
      "stateMutability": "view",
      "type": "function"
    },
    {
      "inputs": [
        {
          "internalType": "bool",
          "name": "done",
          "type": "bool"
        }
      ],
      "name": "isComingFromIdentity",
      "outputs": [
        {
          "internalType": "bool",
          "name": "",
          "type": "bool"
        }
      ],
      "stateMutability": "nonpayable",
      "type": "function"
    },
    {
      "inputs": [
        {
          "internalType": "bytes32",
          "name": "_key",
          "type": "bytes32"
        },
        {
          "internalType": "uint256",
          "name": "_purpose",
          "type": "uint256"
        }
      ],
      "name": "keyHasPurpose",
      "outputs": [
        {
          "internalType": "bool",
          "name": "result",
          "type": "bool"
        }
      ],
      "stateMutability": "view",
      "type": "function"
    },
    {
      "inputs": [
        {
          "internalType": "bytes32",
          "name": "_claimId",
          "type": "bytes32"
        }
      ],
      "name": "removeClaim",
      "outputs": [
        {
          "internalType": "bool",
          "name": "success",
          "type": "bool"
        }
      ],
      "stateMutability": "nonpayable",
      "type": "function"
    },
    {
      "inputs": [
        {
          "internalType": "bytes32",
          "name": "_key",
          "type": "bytes32"
        },
        {
          "internalType": "uint256",
          "name": "_purpose",
          "type": "uint256"
        }
      ],
      "name": "removeKey",
      "outputs": [
        {
          "internalType": "bool",
          "name": "success",
          "type": "bool"
        }
      ],
      "stateMutability": "nonpayable",
      "type": "function"
    },
    {
      "inputs": [
        {
          "internalType": "bytes32",
          "name": "_claimId",
          "type": "bytes32"
        },
        {
          "internalType": "address",
          "name": "_identity",
          "type": "address"
        }
      ],
      "name": "revokeClaim",
      "outputs": [
        {
          "internalType": "bool",
          "name": "",
          "type": "bool"
        }
      ],
      "stateMutability": "nonpayable",
      "type": "function"
    },
    {
      "inputs": [
        {
          "internalType": "bytes",
          "name": "signature",
          "type": "bytes"
        }
      ],
      "name": "revokeClaimBySignature",
      "outputs": [],
      "stateMutability": "nonpayable",
      "type": "function"
    },
    {
      "inputs": [
        {
          "internalType": "bytes",
          "name": "",
          "type": "bytes"
        }
      ],
      "name": "revokedClaims",
      "outputs": [
        {
          "internalType": "bool",
          "name": "",
          "type": "bool"
        }
      ],
      "stateMutability": "view",
      "type": "function"
    },
    {
      "inputs": [],
      "name": "version",
      "outputs": [
        {
          "internalType": "string",
          "name": "",
          "type": "string"
        }
      ],
      "stateMutability": "pure",
      "type": "function"
    }
  ],
  "transactionHash": "0x70548926416babebff9a8c1f1ba4b7e9c45af30c0e7c5cc97fa9dc825a67c541",
  "args": [
    "0x9E462E7E6af2cDbD86A7de13cB9095cd97A0BCd0",
    "0xF96E3e5a3949A3015AE5026d29fE12f98a95a4b7"
  ],
  "numDeployments": 1,
  "solcInputHash": "e8dd1848045d2086f6e3761ce86f1225",
  "bytecode": "0x6080346200025e5762004435906001600160401b03601f38849003908101601f1916830190828211848310176200026357808491604096879485528339810103126200025e57620000508262000279565b6200005f602080940162000279565b6008546001600160a01b039283169061ffff191681156200021a576101011760085560018060a01b0319926001928285855416178455169360009585858854161787558751918183019084825282845289840191848310828411176200020657828b5284519020808a52600384528a8a206002018190559360600190811182821017620001b257895284815282885260038252888820908154868355808710620001dc575b509088528188209085895b818110620001c6575050505081875283808989200155838752600481528787209081549168010000000000000000831015620001b2578583018082558310156200019e578852872001819055829081907f480000bb1edad8ca1470381cc334b1917fbd51c6531f3a623ea8e0ec7e38a6e98880a482825416179055825416179055516141a690816200028f8239f35b634e487b7160e01b89526032600452602489fd5b634e487b7160e01b89526041600452602489fd5b8460ff845116930192818501550186906200010f565b828a528680858c2092830192015b828110620001fa57505062000104565b8b8155018790620001ea565b634e487b7160e01b8a52604160045260248afd5b865162461bcd60e51b815260048101879052601f60248201527f696e76616c696420617267756d656e74202d207a65726f2061646472657373006044820152606490fd5b600080fd5b634e487b7160e01b600052604160045260246000fd5b51906001600160a01b03821682036200025e5756fe60806040526004361015610013575b600080fd5b60003560e01c806312aaac70146101cb5780631d381240146101c25780632646b264146101b957806341850d86146101b0578063485cc955146101a75780634eee424a1461019e57806353d413c51461019557806354fd4d501461018c57806373c3370814610183578063747442d31461017a57806378e751a61461017157806380e9e9e1146101685780639010f7261461015f5780639f7f9edd14610156578063b1a34e0d1461014d578063b61d27f614610144578063c0969a6e1461013b578063c3b129e314610132578063c9100bcb14610129578063d202158d14610120578063d2345249146101175763fb307b341461010f57600080fd5b61000e6112a3565b5061000e611263565b5061000e61121b565b5061000e611190565b5061000e6110ed565b5061000e611085565b5061000e610ec0565b5061000e610e1c565b5061000e610cf3565b5061000e610c88565b5061000e610c11565b5061000e610bae565b5061000e610b6d565b5061000e610a6e565b5061000e6109f0565b5061000e6108a7565b5061000e6107ac565b5061000e610592565b5061000e610518565b5061000e6104eb565b5061000e61026c565b5061000e610208565b90815180825260208080930193019160005b8281106101f4575050505090565b8351855293810193928101926001016101e6565b503461000e57602060031936011261000e57600435600052600360205261025d60406000206001604060002001546102486002604060002001549261198b565b916040519384936060855260608501906101d4565b91602084015260408301520390f35b503461000e57606060031936011261000e57610294600160ff60085460081c161515146112e4565b3033148015610314575b80156102d8575b6102ae90611377565b6102d46102c2604435602435600435611c2e565b60405190151581529081906020820190565b0390f35b506040805133602082019081526102ae9261030d929061030590829081015b03601f1981018352826103fd565b519020613df8565b90506102a5565b506001600160a01b03600460206103426103366000546001600160a01b031690565b6001600160a01b031690565b60405192838092630fffbaf360e01b82525afa90811561039c575b60009161036e575b5016331461029e565b61038f915060203d8111610395575b61038781836103fd565b810190611355565b38610365565b503d61037d565b6103a461136a565b61035d565b50634e487b7160e01b600052604160045260246000fd5b67ffffffffffffffff81116103d457604052565b6103dc6103a9565b604052565b6060810190811067ffffffffffffffff8211176103d457604052565b90601f601f19910116810190811067ffffffffffffffff8211176103d457604052565b604051906020820182811067ffffffffffffffff8211176103d457604052565b601f19601f60209267ffffffffffffffff811161045e575b01160190565b6104666103a9565b610458565b92919261047782610440565b9161048560405193846103fd565b82948184528183011161000e578281602093846000960137010152565b9080601f8301121561000e578160206104bd9335910161046b565b90565b602060031982011261000e576004359067ffffffffffffffff821161000e576104bd916004016104a2565b503461000e5760206105046104ff366104c0565b61179f565b6040519015158152f35b8015150361000e57565b503461000e57602060031936011261000e576004356105368161050e565b6001600160a01b036000541633149081610578575b50610566575b602060ff60015460a01c166040519015158152f35b60ff60a01b1960015416600155610551565b9050153861054b565b6001600160a01b0381160361000e57565b503461000e57604060031936011261000e576004356105b081610581565b602435906105bd82610581565b6001600160a01b039081811615610768576106776001939284936105ea6105e660085460ff1690565b1590565b801561075f575b6105fa906140ea565b61060c600160ff196008541617600855565b61062061010061ff00196008541617600855565b61064d846001600160a01b031673ffffffffffffffffffffffffffffffffffffffff196001541617600155565b166001600160a01b031673ffffffffffffffffffffffffffffffffffffffff196000541617600055565b60405161069c816102f76020820194859190916001600160a01b036020820193169052565b5190208060026106b6826000526003602052604060002090565b01556106e06106c3610420565b600181526106db836000526003602052604060002090565b614135565b6106ff826106f8836000526003602052604060002090565b0160019055565b60016000526004602052610738817fabd6e7cb50984ff9c2f3e18a2660c3353dadf4e3291deeb275dae2cd1e44fe05611a9b565b611a9b565b7f480000bb1edad8ca1470381cc334b1917fbd51c6531f3a623ea8e0ec7e38a6e9600080a4005b50303b156105f1565b606460405162461bcd60e51b815260206004820152601f60248201527f696e76616c696420617267756d656e74202d207a65726f2061646472657373006044820152fd5b503461000e57602060031936011261000e576107d4600160ff60085460081c161515146112e4565b303314801561082e575b80156107fc575b6107ee9061302e565b6102d46102c2600435613872565b506040805133602082019081526107ee92610827929061081f90829081016102f7565b519020613e95565b90506107e5565b506001600160a01b03600460206108506103366000546001600160a01b031690565b60405192838092630fffbaf360e01b82525afa90811561089a575b60009161087c575b501633146107de565b610894915060203d81116103955761038781836103fd565b38610873565b6108a261136a565b61086b565b503461000e57604060031936011261000e576108cf600160ff60085460081c161515146112e4565b3033148015610924575b80156108fa575b6108e990611377565b6102d46102c26024356004356129a6565b506040805133602082019081526108e99261091d929061030590829081016102f7565b90506108e0565b506001600160a01b03600460206109466103366000546001600160a01b031690565b60405192838092630fffbaf360e01b82525afa908115610990575b600091610972575b501633146108d9565b61098a915060203d81116103955761038781836103fd565b38610969565b61099861136a565b610961565b600091031261000e57565b60005b8381106109bb5750506000910152565b81810151838201526020016109ab565b90601f19601f6020936109e9815180928187528780880191016109a8565b0116010190565b503461000e57600060031936011261000e576102d46040516040810181811067ffffffffffffffff821117610a61575b604052600581527f322e322e3100000000000000000000000000000000000000000000000000000060208201526040519182916020835260208301906109cb565b610a696103a9565b610a20565b503461000e57604060031936011261000e576102d46102c2602435610a9281610581565b610aa8600160ff60085460081c161515146112e4565b3033148015610af4575b8015610aca575b610ac290611377565b60043561151f565b50604080513360208201908152610ac292610aed929061030590829081016102f7565b9050610ab9565b506001600160a01b0360046020610b166103366000546001600160a01b031690565b60405192838092630fffbaf360e01b82525afa908115610b60575b600091610b42575b50163314610ab2565b610b5a915060203d81116103955761038781836103fd565b38610b39565b610b6861136a565b610b31565b503461000e57604060031936011261000e576020610504602435610b908161050e565b610ba6600160ff60085460081c161515146112e4565b6004356126f4565b503461000e57600060031936011261000e5760206001600160a01b0360005416604051908152f35b6020908160408183019282815285518094520193019160005b828110610bfd575050505090565b835185529381019392810192600101610bef565b503461000e5760208060031936011261000e5760043560005260078152604060002090604051908181845491828152019360005281600020916000905b828210610c71576102d485610c65818903826103fd565b60405191829182610bd6565b835486529485019460019384019390910190610c4e565b503461000e5760208060031936011261000e5760043560005260048152604060002090604051908181845491828152019360005281600020916000905b828210610cdc576102d485610c65818903826103fd565b835486529485019460019384019390910190610cc5565b503461000e57602060031936011261000e5760043567ffffffffffffffff80821161000e573660238301121561000e57816004013590811161000e57366024828401011161000e576024610d7792610d57600160ff60085460081c161515146112e4565b3033148015610da3575b8015610d79575b610d7190611377565b01611433565b005b50604080513360208201908152610d7192610d9c929061030590829081016102f7565b9050610d68565b506001600160a01b0360046020610dc56103366000546001600160a01b031690565b60405192838092630fffbaf360e01b82525afa908115610e0f575b600091610df1575b50163314610d61565b610e09915060203d81116103955761038781836103fd565b38610de8565b610e1761136a565b610de0565b503461000e5760c060031936011261000e57604435610e3a81610581565b67ffffffffffffffff60643581811161000e57610e5b9036906004016104a2565b9160843582811161000e57610e749036906004016104a2565b60a43592831161000e573660238401121561000e576102d493610ea4610eb094369060248160040135910161046b565b92602435600435612f4d565b6040519081529081906020820190565b50606060031936011261000e57600435610ed981610581565b6024359060443567ffffffffffffffff811161000e576102d4926001600160a01b0392610f0d610fe79336906004016104a2565b90610f24600160ff60085460081c161515146112e4565b7f8afcfabcb00e47a53a8fc3e9f23ff47ee1926194bb1350dd007c50b412a6cee86002549582610f8b8894610f63866000526005602052604060002090565b906001600160a01b031673ffffffffffffffffffffffffffffffffffffffff19825416179055565b856001610fa2866000526005602052604060002090565b0155610fc4856002610fbe876000526005602052604060002090565b0161186b565b610fd7610fd260025461195e565b600255565b169485936040519182918261197a565b0390a4604080513360208083019182528252601f19939261100d929061030590826103fd565b1561102e57505061101d81612146565b506040519081529081906020820190565b301415908161104d575b5015610eb05761104781612146565b50610eb0565b60408051336020820190815261107f94509290916110779190839081015b039081018352826103fd565b519020613f3a565b38611038565b503461000e57608060031936011261000e576004356110a381610581565b67ffffffffffffffff60443581811161000e576110c49036906004016104a2565b9160643591821161000e576020926110e36105049336906004016104a2565b91602435906116b1565b503461000e57604060031936011261000e5760043567ffffffffffffffff811161000e5761112d61112460209236906004016104a2565b60243590614066565b6001600160a01b0360405191168152f35b9491936001600160a01b03611182946104bd9896611174948952602089015216604087015260c0606087015260c08601906109cb565b9084820360808601526109cb565b9160a08184039101526109cb565b503461000e57602060031936011261000e5760048035600090815260066020526040908190208054600182015460028301548451919592946102d49490936005820193926001600160a01b0316916112109161120a91908101906112059086906111fe908290600301612390565b03866103fd565b613ddd565b93613ddd565b93519687968761113e565b503461000e57604060031936011261000e576020610504602435600435613fd0565b60206112569181604051938285809451938492016109a8565b8101603a81520301902090565b503461000e57602060ff61128d8261127a366104c0565b81604051938285809451938492016109a8565b8101603a81520301902054166040519015158152f35b503461000e57602060031936011261000e5760043560005260036020526102d46112d0604060002061198b565b6040519182916020835260208301906101d4565b156112eb57565b608460405162461bcd60e51b815260206004820152603360248201527f496e746572616374696e67207769746820746865206c69627261727920636f6e60448201527f747261637420697320666f7262696464656e2e000000000000000000000000006064820152fd5b9081602091031261000e57516104bd81610581565b506040513d6000823e3d90fd5b1561137e57565b608460405162461bcd60e51b815260206004820152603060248201527f5065726d697373696f6e733a2053656e64657220646f6573206e6f742068617660448201527f65206d616e6167656d656e74206b6579000000000000000000000000000000006064820152fd5b156113ef57565b606460405162461bcd60e51b815260206004820152601f60248201527f436f6e666c6963743a20436c61696d20616c7265616479207265766f6b6564006044820152fd5b61145560ff60405184848237602081868101603a8152030190205416156113e8565b60405182828237602081848101603a815203019020600160ff198254161790558160405192839283378101600081520390207f7f484e37f24c0a92f81dd74afa3027b3ea31f2e9fb6b9fa29fe9865f81ac5569600080a2565b909291926114bb81610440565b916114c960405193846103fd565b82948284528282011161000e5760206114e39301906109a8565b565b9080601f8301121561000e5781516104bd926020016114ae565b611517906020604051928284809451938492016109a8565b810103902090565b6001600160a01b0391604051917fc9100bcb0000000000000000000000000000000000000000000000000000000083526004830152816024816000958694165afa9081156116a4575b82916115d9575b506115d1816115b36115ae6105e66115a77f7f484e37f24c0a92f81dd74afa3027b3ea31f2e9fb6b9fa29fe9865f81ac55699661123d565b5460ff1690565b6113e8565b6115cc6115bf8261123d565b600160ff19825416179055565b6114ff565b9180a2600190565b90503d8083833e6115ea81836103fd565b810160c0828203126116a0576116036040830151610581565b606082015167ffffffffffffffff9081811161169857826116259185016114e5565b92608081015182811161169c578361163e9183016114e5565b5060a0810151918211611698570181601f82011215611694579161168c6115d1928460207f7f484e37f24c0a92f81dd74afa3027b3ea31f2e9fb6b9fa29fe9865f81ac5569965191016114ae565b50915061156f565b8380fd5b8480fd5b8580fd5b8280fd5b6116ac61136a565b611568565b611754906117789394926116e96040519485926001600160a01b036020850195168552604084015260608084015260808301906109cb565b03926116fd601f19948581018352826103fd565b51902060405161174b8161173f602082019485603c917f19457468657265756d205369676e6564204d6573736167653a0a3332000000008252601c8201520190565b038581018352826103fd565b51902084614066565b604080516001600160a01b03909216602083019081529261081f918390810161106b565b908161178e575b5061178957600090565b600190565b611798915061179f565b153861177f565b6117aa60ff9161123d565b541661178957600090565b90600182811c921680156117e5575b60208310146117cf57565b634e487b7160e01b600052602260045260246000fd5b91607f16916117c4565b9161180b9183549060031b600019811b9283911b169119161790565b9055565b81811061181a575050565b6000815560010161180f565b9190601f811161183557505050565b6114e3926000526020600020906020601f840160051c83019310611861575b601f0160051c019061180f565b9091508190611854565b919091825167ffffffffffffffff811161193a575b6118948161188e84546117b5565b84611826565b602080601f83116001146118cf5750819293946000926118c4575b50506000198260011b9260031b1c1916179055565b0151905038806118af565b90601f198316956118e585600052602060002090565b926000905b88821061192257505083600195969710611909575b505050811b019055565b015160001960f88460031b161c191690553880806118ff565b806001859682949686015181550195019301906118ea565b6119426103a9565b611880565b50634e487b7160e01b600052601160045260246000fd5b600190600019811461196e570190565b611976611947565b0190565b9060206104bd9281815201906109cb565b9060405191828154918282526020928383019160005283600020936000905b8282106119c0575050506114e3925003836103fd565b8554845260019586019588955093810193909101906119aa565b805460018255806001106119ec575050565b6114e39160005260016020600020918201910161180f565b90611a0e826119da565b906000526020908160002060005b60018110611a2a5750505050565b82518282015591830191600101611a1c565b50634e487b7160e01b600052603260045260246000fd5b6020918151811015611a68575b60051b010190565b611a70611a3c565b611a60565b8054821015611a8e575b60005260206000200190600090565b611a96611a3c565b611a7f565b611ac261180b9180549068010000000000000000821015611adb575b600182018155611a75565b819391549060031b600019811b9283911b169119161790565b611ae36103a9565b611ab7565b9081602091031261000e57516104bd8161050e565b60209067ffffffffffffffff8111611b17575b60051b0190565b611b1f6103a9565b611b10565b602090818184031261000e5780519067ffffffffffffffff821161000e57019180601f8401121561000e578251611b5a81611afd565b93611b6860405195866103fd565b818552838086019260051b82010192831161000e578301905b828210611b8f575050505090565b8380918351611b9d81610581565b815201910190611b81565b90602090818382031261000e57825167ffffffffffffffff9384821161000e57019281601f8501121561000e578351611be081611afd565b94611bee60405196876103fd565b818652848087019260051b82010193841161000e578401905b838210611c1657505050505090565b8151838116810361000e578152908401908401611c07565b929091836002611c48826000526003602052604060002090565b0154036120e557611c6b611c66856000526003602052604060002090565b61198b565b9160005b8351811015611d025784611c838286611a53565b5114611c9757611c929061195e565b611c6f565b60405162461bcd60e51b815260206004820152602160248201527f436f6e666c6963743a204b657920616c72656164792068617320707572706f7360448201527f65000000000000000000000000000000000000000000000000000000000000006064820152608490fd5b509290939150611d2081610733846000526003602052604060002090565b611d3882610733836000526004602052604060002090565b60408051916000928682867f480000bb1edad8ca1470381cc334b1917fbd51c6531f3a623ea8e0ec7e38a6e98780a4611d7e61033661033686546001600160a01b031690565b3303612031575b50611d9a61033684546001600160a01b031690565b825196631645536f60e11b8852602060049881818b81875afa908115612024575b8791611ff7575b5080611fe4575b15611fd7576001600160a01b03908551630fffbaf360e01b815281818c81885afa918215611fca575b8892611fad575b50501692888686519463e061646b60e01b865281868481845afa958615611fa0575b8296611f7c575b50875192838092637b6b91c760e01b82525afa908115611f6f575b8791611f4d575b50865b8451811015611f3e57611e6b611e5d8284611a53565b5167ffffffffffffffff1690565b611e85611e788388611a53565b516001600160a01b031690565b90873b15611f3a5788517f9dd323a000000000000000000000000000000000000000000000000000000000815267ffffffffffffffff909116818e019081526001600160a01b039092166020830152604082018b90526060820185905260808201869052611f0f92918a908290819060a0010381838c5af18015611f2d575b611f14575b5061195e565b611e47565b80611f21611f27926103c0565b8061099d565b38611f09565b611f3561136a565b611f04565b8980fd5b50600199505050505050505050565b611f6991503d8089833e611f6181836103fd565b810190611ba8565b38611e44565b611f7761136a565b611e3d565b611f999196503d8084833e611f9181836103fd565b810190611b24565b9438611e22565b611fa861136a565b611e1b565b611fc39250803d106103955761038781836103fd565b3880611df9565b611fd261136a565b611df2565b5060019750505050505050565b506001600160a01b038316331415611dc9565b6120179150823d841161201d575b61200f81836103fd565b810190611ae8565b38611dc2565b503d612005565b61202c61136a565b611dbb565b612049600160a01b60ff60a01b196001541617600155565b61205d61033685546001600160a01b031690565b60015460a01c60ff16813b1561169c577fa262d8d20000000000000000000000000000000000000000000000000000000083521515600483015260248201869052604482018390526064820188905284908290608490829084905af180156120d8575b15611d855780611f216120d2926103c0565b38611d85565b6120e061136a565b6120c0565b9290918160026120ff826000526003602052604060002090565b015561212861210c610420565b828152612123846000526003602052604060002090565b611a04565b83600161213f846000526003602052604060002090565b0155611d20565b6104bd90612160600160ff60085460081c161515146112e4565b612437565b1561216c57565b608460405162461bcd60e51b815260206004820152602760248201527f43616e6e6f7420617070726f76652061206e6f6e2d6578697374696e6720657860448201527f65637574696f6e000000000000000000000000000000000000000000000000006064820152fd5b156121dd57565b606460405162461bcd60e51b815260206004820152601860248201527f5265717565737420616c726561647920657865637574656400000000000000006044820152fd5b1561222857565b606460405162461bcd60e51b815260206004820152601f60248201527f53656e64657220646f6573206e6f74206861766520616374696f6e206b6579006044820152fd5b1561227357565b608460405162461bcd60e51b815260206004820152602360248201527f53656e64657220646f6573206e6f742068617665206d616e6167656d656e742060448201527f6b657900000000000000000000000000000000000000000000000000000000006064820152fd5b6000929181546122ec816117b5565b926001918083169081156123455750600114612309575b50505050565b90919293945060005260209081600020906000915b8583106123345750505050019038808080612303565b80548584015291830191810161231e565b60ff1916845250505081151590910201915038808080612303565b3d1561238b573d9061237182610440565b9161237f60405193846103fd565b82523d6000602084013e565b606090565b90600092918054916123a1836117b5565b91828252600193848116908160001461240257506001146123c25750505050565b90919394506000526020928360002092846000945b8386106123ee575050505001019038808080612303565b8054858701830152940193859082016123d7565b915050602094955060ff199193501683830152151560051b01019038808080612303565b9060206104bd928181520190612390565b6124446002548210612165565b61247361246e6105e66003612463856000526005602052604060002090565b015460081c60ff1690565b6121d6565b61249761248a826000526005602052604060002090565b546001600160a01b031690565b6001600160a01b039190821630036126c8576040805133602082019081526124d0926124cb929061030590829081016102f7565b61226c565b807fb3932da477fe5d6c8ff2eafef050c0f3a1af18fc07121001482600f36f3715d86040518061250581906001602083019252565b0390a261252f6003612521836000526005602052604060002090565b01600160ff19825416179055565b60008061254961248a846000526005602052604060002090565b6125876001612562866000526005602052604060002090565b0154600261257a876000526005602052604060002090565b01604051928380926122dd565b03925af1612593612360565b5015612645576125c260036125b2836000526005602052604060002090565b0161010061ff0019825416179055565b6125d961248a826000526005602052604060002090565b907f1f920dbda597d7bf95035464170fa58d0a4b57f13a1c315ace6793b9f63688b86001612611836000526005602052604060002090565b015493600261262a846000526005602052604060002090565b019361263d604051928392169582612426565b0390a4600190565b61265c61248a826000526005602052604060002090565b907fe10c49d9f7c71da23262367013434763cfdb2332267641728d25cd712c5c6a686001612694836000526005602052604060002090565b01549360026126ad846000526005602052604060002090565b01936126c0604051928392169582612426565b0390a4600090565b6040805133602082019081526126ef926126ea929061107790829081016102f7565b612221565b6124d0565b6127016002548210612165565b61272061246e6105e66003612463856000526005602052604060002090565b600161273961248a836000526005602052604060002090565b6001600160a01b039390841630036127e85760408051336020820190815261276d926124cb929061030590829081016102f7565b604051811515815283907fb3932da477fe5d6c8ff2eafef050c0f3a1af18fc07121001482600f36f3715d890602090a21515036127bd5761252f6003612521836000526005602052604060002090565b6127e391506127d86003916000526005602052604060002090565b0160ff198154169055565b600090565b60408051336020820190815261280a926126ea929061107790829081016102f7565b61276d565b1561281657565b608460405162461bcd60e51b815260206004820152602160248201527f4e6f6e4578697374696e673a204b65792069736e27742072656769737465726560448201527f64000000000000000000000000000000000000000000000000000000000000006064820152fd5b90600019820191821161288f57565b6114e3611947565b81519167ffffffffffffffff8311612925575b680100000000000000008311612918575b81548383558084106128fa575b50602080910191600052806000209060005b8481106128e8575050505050565b835183820155928101926001016128da565b6129129083600052846020600020918201910161180f565b386128c8565b6129206103a9565b6128bb565b61292d6103a9565b6128aa565b805490811561295c576000198092019161294c8383611a75565b909182549160031b1b1916905555565b634e487b7160e01b600052603160045260246000fd5b600260009180548382558061298d575b508260018201550155565b818452602084206129a09181019061180f565b38612982565b916129c98360026129c1826000526003602052604060002090565b01541461280f565b6129e0611c66846000526003602052604060002090565b9260005b836129ef8287611a53565b5114612a78576129fe9061195e565b9283855114612a0d57926129e4565b60405162461bcd60e51b815260206004820152602a60248201527f4e6f6e4578697374696e673a204b657920646f65736e2774206861766520737560448201527f636820707572706f7365000000000000000000000000000000000000000000006064820152608490fd5b9390929193612a9b612a93612a8d8451612880565b84611a53565b519183611a53565b52612ab981612ab4856000526003602052604060002090565b612897565b612ad5612ad0846000526003602052604060002090565b612932565b600082815260046020526040812054905b84612b11612b0783612b02886000526004602052604060002090565b611a75565b90549060031b1c90565b14612f3b57612b1f9061195e565b818110612ae657612b6c612b57612b07612b72945b612b51612b4b896000526004602052604060002090565b91612880565b90611a75565b91612b02866000526004602052604060002090565b906117ef565b612b89612ad0836000526004602052604060002090565b6001928391612baf83612ba6846000526003602052604060002090565b01549151612880565b15612f1a575b60409081518186857f585a4aef50f8267a92b32412b331b20f7f8b96f2245b253b9cc50dcc621d3397600080a4612bfa6103366103366000546001600160a01b031690565b3303612e54575b5050612c186103366000546001600160a01b031690565b93815194631645536f60e11b8652602060049681818981865afa908115612e47575b600091612e2a575b5080612e17575b612c58575b5050505050505090565b6001600160a01b03908451630fffbaf360e01b815281818a81875afa918215612e0a575b600092612ded575b505016908684519163e061646b60e01b83526000838381845afa928315612de0575b600093612dc2575b50600090865192838092637b6b91c760e01b82525afa908115612db5575b600091612d9c575b506000965b612ce7575b50879550612c4e565b8151871015612d9757612cfd611e5d8883611a53565b612d0a611e788985611a53565b97843b1561000e578a986000612d91938c612d7b8a8d8d5196879586957f5e4efeb80000000000000000000000000000000000000000000000000000000087528601909493926001600160a01b0360609367ffffffffffffffff608085019816845216602083015260408201520152565b0381838a5af18015611f2d57611f14575061195e565b96612cd9565b612cde565b612daf913d8091833e611f6181836103fd565b38612cd4565b612dbd61136a565b612ccc565b612dd990600092943d8091833e611f9181836103fd565b9290612cae565b612de861136a565b612ca6565b612e039250803d106103955761038781836103fd565b3880612c84565b612e1261136a565b612c7c565b506001600160a01b038216331415612c49565b612e419150823d841161201d5761200f81836103fd565b38612c42565b612e4f61136a565b612c3a565b909350612e6f600160a01b60ff60a01b196001541617600155565b612e846103366000546001600160a01b031690565b93612e94875460ff9060a01c1690565b853b1561000e577ffe5e2e1b000000000000000000000000000000000000000000000000000000008352151560048301526024820184905260448201869052606482015285936000908290608490829084905af18015612f0d575b612efa575b80612c01565b80611f21612f07926103c0565b38612ef4565b612f1561136a565b612eef565b612f36612f31836000526003602052604060002090565b612972565b612bb5565b612b6c612b57612b07612b7294612b34565b906104bd9594939291612f6c600160ff60085460081c161515146112e4565b3033148015612fb5575b8015612f8b575b612f869061302e565b613216565b50604080513360208201908152612f8692612fae929061081f90829081016102f7565b9050612f7d565b506001600160a01b0360046020612fd76103366000546001600160a01b031690565b60405192838092630fffbaf360e01b82525afa908115613021575b600091613003575b50163314612f76565b61301b915060203d81116103955761038781836103fd565b38612ffa565b61302961136a565b612ff2565b1561303557565b608460405162461bcd60e51b815260206004820152603260248201527f5065726d697373696f6e733a2053656e64657220646f6573206e6f742068617660448201527f6520636c61696d207369676e6572206b657900000000000000000000000000006064820152fd5b926104bd94926001600160a01b036130ca9316855260208501526080604085015260808401906109cb565b9160608184039101526109cb565b156130df57565b606460405162461bcd60e51b815260206004820152600d60248201527f696e76616c696420636c61696d000000000000000000000000000000000000006044820152fd5b926131436104bd95936130ca9386526080602087015260808601906109cb565b9084820360408601526109cb565b959261319d946001600160a01b039161318f946104bd9a989415158a5260208a0152604089015216606087015260e0608087015260e08601906109cb565b9084820360a08601526109cb565b9160c08184039101526109cb565b969394613208956131fa9467ffffffffffffffff6104bd9b999594168a526001600160a01b0380941660208b015260408a015260608901521660808701526101008060a08801528601906109cb565b9084820360c08601526109cb565b9160e08184039101526109cb565b91946001600160a01b0391828716943086036136b2575b604080516001600160a01b038a166020808301918252828401899052838352929592938a929091906132606060826103fd565b5190209a886132798d6000526006602052604060002090565b55600199828d888d613295836000526006602052604060002090565b01556132ab906000526006602052604060002090565b600301906132b89161186b565b848d60049d8e6132d2836000526006602052604060002090565b01906132dd9161186b565b6132f1906000526006602052604060002090565b600501906132fe9161186b565b898d86858a888d8761331a876000526006602052604060002090565b600201546001600160a01b03161461367957936133b8917f46149b18aa084502c3f12bc75e19eda8bda8d102b82cce8474677a6d0d5f43c59561336b886107338b6000526007602052604060002090565b6133ae8b60026133858b6000526006602052604060002090565b01906001600160a01b031673ffffffffffffffffffffffffffffffffffffffff19825416179055565b5194859485613123565b0390a45b6133d4600160a01b60ff60a01b196001541617600155565b6000976133eb6103368a546001600160a01b031690565b8b5460a01c60ff16813b15613675578b89928f928d809461343e8f8c8c8f928d90519b8c9a8b998a987f532f9465000000000000000000000000000000000000000000000000000000008a528901613151565b03925af18015613668575b613655575b506134636103368a546001600160a01b031690565b958c818a518092631645536f60e11b8252818b5afa908115613648575b8b9161362b575b5061349d575b5050505050505050505050505090565b8851630fffbaf360e01b815281818f818b5afa91821561361e575b8b92613601575b505016958b8989519763e061646b60e01b895281898481845afa9889156135f4575b82996135d8575b508a5192838092637b6b91c760e01b82525afa9081156135cb575b8a916135b1575b50898c5b613519575b5061348d565b87518110156135ac5761352f611e5d8284611a53565b61353c611e78838b611a53565b908a3b156135a8578f6135a293928f928f92908f8f9261358e8f8f8f8f8f8b97519c8d9b8c9a8b997fe1d50193000000000000000000000000000000000000000000000000000000008b528a016131ab565b03925af18015611f2d57611f14575061195e565b8c61350e565b8c80fd5b613513565b6135c591503d808c833e611f6181836103fd565b3861350a565b6135d361136a565b613503565b6135ed9199503d8084833e611f9181836103fd565b97386134e8565b6135fc61136a565b6134e1565b6136179250803d106103955761038781836103fd565b38806134bf565b61362661136a565b6134b8565b6136429150823d841161201d5761200f81836103fd565b38613487565b61365061136a565b613480565b80611f21613662926103c0565b3861344e565b61367061136a565b613449565b8a80fd5b936136aa917f3bab293fc00db832d7619a9299914251b8747c036867ec056cbd506f60135b13955194859485613123565b0390a46133bc565b61370a6040517fc0969a6e000000000000000000000000000000000000000000000000000000008152602081806136ef8c878c306004860161309f565b03818b5afa90811561372d575b60009161370f575b506130d8565b61322d565b613727915060203d811161201d5761200f81836103fd565b38613704565b61373561136a565b6136fc565b9261375a6104bd9593613768938652608060208701526080860190612390565b908482036040860152612390565b916060818403910152612390565b61378081546117b5565b908161378a575050565b81601f6000931160011461379c575055565b818352602083206137b891601f0160051c81019060010161180f565b8160208120915555565b60056000918281558260018201558260028201556137e260038201613776565b6137ee60048201613776565b016137f981546117b5565b8061380357505050565b601f811160011461379c575055565b96939461386495613856946104bd9a98946001600160a01b039415158b5260208b015260408a015260608901521660808701526101008060a0880152860190612390565b9084820360c0860152612390565b9160e0818403910152612390565b613886816000526006602052604060002090565b54908115613d7257600082815260076020526040812054905b826138bb612b0783612b02886000526007602052604060002090565b14613d60576138c99061195e565b81811061389f57612b6c6138f5612b0761390a945b612b51612b4b896000526007602052604060002090565b91612b02866000526007602052604060002090565b613921612ad0836000526007602052604060002090565b60019182613939836000526006602052604060002090565b0154916139636002613955836000526006602052604060002090565b01546001600160a01b031690565b92600361397a836000526006602052604060002090565b019360049184847f3cf57863a89432c61c4a27073c6ee39e8a764bff5a05aebfbcdcdc80b2e6130a856139b7836000526006602052604060002090565b0160056139ce846000526006602052604060002090565b01996139ed60409b8c519384936001600160a01b03809b16998561373a565b0390a4613a0c613a07846000526006602052604060002090565b6137c2565b613a24600160a01b60ff60a01b196001541617600155565b613a396103366000546001600160a01b031690565b93613a49875460ff9060a01c1690565b9487613a5f866000526006602052604060002090565b015495613a7b6002613955886000526006602052604060002090565b916003613a92886000526006602052604060002090565b019186613aa9896000526006602052604060002090565b01926005613ac18a6000526006602052604060002090565b0194833b1561000e57613b0d6000968b968f9d948f948a968e96519c8d9b8c9a8b997f5cdfd642000000000000000000000000000000000000000000000000000000008b528a01613812565b03925af18015613d53575b613d40575b50613b336103366000546001600160a01b031690565b908551631645536f60e11b815260209081818681875afa908115613d33575b600091613d16575b50613b69575050505050505090565b8651630fffbaf360e01b815281818681875afa918215613d09575b600092613cec575b5050168286519263e061646b60e01b84526000848381845afa938415613cdf575b600094613cc1575b50600090885192838092637b6b91c760e01b82525afa908115613cb4575b600091613c9b575b506000955b613bed575b879550612c4e565b8251861015613c9657613c03611e5d8783611a53565b613c10611e788886611a53565b96833b1561000e578660008b99613c9094613c7a8d5194859384937f635e23930000000000000000000000000000000000000000000000000000000085528d85016001600160a01b0360409295949367ffffffffffffffff60608401971683521660208201520152565b038183895af18015611f2d57611f14575061195e565b95613be0565b613be5565b613cae913d8091833e611f6181836103fd565b38613bdb565b613cbc61136a565b613bd3565b613cd890600092953d8091833e611f9181836103fd565b9390613bb5565b613ce761136a565b613bad565b613d029250803d106103955761038781836103fd565b3880613b8c565b613d1161136a565b613b84565b613d2d9150823d841161201d5761200f81836103fd565b38613b5a565b613d3b61136a565b613b52565b80611f21613d4d926103c0565b38613b1d565b613d5b61136a565b613b18565b612b6c6138f5612b0761390a946138de565b60405162461bcd60e51b815260206004820152602b60248201527f4e6f6e4578697374696e673a205468657265206973206e6f20636c61696d207760448201527f69746820746869732049440000000000000000000000000000000000000000006064820152608490fd5b906114e3613df19260405193848092612390565b03836103fd565b60005260036020526040600020604051613e11816103e1565b613e1a8261198b565b81526002600192838101546020840152015480604083015215613e8e57600090825b613e49575b505050600090565b8051918251811015613e885783613e61828295611a53565b51148015613e83575b613e7d57613e779061195e565b91613e3c565b50505090565b613e6a565b50613e41565b5050600090565b60005260038060205260406000209060405190613eb1826103e1565b613eba8361198b565b82526002600193848101546020850152015480604084015215613e4157600091835b613eea575b50505050600090565b8051928351811015613f3457613f01818695611a53565b5183858214918215613f2a575b5050613f2357613f1d9061195e565b92613edc565b5050505090565b1490508338613f0e565b50613ee1565b60005260036020526040600020604051613f53816103e1565b613f5c8261198b565b815260019182810154602083015260028091015480604084015215613e4157600091835b613f8d5750505050600090565b8051928351811015613f3457613fa4818695611a53565b5183858214918215613fc6575b5050613f2357613fc09061195e565b92613f80565b1490508338613fb1565b600052600360205260406000209060405190613feb826103e1565b613ff48361198b565b82526002600193848101546020850152015480604084015215613e4157600091835b6140235750505050600090565b8051928351811015613f345761403a818695611a53565b518385821491821561405c575b5050613f23576140569061195e565b92614016565b1490508338614047565b9060009160418151036140e5576000918160209460ff8660809501519160606040850151940151901a601b81106140cd575b60405194855216868401526040830152606082015282805260015afa156140c0575b60005190565b6140c861136a565b6140ba565b601b0181811115614098576140e0611947565b614098565b505090565b156140f157565b606460405162461bcd60e51b815260206004820152601e60248201527f496e697469616c206b65792077617320616c72656164792073657475702e00006044820152fd5b9061413f826119da565b906000526020908160002060005b6001811061415b5750505050565b825160ff16828201559183019160010161414d56fea26469706673582212204dc6882828e450d932a65ee519cd5bbfe0d3c89c36f2cd9c395575633856071d64736f6c63430008110033",
  "devdoc": {
    "kind": "dev",
    "methods": {
      "addClaim(uint256,uint256,address,bytes,bytes,string)": {
        "details": "See {IERC735-addClaim}.",
        "params": {
          "_data": "The hash of the claim data, sitting in another location, a bit-mask, call data, or actual data based on the claim scheme.",
          "_issuer": "The issuers identity contract address, or the address used to sign the above signature.",
          "_scheme": "The scheme with which this claim SHOULD be verified or how it should be processed.",
          "_signature": "Signature which is the proof that the claim issuer issued a claim of topic for this identity. it MUST be a signed message of the following structure: keccak256(abi.encode(address identityHolder_address, uint256 _ topic, bytes data))",
          "_topic": "The type of claim",
          "_uri": "The location of the claim, this can be HTTP links, swarm hashes, IPFS hashes, and such."
        },
        "returns": {
          "claimRequestId": "Returns claimRequestId: COULD be send to the approve function, to approve or reject this claim. triggers ClaimAdded event."
        }
      },
      "addKey(bytes32,uint256,uint256)": {
        "params": {
          "_key": "keccak256 representation of an ethereum address",
          "_purpose": "a uint256 specifying the key type, like 1 = MANAGEMENT, 2 = ACTION, 3 = CLAIM, 4 = ENCRYPTION",
          "_type": "type of key used, which would be a uint256 for different key types. e.g. 1 = ECDSA, 2 = RSA, etc."
        },
        "returns": {
          "success": "Returns TRUE if the addition was successful and FALSE if not"
        }
      },
      "approve(uint256,bool)": {
        "details": "See {IERC734-approve}."
      },
      "execute(address,uint256,bytes)": {
        "details": "See {IERC734-execute}.",
        "returns": {
          "executionId": "to use in the approve function, to approve or reject this execution."
        }
      },
      "getClaim(bytes32)": {
        "details": "See {IERC735-getClaim}.",
        "params": {
          "_claimId": "The identity of the claim i.e. keccak256(abi.encode(_issuer, _topic))"
        },
        "returns": {
          "data": "Returns all the parameters of the claim for the specified _claimId (topic, scheme, signature, issuer, data, uri) .",
          "issuer": "Returns all the parameters of the claim for the specified _claimId (topic, scheme, signature, issuer, data, uri) .",
          "scheme": "Returns all the parameters of the claim for the specified _claimId (topic, scheme, signature, issuer, data, uri) .",
          "signature": "Returns all the parameters of the claim for the specified _claimId (topic, scheme, signature, issuer, data, uri) .",
          "topic": "Returns all the parameters of the claim for the specified _claimId (topic, scheme, signature, issuer, data, uri) .",
          "uri": "Returns all the parameters of the claim for the specified _claimId (topic, scheme, signature, issuer, data, uri) ."
        }
      },
      "getClaimIdsByTopic(uint256)": {
        "details": "See {IERC735-getClaimIdsByTopic}.",
        "params": {
          "_topic": "The identity of the claim i.e. keccak256(abi.encode(_issuer, _topic))"
        },
        "returns": {
          "claimIds": "Returns an array of claim IDs by topic."
        }
      },
      "getKey(bytes32)": {
        "details": "See {IERC734-getKey}.",
        "params": {
          "_key": "The public key.  for non-hex and long keys, its the Keccak256 hash of the key"
        },
        "returns": {
          "key": "Returns the full key data, if present in the identity.",
          "keyType": "Returns the full key data, if present in the identity.",
          "purposes": "Returns the full key data, if present in the identity."
        }
      },
      "getKeyPurposes(bytes32)": {
        "details": "See {IERC734-getKeyPurposes}.",
        "params": {
          "_key": "The public key.  for non-hex and long keys, its the Keccak256 hash of the key"
        },
        "returns": {
          "_purposes": "Returns the purposes of the specified key"
        }
      },
      "getKeysByPurpose(uint256)": {
        "details": "See {IERC734-getKeysByPurpose}.",
        "params": {
          "_purpose": "a uint256[] Array of the key types, like 1 = MANAGEMENT, 2 = ACTION, 3 = CLAIM, 4 = ENCRYPTION"
        },
        "returns": {
          "keys": "Returns an array of public key bytes32 hold by this identity and having the specified purpose"
        }
      },
      "getRecoveredAddress(bytes,bytes32)": {
        "details": "returns the address that signed the given data",
        "params": {
          "dataHash": "the data that was signed returns the address that signed dataHash and created the signature sig",
          "sig": "the signature of the data"
        }
      },
      "initialize(address,address)": {
        "params": {
          "initialManagementKey": "The ethereum address to be set as the management key of the ONCHAINID."
        }
      },
      "isClaimRevoked(bytes)": {
        "details": "See {IClaimIssuer-isClaimRevoked}."
      },
      "isClaimValid(address,uint256,bytes,bytes)": {
        "details": "See {IClaimIssuer-isClaimValid}."
      },
      "isComingFromIdentity(bool)": {
        "details": "Returns True if call is coming from Identity Contract"
      },
      "keyHasPurpose(bytes32,uint256)": {
        "details": "See {IERC734-keyHasPurpose}."
      },
      "removeClaim(bytes32)": {
        "details": "See {IERC735-removeClaim}.",
        "params": {
          "_claimId": "The identity of the claim i.e. keccak256(abi.encode(_issuer, _topic))"
        },
        "returns": {
          "success": "Returns TRUE when the claim was removed. triggers ClaimRemoved event"
        }
      },
      "removeKey(bytes32,uint256)": {
        "details": "See {IERC734-removeKey}."
      },
      "revokeClaim(bytes32,address)": {
        "details": "See {IClaimIssuer-revokeClaim}."
      },
      "revokeClaimBySignature(bytes)": {
        "details": "See {IClaimIssuer-revokeClaimBySignature}."
      },
      "version()": {
        "details": "Returns the string of the current version."
      }
    },
    "version": 1
  },
  "userdoc": {
    "kind": "user",
    "methods": {
      "addClaim(uint256,uint256,address,bytes,bytes,string)": {
        "notice": "Implementation of the addClaim function from the ERC-735 standard  Require that the msg.sender has claim signer key."
      },
      "addKey(bytes32,uint256,uint256)": {
        "notice": "implementation of the addKey function of the ERC-734 standard Adds a _key to the identity. The _purpose specifies the purpose of key. Initially we propose four purposes: 1: MANAGEMENT keys, which can manage the identity 2: ACTION keys, which perform actions in this identities name (signing, logins, transactions, etc.) 3: CLAIM signer keys, used to sign claims on other identities which need to be revokable. 4: ENCRYPTION keys, used to encrypt data e.g. hold in claims. MUST only be done by keys of purpose 1, or the identity itself. If its the identity itself, the approval process will determine its approval."
      },
      "approve(uint256,bool)": {
        "notice": "Approves an execution.  If the sender is an ACTION key and the destination address is not the identity contract itself, then the  approval is authorized and the operation would be performed.  If the destination address is the identity itself, then the execution would be authorized and performed only  if the sender is a MANAGEMENT key."
      },
      "execute(address,uint256,bytes)": {
        "notice": "Passes an execution instruction to the keymanager. If the sender is an ACTION key and the destination address is not the identity contract itself, then the execution is immediately approved and performed. If the destination address is the identity itself, then the execution would be performed immediately only if the sender is a MANAGEMENT key. Otherwise the execution request must be approved via the `approve` method."
      },
      "getClaim(bytes32)": {
        "notice": "Implementation of the getClaim function from the ERC-735 standard."
      },
      "getClaimIdsByTopic(uint256)": {
        "notice": "Implementation of the getClaimIdsByTopic function from the ERC-735 standard. used to get all the claims from the specified topic"
      },
      "getKey(bytes32)": {
        "notice": "Implementation of the getKey function from the ERC-734 standard"
      },
      "getKeyPurposes(bytes32)": {
        "notice": "gets the purposes of a key"
      },
      "getKeysByPurpose(uint256)": {
        "notice": "gets all the keys with a specific purpose from an identity"
      },
      "initialize(address,address)": {
        "notice": "When using this contract as an implementation for a proxy, call this initializer with a delegatecall."
      },
      "keyHasPurpose(bytes32,uint256)": {
        "notice": "Returns true if the key has MANAGEMENT purpose or the specified purpose."
      },
      "removeClaim(bytes32)": {
        "notice": "Implementation of the removeClaim function from the ERC-735 standard Require that the msg.sender has management key. Can only be removed by the claim issuer, or the claim holder itself."
      },
      "removeKey(bytes32,uint256)": {
        "notice": "Remove the purpose from a key."
      }
    },
    "version": 1
  },
  "storageLayout": {
    "storage": [
      {
        "astId": 16432,
        "contract": "src/ClaimIssuer.sol:ClaimIssuer",
        "label": "idFactory",
        "offset": 0,
        "slot": "0",
        "type": "t_contract(IdFactory)15397"
      },
      {
        "astId": 16434,
        "contract": "src/ClaimIssuer.sol:ClaimIssuer",
        "label": "userWallet",
        "offset": 0,
        "slot": "1",
        "type": "t_address"
      },
      {
        "astId": 16436,
        "contract": "src/ClaimIssuer.sol:ClaimIssuer",
        "label": "isComing",
        "offset": 20,
        "slot": "1",
        "type": "t_bool"
      },
      {
        "astId": 16438,
        "contract": "src/ClaimIssuer.sol:ClaimIssuer",
        "label": "_executionNonce",
        "offset": 0,
        "slot": "2",
        "type": "t_uint256"
      },
      {
        "astId": 16443,
        "contract": "src/ClaimIssuer.sol:ClaimIssuer",
        "label": "_keys",
        "offset": 0,
        "slot": "3",
        "type": "t_mapping(t_bytes32,t_struct(Key)16485_storage)"
      },
      {
        "astId": 16448,
        "contract": "src/ClaimIssuer.sol:ClaimIssuer",
        "label": "_keysByPurpose",
        "offset": 0,
        "slot": "4",
        "type": "t_mapping(t_uint256,t_array(t_bytes32)dyn_storage)"
      },
      {
        "astId": 16453,
        "contract": "src/ClaimIssuer.sol:ClaimIssuer",
        "label": "_executions",
        "offset": 0,
        "slot": "5",
        "type": "t_mapping(t_uint256,t_struct(Execution)16496_storage)"
      },
      {
        "astId": 16458,
        "contract": "src/ClaimIssuer.sol:ClaimIssuer",
        "label": "_claims",
        "offset": 0,
        "slot": "6",
        "type": "t_mapping(t_bytes32,t_struct(Claim)16509_storage)"
      },
      {
        "astId": 16463,
        "contract": "src/ClaimIssuer.sol:ClaimIssuer",
        "label": "_claimsByTopic",
        "offset": 0,
        "slot": "7",
        "type": "t_mapping(t_uint256,t_array(t_bytes32)dyn_storage)"
      },
      {
        "astId": 16466,
        "contract": "src/ClaimIssuer.sol:ClaimIssuer",
        "label": "_initialized",
        "offset": 0,
        "slot": "8",
        "type": "t_bool"
      },
      {
        "astId": 16469,
        "contract": "src/ClaimIssuer.sol:ClaimIssuer",
        "label": "_canInteract",
        "offset": 1,
        "slot": "8",
        "type": "t_bool"
      },
      {
        "astId": 16474,
        "contract": "src/ClaimIssuer.sol:ClaimIssuer",
        "label": "__gap",
        "offset": 0,
        "slot": "9",
        "type": "t_array(t_uint256)49_storage"
      },
      {
        "astId": 10452,
        "contract": "src/ClaimIssuer.sol:ClaimIssuer",
        "label": "revokedClaims",
        "offset": 0,
        "slot": "58",
        "type": "t_mapping(t_bytes_memory_ptr,t_bool)"
      }
    ],
    "types": {
      "t_address": {
        "encoding": "inplace",
        "label": "address",
        "numberOfBytes": "20"
      },
      "t_array(t_bytes32)dyn_storage": {
        "base": "t_bytes32",
        "encoding": "dynamic_array",
        "label": "bytes32[]",
        "numberOfBytes": "32"
      },
      "t_array(t_uint256)49_storage": {
        "base": "t_uint256",
        "encoding": "inplace",
        "label": "uint256[49]",
        "numberOfBytes": "1568"
      },
      "t_array(t_uint256)dyn_storage": {
        "base": "t_uint256",
        "encoding": "dynamic_array",
        "label": "uint256[]",
        "numberOfBytes": "32"
      },
      "t_bool": {
        "encoding": "inplace",
        "label": "bool",
        "numberOfBytes": "1"
      },
      "t_bytes32": {
        "encoding": "inplace",
        "label": "bytes32",
        "numberOfBytes": "32"
      },
      "t_bytes_memory_ptr": {
        "encoding": "bytes",
        "label": "bytes",
        "numberOfBytes": "32"
      },
      "t_bytes_storage": {
        "encoding": "bytes",
        "label": "bytes",
        "numberOfBytes": "32"
      },
      "t_contract(IdFactory)15397": {
        "encoding": "inplace",
        "label": "contract IdFactory",
        "numberOfBytes": "20"
      },
      "t_mapping(t_bytes32,t_struct(Claim)16509_storage)": {
        "encoding": "mapping",
        "key": "t_bytes32",
        "label": "mapping(bytes32 => struct Structs.Claim)",
        "numberOfBytes": "32",
        "value": "t_struct(Claim)16509_storage"
      },
      "t_mapping(t_bytes32,t_struct(Key)16485_storage)": {
        "encoding": "mapping",
        "key": "t_bytes32",
        "label": "mapping(bytes32 => struct Structs.Key)",
        "numberOfBytes": "32",
        "value": "t_struct(Key)16485_storage"
      },
      "t_mapping(t_bytes_memory_ptr,t_bool)": {
        "encoding": "mapping",
        "key": "t_bytes_memory_ptr",
        "label": "mapping(bytes => bool)",
        "numberOfBytes": "32",
        "value": "t_bool"
      },
      "t_mapping(t_uint256,t_array(t_bytes32)dyn_storage)": {
        "encoding": "mapping",
        "key": "t_uint256",
        "label": "mapping(uint256 => bytes32[])",
        "numberOfBytes": "32",
        "value": "t_array(t_bytes32)dyn_storage"
      },
      "t_mapping(t_uint256,t_struct(Execution)16496_storage)": {
        "encoding": "mapping",
        "key": "t_uint256",
        "label": "mapping(uint256 => struct Structs.Execution)",
        "numberOfBytes": "32",
        "value": "t_struct(Execution)16496_storage"
      },
      "t_string_storage": {
        "encoding": "bytes",
        "label": "string",
        "numberOfBytes": "32"
      },
      "t_struct(Claim)16509_storage": {
        "encoding": "inplace",
        "label": "struct Structs.Claim",
        "members": [
          {
            "astId": 16498,
            "contract": "src/ClaimIssuer.sol:ClaimIssuer",
            "label": "topic",
            "offset": 0,
            "slot": "0",
            "type": "t_uint256"
          },
          {
            "astId": 16500,
            "contract": "src/ClaimIssuer.sol:ClaimIssuer",
            "label": "scheme",
            "offset": 0,
            "slot": "1",
            "type": "t_uint256"
          },
          {
            "astId": 16502,
            "contract": "src/ClaimIssuer.sol:ClaimIssuer",
            "label": "issuer",
            "offset": 0,
            "slot": "2",
            "type": "t_address"
          },
          {
            "astId": 16504,
            "contract": "src/ClaimIssuer.sol:ClaimIssuer",
            "label": "signature",
            "offset": 0,
            "slot": "3",
            "type": "t_bytes_storage"
          },
          {
            "astId": 16506,
            "contract": "src/ClaimIssuer.sol:ClaimIssuer",
            "label": "data",
            "offset": 0,
            "slot": "4",
            "type": "t_bytes_storage"
          },
          {
            "astId": 16508,
            "contract": "src/ClaimIssuer.sol:ClaimIssuer",
            "label": "uri",
            "offset": 0,
            "slot": "5",
            "type": "t_string_storage"
          }
        ],
        "numberOfBytes": "192"
      },
      "t_struct(Execution)16496_storage": {
        "encoding": "inplace",
        "label": "struct Structs.Execution",
        "members": [
          {
            "astId": 16487,
            "contract": "src/ClaimIssuer.sol:ClaimIssuer",
            "label": "to",
            "offset": 0,
            "slot": "0",
            "type": "t_address"
          },
          {
            "astId": 16489,
            "contract": "src/ClaimIssuer.sol:ClaimIssuer",
            "label": "value",
            "offset": 0,
            "slot": "1",
            "type": "t_uint256"
          },
          {
            "astId": 16491,
            "contract": "src/ClaimIssuer.sol:ClaimIssuer",
            "label": "data",
            "offset": 0,
            "slot": "2",
            "type": "t_bytes_storage"
          },
          {
            "astId": 16493,
            "contract": "src/ClaimIssuer.sol:ClaimIssuer",
            "label": "approved",
            "offset": 0,
            "slot": "3",
            "type": "t_bool"
          },
          {
            "astId": 16495,
            "contract": "src/ClaimIssuer.sol:ClaimIssuer",
            "label": "executed",
            "offset": 1,
            "slot": "3",
            "type": "t_bool"
          }
        ],
        "numberOfBytes": "128"
      },
      "t_struct(Key)16485_storage": {
        "encoding": "inplace",
        "label": "struct Structs.Key",
        "members": [
          {
            "astId": 16480,
            "contract": "src/ClaimIssuer.sol:ClaimIssuer",
            "label": "purposes",
            "offset": 0,
            "slot": "0",
            "type": "t_array(t_uint256)dyn_storage"
          },
          {
            "astId": 16482,
            "contract": "src/ClaimIssuer.sol:ClaimIssuer",
            "label": "keyType",
            "offset": 0,
            "slot": "1",
            "type": "t_uint256"
          },
          {
            "astId": 16484,
            "contract": "src/ClaimIssuer.sol:ClaimIssuer",
            "label": "key",
            "offset": 0,
            "slot": "2",
            "type": "t_bytes32"
          }
        ],
        "numberOfBytes": "96"
      },
      "t_uint256": {
        "encoding": "inplace",
        "label": "uint256",
        "numberOfBytes": "32"
      }
    }
  }
}