{
  "address": "0x02536Fd4FA8177B12CD7bf71Cb47e90dC06a0adE",
  "abi": [
    {
      "inputs": [
        {
          "internalType": "address",
          "name": "initialManagementKey",
          "type": "address"
        },
        {
          "internalType": "address",
          "name": "_idFactory",
          "type": "address"
        }
      ],
      "stateMutability": "nonpayable",
      "type": "constructor"
    },
    {
      "anonymous": false,
      "inputs": [
        {
          "indexed": true,
          "internalType": "uint256",
          "name": "executionId",
          "type": "uint256"
        },
        {
          "indexed": false,
          "internalType": "bool",
          "name": "approved",
          "type": "bool"
        }
      ],
      "name": "Approved",
      "type": "event"
    },
    {
      "anonymous": false,
      "inputs": [
        {
          "indexed": true,
          "internalType": "bytes32",
          "name": "claimId",
          "type": "bytes32"
        },
        {
          "indexed": true,
          "internalType": "uint256",
          "name": "topic",
          "type": "uint256"
        },
        {
          "indexed": false,
          "internalType": "uint256",
          "name": "scheme",
          "type": "uint256"
        },
        {
          "indexed": true,
          "internalType": "address",
          "name": "issuer",
          "type": "address"
        },
        {
          "indexed": false,
          "internalType": "bytes",
          "name": "signature",
          "type": "bytes"
        },
        {
          "indexed": false,
          "internalType": "bytes",
          "name": "data",
          "type": "bytes"
        },
        {
          "indexed": false,
          "internalType": "string",
          "name": "uri",
          "type": "string"
        }
      ],
      "name": "ClaimAdded",
      "type": "event"
    },
    {
      "anonymous": false,
      "inputs": [
        {
          "indexed": true,
          "internalType": "bytes32",
          "name": "claimId",
          "type": "bytes32"
        },
        {
          "indexed": true,
          "internalType": "uint256",
          "name": "topic",
          "type": "uint256"
        },
        {
          "indexed": false,
          "internalType": "uint256",
          "name": "scheme",
          "type": "uint256"
        },
        {
          "indexed": true,
          "internalType": "address",
          "name": "issuer",
          "type": "address"
        },
        {
          "indexed": false,
          "internalType": "bytes",
          "name": "signature",
          "type": "bytes"
        },
        {
          "indexed": false,
          "internalType": "bytes",
          "name": "data",
          "type": "bytes"
        },
        {
          "indexed": false,
          "internalType": "string",
          "name": "uri",
          "type": "string"
        }
      ],
      "name": "ClaimChanged",
      "type": "event"
    },
    {
      "anonymous": false,
      "inputs": [
        {
          "indexed": true,
          "internalType": "bytes32",
          "name": "claimId",
          "type": "bytes32"
        },
        {
          "indexed": true,
          "internalType": "uint256",
          "name": "topic",
          "type": "uint256"
        },
        {
          "indexed": false,
          "internalType": "uint256",
          "name": "scheme",
          "type": "uint256"
        },
        {
          "indexed": true,
          "internalType": "address",
          "name": "issuer",
          "type": "address"
        },
        {
          "indexed": false,
          "internalType": "bytes",
          "name": "signature",
          "type": "bytes"
        },
        {
          "indexed": false,
          "internalType": "bytes",
          "name": "data",
          "type": "bytes"
        },
        {
          "indexed": false,
          "internalType": "string",
          "name": "uri",
          "type": "string"
        }
      ],
      "name": "ClaimRemoved",
      "type": "event"
    },
    {
      "anonymous": false,
      "inputs": [
        {
          "indexed": true,
          "internalType": "bytes",
          "name": "signature",
          "type": "bytes"
        }
      ],
      "name": "ClaimRevoked",
      "type": "event"
    },
    {
      "anonymous": false,
      "inputs": [
        {
          "indexed": true,
          "internalType": "uint256",
          "name": "executionId",
          "type": "uint256"
        },
        {
          "indexed": true,
          "internalType": "address",
          "name": "to",
          "type": "address"
        },
        {
          "indexed": true,
          "internalType": "uint256",
          "name": "value",
          "type": "uint256"
        },
        {
          "indexed": false,
          "internalType": "bytes",
          "name": "data",
          "type": "bytes"
        }
      ],
      "name": "Executed",
      "type": "event"
    },
    {
      "anonymous": false,
      "inputs": [
        {
          "indexed": true,
          "internalType": "uint256",
          "name": "executionId",
          "type": "uint256"
        },
        {
          "indexed": true,
          "internalType": "address",
          "name": "to",
          "type": "address"
        },
        {
          "indexed": true,
          "internalType": "uint256",
          "name": "value",
          "type": "uint256"
        },
        {
          "indexed": false,
          "internalType": "bytes",
          "name": "data",
          "type": "bytes"
        }
      ],
      "name": "ExecutionFailed",
      "type": "event"
    },
    {
      "anonymous": false,
      "inputs": [
        {
          "indexed": true,
          "internalType": "uint256",
          "name": "executionId",
          "type": "uint256"
        },
        {
          "indexed": true,
          "internalType": "address",
          "name": "to",
          "type": "address"
        },
        {
          "indexed": true,
          "internalType": "uint256",
          "name": "value",
          "type": "uint256"
        },
        {
          "indexed": false,
          "internalType": "bytes",
          "name": "data",
          "type": "bytes"
        }
      ],
      "name": "ExecutionRequested",
      "type": "event"
    },
    {
      "anonymous": false,
      "inputs": [
        {
          "indexed": true,
          "internalType": "bytes32",
          "name": "key",
          "type": "bytes32"
        },
        {
          "indexed": true,
          "internalType": "uint256",
          "name": "purpose",
          "type": "uint256"
        },
        {
          "indexed": true,
          "internalType": "uint256",
          "name": "keyType",
          "type": "uint256"
        }
      ],
      "name": "KeyAdded",
      "type": "event"
    },
    {
      "anonymous": false,
      "inputs": [
        {
          "indexed": true,
          "internalType": "bytes32",
          "name": "key",
          "type": "bytes32"
        },
        {
          "indexed": true,
          "internalType": "uint256",
          "name": "purpose",
          "type": "uint256"
        },
        {
          "indexed": true,
          "internalType": "uint256",
          "name": "keyType",
          "type": "uint256"
        }
      ],
      "name": "KeyRemoved",
      "type": "event"
    },
    {
      "inputs": [
        {
          "internalType": "uint256",
          "name": "_topic",
          "type": "uint256"
        },
        {
          "internalType": "uint256",
          "name": "_scheme",
          "type": "uint256"
        },
        {
          "internalType": "address",
          "name": "_issuer",
          "type": "address"
        },
        {
          "internalType": "bytes",
          "name": "_signature",
          "type": "bytes"
        },
        {
          "internalType": "bytes",
          "name": "_data",
          "type": "bytes"
        },
        {
          "internalType": "string",
          "name": "_uri",
          "type": "string"
        }
      ],
      "name": "addClaim",
      "outputs": [
        {
          "internalType": "bytes32",
          "name": "claimRequestId",
          "type": "bytes32"
        }
      ],
      "stateMutability": "nonpayable",
      "type": "function"
    },
    {
      "inputs": [
        {
          "internalType": "bytes32",
          "name": "_key",
          "type": "bytes32"
        },
        {
          "internalType": "uint256",
          "name": "_purpose",
          "type": "uint256"
        },
        {
          "internalType": "uint256",
          "name": "_type",
          "type": "uint256"
        }
      ],
      "name": "addKey",
      "outputs": [
        {
          "internalType": "bool",
          "name": "success",
          "type": "bool"
        }
      ],
      "stateMutability": "nonpayable",
      "type": "function"
    },
    {
      "inputs": [
        {
          "internalType": "uint256",
          "name": "_id",
          "type": "uint256"
        },
        {
          "internalType": "bool",
          "name": "_approve",
          "type": "bool"
        }
      ],
      "name": "approve",
      "outputs": [
        {
          "internalType": "bool",
          "name": "success",
          "type": "bool"
        }
      ],
      "stateMutability": "nonpayable",
      "type": "function"
    },
    {
      "inputs": [
        {
          "internalType": "address",
          "name": "_to",
          "type": "address"
        },
        {
          "internalType": "uint256",
          "name": "_value",
          "type": "uint256"
        },
        {
          "internalType": "bytes",
          "name": "_data",
          "type": "bytes"
        }
      ],
      "name": "execute",
      "outputs": [
        {
          "internalType": "uint256",
          "name": "executionId",
          "type": "uint256"
        }
      ],
      "stateMutability": "payable",
      "type": "function"
    },
    {
      "inputs": [
        {
          "internalType": "bytes32",
          "name": "_claimId",
          "type": "bytes32"
        }
      ],
      "name": "getClaim",
      "outputs": [
        {
          "internalType": "uint256",
          "name": "topic",
          "type": "uint256"
        },
        {
          "internalType": "uint256",
          "name": "scheme",
          "type": "uint256"
        },
        {
          "internalType": "address",
          "name": "issuer",
          "type": "address"
        },
        {
          "internalType": "bytes",
          "name": "signature",
          "type": "bytes"
        },
        {
          "internalType": "bytes",
          "name": "data",
          "type": "bytes"
        },
        {
          "internalType": "string",
          "name": "uri",
          "type": "string"
        }
      ],
      "stateMutability": "view",
      "type": "function"
    },
    {
      "inputs": [
        {
          "internalType": "uint256",
          "name": "_topic",
          "type": "uint256"
        }
      ],
      "name": "getClaimIdsByTopic",
      "outputs": [
        {
          "internalType": "bytes32[]",
          "name": "claimIds",
          "type": "bytes32[]"
        }
      ],
      "stateMutability": "view",
      "type": "function"
    },
    {
      "inputs": [
        {
          "internalType": "bytes32",
          "name": "_key",
          "type": "bytes32"
        }
      ],
      "name": "getKey",
      "outputs": [
        {
          "internalType": "uint256[]",
          "name": "purposes",
          "type": "uint256[]"
        },
        {
          "internalType": "uint256",
          "name": "keyType",
          "type": "uint256"
        },
        {
          "internalType": "bytes32",
          "name": "key",
          "type": "bytes32"
        }
      ],
      "stateMutability": "view",
      "type": "function"
    },
    {
      "inputs": [
        {
          "internalType": "bytes32",
          "name": "_key",
          "type": "bytes32"
        }
      ],
      "name": "getKeyPurposes",
      "outputs": [
        {
          "internalType": "uint256[]",
          "name": "_purposes",
          "type": "uint256[]"
        }
      ],
      "stateMutability": "view",
      "type": "function"
    },
    {
      "inputs": [
        {
          "internalType": "uint256",
          "name": "_purpose",
          "type": "uint256"
        }
      ],
      "name": "getKeysByPurpose",
      "outputs": [
        {
          "internalType": "bytes32[]",
          "name": "keys",
          "type": "bytes32[]"
        }
      ],
      "stateMutability": "view",
      "type": "function"
    },
    {
      "inputs": [
        {
          "internalType": "bytes",
          "name": "sig",
          "type": "bytes"
        },
        {
          "internalType": "bytes32",
          "name": "dataHash",
          "type": "bytes32"
        }
      ],
      "name": "getRecoveredAddress",
      "outputs": [
        {
          "internalType": "address",
          "name": "addr",
          "type": "address"
        }
      ],
      "stateMutability": "pure",
      "type": "function"
    },
    {
      "inputs": [],
      "name": "idFactory",
      "outputs": [
        {
          "internalType": "contract IdFactory",
          "name": "",
          "type": "address"
        }
      ],
      "stateMutability": "view",
      "type": "function"
    },
    {
      "inputs": [
        {
          "internalType": "address",
          "name": "initialManagementKey",
          "type": "address"
        },
        {
          "internalType": "address",
          "name": "_idFactoryAddress",
          "type": "address"
        }
      ],
      "name": "initialize",
      "outputs": [],
      "stateMutability": "nonpayable",
      "type": "function"
    },
    {
      "inputs": [
        {
          "internalType": "bytes",
          "name": "_sig",
          "type": "bytes"
        }
      ],
      "name": "isClaimRevoked",
      "outputs": [
        {
          "internalType": "bool",
          "name": "",
          "type": "bool"
        }
      ],
      "stateMutability": "view",
      "type": "function"
    },
    {
      "inputs": [
        {
          "internalType": "contract IIdentity",
          "name": "_identity",
          "type": "address"
        },
        {
          "internalType": "uint256",
          "name": "claimTopic",
          "type": "uint256"
        },
        {
          "internalType": "bytes",
          "name": "sig",
          "type": "bytes"
        },
        {
          "internalType": "bytes",
          "name": "data",
          "type": "bytes"
        }
      ],
      "name": "isClaimValid",
      "outputs": [
        {
          "internalType": "bool",
          "name": "claimValid",
          "type": "bool"
        }
      ],
      "stateMutability": "view",
      "type": "function"
    },
    {
      "inputs": [
        {
          "internalType": "bytes32",
          "name": "_key",
          "type": "bytes32"
        },
        {
          "internalType": "uint256",
          "name": "_purpose",
          "type": "uint256"
        }
      ],
      "name": "keyHasPurpose",
      "outputs": [
        {
          "internalType": "bool",
          "name": "result",
          "type": "bool"
        }
      ],
      "stateMutability": "view",
      "type": "function"
    },
    {
      "inputs": [
        {
          "internalType": "bytes32",
          "name": "_claimId",
          "type": "bytes32"
        }
      ],
      "name": "removeClaim",
      "outputs": [
        {
          "internalType": "bool",
          "name": "success",
          "type": "bool"
        }
      ],
      "stateMutability": "nonpayable",
      "type": "function"
    },
    {
      "inputs": [
        {
          "internalType": "bytes32",
          "name": "_key",
          "type": "bytes32"
        },
        {
          "internalType": "uint256",
          "name": "_purpose",
          "type": "uint256"
        }
      ],
      "name": "removeKey",
      "outputs": [
        {
          "internalType": "bool",
          "name": "success",
          "type": "bool"
        }
      ],
      "stateMutability": "nonpayable",
      "type": "function"
    },
    {
      "inputs": [
        {
          "internalType": "bytes32",
          "name": "_claimId",
          "type": "bytes32"
        },
        {
          "internalType": "address",
          "name": "_identity",
          "type": "address"
        }
      ],
      "name": "revokeClaim",
      "outputs": [
        {
          "internalType": "bool",
          "name": "",
          "type": "bool"
        }
      ],
      "stateMutability": "nonpayable",
      "type": "function"
    },
    {
      "inputs": [
        {
          "internalType": "bytes",
          "name": "signature",
          "type": "bytes"
        }
      ],
      "name": "revokeClaimBySignature",
      "outputs": [],
      "stateMutability": "nonpayable",
      "type": "function"
    },
    {
      "inputs": [
        {
          "internalType": "bytes",
          "name": "",
          "type": "bytes"
        }
      ],
      "name": "revokedClaims",
      "outputs": [
        {
          "internalType": "bool",
          "name": "",
          "type": "bool"
        }
      ],
      "stateMutability": "view",
      "type": "function"
    },
    {
      "inputs": [],
      "name": "version",
      "outputs": [
        {
          "internalType": "string",
          "name": "",
          "type": "string"
        }
      ],
      "stateMutability": "pure",
      "type": "function"
    }
  ],
  "transactionHash": "0xbd539b949748e20ec479a1ff1e1e354045a455fdb6f94c5a6990e2a2deaba290",
  "args": [
    "0x8DA273734E9327a333Cee43ad93C88eab8b4Cb60",
    "0xA8910Bf0985Ce34585586C558fffAFD3029cFDb6"
  ],
  "numDeployments": 1,
  "solcInputHash": "5b41550b2fa2ea650a59af98b7faaa7d",
  "bytecode": "0x6080346200024e5762004186906001600160401b03601f38849003908101601f1916830190828211848310176200025357808491604096879485528339810103126200024e57620000508262000269565b9062000060602080940162000269565b6007546001600160a01b0393841693919061ffff191684156200020a5761010117600755169160018060a01b03199160009484848754161786558651918183019384528183528783019383851082861117620001a257848952835190208088526002808452898920018190559260600190811184821017620001f657875260019283815282875260028252878720908154858355808610620001cc575b509087528187209084885b818110620001b6575050505081865282808888200155828652600381528686209081549168010000000000000000831015620001a2578483018082558310156200018e57875286200181905581907f480000bb1edad8ca1470381cc334b1917fbd51c6531f3a623ea8e0ec7e38a6e98680a482541617905551613f0790816200027f8239f35b634e487b7160e01b88526032600452602488fd5b634e487b7160e01b88526041600452602488fd5b8460ff8451169301928185015501859062000108565b8289528580858b2092830192015b828110620001ea575050620000fd565b8a8155018690620001da565b634e487b7160e01b87526041600452602487fd5b865162461bcd60e51b815260048101879052601f60248201527f696e76616c696420617267756d656e74202d207a65726f2061646472657373006044820152606490fd5b600080fd5b634e487b7160e01b600052604160045260246000fd5b51906001600160a01b03821682036200024e5756fe60806040526004361015610013575b600080fd5b60003560e01c806312aaac70146101b75780631d381240146101ae5780632646b264146101a5578063485cc9551461019c5780634eee424a1461019357806353d413c51461018a57806354fd4d501461018157806373c3370814610178578063747442d31461016f57806378e751a61461016657806380e9e9e11461015d5780639010f726146101545780639f7f9edd1461014b578063b1a34e0d14610142578063b61d27f614610139578063c0969a6e14610130578063c3b129e314610127578063c9100bcb1461011e578063d202158d14610115578063d23452491461010c5763fb307b341461010457600080fd5b61000e6111f8565b5061000e6111b8565b5061000e611170565b5061000e6110e6565b5061000e611043565b5061000e610fdb565b5061000e610e16565b5061000e610d72565b5061000e610c49565b5061000e610bde565b5061000e610b67565b5061000e610b04565b5061000e610ac3565b5061000e6109ba565b5061000e61093c565b5061000e6107f3565b5061000e6106f8565b5061000e61050b565b5061000e6104d7565b5061000e610258565b5061000e6101f4565b90815180825260208080930193019160005b8281106101e0575050505090565b8351855293810193928101926001016101d2565b503461000e57602060031936011261000e5760043560005260026020526102496040600020600160406000200154610234600260406000200154926118e0565b916040519384936060855260608501906101c0565b91602084015260408301520390f35b503461000e57606060031936011261000e57610280600160ff60075460081c16151514611239565b3033148015610300575b80156102c4575b61029a906112cc565b6102c06102ae604435602435600435611b83565b60405190151581529081906020820190565b0390f35b5060408051336020820190815261029a926102f992906102f190829081015b03601f1981018352826103e9565b519020613ac8565b9050610291565b506001600160a01b036004602061032e6103226000546001600160a01b031690565b6001600160a01b031690565b60405192838092630fffbaf360e01b82525afa908115610388575b60009161035a575b5016331461028a565b61037b915060203d8111610381575b61037381836103e9565b8101906112aa565b38610351565b503d610369565b6103906112bf565b610349565b50634e487b7160e01b600052604160045260246000fd5b67ffffffffffffffff81116103c057604052565b6103c8610395565b604052565b6060810190811067ffffffffffffffff8211176103c057604052565b90601f601f19910116810190811067ffffffffffffffff8211176103c057604052565b604051906020820182811067ffffffffffffffff8211176103c057604052565b601f19601f60209267ffffffffffffffff811161044a575b01160190565b610452610395565b610444565b9291926104638261042c565b9161047160405193846103e9565b82948184528183011161000e578281602093846000960137010152565b9080601f8301121561000e578160206104a993359101610457565b90565b602060031982011261000e576004359067ffffffffffffffff821161000e576104a99160040161048e565b503461000e5760206104f06104eb366104ac565b6116f4565b6040519015158152f35b6001600160a01b0381160361000e57565b503461000e57604060031936011261000e57600435610529816104fa565b60243590610536826104fa565b6001600160a01b0390818116156106b4576105c360019392849361056361055f60075460ff1690565b1590565b80156106ab575b61057390613e4b565b610585600160ff196007541617600755565b61059961010061ff00196007541617600755565b166001600160a01b031673ffffffffffffffffffffffffffffffffffffffff196000541617600055565b6040516105e8816102e36020820194859190916001600160a01b036020820193169052565b519020806002610602826000526002602052604060002090565b015561062c61060f61040c565b60018152610627836000526002602052604060002090565b613e96565b61064b82610644836000526002602052604060002090565b0160019055565b60016000526003602052610684817fa15bc60c955c405d20d9149c709e2460f1c2d9a497496a7f46004d1772c3054c6119f0565b6119f0565b7f480000bb1edad8ca1470381cc334b1917fbd51c6531f3a623ea8e0ec7e38a6e9600080a4005b50303b1561056a565b606460405162461bcd60e51b815260206004820152601f60248201527f696e76616c696420617267756d656e74202d207a65726f2061646472657373006044820152fd5b503461000e57602060031936011261000e57610720600160ff60075460081c16151514611239565b303314801561077a575b8015610748575b61073a90612f12565b6102c06102ae60043561362c565b5060408051336020820190815261073a92610773929061076b90829081016102e3565b519020613b65565b9050610731565b506001600160a01b036004602061079c6103226000546001600160a01b031690565b60405192838092630fffbaf360e01b82525afa9081156107e6575b6000916107c8575b5016331461072a565b6107e0915060203d81116103815761037381836103e9565b386107bf565b6107ee6112bf565b6107b7565b503461000e57604060031936011261000e5761081b600160ff60075460081c16151514611239565b3033148015610870575b8015610846575b610835906112cc565b6102c06102ae602435600435612944565b506040805133602082019081526108359261086992906102f190829081016102e3565b905061082c565b506001600160a01b03600460206108926103226000546001600160a01b031690565b60405192838092630fffbaf360e01b82525afa9081156108dc575b6000916108be575b50163314610825565b6108d6915060203d81116103815761037381836103e9565b386108b5565b6108e46112bf565b6108ad565b600091031261000e57565b60005b8381106109075750506000910152565b81810151838201526020016108f7565b90601f19601f602093610935815180928187528780880191016108f4565b0116010190565b503461000e57600060031936011261000e576102c06040516040810181811067ffffffffffffffff8211176109ad575b604052600581527f322e322e310000000000000000000000000000000000000000000000000000006020820152604051918291602083526020830190610917565b6109b5610395565b61096c565b503461000e57604060031936011261000e576102c06102ae6024356109de816104fa565b6109f4600160ff60075460081c16151514611239565b3033148015610a40575b8015610a16575b610a0e906112cc565b600435611474565b50604080513360208201908152610a0e92610a3992906102f190829081016102e3565b9050610a05565b506001600160a01b0360046020610a626103226000546001600160a01b031690565b60405192838092630fffbaf360e01b82525afa908115610aac575b600091610a8e575b501633146109fe565b610aa6915060203d81116103815761037381836103e9565b38610a85565b610ab46112bf565b610a7d565b8015150361000e57565b503461000e57604060031936011261000e5760206104f0602435610ae681610ab9565b610afc600160ff60075460081c16151514611239565b600435612561565b503461000e57600060031936011261000e5760206001600160a01b0360005416604051908152f35b6020908160408183019282815285518094520193019160005b828110610b53575050505090565b835185529381019392810192600101610b45565b503461000e5760208060031936011261000e5760043560005260068152604060002090604051908181845491828152019360005281600020916000905b828210610bc7576102c085610bbb818903826103e9565b60405191829182610b2c565b835486529485019460019384019390910190610ba4565b503461000e5760208060031936011261000e5760043560005260038152604060002090604051908181845491828152019360005281600020916000905b828210610c32576102c085610bbb818903826103e9565b835486529485019460019384019390910190610c1b565b503461000e57602060031936011261000e5760043567ffffffffffffffff80821161000e573660238301121561000e57816004013590811161000e57366024828401011161000e576024610ccd92610cad600160ff60075460081c16151514611239565b3033148015610cf9575b8015610ccf575b610cc7906112cc565b01611388565b005b50604080513360208201908152610cc792610cf292906102f190829081016102e3565b9050610cbe565b506001600160a01b0360046020610d1b6103226000546001600160a01b031690565b60405192838092630fffbaf360e01b82525afa908115610d65575b600091610d47575b50163314610cb7565b610d5f915060203d81116103815761037381836103e9565b38610d3e565b610d6d6112bf565b610d36565b503461000e5760c060031936011261000e57604435610d90816104fa565b67ffffffffffffffff60643581811161000e57610db190369060040161048e565b9160843582811161000e57610dca90369060040161048e565b60a43592831161000e573660238401121561000e576102c093610dfa610e06943690602481600401359101610457565b92602435600435612e31565b6040519081529081906020820190565b50606060031936011261000e57600435610e2f816104fa565b6024359060443567ffffffffffffffff811161000e576102c0926001600160a01b0392610e63610f3d93369060040161048e565b90610e7a600160ff60075460081c16151514611239565b7f8afcfabcb00e47a53a8fc3e9f23ff47ee1926194bb1350dd007c50b412a6cee86001549582610ee18894610eb9866000526004602052604060002090565b906001600160a01b031673ffffffffffffffffffffffffffffffffffffffff19825416179055565b856001610ef8866000526004602052604060002090565b0155610f1a856002610f14876000526004602052604060002090565b016117c0565b610f2d610f286001546118b3565b600155565b16948593604051918291826118cf565b0390a4604080513360208083019182528252601f199392610f6392906102f190826103e9565b15610f84575050610f7381611fab565b506040519081529081906020820190565b3014159081610fa3575b5015610e0657610f9d81611fab565b50610e06565b604080513360208201908152610fd59450929091610fcd9190839081015b039081018352826103e9565b519020613bf7565b38610f8e565b503461000e57608060031936011261000e57600435610ff9816104fa565b67ffffffffffffffff60443581811161000e5761101a90369060040161048e565b9160643591821161000e576020926110396104f093369060040161048e565b9160243590611606565b503461000e57604060031936011261000e5760043567ffffffffffffffff811161000e5761108361107a602092369060040161048e565b60243590613dc7565b6001600160a01b0360405191168152f35b9491936001600160a01b036110d8946104a998966110ca948952602089015216604087015260c0606087015260c0860190610917565b908482036080860152610917565b9160a0818403910152610917565b503461000e57602060031936011261000e5760048035600090815260056020819052604091829020805460018201546002830154909591946102c09490936003810193611153936001600160a01b0316926111659261115f9281019161115a9101968851968780926121f5565b03866103e9565b613aad565b93613aad565b935196879687611094565b503461000e57604060031936011261000e5760206104f0602435600435613d31565b60206111ab9181604051938285809451938492016108f4565b8101603981520301902090565b503461000e57602060ff6111e2826111cf366104ac565b81604051938285809451938492016108f4565b8101603981520301902054166040519015158152f35b503461000e57602060031936011261000e5760043560005260026020526102c061122560406000206118e0565b6040519182916020835260208301906101c0565b1561124057565b608460405162461bcd60e51b815260206004820152603360248201527f496e746572616374696e67207769746820746865206c69627261727920636f6e60448201527f747261637420697320666f7262696464656e2e000000000000000000000000006064820152fd5b9081602091031261000e57516104a9816104fa565b506040513d6000823e3d90fd5b156112d357565b608460405162461bcd60e51b815260206004820152603060248201527f5065726d697373696f6e733a2053656e64657220646f6573206e6f742068617660448201527f65206d616e6167656d656e74206b6579000000000000000000000000000000006064820152fd5b1561134457565b606460405162461bcd60e51b815260206004820152601f60248201527f436f6e666c6963743a20436c61696d20616c7265616479207265766f6b6564006044820152fd5b6113aa60ff60405184848237602081868101603981520301902054161561133d565b604051828282376020818481016039815203019020600160ff198254161790558160405192839283378101600081520390207f7f484e37f24c0a92f81dd74afa3027b3ea31f2e9fb6b9fa29fe9865f81ac5569600080a2565b909291926114108161042c565b9161141e60405193846103e9565b82948284528282011161000e5760206114389301906108f4565b565b9080601f8301121561000e5781516104a992602001611403565b61146c906020604051928284809451938492016108f4565b810103902090565b6001600160a01b0391604051917fc9100bcb0000000000000000000000000000000000000000000000000000000083526004830152816024816000958694165afa9081156115f9575b829161152e575b506115268161150861150361055f6114fc7f7f484e37f24c0a92f81dd74afa3027b3ea31f2e9fb6b9fa29fe9865f81ac556996611192565b5460ff1690565b61133d565b61152161151482611192565b600160ff19825416179055565b611454565b9180a2600190565b90503d8083833e61153f81836103e9565b810160c0828203126115f55761155860408301516104fa565b606082015167ffffffffffffffff908181116115ed578261157a91850161143a565b9260808101518281116115f1578361159391830161143a565b5060a08101519182116115ed570181601f820112156115e957916115e1611526928460207f7f484e37f24c0a92f81dd74afa3027b3ea31f2e9fb6b9fa29fe9865f81ac556996519101611403565b5091506114c4565b8380fd5b8480fd5b8580fd5b8280fd5b6116016112bf565b6114bd565b6116a9906116cd93949261163e6040519485926001600160a01b03602085019516855260408401526060808401526080830190610917565b0392611652601f19948581018352826103e9565b5190206040516116a081611694602082019485603c917f19457468657265756d205369676e6564204d6573736167653a0a3332000000008252601c8201520190565b038581018352826103e9565b51902084613dc7565b604080516001600160a01b03909216602083019081529261076b9183908101610fc1565b90816116e3575b506116de57600090565b600190565b6116ed91506116f4565b15386116d4565b6116ff60ff91611192565b54166116de57600090565b90600182811c9216801561173a575b602083101461172457565b634e487b7160e01b600052602260045260246000fd5b91607f1691611719565b916117609183549060031b600019811b9283911b169119161790565b9055565b81811061176f575050565b60008155600101611764565b9190601f811161178a57505050565b611438926000526020600020906020601f840160051c830193106117b6575b601f0160051c0190611764565b90915081906117a9565b919091825167ffffffffffffffff811161188f575b6117e9816117e3845461170a565b8461177b565b602080601f8311600114611824575081929394600092611819575b50506000198260011b9260031b1c1916179055565b015190503880611804565b90601f1983169561183a85600052602060002090565b926000905b8882106118775750508360019596971061185e575b505050811b019055565b015160001960f88460031b161c19169055388080611854565b8060018596829496860151815501950193019061183f565b611897610395565b6117d5565b50634e487b7160e01b600052601160045260246000fd5b60019060001981146118c3570190565b6118cb61189c565b0190565b9060206104a9928181520190610917565b9060405191828154918282526020928383019160005283600020936000905b82821061191557505050611438925003836103e9565b8554845260019586019588955093810193909101906118ff565b80546001825580600110611941575050565b61143891600052600160206000209182019101611764565b906119638261192f565b906000526020908160002060005b6001811061197f5750505050565b82518282015591830191600101611971565b50634e487b7160e01b600052603260045260246000fd5b60209181518110156119bd575b60051b010190565b6119c5611991565b6119b5565b80548210156119e3575b60005260206000200190600090565b6119eb611991565b6119d4565b611a176117609180549068010000000000000000821015611a30575b6001820181556119ca565b819391549060031b600019811b9283911b169119161790565b611a38610395565b611a0c565b9081602091031261000e57516104a981610ab9565b60209067ffffffffffffffff8111611a6c575b60051b0190565b611a74610395565b611a65565b602090818184031261000e5780519067ffffffffffffffff821161000e57019180601f8401121561000e578251611aaf81611a52565b93611abd60405195866103e9565b818552838086019260051b82010192831161000e578301905b828210611ae4575050505090565b8380918351611af2816104fa565b815201910190611ad6565b90602090818382031261000e57825167ffffffffffffffff9384821161000e57019281601f8501121561000e578351611b3581611a52565b94611b4360405196876103e9565b818652848087019260051b82010193841161000e578401905b838210611b6b57505050505090565b8151838116810361000e578152908401908401611b5c565b909192816002611b9d826000526002602052604060002090565b015403611f4b57611bc0611bbb836000526002602052604060002090565b6118e0565b9160005b8351811015611c575784611bd882866119a8565b5114611bec57611be7906118b3565b611bc4565b60405162461bcd60e51b815260206004820152602160248201527f436f6e666c6963743a204b657920616c72656164792068617320707572706f7360448201527f65000000000000000000000000000000000000000000000000000000000000006064820152608490fd5b5091509192611c748461067f846000526002602052604060002090565b611c8c8261067f866000526003602052604060002090565b60408051946000928082867f480000bb1edad8ca1470381cc334b1917fbd51c6531f3a623ea8e0ec7e38a6e98780a4611ccf61032285546001600160a01b031690565b90631645536f60e11b8852602060049881818b81875afa908115611f3e575b8791611f11575b5015611f04576001600160a01b03908551630fffbaf360e01b815281818c81885afa918215611ef7575b8892611eda575b50501692888686519463e061646b60e01b865281868481845afa958615611ecd575b8296611ea9575b50875192838092637b6b91c760e01b82525afa908115611e9c575b8791611e7a575b50865b8451811015611e6b57611d98611d8a82846119a8565b5167ffffffffffffffff1690565b611db2611da583886119a8565b516001600160a01b031690565b90873b15611e675788517f9dd323a000000000000000000000000000000000000000000000000000000000815267ffffffffffffffff909116818e019081526001600160a01b039092166020830152604082018b90526060820185905260808201869052611e3c92918a908290819060a0010381838c5af18015611e5a575b611e41575b506118b3565b611d74565b80611e4e611e54926103ac565b806108e9565b38611e36565b611e626112bf565b611e31565b8980fd5b50600199505050505050505050565b611e9691503d8089833e611e8e81836103e9565b810190611afd565b38611d71565b611ea46112bf565b611d6a565b611ec69196503d8084833e611ebe81836103e9565b810190611a79565b9438611d4f565b611ed56112bf565b611d48565b611ef09250803d106103815761037381836103e9565b3880611d26565b611eff6112bf565b611d1f565b5060019750505050505050565b611f319150823d8411611f37575b611f2981836103e9565b810190611a3d565b38611cf5565b503d611f1f565b611f466112bf565b611cee565b9192816002611f64826000526002602052604060002090565b0155611f8d611f7161040c565b858152611f88846000526002602052604060002090565b611959565b806001611fa4846000526002602052604060002090565b0155611c74565b6104a990611fc5600160ff60075460081c16151514611239565b61229c565b15611fd157565b608460405162461bcd60e51b815260206004820152602760248201527f43616e6e6f7420617070726f76652061206e6f6e2d6578697374696e6720657860448201527f65637574696f6e000000000000000000000000000000000000000000000000006064820152fd5b1561204257565b606460405162461bcd60e51b815260206004820152601860248201527f5265717565737420616c726561647920657865637574656400000000000000006044820152fd5b1561208d57565b606460405162461bcd60e51b815260206004820152601f60248201527f53656e64657220646f6573206e6f74206861766520616374696f6e206b6579006044820152fd5b156120d857565b608460405162461bcd60e51b815260206004820152602360248201527f53656e64657220646f6573206e6f742068617665206d616e6167656d656e742060448201527f6b657900000000000000000000000000000000000000000000000000000000006064820152fd5b6000929181546121518161170a565b926001918083169081156121aa575060011461216e575b50505050565b90919293945060005260209081600020906000915b8583106121995750505050019038808080612168565b805485840152918301918101612183565b60ff1916845250505081151590910201915038808080612168565b3d156121f0573d906121d68261042c565b916121e460405193846103e9565b82523d6000602084013e565b606090565b90600092918054916122068361170a565b91828252600193848116908160001461226757506001146122275750505050565b90919394506000526020928360002092846000945b838610612253575050505001019038808080612168565b80548587018301529401938590820161223c565b915050602094955060ff199193501683830152151560051b01019038808080612168565b9060206104a99281815201906121f5565b6122a96001548210611fca565b6122d86122d361055f60036122c8856000526004602052604060002090565b015460081c60ff1690565b61203b565b6122fc6122ef826000526004602052604060002090565b546001600160a01b031690565b6001600160a01b0391908216300361252d576040805133602082019081526123359261233092906102f190829081016102e3565b6120d1565b807fb3932da477fe5d6c8ff2eafef050c0f3a1af18fc07121001482600f36f3715d86040518061236a81906001602083019252565b0390a26123946003612386836000526004602052604060002090565b01600160ff19825416179055565b6000806123ae6122ef846000526004602052604060002090565b6123ec60016123c7866000526004602052604060002090565b015460026123df876000526004602052604060002090565b0160405192838092612142565b03925af16123f86121c5565b50156124aa576124276003612417836000526004602052604060002090565b0161010061ff0019825416179055565b61243e6122ef826000526004602052604060002090565b907f1f920dbda597d7bf95035464170fa58d0a4b57f13a1c315ace6793b9f63688b86001612476836000526004602052604060002090565b015493600261248f846000526004602052604060002090565b01936124a260405192839216958261228b565b0390a4600190565b6124c16122ef826000526004602052604060002090565b907fe10c49d9f7c71da23262367013434763cfdb2332267641728d25cd712c5c6a6860016124f9836000526004602052604060002090565b0154936002612512846000526004602052604060002090565b019361252560405192839216958261228b565b0390a4600090565b60408051336020820190815261255c92612557929061254f90829081016102e3565b519020613c9b565b612086565b612335565b9060019161257183548210611fca565b6125906122d361055f60036122c8856000526004602052604060002090565b826125a86122ef836000526004602052604060002090565b6001600160a01b03939084163003612786576040805133602082019081526125dc9261233092906102f190829081016102e3565b604051811515815283907fb3932da477fe5d6c8ff2eafef050c0f3a1af18fc07121001482600f36f3715d890602090a21515036127595761262c6003612386836000526004602052604060002090565b6000806126466122ef846000526004602052604060002090565b61265e866123c7866000526004602052604060002090565b03925af161266a6121c5565b5015612709576126896003612417836000526004602052604060002090565b6126a06122ef826000526004602052604060002090565b907f1f920dbda597d7bf95035464170fa58d0a4b57f13a1c315ace6793b9f63688b8846126d7836000526004602052604060002090565b01549360026126f0846000526004602052604060002090565b019361270360405192839216958261228b565b0390a490565b7fe10c49d9f7c71da23262367013434763cfdb2332267641728d25cd712c5c6a686127446122ef839594956000526004602052604060002090565b926124f9836000526004602052604060002090565b612781925060039150612776906000526004602052604060002090565b0160ff198154169055565b600090565b6040805133602082019081526127a892612557929061254f90829081016102e3565b6125dc565b156127b457565b608460405162461bcd60e51b815260206004820152602160248201527f4e6f6e4578697374696e673a204b65792069736e27742072656769737465726560448201527f64000000000000000000000000000000000000000000000000000000000000006064820152fd5b90600019820191821161282d57565b61143861189c565b81519167ffffffffffffffff83116128c3575b6801000000000000000083116128b6575b8154838355808410612898575b50602080910191600052806000209060005b848110612886575050505050565b83518382015592810192600101612878565b6128b090836000528460206000209182019101611764565b38612866565b6128be610395565b612859565b6128cb610395565b612848565b80549081156128fa57600019809201916128ea83836119ca565b909182549160031b1b1916905555565b634e487b7160e01b600052603160045260246000fd5b600260009180548382558061292b575b508260018201550155565b8184526020842061293e91810190611764565b38612920565b9161296783600261295f826000526002602052604060002090565b0154146127ad565b61297e611bbb846000526002602052604060002090565b9260005b8361298d82876119a8565b5114612a165761299c906118b3565b92838551146129ab5792612982565b60405162461bcd60e51b815260206004820152602a60248201527f4e6f6e4578697374696e673a204b657920646f65736e2774206861766520737560448201527f636820707572706f7365000000000000000000000000000000000000000000006064820152608490fd5b9390929193612a39612a31612a2b845161281e565b846119a8565b5191836119a8565b52612a5781612a52856000526002602052604060002090565b612835565b612a73612a6e846000526002602052604060002090565b6128d0565b600082815260036020526040812054905b84612aaf612aa583612aa0886000526003602052604060002090565b6119ca565b90549060031b1c90565b14612e1f57612abd906118b3565b818110612a8457612b0a612af5612aa5612b10945b612aef612ae9896000526003602052604060002090565b9161281e565b906119ca565b91612aa0866000526003602052604060002090565b90611744565b612b27612a6e836000526003602052604060002090565b6001928391612b4d83612b44846000526002602052604060002090565b0154915161281e565b15612dfe575b60409081519085847f585a4aef50f8267a92b32412b331b20f7f8b96f2245b253b9cc50dcc621d3397600080a4612b956103226000546001600160a01b031690565b94631645536f60e11b82526020600492818185818b5afa908115612df1575b600091612dd4575b50612bcc575b5050505050505090565b6001600160a01b03908451630fffbaf360e01b8152818186818c5afa918215612dc7575b600092612daa575b5050169083519663e061646b60e01b88526000888581845afa978815612d9d575b600098612d7d575b5060008491865192838092637b6b91c760e01b82525afa908115612d70575b600091612d57575b506000875b612c59575b5050612bc2565b8851811015612d525783612c73610322611da5848d6119a8565b03612c88575b612c82906118b3565b87612c4d565b9650612c97611d8a88836119a8565b612ca4611da5898b6119a8565b97843b1561000e5786517ff82f1a4300000000000000000000000000000000000000000000000000000000815267ffffffffffffffff9092168287019081526001600160a01b0390991660208a01523060408a015260608901889052608089018490528a98612c8292906000908290819060a0010381838a5af18015612d45575b612d32575b509050612c79565b80611e4e612d3f926103ac565b38612d2a565b612d4d6112bf565b612d25565b612c52565b612d6a913d8091833e611e8e81836103e9565b38612c48565b612d786112bf565b612c40565b612d9560009186939a3d8091833e611ebe81836103e9565b989150612c21565b612da56112bf565b612c19565b612dc09250803d106103815761037381836103e9565b3880612bf8565b612dcf6112bf565b612bf0565b612deb9150823d8411611f3757611f2981836103e9565b38612bbc565b612df96112bf565b612bb4565b612e1a612e15836000526002602052604060002090565b612910565b612b53565b612b0a612af5612aa5612b1094612ad2565b906104a99594939291612e50600160ff60075460081c16151514611239565b3033148015612e99575b8015612e6f575b612e6a90612f12565b6130a0565b50604080513360208201908152612e6a92612e92929061076b90829081016102e3565b9050612e61565b506001600160a01b0360046020612ebb6103226000546001600160a01b031690565b60405192838092630fffbaf360e01b82525afa908115612f05575b600091612ee7575b50163314612e5a565b612eff915060203d81116103815761037381836103e9565b38612ede565b612f0d6112bf565b612ed6565b15612f1957565b608460405162461bcd60e51b815260206004820152603260248201527f5065726d697373696f6e733a2053656e64657220646f6573206e6f742068617660448201527f6520636c61696d207369676e6572206b657900000000000000000000000000006064820152fd5b926104a994926001600160a01b03612fae931685526020850152608060408501526080840190610917565b916060818403910152610917565b15612fc357565b606460405162461bcd60e51b815260206004820152600d60248201527f696e76616c696420636c61696d000000000000000000000000000000000000006044820152fd5b926130276104a99593612fae938652608060208701526080860190610917565b908482036040860152610917565b969394613092956130849467ffffffffffffffff6104a99b999594168a526001600160a01b0380941660208b015260408a015260608901521660808701526101008060a0880152860190610917565b9084820360c0860152610917565b9160e0818403910152610917565b91946001600160a01b0391828716943086036134cc575b604080516001600160a01b038a166020808301918252828401899052838352929592938a929091906130ea6060826103e9565b5190209a886131038d6000526005602052604060002090565b55600199828d888d61311f836000526005602052604060002090565b0155613135906000526005602052604060002090565b60030190613142916117c0565b848d60049d8e61315c836000526005602052604060002090565b0190613167916117c0565b61317b906000526005602052604060002090565b60050190613188916117c0565b898d86858a888d876131a4876000526005602052604060002090565b600201546001600160a01b0316146134935793613242917f46149b18aa084502c3f12bc75e19eda8bda8d102b82cce8474677a6d0d5f43c5956131f58861067f8b6000526006602052604060002090565b6132388b600261320f8b6000526005602052604060002090565b01906001600160a01b031673ffffffffffffffffffffffffffffffffffffffff19825416179055565b5194859485613007565b0390a45b60009761325d6103228a546001600160a01b031690565b958c818a518092631645536f60e11b8252818b5afa908115613486575b8b91613469575b50613297575b5050505050505050505050505090565b8851630fffbaf360e01b815281818f818b5afa91821561345c575b8b9261343f575b505016958b8989519763e061646b60e01b895281898481845afa988915613432575b8299613416575b508a5192838092637b6b91c760e01b82525afa908115613409575b8a916133ef575b50898c5b613313575b50613287565b87518110156133ea578861332d610322611da5848c6119a8565b03613342575b61333c906118b3565b8c613308565b61334f611d8a82846119a8565b61335c611da5838b6119a8565b908a3b156133e6578f61333c93928f928f92908f8f926133ae8f8f8f8f8f8b97519c8d9b8c9a8b997fe1d50193000000000000000000000000000000000000000000000000000000008b528a01613035565b03925af180156133d9575b6133c6575b509050613333565b80611e4e6133d3926103ac565b386133be565b6133e16112bf565b6133b9565b8c80fd5b61330d565b61340391503d808c833e611e8e81836103e9565b38613304565b6134116112bf565b6132fd565b61342b9199503d8084833e611ebe81836103e9565b97386132e2565b61343a6112bf565b6132db565b6134559250803d106103815761037381836103e9565b38806132b9565b6134646112bf565b6132b2565b6134809150823d8411611f3757611f2981836103e9565b38613281565b61348e6112bf565b61327a565b936134c4917f3bab293fc00db832d7619a9299914251b8747c036867ec056cbd506f60135b13955194859485613007565b0390a4613246565b6135246040517fc0969a6e000000000000000000000000000000000000000000000000000000008152602081806135098c878c3060048601612f83565b03818b5afa908115613547575b600091613529575b50612fbc565b6130b7565b613541915060203d8111611f3757611f2981836103e9565b3861351e565b61354f6112bf565b613516565b926135746104a995936135829386526080602087015260808601906121f5565b9084820360408601526121f5565b9160608184039101526121f5565b61359a815461170a565b90816135a4575050565b81601f600093116001146135b6575055565b818352602083206135d291601f0160051c810190600101611764565b8160208120915555565b60056000918281558260018201558260028201556135fc60038201613590565b61360860048201613590565b01613613815461170a565b8061361d57505050565b601f81116001146135b6575055565b613640816000526005602052604060002090565b548015613a4257600081815260066020526040812054905b83613674612aa583612aa0876000526006602052604060002090565b14613a3057613682906118b3565b81811061365857612b0a6136ae612aa56136c3945b612aef612ae9886000526006602052604060002090565b91612aa0856000526006602052604060002090565b6136da612a6e826000526006602052604060002090565b600182816136f381956000526005602052604060002090565b01549261371d600261370f846000526005602052604060002090565b01546001600160a01b031690565b906003613734846000526005602052604060002090565b0194600491847f3cf57863a89432c61c4a27073c6ee39e8a764bff5a05aebfbcdcdc80b2e6130a84613770836000526005602052604060002090565b016005613787846000526005602052604060002090565b01996137a660409b8c519384936001600160a01b03809c169985613554565b0390a46137c56137c0846000526005602052604060002090565b6135dc565b6137da6103226000546001600160a01b031690565b918551631645536f60e11b815260209081818581885afa908115613a23575b600091613a06575b50613810575050505050505090565b8651630fffbaf360e01b815281818581885afa9182156139f9575b6000926139dc575b50501685519263e061646b60e01b84526000848481845afa9384156139cf575b6000946139af575b5060008391885192838092637b6b91c760e01b82525afa9081156139a2575b600091613989575b506000865b613892575b50612bc2565b845181101561398457826138ac610322611da584896119a8565b036138c1575b6138bb906118b3565b86613887565b95506138d0611d8a87836119a8565b956138de611da582876119a8565b90833b1561000e5788517f9f9b264100000000000000000000000000000000000000000000000000000000815267ffffffffffffffff9098168589019081526001600160a01b0390921660208301523060408301526060820187905289976138bb9260009082908190608001038183895af18015613977575b613964575b5090506138b2565b80611e4e613971926103ac565b3861395c565b61397f6112bf565b613957565b61388c565b61399c913d8091833e611e8e81836103e9565b38613882565b6139aa6112bf565b61387a565b6139c76000918593963d8091833e611ebe81836103e9565b94915061385b565b6139d76112bf565b613853565b6139f29250803d106103815761037381836103e9565b3880613833565b613a016112bf565b61382b565b613a1d9150823d8411611f3757611f2981836103e9565b38613801565b613a2b6112bf565b6137f9565b612b0a6136ae612aa56136c394613697565b60405162461bcd60e51b815260206004820152602b60248201527f4e6f6e4578697374696e673a205468657265206973206e6f20636c61696d207760448201527f69746820746869732049440000000000000000000000000000000000000000006064820152608490fd5b90611438613ac192604051938480926121f5565b03836103e9565b60005260026020526040600020604051613ae1816103cd565b613aea826118e0565b81526002600192838101546020840152015480604083015215613b5e57600090825b613b19575b505050600090565b8051918251811015613b585783613b318282956119a8565b51148015613b53575b613b4d57613b47906118b3565b91613b0c565b50505090565b613b3a565b50613b11565b5050600090565b60005260026020526040600020604051613b7e816103cd565b613b87826118e0565b81526002600192838101546020840152015480604083015215613b5e57600090825b613bb557505050600090565b8051918251811015613b5857613bcc8185946119a8565b51838114908115613bec575b50613b4d57613be6906118b3565b91613ba9565b600391501438613bd8565b60005260028060205260406000209060405190613c13826103cd565b613c1c836118e0565b825280600193848101546020850152015480604084015215613b1157600091835b613c4b575b50505050600090565b8051928351811015613c9557613c628186956119a8565b5183858214918215613c8b575b5050613c8457613c7e906118b3565b92613c3d565b5050505090565b1490508338613c6f565b50613c42565b60005260028060205260406000209060405190613cb7826103cd565b613cc0836118e0565b825280600193848101546020850152015480604084015215613b1157600091835b613cee5750505050600090565b8051928351811015613c9557613d058186956119a8565b5183858214918215613d27575b5050613c8457613d21906118b3565b92613ce1565b1490508338613d12565b600052600260205260406000209060405190613d4c826103cd565b613d55836118e0565b82526002600193848101546020850152015480604084015215613b1157600091835b613d845750505050600090565b8051928351811015613c9557613d9b8186956119a8565b5183858214918215613dbd575b5050613c8457613db7906118b3565b92613d77565b1490508338613da8565b906000916041815103613e46576000918160209460ff8660809501519160606040850151940151901a601b8110613e2e575b60405194855216868401526040830152606082015282805260015afa15613e21575b60005190565b613e296112bf565b613e1b565b601b0181811115613df957613e4161189c565b613df9565b505090565b15613e5257565b606460405162461bcd60e51b815260206004820152601e60248201527f496e697469616c206b65792077617320616c72656164792073657475702e00006044820152fd5b90613ea08261192f565b906000526020908160002060005b60018110613ebc5750505050565b825160ff168282015591830191600101613eae56fea26469706673582212209f9ca4be651d74259c795461c7a5bceaff808d030c5ec8f7c70e31e6ed6f6a3964736f6c63430008110033",
  "devdoc": {
    "kind": "dev",
    "methods": {
      "addClaim(uint256,uint256,address,bytes,bytes,string)": {
        "details": "See {IERC735-addClaim}.",
        "params": {
          "_data": "The hash of the claim data, sitting in another location, a bit-mask, call data, or actual data based on the claim scheme.",
          "_issuer": "The issuers identity contract address, or the address used to sign the above signature.",
          "_scheme": "The scheme with which this claim SHOULD be verified or how it should be processed.",
          "_signature": "Signature which is the proof that the claim issuer issued a claim of topic for this identity. it MUST be a signed message of the following structure: keccak256(abi.encode(address identityHolder_address, uint256 _ topic, bytes data))",
          "_topic": "The type of claim",
          "_uri": "The location of the claim, this can be HTTP links, swarm hashes, IPFS hashes, and such."
        },
        "returns": {
          "claimRequestId": "Returns claimRequestId: COULD be send to the approve function, to approve or reject this claim. triggers ClaimAdded event."
        }
      },
      "addKey(bytes32,uint256,uint256)": {
        "params": {
          "_key": "keccak256 representation of an ethereum address",
          "_purpose": "a uint256 specifying the key type, like 1 = MANAGEMENT, 2 = ACTION, 3 = CLAIM, 4 = ENCRYPTION",
          "_type": "type of key used, which would be a uint256 for different key types. e.g. 1 = ECDSA, 2 = RSA, etc."
        },
        "returns": {
          "success": "Returns TRUE if the addition was successful and FALSE if not"
        }
      },
      "approve(uint256,bool)": {
        "details": "See {IERC734-approve}."
      },
      "execute(address,uint256,bytes)": {
        "details": "See {IERC734-execute}.",
        "returns": {
          "executionId": "to use in the approve function, to approve or reject this execution."
        }
      },
      "getClaim(bytes32)": {
        "details": "See {IERC735-getClaim}.",
        "params": {
          "_claimId": "The identity of the claim i.e. keccak256(abi.encode(_issuer, _topic))"
        },
        "returns": {
          "data": "Returns all the parameters of the claim for the specified _claimId (topic, scheme, signature, issuer, data, uri) .",
          "issuer": "Returns all the parameters of the claim for the specified _claimId (topic, scheme, signature, issuer, data, uri) .",
          "scheme": "Returns all the parameters of the claim for the specified _claimId (topic, scheme, signature, issuer, data, uri) .",
          "signature": "Returns all the parameters of the claim for the specified _claimId (topic, scheme, signature, issuer, data, uri) .",
          "topic": "Returns all the parameters of the claim for the specified _claimId (topic, scheme, signature, issuer, data, uri) .",
          "uri": "Returns all the parameters of the claim for the specified _claimId (topic, scheme, signature, issuer, data, uri) ."
        }
      },
      "getClaimIdsByTopic(uint256)": {
        "details": "See {IERC735-getClaimIdsByTopic}.",
        "params": {
          "_topic": "The identity of the claim i.e. keccak256(abi.encode(_issuer, _topic))"
        },
        "returns": {
          "claimIds": "Returns an array of claim IDs by topic."
        }
      },
      "getKey(bytes32)": {
        "details": "See {IERC734-getKey}.",
        "params": {
          "_key": "The public key.  for non-hex and long keys, its the Keccak256 hash of the key"
        },
        "returns": {
          "key": "Returns the full key data, if present in the identity.",
          "keyType": "Returns the full key data, if present in the identity.",
          "purposes": "Returns the full key data, if present in the identity."
        }
      },
      "getKeyPurposes(bytes32)": {
        "details": "See {IERC734-getKeyPurposes}.",
        "params": {
          "_key": "The public key.  for non-hex and long keys, its the Keccak256 hash of the key"
        },
        "returns": {
          "_purposes": "Returns the purposes of the specified key"
        }
      },
      "getKeysByPurpose(uint256)": {
        "details": "See {IERC734-getKeysByPurpose}.",
        "params": {
          "_purpose": "a uint256[] Array of the key types, like 1 = MANAGEMENT, 2 = ACTION, 3 = CLAIM, 4 = ENCRYPTION"
        },
        "returns": {
          "keys": "Returns an array of public key bytes32 hold by this identity and having the specified purpose"
        }
      },
      "getRecoveredAddress(bytes,bytes32)": {
        "details": "returns the address that signed the given data",
        "params": {
          "dataHash": "the data that was signed returns the address that signed dataHash and created the signature sig",
          "sig": "the signature of the data"
        }
      },
      "initialize(address,address)": {
        "params": {
          "initialManagementKey": "The ethereum address to be set as the management key of the ONCHAINID."
        }
      },
      "isClaimRevoked(bytes)": {
        "details": "See {IClaimIssuer-isClaimRevoked}."
      },
      "isClaimValid(address,uint256,bytes,bytes)": {
        "details": "See {IClaimIssuer-isClaimValid}."
      },
      "keyHasPurpose(bytes32,uint256)": {
        "details": "See {IERC734-keyHasPurpose}."
      },
      "removeClaim(bytes32)": {
        "details": "See {IERC735-removeClaim}.",
        "params": {
          "_claimId": "The identity of the claim i.e. keccak256(abi.encode(_issuer, _topic))"
        },
        "returns": {
          "success": "Returns TRUE when the claim was removed. triggers ClaimRemoved event"
        }
      },
      "removeKey(bytes32,uint256)": {
        "details": "See {IERC734-removeKey}."
      },
      "revokeClaim(bytes32,address)": {
        "details": "See {IClaimIssuer-revokeClaim}."
      },
      "revokeClaimBySignature(bytes)": {
        "details": "See {IClaimIssuer-revokeClaimBySignature}."
      },
      "version()": {
        "details": "Returns the string of the current version."
      }
    },
    "version": 1
  },
  "userdoc": {
    "kind": "user",
    "methods": {
      "addClaim(uint256,uint256,address,bytes,bytes,string)": {
        "notice": "Implementation of the addClaim function from the ERC-735 standard  Require that the msg.sender has claim signer key."
      },
      "addKey(bytes32,uint256,uint256)": {
        "notice": "implementation of the addKey function of the ERC-734 standard Adds a _key to the identity. The _purpose specifies the purpose of key. Initially we propose four purposes: 1: MANAGEMENT keys, which can manage the identity 2: ACTION keys, which perform actions in this identities name (signing, logins, transactions, etc.) 3: CLAIM signer keys, used to sign claims on other identities which need to be revokable. 4: ENCRYPTION keys, used to encrypt data e.g. hold in claims. MUST only be done by keys of purpose 1, or the identity itself. If its the identity itself, the approval process will determine its approval."
      },
      "approve(uint256,bool)": {
        "notice": "Approves an execution.  If the sender is an ACTION key and the destination address is not the identity contract itself, then the  approval is authorized and the operation would be performed.  If the destination address is the identity itself, then the execution would be authorized and performed only  if the sender is a MANAGEMENT key."
      },
      "execute(address,uint256,bytes)": {
        "notice": "Passes an execution instruction to the keymanager. If the sender is an ACTION key and the destination address is not the identity contract itself, then the execution is immediately approved and performed. If the destination address is the identity itself, then the execution would be performed immediately only if the sender is a MANAGEMENT key. Otherwise the execution request must be approved via the `approve` method."
      },
      "getClaim(bytes32)": {
        "notice": "Implementation of the getClaim function from the ERC-735 standard."
      },
      "getClaimIdsByTopic(uint256)": {
        "notice": "Implementation of the getClaimIdsByTopic function from the ERC-735 standard. used to get all the claims from the specified topic"
      },
      "getKey(bytes32)": {
        "notice": "Implementation of the getKey function from the ERC-734 standard"
      },
      "getKeyPurposes(bytes32)": {
        "notice": "gets the purposes of a key"
      },
      "getKeysByPurpose(uint256)": {
        "notice": "gets all the keys with a specific purpose from an identity"
      },
      "initialize(address,address)": {
        "notice": "When using this contract as an implementation for a proxy, call this initializer with a delegatecall."
      },
      "keyHasPurpose(bytes32,uint256)": {
        "notice": "Returns true if the key has MANAGEMENT purpose or the specified purpose."
      },
      "removeClaim(bytes32)": {
        "notice": "Implementation of the removeClaim function from the ERC-735 standard Require that the msg.sender has management key. Can only be removed by the claim issuer, or the claim holder itself."
      },
      "removeKey(bytes32,uint256)": {
        "notice": "Remove the purpose from a key."
      }
    },
    "version": 1
  },
  "storageLayout": {
    "storage": [
      {
        "astId": 15850,
        "contract": "src/ClaimIssuer.sol:ClaimIssuer",
        "label": "idFactory",
        "offset": 0,
        "slot": "0",
        "type": "t_contract(IdFactory)14823"
      },
      {
        "astId": 15852,
        "contract": "src/ClaimIssuer.sol:ClaimIssuer",
        "label": "_executionNonce",
        "offset": 0,
        "slot": "1",
        "type": "t_uint256"
      },
      {
        "astId": 15857,
        "contract": "src/ClaimIssuer.sol:ClaimIssuer",
        "label": "_keys",
        "offset": 0,
        "slot": "2",
        "type": "t_mapping(t_bytes32,t_struct(Key)15899_storage)"
      },
      {
        "astId": 15862,
        "contract": "src/ClaimIssuer.sol:ClaimIssuer",
        "label": "_keysByPurpose",
        "offset": 0,
        "slot": "3",
        "type": "t_mapping(t_uint256,t_array(t_bytes32)dyn_storage)"
      },
      {
        "astId": 15867,
        "contract": "src/ClaimIssuer.sol:ClaimIssuer",
        "label": "_executions",
        "offset": 0,
        "slot": "4",
        "type": "t_mapping(t_uint256,t_struct(Execution)15910_storage)"
      },
      {
        "astId": 15872,
        "contract": "src/ClaimIssuer.sol:ClaimIssuer",
        "label": "_claims",
        "offset": 0,
        "slot": "5",
        "type": "t_mapping(t_bytes32,t_struct(Claim)15923_storage)"
      },
      {
        "astId": 15877,
        "contract": "src/ClaimIssuer.sol:ClaimIssuer",
        "label": "_claimsByTopic",
        "offset": 0,
        "slot": "6",
        "type": "t_mapping(t_uint256,t_array(t_bytes32)dyn_storage)"
      },
      {
        "astId": 15880,
        "contract": "src/ClaimIssuer.sol:ClaimIssuer",
        "label": "_initialized",
        "offset": 0,
        "slot": "7",
        "type": "t_bool"
      },
      {
        "astId": 15883,
        "contract": "src/ClaimIssuer.sol:ClaimIssuer",
        "label": "_canInteract",
        "offset": 1,
        "slot": "7",
        "type": "t_bool"
      },
      {
        "astId": 15888,
        "contract": "src/ClaimIssuer.sol:ClaimIssuer",
        "label": "__gap",
        "offset": 0,
        "slot": "8",
        "type": "t_array(t_uint256)49_storage"
      },
      {
        "astId": 10452,
        "contract": "src/ClaimIssuer.sol:ClaimIssuer",
        "label": "revokedClaims",
        "offset": 0,
        "slot": "57",
        "type": "t_mapping(t_bytes_memory_ptr,t_bool)"
      }
    ],
    "types": {
      "t_address": {
        "encoding": "inplace",
        "label": "address",
        "numberOfBytes": "20"
      },
      "t_array(t_bytes32)dyn_storage": {
        "base": "t_bytes32",
        "encoding": "dynamic_array",
        "label": "bytes32[]",
        "numberOfBytes": "32"
      },
      "t_array(t_uint256)49_storage": {
        "base": "t_uint256",
        "encoding": "inplace",
        "label": "uint256[49]",
        "numberOfBytes": "1568"
      },
      "t_array(t_uint256)dyn_storage": {
        "base": "t_uint256",
        "encoding": "dynamic_array",
        "label": "uint256[]",
        "numberOfBytes": "32"
      },
      "t_bool": {
        "encoding": "inplace",
        "label": "bool",
        "numberOfBytes": "1"
      },
      "t_bytes32": {
        "encoding": "inplace",
        "label": "bytes32",
        "numberOfBytes": "32"
      },
      "t_bytes_memory_ptr": {
        "encoding": "bytes",
        "label": "bytes",
        "numberOfBytes": "32"
      },
      "t_bytes_storage": {
        "encoding": "bytes",
        "label": "bytes",
        "numberOfBytes": "32"
      },
      "t_contract(IdFactory)14823": {
        "encoding": "inplace",
        "label": "contract IdFactory",
        "numberOfBytes": "20"
      },
      "t_mapping(t_bytes32,t_struct(Claim)15923_storage)": {
        "encoding": "mapping",
        "key": "t_bytes32",
        "label": "mapping(bytes32 => struct Structs.Claim)",
        "numberOfBytes": "32",
        "value": "t_struct(Claim)15923_storage"
      },
      "t_mapping(t_bytes32,t_struct(Key)15899_storage)": {
        "encoding": "mapping",
        "key": "t_bytes32",
        "label": "mapping(bytes32 => struct Structs.Key)",
        "numberOfBytes": "32",
        "value": "t_struct(Key)15899_storage"
      },
      "t_mapping(t_bytes_memory_ptr,t_bool)": {
        "encoding": "mapping",
        "key": "t_bytes_memory_ptr",
        "label": "mapping(bytes => bool)",
        "numberOfBytes": "32",
        "value": "t_bool"
      },
      "t_mapping(t_uint256,t_array(t_bytes32)dyn_storage)": {
        "encoding": "mapping",
        "key": "t_uint256",
        "label": "mapping(uint256 => bytes32[])",
        "numberOfBytes": "32",
        "value": "t_array(t_bytes32)dyn_storage"
      },
      "t_mapping(t_uint256,t_struct(Execution)15910_storage)": {
        "encoding": "mapping",
        "key": "t_uint256",
        "label": "mapping(uint256 => struct Structs.Execution)",
        "numberOfBytes": "32",
        "value": "t_struct(Execution)15910_storage"
      },
      "t_string_storage": {
        "encoding": "bytes",
        "label": "string",
        "numberOfBytes": "32"
      },
      "t_struct(Claim)15923_storage": {
        "encoding": "inplace",
        "label": "struct Structs.Claim",
        "members": [
          {
            "astId": 15912,
            "contract": "src/ClaimIssuer.sol:ClaimIssuer",
            "label": "topic",
            "offset": 0,
            "slot": "0",
            "type": "t_uint256"
          },
          {
            "astId": 15914,
            "contract": "src/ClaimIssuer.sol:ClaimIssuer",
            "label": "scheme",
            "offset": 0,
            "slot": "1",
            "type": "t_uint256"
          },
          {
            "astId": 15916,
            "contract": "src/ClaimIssuer.sol:ClaimIssuer",
            "label": "issuer",
            "offset": 0,
            "slot": "2",
            "type": "t_address"
          },
          {
            "astId": 15918,
            "contract": "src/ClaimIssuer.sol:ClaimIssuer",
            "label": "signature",
            "offset": 0,
            "slot": "3",
            "type": "t_bytes_storage"
          },
          {
            "astId": 15920,
            "contract": "src/ClaimIssuer.sol:ClaimIssuer",
            "label": "data",
            "offset": 0,
            "slot": "4",
            "type": "t_bytes_storage"
          },
          {
            "astId": 15922,
            "contract": "src/ClaimIssuer.sol:ClaimIssuer",
            "label": "uri",
            "offset": 0,
            "slot": "5",
            "type": "t_string_storage"
          }
        ],
        "numberOfBytes": "192"
      },
      "t_struct(Execution)15910_storage": {
        "encoding": "inplace",
        "label": "struct Structs.Execution",
        "members": [
          {
            "astId": 15901,
            "contract": "src/ClaimIssuer.sol:ClaimIssuer",
            "label": "to",
            "offset": 0,
            "slot": "0",
            "type": "t_address"
          },
          {
            "astId": 15903,
            "contract": "src/ClaimIssuer.sol:ClaimIssuer",
            "label": "value",
            "offset": 0,
            "slot": "1",
            "type": "t_uint256"
          },
          {
            "astId": 15905,
            "contract": "src/ClaimIssuer.sol:ClaimIssuer",
            "label": "data",
            "offset": 0,
            "slot": "2",
            "type": "t_bytes_storage"
          },
          {
            "astId": 15907,
            "contract": "src/ClaimIssuer.sol:ClaimIssuer",
            "label": "approved",
            "offset": 0,
            "slot": "3",
            "type": "t_bool"
          },
          {
            "astId": 15909,
            "contract": "src/ClaimIssuer.sol:ClaimIssuer",
            "label": "executed",
            "offset": 1,
            "slot": "3",
            "type": "t_bool"
          }
        ],
        "numberOfBytes": "128"
      },
      "t_struct(Key)15899_storage": {
        "encoding": "inplace",
        "label": "struct Structs.Key",
        "members": [
          {
            "astId": 15894,
            "contract": "src/ClaimIssuer.sol:ClaimIssuer",
            "label": "purposes",
            "offset": 0,
            "slot": "0",
            "type": "t_array(t_uint256)dyn_storage"
          },
          {
            "astId": 15896,
            "contract": "src/ClaimIssuer.sol:ClaimIssuer",
            "label": "keyType",
            "offset": 0,
            "slot": "1",
            "type": "t_uint256"
          },
          {
            "astId": 15898,
            "contract": "src/ClaimIssuer.sol:ClaimIssuer",
            "label": "key",
            "offset": 0,
            "slot": "2",
            "type": "t_bytes32"
          }
        ],
        "numberOfBytes": "96"
      },
      "t_uint256": {
        "encoding": "inplace",
        "label": "uint256",
        "numberOfBytes": "32"
      }
    }
  }
}