{
  "address": "0x764428E83357F1EaeE121b14AB87022C86D4cB65",
  "abi": [
    {
      "inputs": [
        {
          "internalType": "address",
          "name": "idFactoryAddress",
          "type": "address"
        },
        {
          "internalType": "address[]",
          "name": "signersToApprove",
          "type": "address[]"
        }
      ],
      "stateMutability": "nonpayable",
      "type": "constructor"
    },
    {
      "inputs": [
        {
          "internalType": "bytes",
          "name": "signature",
          "type": "bytes"
        }
      ],
      "name": "SignatureAlreadyRevoked",
      "type": "error"
    },
    {
      "inputs": [
        {
          "internalType": "bytes",
          "name": "signature",
          "type": "bytes"
        }
      ],
      "name": "SignatureNotRevoked",
      "type": "error"
    },
    {
      "inputs": [
        {
          "internalType": "address",
          "name": "signer",
          "type": "address"
        }
      ],
      "name": "SignerAlreadyApproved",
      "type": "error"
    },
    {
      "inputs": [
        {
          "internalType": "address",
          "name": "signer",
          "type": "address"
        }
      ],
      "name": "SignerAlreadyNotApproved",
      "type": "error"
    },
    {
      "inputs": [],
      "name": "TooManySigners",
      "type": "error"
    },
    {
      "inputs": [
        {
          "internalType": "address",
          "name": "signer",
          "type": "address"
        }
      ],
      "name": "UnapprovedSigner",
      "type": "error"
    },
    {
      "inputs": [],
      "name": "ZeroAddress",
      "type": "error"
    },
    {
      "anonymous": false,
      "inputs": [
        {
          "indexed": true,
          "internalType": "address",
          "name": "previousOwner",
          "type": "address"
        },
        {
          "indexed": true,
          "internalType": "address",
          "name": "newOwner",
          "type": "address"
        }
      ],
      "name": "OwnershipTransferred",
      "type": "event"
    },
    {
      "anonymous": false,
      "inputs": [
        {
          "indexed": true,
          "internalType": "bytes",
          "name": "signature",
          "type": "bytes"
        }
      ],
      "name": "SignatureApproved",
      "type": "event"
    },
    {
      "anonymous": false,
      "inputs": [
        {
          "indexed": true,
          "internalType": "bytes",
          "name": "signature",
          "type": "bytes"
        }
      ],
      "name": "SignatureRevoked",
      "type": "event"
    },
    {
      "anonymous": false,
      "inputs": [
        {
          "indexed": true,
          "internalType": "address",
          "name": "signer",
          "type": "address"
        }
      ],
      "name": "SignerApproved",
      "type": "event"
    },
    {
      "anonymous": false,
      "inputs": [
        {
          "indexed": true,
          "internalType": "address",
          "name": "signer",
          "type": "address"
        }
      ],
      "name": "SignerRevoked",
      "type": "event"
    },
    {
      "inputs": [
        {
          "internalType": "bytes",
          "name": "signature",
          "type": "bytes"
        }
      ],
      "name": "approveSignature",
      "outputs": [],
      "stateMutability": "nonpayable",
      "type": "function"
    },
    {
      "inputs": [
        {
          "internalType": "address",
          "name": "signer",
          "type": "address"
        }
      ],
      "name": "approveSigner",
      "outputs": [],
      "stateMutability": "nonpayable",
      "type": "function"
    },
    {
      "inputs": [
        {
          "internalType": "address",
          "name": "",
          "type": "address"
        }
      ],
      "name": "approvedSigners",
      "outputs": [
        {
          "internalType": "bool",
          "name": "",
          "type": "bool"
        }
      ],
      "stateMutability": "view",
      "type": "function"
    },
    {
      "inputs": [
        {
          "internalType": "bytes",
          "name": "data",
          "type": "bytes"
        }
      ],
      "name": "callFactory",
      "outputs": [],
      "stateMutability": "nonpayable",
      "type": "function"
    },
    {
      "inputs": [
        {
          "internalType": "address",
          "name": "identityOwner",
          "type": "address"
        },
        {
          "internalType": "string",
          "name": "salt",
          "type": "string"
        },
        {
          "internalType": "bytes32[]",
          "name": "managementKeys",
          "type": "bytes32[]"
        }
      ],
      "name": "deployIdentity",
      "outputs": [
        {
          "internalType": "address",
          "name": "",
          "type": "address"
        }
      ],
      "stateMutability": "nonpayable",
      "type": "function"
    },
    {
      "inputs": [
        {
          "internalType": "address",
          "name": "identityOwner",
          "type": "address"
        }
      ],
      "name": "deployIdentityForWallet",
      "outputs": [
        {
          "internalType": "address",
          "name": "",
          "type": "address"
        }
      ],
      "stateMutability": "nonpayable",
      "type": "function"
    },
    {
      "inputs": [
        {
          "internalType": "address",
          "name": "identityOwner",
          "type": "address"
        },
        {
          "internalType": "string",
          "name": "salt",
          "type": "string"
        }
      ],
      "name": "deployIdentityWithSalt",
      "outputs": [
        {
          "internalType": "address",
          "name": "",
          "type": "address"
        }
      ],
      "stateMutability": "nonpayable",
      "type": "function"
    },
    {
      "inputs": [
        {
          "internalType": "address",
          "name": "identityOwner",
          "type": "address"
        },
        {
          "internalType": "string",
          "name": "salt",
          "type": "string"
        },
        {
          "internalType": "bytes32[]",
          "name": "managementKeys",
          "type": "bytes32[]"
        }
      ],
      "name": "deployIdentityWithSaltAndManagementKeys",
      "outputs": [
        {
          "internalType": "address",
          "name": "",
          "type": "address"
        }
      ],
      "stateMutability": "nonpayable",
      "type": "function"
    },
    {
      "inputs": [],
      "name": "idFactory",
      "outputs": [
        {
          "internalType": "contract IdFactory",
          "name": "",
          "type": "address"
        }
      ],
      "stateMutability": "view",
      "type": "function"
    },
    {
      "inputs": [],
      "name": "owner",
      "outputs": [
        {
          "internalType": "address",
          "name": "",
          "type": "address"
        }
      ],
      "stateMutability": "view",
      "type": "function"
    },
    {
      "inputs": [],
      "name": "renounceOwnership",
      "outputs": [],
      "stateMutability": "nonpayable",
      "type": "function"
    },
    {
      "inputs": [
        {
          "internalType": "bytes",
          "name": "signature",
          "type": "bytes"
        }
      ],
      "name": "revokeSignature",
      "outputs": [],
      "stateMutability": "nonpayable",
      "type": "function"
    },
    {
      "inputs": [
        {
          "internalType": "address",
          "name": "signer",
          "type": "address"
        }
      ],
      "name": "revokeSigner",
      "outputs": [],
      "stateMutability": "nonpayable",
      "type": "function"
    },
    {
      "inputs": [
        {
          "internalType": "bytes",
          "name": "",
          "type": "bytes"
        }
      ],
      "name": "revokedSignatures",
      "outputs": [
        {
          "internalType": "bool",
          "name": "",
          "type": "bool"
        }
      ],
      "stateMutability": "view",
      "type": "function"
    },
    {
      "inputs": [
        {
          "internalType": "address",
          "name": "newOwner",
          "type": "address"
        }
      ],
      "name": "transferFactoryOwnership",
      "outputs": [],
      "stateMutability": "nonpayable",
      "type": "function"
    },
    {
      "inputs": [
        {
          "internalType": "address",
          "name": "newOwner",
          "type": "address"
        }
      ],
      "name": "transferOwnership",
      "outputs": [],
      "stateMutability": "nonpayable",
      "type": "function"
    }
  ],
  "transactionHash": "0x28ef34ccbfa4509ba6f53fbce95af2ee40e38ea5bceb7f7fd53166c4164d015a",
  "args": [
    "0xF96E3e5a3949A3015AE5026d29fE12f98a95a4b7",
    [
      "0x6D571882684d4d34733F204a4612613D666250EC"
    ]
  ],
  "numDeployments": 1,
  "solcInputHash": "e8dd1848045d2086f6e3761ce86f1225",
  "bytecode": "0x60406080815234620001a85762001136803803806200001e81620001c3565b9283398101918082840312620001a8576200003982620001e9565b6020838101516001600160401b0394919291858211620001a857019480601f87011215620001a8578551948511620001ad5760059585871b90848062000081818501620001c3565b809981520192820101928311620001a85784809101915b8383106200018d575050505060009384549560018060a01b0319963388821617875585519060018060a01b03948591823391167f8be0079c531659141344cd1fd0a4f28419497f9722a3daafe3b4186f6b6457e08b80a3169081156200017e5750600a8351116200016d57865b8351811015620001545780831b84018601518516885260028652868820805460ff191660011790556000198114620001405760010162000105565b634e487b7160e01b88526011600452602488fd5b86828a600154161760015551610f379081620001ff8239f35b8551630dc92ed360e11b8152600490fd5b63d92e233d60e01b8152600490fd5b81906200019a84620001e9565b815201910190849062000098565b600080fd5b634e487b7160e01b600052604160045260246000fd5b6040519190601f01601f191682016001600160401b03811183821017620001ad57604052565b51906001600160a01b0382168203620001a85756fe6040608081526004908136101561001557600080fd5b600091823560e01c806309f29c091461098f5780633e8e6e8b146107525780634e2984e41461071257806365906803146106eb57806368e37b99146106c4578063715018a61461065357806378e751a61461062b5780637d963e6f1461056d5780638582f1d3146105135780638a875512146104d75780638da5cb5b146104ad5780639c5c5ce7146103fb578063c34b44a01461034c578063ccbfc6ed14610287578063d70aa0ee146101c85763f2fde38b146100d157600080fd5b346101c45760206003193601126101c4576100ea610b07565b906100f3610c1e565b6001600160a01b0380921692831561015b575050600054827fffffffffffffffffffffffff0000000000000000000000000000000000000000821617600055167f8be0079c531659141344cd1fd0a4f28419497f9722a3daafe3b4186f6b6457e0600080a380f35b906020608492519162461bcd60e51b8352820152602660248201527f4f776e61626c653a206e6577206f776e657220697320746865207a65726f206160448201527f64647265737300000000000000000000000000000000000000000000000000006064820152fd5b8280fd5b5090346101c45760206003193601126101c4576001600160a01b036101eb610b07565b6101f3610c1e565b1691821561027957828452600260205260ff828520541661024b575081835260026020528220600160ff198254161790557fc031114b6ddff79d71c2554dbce316b1327bb3dad01c60b76d8e8b23ff27ea288280a280f35b8260249251917f12252442000000000000000000000000000000000000000000000000000000008352820152fd5b905163d92e233d60e01b8152fd5b50346101c45761029636610bd4565b9290916102a1610c1e565b60ff82518585823760208187810160038152030190205416610315575080839151828482376020818481016003815203019020600160ff198254161790555192839283378101600081520390207f2cb4d732f179a7333da89a4da3f3f9a9cbe3f6d7ac090ab062c69c303da32ff78280a280f35b90517f8bf3b1f1000000000000000000000000000000000000000000000000000000008152928392610348928401610ed9565b0390fd5b5090346101c45760206003193601126101c4576001600160a01b0361036f610b07565b610377610c1e565b1691821561027957828452600260205260ff8285205416156103cd57508183526002602052822060ff1981541690557f99a705a3c2c3339d0051f56b36a60fef91e30142c93353002617999f27aec4af8280a280f35b8260249251917f2742ecb4000000000000000000000000000000000000000000000000000000008352820152fd5b5090346101c45760206003193601126101c457610416610b07565b9161041f610c1e565b836001600160a01b03806001541694853b156101c45760249083865197889485937ff2fde38b00000000000000000000000000000000000000000000000000000000855216878401525af180156104a357610478578380f35b67ffffffffffffffff83116104905750523880808380f35b836041602492634e487b7160e01b835252fd5b82513d86823e3d90fd5b5050346104d357816003193601126104d3576001600160a01b0360209254169051908152f35b5080fd5b5050346104d35760206003193601126104d35760ff816020936001600160a01b03610500610b07565b1681526002855220541690519015158152f35b50346101c457816003193601126101c45761052c610b07565b926024359067ffffffffffffffff821161056a575060209361055c6001600160a01b039361056293369101610b40565b90610cf8565b915191168152f35b80fd5b50346101c45761057c36610bd4565b929091610587610c1e565b60ff82518585823760208187810160038152030190205416156105f857508083915182848237602081848101600381520301902060ff19815416905551928392833781018381520390207fb54b0481f674d73e0a7e0805771909ebd61fadc85286160239121febb142fabf8280a280f35b90517f6fae15fa000000000000000000000000000000000000000000000000000000008152928392610348928401610ed9565b5050346104d357816003193601126104d3576020906001600160a01b03600154169051908152f35b833461056a578060031936011261056a5761066c610c1e565b806001600160a01b0381547fffffffffffffffffffffffff000000000000000000000000000000000000000081168355167f8be0079c531659141344cd1fd0a4f28419497f9722a3daafe3b4186f6b6457e08280a380f35b5050346104d3576020906001600160a01b036105626106e236610b5b565b92919091610c76565b5050346104d3576020906001600160a01b0361056261070936610b5b565b92919091610ddf565b5050346104d35760209060ff61073d8361072b36610ac8565b81855193828580945193849201610b1d565b81016003815203019020541690519015158152f35b508290346104d357602092836003193601126101c457610770610b07565b916001600160a01b03928381169081156109805760019285845416928551946060860186811067ffffffffffffffff82111761096d578752602a86528986018736823786511561095a5760309053855181101561094757607860218701536029905b8082116108af57505061086e579161081b93918789948751968795869485937f8e952bfe0000000000000000000000000000000000000000000000000000000085528401610cd8565b03925af19384156108635793610834575b505191168152f35b610855919350843d861161085c575b61084d8183610a37565b810190610c94565b918461082c565b503d610843565b8251903d90823e3d90fd5b606490888087519262461bcd60e51b845283015260248201527f537472696e67733a20686578206c656e67746820696e73756666696369656e746044820152fd5b9091600f81166010811015610934578751841015610934577f3031323334353637383961626364656600000000000000000000000000000000901a8b8489010153831c918015610921577fffffffffffffffffffffffffffffffffffffffffffffffffffffffffffffffff01906107d2565b60248a601186634e487b7160e01b835252fd5b60248b603287634e487b7160e01b835252fd5b602489603285634e487b7160e01b835252fd5b60248a603286634e487b7160e01b835252fd5b60248a604186634e487b7160e01b835252fd5b82845163d92e233d60e01b8152fd5b5090346101c45782806109a136610ac8565b6109a9610c1e565b6001600160a01b036001541682602083519301915af13d15610a32573d6109cf81610a70565b906109dc84519283610a37565b81528460203d92013e5b156109ef578280f35b906020606492519162461bcd60e51b8352820152601f60248201527f476174657761793a2063616c6c20746f20666163746f7279206661696c6564006044820152fd5b6109e6565b90601f601f19910116810190811067ffffffffffffffff821117610a5a57604052565b634e487b7160e01b600052604160045260246000fd5b67ffffffffffffffff8111610a5a57601f01601f191660200190565b929192610a9882610a70565b91610aa66040519384610a37565b829481845281830111610ac3578281602093846000960137010152565b600080fd5b6020600319820112610ac3576004359067ffffffffffffffff8211610ac35780602383011215610ac357816024610b0493600401359101610a8c565b90565b600435906001600160a01b0382168203610ac357565b60005b838110610b305750506000910152565b8181015183820152602001610b20565b9080601f83011215610ac357816020610b0493359101610a8c565b6060600319820112610ac3576004356001600160a01b0381168103610ac3579167ffffffffffffffff90602435828111610ac35783610b9c91600401610b40565b9260443590838211610ac35780602383011215610ac3578160040135938411610ac35760248460051b83010111610ac3576024019190565b906020600319830112610ac35760043567ffffffffffffffff92838211610ac35780602383011215610ac3578160040135938411610ac35760248483010111610ac3576024019190565b6001600160a01b03600054163303610c3257565b606460405162461bcd60e51b815260206004820152602060248201527f4f776e61626c653a2063616c6c6572206973206e6f7420746865206f776e65726044820152fd5b92909181610c89575050610b0491610cf8565b9091610b0493610ddf565b90816020910312610ac357516001600160a01b0381168103610ac35790565b90601f19601f602093610cd181518092818752878088019101610b1d565b0116010190565b6040906001600160a01b03610b0494931681528160208201520190610cb3565b906001600160a01b039081831615610dce5733600052600260205260ff6040600020541615610d9e57610d6492602092600154169060006040518096819582947f8e952bfe00000000000000000000000000000000000000000000000000000000845260048401610cd8565b03925af1908115610d9257600091610d7a575090565b610b04915060203d811161085c5761084d8183610a37565b6040513d6000823e3d90fd5b60246040517faf3c8172000000000000000000000000000000000000000000000000000000008152336004820152fd5b600460405163d92e233d60e01b8152fd5b906001600160a01b03809216928315610dce576000943386526020936002855260ff60408820541615610d9e57610e52906001541693604051967ffe5cd59a0000000000000000000000000000000000000000000000000000000088526004880152606060248801526064870190610cb3565b906003198683030160448701528082527f07ffffffffffffffffffffffffffffffffffffffffffffffffffffffffffffff8111610ed5578685878095829795829560051b809285830137010301925af1928315610ec95792610eb357505090565b610b049250803d1061085c5761084d8183610a37565b604051903d90823e3d90fd5b8680fd5b90601f83604094601f199360208652816020870152868601376000858286010152011601019056fea2646970667358221220453b47d1041308ab60cdb0cd850e4adb1a2f1b5ccf268371c62abcf7e5ff3af564736f6c63430008110033",
  "devdoc": {
    "kind": "dev",
    "methods": {
      "approveSignature(bytes)": {
        "details": "Remove a signature from the revoke list.",
        "params": {
          "signature": "the signature to approve."
        }
      },
      "approveSigner(address)": {
        "details": "Approve a signer to sign ONCHAINID deployments. If the Gateway is setup to require signature, only  deployments requested with a valid signature from an approved signer will be accepted.  If the gateway does not require a signature,",
        "params": {
          "signer": "the signer address to approve."
        }
      },
      "callFactory(bytes)": {
        "details": "Call a function on the factory. Only the owner of the Gateway can call this method.",
        "params": {
          "data": "the data to call on the factory."
        }
      },
      "constructor": {
        "details": "Constructor for the ONCHAINID Factory Gateway.",
        "params": {
          "idFactoryAddress": "the address of the factory to operate (the Gateway must be owner of the Factory)."
        }
      },
      "deployIdentityForWallet(address)": {
        "details": "Deploy an ONCHAINID using a factory using the identityOwner address as salt.",
        "params": {
          "identityOwner": "the address to set as a management key."
        }
      },
      "deployIdentityWithSalt(address,string)": {
        "details": "Deploy an ONCHAINID using a factory. The operation must be signed by  an approved public key. This method allow to deploy an ONCHAINID using a custom salt.",
        "params": {
          "identityOwner": "the address to set as a management key.",
          "salt": "to use for the deployment."
        }
      },
      "deployIdentityWithSaltAndManagementKeys(address,string,bytes32[])": {
        "details": "Deploy an ONCHAINID using a factory. The operation must be signed by  an approved public key. This method allow to deploy an ONCHAINID using a custom salt and a custom list of  management keys. Note that the identity Owner address won't be added as a management keys, if this is desired,  the key hash must be listed in the managementKeys array.",
        "params": {
          "identityOwner": "the address to set as a management key.",
          "managementKeys": "the list of management keys to add to the ONCHAINID.",
          "salt": "to use for the deployment."
        }
      },
      "owner()": {
        "details": "Returns the address of the current owner."
      },
      "renounceOwnership()": {
        "details": "Leaves the contract without owner. It will not be possible to call `onlyOwner` functions. Can only be called by the current owner. NOTE: Renouncing ownership will leave the contract without an owner, thereby disabling any functionality that is only available to the owner."
      },
      "revokeSignature(bytes)": {
        "details": "Revoke a signature, if the signature is used to deploy an ONCHAINID, the deployment would be rejected.",
        "params": {
          "signature": "the signature to revoke."
        }
      },
      "revokeSigner(address)": {
        "details": "Revoke a signer to sign ONCHAINID deployments.",
        "params": {
          "signer": "the signer address to revoke."
        }
      },
      "transferFactoryOwnership(address)": {
        "details": "Transfer the ownership of the factory to a new owner.",
        "params": {
          "newOwner": "the new owner of the factory."
        }
      },
      "transferOwnership(address)": {
        "details": "Transfers ownership of the contract to a new account (`newOwner`). Can only be called by the current owner."
      }
    },
    "version": 1
  },
  "userdoc": {
    "errors": {
      "SignatureAlreadyRevoked(bytes)": [
        {
          "notice": "Attempted to revoke a signature that was already revoked."
        }
      ],
      "SignatureNotRevoked(bytes)": [
        {
          "notice": "Attempted to approve a signature that was not revoked."
        }
      ],
      "SignerAlreadyApproved(address)": [
        {
          "notice": "The signed attempted to add was already approved."
        }
      ],
      "SignerAlreadyNotApproved(address)": [
        {
          "notice": "The signed attempted to remove was not approved."
        }
      ],
      "TooManySigners()": [
        {
          "notice": "The maximum number of signers was reached at deployment."
        }
      ],
      "UnapprovedSigner(address)": [
        {
          "notice": "A requested ONCHAINID deployment was requested and signer by a non approved signer."
        }
      ],
      "ZeroAddress()": [
        {
          "notice": "A required parameter was set to the Zero address."
        }
      ]
    },
    "kind": "user",
    "methods": {},
    "version": 1
  },
  "storageLayout": {
    "storage": [
      {
        "astId": 259,
        "contract": "src/gateway/Gateway.sol:Gateway",
        "label": "_owner",
        "offset": 0,
        "slot": "0",
        "type": "t_address"
      },
      {
        "astId": 15573,
        "contract": "src/gateway/Gateway.sol:Gateway",
        "label": "idFactory",
        "offset": 0,
        "slot": "1",
        "type": "t_contract(IdFactory)15397"
      },
      {
        "astId": 15577,
        "contract": "src/gateway/Gateway.sol:Gateway",
        "label": "approvedSigners",
        "offset": 0,
        "slot": "2",
        "type": "t_mapping(t_address,t_bool)"
      },
      {
        "astId": 15581,
        "contract": "src/gateway/Gateway.sol:Gateway",
        "label": "revokedSignatures",
        "offset": 0,
        "slot": "3",
        "type": "t_mapping(t_bytes_memory_ptr,t_bool)"
      }
    ],
    "types": {
      "t_address": {
        "encoding": "inplace",
        "label": "address",
        "numberOfBytes": "20"
      },
      "t_bool": {
        "encoding": "inplace",
        "label": "bool",
        "numberOfBytes": "1"
      },
      "t_bytes_memory_ptr": {
        "encoding": "bytes",
        "label": "bytes",
        "numberOfBytes": "32"
      },
      "t_contract(IdFactory)15397": {
        "encoding": "inplace",
        "label": "contract IdFactory",
        "numberOfBytes": "20"
      },
      "t_mapping(t_address,t_bool)": {
        "encoding": "mapping",
        "key": "t_address",
        "label": "mapping(address => bool)",
        "numberOfBytes": "32",
        "value": "t_bool"
      },
      "t_mapping(t_bytes_memory_ptr,t_bool)": {
        "encoding": "mapping",
        "key": "t_bytes_memory_ptr",
        "label": "mapping(bytes => bool)",
        "numberOfBytes": "32",
        "value": "t_bool"
      }
    }
  }
}