{
  "address": "0x3C37e05b696345010afA7b1624912289769aDcd5",
  "abi": [
    {
      "inputs": [],
      "stateMutability": "nonpayable",
      "type": "constructor"
    },
    {
      "anonymous": false,
      "inputs": [
        {
          "indexed": true,
          "internalType": "address",
          "name": "previousOwner",
          "type": "address"
        },
        {
          "indexed": true,
          "internalType": "address",
          "name": "newOwner",
          "type": "address"
        }
      ],
      "name": "OwnershipTransferred",
      "type": "event"
    },
    {
      "anonymous": false,
      "inputs": [
        {
          "indexed": false,
          "internalType": "address",
          "name": "newAddress",
          "type": "address"
        }
      ],
      "name": "UpdatedImplementation",
      "type": "event"
    },
    {
      "inputs": [],
      "name": "getImplementation",
      "outputs": [
        {
          "internalType": "address",
          "name": "",
          "type": "address"
        }
      ],
      "stateMutability": "view",
      "type": "function"
    },
    {
      "inputs": [],
      "name": "owner",
      "outputs": [
        {
          "internalType": "address",
          "name": "",
          "type": "address"
        }
      ],
      "stateMutability": "view",
      "type": "function"
    },
    {
      "inputs": [],
      "name": "renounceOwnership",
      "outputs": [],
      "stateMutability": "nonpayable",
      "type": "function"
    },
    {
      "inputs": [
        {
          "internalType": "address",
          "name": "newOwner",
          "type": "address"
        }
      ],
      "name": "transferOwnership",
      "outputs": [],
      "stateMutability": "nonpayable",
      "type": "function"
    },
    {
      "inputs": [
        {
          "internalType": "address",
          "name": "_newImplementation",
          "type": "address"
        }
      ],
      "name": "updateImplementation",
      "outputs": [],
      "stateMutability": "nonpayable",
      "type": "function"
    }
  ],
  "transactionHash": "0x6e0099a4f71535b86ad9568cb72504f402498d67c1fdc6ae3295bf3855b5c798",
  "args": [],
  "numDeployments": 1,
  "solcInputHash": "d1248d5ab23d5d574e85041617879ba7",
  "bytecode": "0x6080806040523461005b5760008054336001600160a01b0319821681178355916001600160a01b03909116907f8be0079c531659141344cd1fd0a4f28419497f9722a3daafe3b4186f6b6457e09080a361039d90816100618239f35b600080fdfe604060808152600436101561001357600080fd5b600090813560e01c8063025b22bc1461022d578063715018a6146101b75780638da5cb5b14610185578063aaf10f42146101515763f2fde38b1461005657600080fd5b3461014d57602060031936011261014d576004359073ffffffffffffffffffffffffffffffffffffffff9081831680930361014957610093610302565b82156100e0575082548273ffffffffffffffffffffffffffffffffffffffff198216178455167f8be0079c531659141344cd1fd0a4f28419497f9722a3daafe3b4186f6b6457e08380a380f35b6084905162461bcd60e51b815260206004820152602660248201527f4f776e61626c653a206e6577206f776e657220697320746865207a65726f206160448201527f64647265737300000000000000000000000000000000000000000000000000006064820152fd5b8380fd5b5080fd5b503461014d578160031936011261014d5760209073ffffffffffffffffffffffffffffffffffffffff600154169051908152f35b503461014d578160031936011261014d5773ffffffffffffffffffffffffffffffffffffffff60209254169051908152f35b823461022a578060031936011261022a576101d0610302565b8073ffffffffffffffffffffffffffffffffffffffff815473ffffffffffffffffffffffffffffffffffffffff1981168355167f8be0079c531659141344cd1fd0a4f28419497f9722a3daafe3b4186f6b6457e08280a380f35b80fd5b503461014d57602060031936011261014d576004359073ffffffffffffffffffffffffffffffffffffffff82168092036102fe57610269610302565b81156102bb57816020917f87c4e67a766ffddda27f441d63853a36ae64fbb07775a7c59d395e064b204eeb9373ffffffffffffffffffffffffffffffffffffffff19600154161760015551908152a180f35b6064905162461bcd60e51b815260206004820152601f60248201527f696e76616c696420617267756d656e74202d207a65726f2061646472657373006044820152fd5b8280fd5b73ffffffffffffffffffffffffffffffffffffffff60005416330361032357565b606460405162461bcd60e51b815260206004820152602060248201527f4f776e61626c653a2063616c6c6572206973206e6f7420746865206f776e65726044820152fdfea2646970667358221220ecf59e08486a3b2fb7f92c726b55bdb24b04b7c6799d696606037de13508d4f164736f6c63430008110033",
  "devdoc": {
    "kind": "dev",
    "methods": {
      "getImplementation()": {
        "details": "See {IImplementationAuthority-getImplementation}."
      },
      "owner()": {
        "details": "Returns the address of the current owner."
      },
      "renounceOwnership()": {
        "details": "Leaves the contract without owner. It will not be possible to call `onlyOwner` functions. Can only be called by the current owner. NOTE: Renouncing ownership will leave the contract without an owner, thereby disabling any functionality that is only available to the owner."
      },
      "transferOwnership(address)": {
        "details": "Transfers ownership of the contract to a new account (`newOwner`). Can only be called by the current owner."
      },
      "updateImplementation(address)": {
        "details": "See {IImplementationAuthority-updateImplementation}."
      }
    },
    "version": 1
  },
  "userdoc": {
    "kind": "user",
    "methods": {},
    "version": 1
  },
  "storageLayout": {
    "storage": [
      {
        "astId": 259,
        "contract": "src/proxy/ImplementationAuthority.sol:ImplementationAuthority",
        "label": "_owner",
        "offset": 0,
        "slot": "0",
        "type": "t_address"
      },
      {
        "astId": 16058,
        "contract": "src/proxy/ImplementationAuthority.sol:ImplementationAuthority",
        "label": "_implementation",
        "offset": 0,
        "slot": "1",
        "type": "t_address"
      }
    ],
    "types": {
      "t_address": {
        "encoding": "inplace",
        "label": "address",
        "numberOfBytes": "20"
      }
    }
  }
}