{
  "address": "0x810e6511E15FBFcE17a58fE2Fd3653FDe1825329",
  "abi": [
    {
      "inputs": [
        {
          "internalType": "address",
          "name": "router",
          "type": "address"
        }
      ],
      "stateMutability": "nonpayable",
      "type": "constructor"
    },
    {
      "inputs": [],
      "name": "EmptyArgs",
      "type": "error"
    },
    {
      "inputs": [],
      "name": "EmptySource",
      "type": "error"
    },
    {
      "inputs": [],
      "name": "NoInlineSecrets",
      "type": "error"
    },
    {
      "inputs": [],
      "name": "OnlyRouterCanFulfill",
      "type": "error"
    },
    {
      "inputs": [
        {
          "internalType": "bytes32",
          "name": "requestId",
          "type": "bytes32"
        }
      ],
      "name": "UnexpectedRequestID",
      "type": "error"
    },
    {
      "anonymous": false,
      "inputs": [
        {
          "indexed": true,
          "internalType": "address",
          "name": "from",
          "type": "address"
        },
        {
          "indexed": true,
          "internalType": "address",
          "name": "to",
          "type": "address"
        }
      ],
      "name": "OwnershipTransferRequested",
      "type": "event"
    },
    {
      "anonymous": false,
      "inputs": [
        {
          "indexed": true,
          "internalType": "address",
          "name": "from",
          "type": "address"
        },
        {
          "indexed": true,
          "internalType": "address",
          "name": "to",
          "type": "address"
        }
      ],
      "name": "OwnershipTransferred",
      "type": "event"
    },
    {
      "anonymous": false,
      "inputs": [
        {
          "indexed": true,
          "internalType": "bytes32",
          "name": "id",
          "type": "bytes32"
        }
      ],
      "name": "RequestFulfilled",
      "type": "event"
    },
    {
      "anonymous": false,
      "inputs": [
        {
          "indexed": true,
          "internalType": "bytes32",
          "name": "id",
          "type": "bytes32"
        }
      ],
      "name": "RequestSent",
      "type": "event"
    },
    {
      "anonymous": false,
      "inputs": [
        {
          "indexed": true,
          "internalType": "bytes32",
          "name": "requestId",
          "type": "bytes32"
        },
        {
          "indexed": false,
          "internalType": "bytes",
          "name": "response",
          "type": "bytes"
        },
        {
          "indexed": false,
          "internalType": "bytes",
          "name": "err",
          "type": "bytes"
        }
      ],
      "name": "Response",
      "type": "event"
    },
    {
      "inputs": [],
      "name": "acceptOwnership",
      "outputs": [],
      "stateMutability": "nonpayable",
      "type": "function"
    },
    {
      "inputs": [
        {
          "internalType": "bytes32",
          "name": "requestId",
          "type": "bytes32"
        },
        {
          "internalType": "bytes",
          "name": "response",
          "type": "bytes"
        },
        {
          "internalType": "bytes",
          "name": "err",
          "type": "bytes"
        }
      ],
      "name": "handleOracleFulfillment",
      "outputs": [],
      "stateMutability": "nonpayable",
      "type": "function"
    },
    {
      "inputs": [],
      "name": "owner",
      "outputs": [
        {
          "internalType": "address",
          "name": "",
          "type": "address"
        }
      ],
      "stateMutability": "view",
      "type": "function"
    },
    {
      "inputs": [],
      "name": "s_lastError",
      "outputs": [
        {
          "internalType": "bytes",
          "name": "",
          "type": "bytes"
        }
      ],
      "stateMutability": "view",
      "type": "function"
    },
    {
      "inputs": [],
      "name": "s_lastRequestId",
      "outputs": [
        {
          "internalType": "bytes32",
          "name": "",
          "type": "bytes32"
        }
      ],
      "stateMutability": "view",
      "type": "function"
    },
    {
      "inputs": [],
      "name": "s_lastResponse",
      "outputs": [
        {
          "internalType": "bytes",
          "name": "",
          "type": "bytes"
        }
      ],
      "stateMutability": "view",
      "type": "function"
    },
    {
      "inputs": [
        {
          "internalType": "string[]",
          "name": "args",
          "type": "string[]"
        },
        {
          "internalType": "uint64",
          "name": "subscriptionId",
          "type": "uint64"
        },
        {
          "internalType": "uint32",
          "name": "gasLimit",
          "type": "uint32"
        },
        {
          "internalType": "bytes32",
          "name": "donID",
          "type": "bytes32"
        }
      ],
      "name": "sendRequest",
      "outputs": [
        {
          "internalType": "bytes32",
          "name": "requestId",
          "type": "bytes32"
        }
      ],
      "stateMutability": "nonpayable",
      "type": "function"
    },
    {
      "inputs": [
        {
          "internalType": "address",
          "name": "to",
          "type": "address"
        }
      ],
      "name": "transferOwnership",
      "outputs": [],
      "stateMutability": "nonpayable",
      "type": "function"
    }
  ],
  "transactionHash": "0xcf1cf57cfb6e4df1f5ef4d1a622d15d79b64bd598e49c963e953f37f57d10f55",
  "args": [
    "0xC17094E3A1348E5C7544D4fF8A36c28f2C6AAE28"
  ],
  "numDeployments": 3,
  "solcInputHash": "998062c9fefe35b04807af5a2b3796e1",
  "bytecode": "0x60a0346100d257601f6200272338819003918201601f19168301916001600160401b038311848410176100d7578084926020946040528339810103126100d257516001600160a01b038116908190036100d257608052331561008d57600080546001600160a01b031916331790556040516126359081620000ee823960805181818161010201526112bf0152f35b60405162461bcd60e51b815260206004820152601860248201527f43616e6e6f7420736574206f776e657220746f207a65726f00000000000000006044820152606490fd5b600080fd5b634e487b7160e01b600052604160045260246000fdfe608060405260048036101561001357600080fd5b600090813560e01c9182630ca761751461009d57505080633944ea3a146100985780634b0795a81461009357806379ba50971461008e5780638da5cb5b14610089578063b1e2174914610084578063f2fde38b1461007f5763fd55277c1461007a57600080fd5b610850565b610720565b610702565b6106ce565b6105d4565b61052d565b61044b565b346102e15760606003193601126102e15781356024359267ffffffffffffffff938481116102dd576100d290369083016103a2565b936044358181116102d9576100ea90369084016103a2565b9173ffffffffffffffffffffffffffffffffffffffff7f00000000000000000000000000000000000000000000000000000000000000001633036102b15783600254036102815750845190811161027c5761014f8161014a6003546103c0565b6122cd565b602080601f83116001146101ea5750819085966101869596926101df575b50506000198260011b9260031b1c1916176003556123af565b807f7873807bf6ddc50401cd3d29bbe0decee23fd4d68d273f4b5eb83cded4d2f172604051806101b58161253d565b0390a27f85e1543bf2f84fe80c6badbce3648c8539ad1df4d2b3d822938ca0538be727e68280a280f35b01519050868061016d565b90601f1983169661021d60036000527fc2575a0e9e593c00f959f8c92f12db2869c3395a3b0502d05e2516446f71f85b90565b9287905b898210610264575050908392916001946101869798991061024b575b505050811b016003556123af565b015160001960f88460031b161c1916905586808061023d565b80600185968294968601518155019501930190610221565b6102e4565b60249084604051917fd068bf5b000000000000000000000000000000000000000000000000000000008352820152fd5b6040517fc6829f83000000000000000000000000000000000000000000000000000000008152fd5b8480fd5b8380fd5b80fd5b634e487b7160e01b600052604160045260246000fd5b6040810190811067ffffffffffffffff82111761027c57604052565b6106a0810190811067ffffffffffffffff82111761027c57604052565b90601f601f19910116810190811067ffffffffffffffff82111761027c57604052565b92919267ffffffffffffffff821161027c57604051916103806020601f19601f8401160184610333565b82948184528183011161039d578281602093846000960137010152565b600080fd5b9080601f8301121561039d578160206103bd93359101610356565b90565b90600182811c921680156103f0575b60208310146103da57565b634e487b7160e01b600052602260045260246000fd5b91607f16916103cf565b919082519283825260005b848110610426575050601f19601f8460006020809697860101520116010190565b602081830181015184830182015201610405565b9060206103bd9281815201906103fa565b3461039d576000806003193601126102e157604051908060035461046e816103c0565b8085529160019180831690811561050357506001146104a8575b6104a48561049881870382610333565b6040519182918261043a565b0390f35b9250600383527fc2575a0e9e593c00f959f8c92f12db2869c3395a3b0502d05e2516446f71f85b5b8284106104eb575050508101602001610498826104a4610488565b805460208587018101919091529093019281016104d0565b8695506104a49693506020925061049894915060ff191682840152151560051b8201019293610488565b3461039d576000806003193601126102e1576040519080600454610550816103c0565b808552916001918083169081156105035750600114610579576104a48561049881870382610333565b9250600483527f8a35acfbc15ff81a39ae7d344fd709f28e8600b4aa8c65c6b64bfe7fe36bd19b5b8284106105bc575050508101602001610498826104a4610488565b805460208587018101919091529093019281016105a1565b3461039d576000806003193601126102e15773ffffffffffffffffffffffffffffffffffffffff8060015416330361068a57815473ffffffffffffffffffffffffffffffffffffffff166000805473ffffffffffffffffffffffffffffffffffffffff1916331790559061066073ffffffffffffffffffffffffffffffffffffffff1960015416600155565b3391167f8be0079c531659141344cd1fd0a4f28419497f9722a3daafe3b4186f6b6457e08380a380f35b606460405162461bcd60e51b815260206004820152601660248201527f4d7573742062652070726f706f736564206f776e6572000000000000000000006044820152fd5b3461039d57600060031936011261039d57602073ffffffffffffffffffffffffffffffffffffffff60005416604051908152f35b3461039d57600060031936011261039d576020600254604051908152f35b3461039d57602060031936011261039d5760043573ffffffffffffffffffffffffffffffffffffffff811680910361039d5761075a61092c565b3381146107e2578073ffffffffffffffffffffffffffffffffffffffff1960015416176001556107bb6107a260005473ffffffffffffffffffffffffffffffffffffffff1690565b73ffffffffffffffffffffffffffffffffffffffff1690565b7fed8889f560326eb138920d842192f0eb3dd22b4f139c87a2c57538e05bae1278600080a3005b606460405162461bcd60e51b815260206004820152601760248201527f43616e6e6f74207472616e7366657220746f2073656c660000000000000000006044820152fd5b6024359067ffffffffffffffff8216820361039d57565b6044359063ffffffff8216820361039d57565b3461039d57608060031936011261039d5767ffffffffffffffff60043581811161039d573660238201121561039d5780600401359082821161027c578160051b604051936020936108a385840187610333565b855283850190602480938501019336851161039d57838101925b8584106108f5576104a46108e5896108d3610826565b6108db61083d565b9060643592610991565b6040519081529081906020820190565b833583811161039d5782013660438201121561039d5787916109218392369060448a8201359101610356565b8152019301926108bd565b73ffffffffffffffffffffffffffffffffffffffff60005416330361094d57565b606460405162461bcd60e51b815260206004820152601660248201527f4f6e6c792063616c6c61626c65206279206f776e6572000000000000000000006044820152fd5b9192909261099d61092c565b6040519360e0850185811067ffffffffffffffff82111761027c5761120795611202956111fd926040526000825260006020830152600060408301526111f0606080808501528060808501528060a08501528060c08501527f5741593d2768747470733a2f2f676174657761792e70696e6174612e636c6f7560405191610a2383610316565b61067883527f636f6e7374206964656e74697479416464726573733d617267735b305d3b636f60208401527f6e7374206368616c6c656e67653d617267735b315d3b636f6e7374204741544560408401528201527f642f69706673273b636f6e737420444550535f4349443d27516d53584855416960808201527f447175777271465164576d51325565735771446a426177454645686b6274373760a08201527f317a34536e73273b636f6e73742043495243554954535f4349443d27516d663660c08201527f65677475776f545137385148325074704a77724d646370334d7164666470784c60e08201527f5038537651464d35627a273b636f6e73742047454e5f56505f55524c3d6068746101008201527f7470733a2f2f73657276696365732d6465762e3078617574682e636f2f77616c6101208201527f6c65742f63726564656e7469616c732f67656e2d7665726966792d70726f6f666101408201527f603b636f6e7374206d61696e4465703d617761697420696d706f72742860247b6101608201527f474154455741597d2f247b444550535f4349447d2f696e6465782e6a7360293b6101808201527f636f6e7374207a6b706c643d6d61696e4465702e64656661756c743b636f6e736101a08201527f74206a736f6e6c643d6d61696e4465702e6a736f6e6c643b636f6e7374206c656101c08201527f73735468616e50727650756236343d28617761697420696d706f72742860247b6101e08201527f474154455741597d2f247b43495243554954535f4349447d2f6c6573735f74686102008201527f616e5f7072765f7075625f36342e6a736f6e602c7b776974683a7b747970653a6102208201527f276a736f6e277d2c7d29292e64656661756c743b636f6e7374204b503d7b27406102408201527f636f6e74657874273a5b2768747470733a2f2f7777772e77332e6f72672f6e736102608201527f2f6469642f7631272c2768747470733a2f2f7777772e77332e6f72672f6e732f6102808201527f646174612d696e746567726974792f7631272c2768747470733a2f2f773369646102a08201527f2e6f72672f73656375726974792f6d756c74696b65792f7631272c5d2c69643a6102c08201527f276469643a7765623a3078617574682e636f272c766572696669636174696f6e6102e08201527f4d6574686f643a7b69643a276469643a7765623a3078617574682e636f236b656103008201527f792d30272c747970653a274d756c74696b6579272c636f6e74726f6c6c65723a6103208201527f276469643a7765623a3078617574682e636f272c7365637265744b65794d756c6103408201527f7469626173653a27272c7075626c69634b65794d756c7469626173653a27756b6103608201527f6969517866735366563045325179426c6e48544b324d54686e64375f2d4679666103808201527f36753736425564323475786f444634556a6e587478556f386238326975505a426103a08201527f4f6138425864314e7045323078335266646539756463643850386e50564c72386103c08201527f30586836574c6749395359523670694e7a6248684556496667645f566f3950276103e08201527f2c7d2c7d3b7472797b636f6e737420646174653d6e6577204461746528293b636104008201527f6f6e736f6c652e6c6f672827566572696679696e6727293b636f6e73742072656104208201527f713d61776169742046756e6374696f6e732e6d616b65487474705265717565736104408201527f74287b75726c3a47454e5f56505f55524c2c74696d656f75743a31305f3030306104608201527f2c6d6574686f643a27504f5354272c686561646572733a7b27636f6e74656e746104808201527f2d74797065273a276170706c69636174696f6e2f6a736f6e272c7d2c646174616104a08201527f3a7b6964656e746974795f616464726573733a6964656e7469747941646472656104c08201527f73732c63726564656e7469616c5f747970653a274964656e74697479437265646104e08201527f656e7469616c272c72756c65733a5b5d2c6368616c6c656e67653a6368616c6c6105008201527f656e67652c7d2c7d293b636f6e73742076703d7265712e646174613b696628216105208201527f7670297b7468726f77206e6577204572726f72286056502072657175657374206105408201527f6661696c656460297d636f6e737420723d6177616974207a6b706c642e7665726105608201527f69667950726f6f662876702c4b502c6a736f6e6c642e646f63756d656e744c6f6105808201527f616465722c7b6368616c6c656e67653a6368616c6c656e67652c646f6d61696e6105a08201527f3a2768747470733a2f2f3078617574682e636f272c7d293b69662821722e76656105c08201527f726966696564297468726f77206e6577204572726f7228722e6572726f72293b6105e08201527f636f6e736f6c652e6c6f672827566572696669656420696e272c446174652e6e6106008201527f6f7728292d646174652e67657454696d6528292c276d7327293b72657475726e6106208201527f2046756e6374696f6e732e656e636f646555696e743235362831297d636174636106408201527f68286572297b636f6e736f6c652e6c6f67286572293b72657475726e2046756e6106608201527f6374696f6e732e656e636f646555696e743235362830297d00000000000000006106808201528361174a565b805161120d575b5061155f565b611238565b600255565b60025490565b611217908261178b565b386111f7565b9081602091031261039d575190565b6040513d6000823e3d90fd5b929060209267ffffffffffffffff9263ffffffff61129160405197889687967f461d276200000000000000000000000000000000000000000000000000000000885216600487015260a0602487015260a48601906103fa565b926001604486015216606484015260848301520381600073ffffffffffffffffffffffffffffffffffffffff7f0000000000000000000000000000000000000000000000000000000000000000165af19081156113485760009161131a575b50807f1131472297a800fee664d1d89cfa8f7676ff07189ecc53f80bbb5f4969099db8600080a290565b61133b915060203d8111611341575b6113338183610333565b81019061121d565b386112f0565b503d611329565b61122c565b6040519061135a826102fa565b600c82527f636f64654c6f636174696f6e00000000000000000000000000000000000000006020830152565b634e487b7160e01b600052602160045260246000fd5b600311156113a657565b611386565b604051906113b8826102fa565b600882527f6c616e67756167650000000000000000000000000000000000000000000000006020830152565b600111156113a657565b604051906113fb826102fa565b600682527f736f7572636500000000000000000000000000000000000000000000000000006020830152565b60405190611434826102fa565b600482527f61726773000000000000000000000000000000000000000000000000000000006020830152565b634e487b7160e01b600052601160045260246000fd5b60001981146114855760010190565b611460565b805182101561149e5760209160051b010190565b634e487b7160e01b600052603260045260246000fd5b604051906114c1826102fa565b600f82527f736563726574734c6f636174696f6e00000000000000000000000000000000006020830152565b604051906114fa826102fa565b600782527f73656372657473000000000000000000000000000000000000000000000000006020830152565b60405190611533826102fa565b600982527f62797465734172677300000000000000000000000000000000000000000000006020830152565b6115676117dc565b9061157961157361134d565b83611f3d565b61159681516115878161139c565b6115908161139c565b836118a8565b6115a16115736113ab565b6115bb60408201516115b2816113e4565b611590816113e4565b6115c66115736113ee565b6115d4606082015183611f3d565b60a081018051516116f1575b506080810190815151611659575b60c0915001805151611601575b50515190565b9161160d611573611526565b61161682611fc2565b60005b83518051821015611646579061163c611635826116419461148a565b5185611e87565b611476565b611619565b505091506116538161204e565b386115fb565b6020810180516116688161139c565b6116718161139c565b156116c75760c0926116aa6116c29261169161168b6114b4565b88611f3d565b5161169b8161139c565b6116a48161139c565b866118a8565b6116bb6116b56114ed565b86611f3d565b5184611e87565b6115ee565b60046040517fa80d31f7000000000000000000000000000000000000000000000000000000008152fd5b926117036116fd611427565b84611f3d565b61170c83611fc2565b60005b84518051821015611737579061163c61172b826117329461148a565b5186611f3d565b61170f565b505092506117448261204e565b386115e0565b815115611761576000808252604082015260600152565b60046040517f22ce3edd000000000000000000000000000000000000000000000000000000008152fd5b8151156117985760a00152565b60046040517ffe936cb7000000000000000000000000000000000000000000000000000000008152fd5b604051906117cf826102fa565b6000602083606081520152565b6040516117e8816102fa565b6117f06117c2565b80825260208201600081526118036117c2565b50610100602083015260405180925260008252610120820191821061039d576000916040525290565b90601f19820191821161148557565b906020820180921161148557565b9190820180921161148557565b9061185f6117c2565b50601f81168061188e575b508060208301526040519081835260008252810160200190811061039d5760405290565b60200360208111611485578101809111611485573861186a565b908151916118b46117c2565b50825151600181019081811161148557602085015181101561190f575b60c260206119059651928301015380518211611907575b505060405191602083015260208252611900826102fa565b611e87565b565b5238806118e8565b8160011b9482860460021483151715611485576020816119416119059861193a60c295519184611856565b5082611dcb565b50965050506118d1565b908160011b918083046002149015171561148557565b6119696117c2565b5080515160018101908181116114855760208301518110156119a2575b605b6020845192830101538051821161199e57505090565b5290565b8160011b82810460021483151715611485576119cb906119c485519186611856565b5084611dcb565b50611986565b6119d96117c2565b508051516001810190818111611485576020830151811015611a0e575b605a6020845192830101538051821161199e57505090565b8160011b8281046002148315171561148557611a30906119c485519186611856565b506119f6565b611a3e6117c2565b508051516001810190818111611485576020830151811015611a73575b60596020845192830101538051821161199e57505090565b8160011b8281046002148315171561148557611a95906119c485519186611856565b50611a5b565b611aa36117c2565b508051516001810190818111611485576020830151811015611ad8575b60586020845192830101538051821161199e57505090565b8160011b8281046002148315171561148557611afa906119c485519186611856565b50611ac0565b611b086117c2565b508051516001810190818111611485576020830151811015611b3d575b607b6020845192830101538051821161199e57505090565b8160011b8281046002148315171561148557611b5f906119c485519186611856565b50611b25565b611b6d6117c2565b508051516001810190818111611485576020830151811015611ba2575b607a6020845192830101538051821161199e57505090565b8160011b8281046002148315171561148557611bc4906119c485519186611856565b50611b8a565b611bd26117c2565b508051516001810190818111611485576020830151811015611c07575b60796020845192830101538051821161199e57505090565b8160011b8281046002148315171561148557611c29906119c485519186611856565b50611bef565b611c376117c2565b508051516001810190818111611485576020830151811015611c6c575b60786020845192830101538051821161199e57505090565b8160011b8281046002148315171561148557611c8e906119c485519186611856565b50611c54565b90611c9d6117c2565b508151516001810191828211611485576020840151821015611cd0575b6020845192830101538051821161199e57505090565b8260011b8381046002148415171561148557611cf990611cf286519187611856565b5085611dcb565b50611cba565b90611d0c82519183611856565b50611d156117c2565b508051611d206117c2565b50611d2e8251821115611e80565b82515192611d3c8285611849565b926020938285809401518211611db4575b5183815197820101968211611dac575b505001915b80821015611d84579060001991036101000a0190811990511690825116179052565b909192611da0611d9a611da6928651815261183b565b9461183b565b9261182c565b90611d62565b523880611d5d565b611dc6611dc08361194b565b82611cff565b611d4d565b90611dd46117c2565b50805190611de06117c2565b50611dee8151831115611e80565b82515191611dfc8184611849565b6020928391828701518111611e69575b865183815197820101968211611e61575b505001915b80821015611e45579060001991036101000a019081199051169082511617905290565b909192611da0611d9a611e5b928651815261183b565b90611e22565b523880611e1d565b611e7b611e758261194b565b88611cff565b611e0c565b1561039d57565b8151611ebf92919067ffffffffffffffff81169060178211611ec257611eb79150604060ff845192161790611c94565b505b51611dcb565b50565b5060ff8111611ee757611ee190611ed98351611a9b565b508251612267565b50611eb9565b61ffff8111611f0657611ee190611efe8351611a36565b5082516121e3565b63ffffffff8111611f2757611ee190611f1f83516119d1565b50825161215f565b611ee190611f358351611961565b5082516120db565b8151611ebf92919067ffffffffffffffff81169060178211611f6d57611eb79150606060ff845192161790611c94565b5060ff8111611f8457611ee190611ed98351611c2f565b61ffff8111611f9b57611ee190611efe8351611bca565b63ffffffff8111611fb457611ee190611f1f8351611b65565b611ee190611f358351611b00565b805190611fcd6117c2565b50815151600181019081811161148557602084015181101561201b575b609f6020809551928301015380518211612013575b505001805190600182018092116114855752565b523880611fff565b8160011b938285046002148315171561148557602081612044829761193a609f95519184611856565b5095505050611fea565b8051906120596117c2565b5081515160018101908181116114855760208401518110156120a8575b60ff60208095519283010153805182116120a0575b50500180519060001982019182116114855752565b52388061208b565b8160011b9382850460021483151715611485576020816120d1829761193a60ff95519184611856565b5095505050612076565b906120e46117c2565b50815151806008019182600811611485576020840151831161213e575b6008845192830101907fffffffffffffffffffffffffffffffffffffffffffffffff00000000000000008251161790528051821161199e57505090565b8260011b838104600214841517156114855761215a9085611cff565b612101565b906121686117c2565b5081515180600401918260041161148557602084015183116121c2575b6004845192830101907fffffffffffffffffffffffffffffffffffffffffffffffffffffffff000000008251161790528051821161199e57505090565b8260011b83810460021484151715611485576121de9085611cff565b612185565b906121ec6117c2565b508151518060020191826002116114855760208401518311612246575b6002845192830101907fffffffffffffffffffffffffffffffffffffffffffffffffffffffffffff00008251161790528051821161199e57505090565b8260011b83810460021484151715611485576122629085611cff565b612209565b906122706117c2565b5081515180600101918260011161148557602084015183116122ac575b60018451928301019060ff198251161790528051821161199e57505090565b8260011b83810460021484151715611485576122c89085611cff565b61228d565b601f81116122d9575050565b600090600382527fc2575a0e9e593c00f959f8c92f12db2869c3395a3b0502d05e2516446f71f85b906020601f850160051c83019410612334575b601f0160051c01915b82811061232957505050565b81815560010161231d565b9092508290612314565b601f811161234a575050565b600090600482527f8a35acfbc15ff81a39ae7d344fd709f28e8600b4aa8c65c6b64bfe7fe36bd19b906020601f850160051c830194106123a5575b601f0160051c01915b82811061239a57505050565b81815560010161238e565b9092508290612385565b90815167ffffffffffffffff811161027c576123d5816123d06004546103c0565b61233e565b602080601f83116001146124105750819293600092612405575b50506000198260011b9260031b1c191617600455565b0151905038806123ef565b90601f1983169461244360046000527f8a35acfbc15ff81a39ae7d344fd709f28e8600b4aa8c65c6b64bfe7fe36bd19b90565b926000905b878210612480575050836001959610612467575b505050811b01600455565b015160001960f88460031b161c1916905538808061245c565b80600185968294968601518155019501930190612448565b600454600092916124a8826103c0565b8082529160019081811690811561251f57506001146124c657505050565b9192935060046000527f8a35acfbc15ff81a39ae7d344fd709f28e8600b4aa8c65c6b64bfe7fe36bd19b916000925b84841061250757505060209250010190565b805460208585018101919091529093019281016124f5565b9050602094955060ff1991509291921683830152151560051b010190565b60408152600060035461254f816103c0565b9081604085015260019081811690816000146125da5750600114612581575b50508160206103bd938303910152612498565b6003600090815292507fc2575a0e9e593c00f959f8c92f12db2869c3395a3b0502d05e2516446f71f85b5b8284106125c45750505081016060016103bd3861256e565b80546060858701015260209093019281016125ac565b6103bd959450606093925060ff1991501682840152151560051b82010190913861256e56fea26469706673582212200521cdd4ded014fba4eda63aa4f2a4c72a3bc2ebf462970a38c08efebc8334e564736f6c63430008130033",
  "devdoc": {
    "kind": "dev",
    "methods": {
      "handleOracleFulfillment(bytes32,bytes,bytes)": {
        "details": "Either response or error parameter will be set, but never both.",
        "params": {
          "err": "Aggregated error either from the request's source code or from the execution pipeline.",
          "requestId": "The requestId returned by FunctionsClient.sendRequest().",
          "response": "Aggregated response from the request's source code."
        }
      }
    },
    "version": 1
  },
  "userdoc": {
    "kind": "user",
    "methods": {
      "acceptOwnership()": {
        "notice": "Allows an ownership transfer to be completed by the recipient."
      },
      "handleOracleFulfillment(bytes32,bytes,bytes)": {
        "notice": "Chainlink Functions response handler called by the Functions Router during fullilment from the designated transmitter node in an OCR round."
      },
      "owner()": {
        "notice": "Get the current owner"
      },
      "transferOwnership(address)": {
        "notice": "Allows an owner to begin transferring ownership to a new address."
      }
    },
    "version": 1
  },
  "storageLayout": {
    "storage": [
      {
        "astId": 816,
        "contract": "src/_testContracts/ProofFunction.sol:ProofFunction",
        "label": "s_owner",
        "offset": 0,
        "slot": "0",
        "type": "t_address"
      },
      {
        "astId": 818,
        "contract": "src/_testContracts/ProofFunction.sol:ProofFunction",
        "label": "s_pendingOwner",
        "offset": 0,
        "slot": "1",
        "type": "t_address"
      },
      {
        "astId": 2287,
        "contract": "src/_testContracts/ProofFunction.sol:ProofFunction",
        "label": "s_lastRequestId",
        "offset": 0,
        "slot": "2",
        "type": "t_bytes32"
      },
      {
        "astId": 2289,
        "contract": "src/_testContracts/ProofFunction.sol:ProofFunction",
        "label": "s_lastResponse",
        "offset": 0,
        "slot": "3",
        "type": "t_bytes_storage"
      },
      {
        "astId": 2291,
        "contract": "src/_testContracts/ProofFunction.sol:ProofFunction",
        "label": "s_lastError",
        "offset": 0,
        "slot": "4",
        "type": "t_bytes_storage"
      }
    ],
    "types": {
      "t_address": {
        "encoding": "inplace",
        "label": "address",
        "numberOfBytes": "20"
      },
      "t_bytes32": {
        "encoding": "inplace",
        "label": "bytes32",
        "numberOfBytes": "32"
      },
      "t_bytes_storage": {
        "encoding": "bytes",
        "label": "bytes",
        "numberOfBytes": "32"
      }
    }
  }
}