{
  "address": "0xC029b88e083348859263C26DAbC1F4Fb576142Bf",
  "abi": [
    {
      "inputs": [
        {
          "internalType": "address",
          "name": "initialManagementKey",
          "type": "address"
        },
        {
          "internalType": "bool",
          "name": "_isLibrary",
          "type": "bool"
        },
        {
          "internalType": "address",
          "name": "idFactoryAddress",
          "type": "address"
        }
      ],
      "stateMutability": "nonpayable",
      "type": "constructor"
    },
    {
      "anonymous": false,
      "inputs": [
        {
          "indexed": true,
          "internalType": "uint256",
          "name": "executionId",
          "type": "uint256"
        },
        {
          "indexed": false,
          "internalType": "bool",
          "name": "approved",
          "type": "bool"
        }
      ],
      "name": "Approved",
      "type": "event"
    },
    {
      "anonymous": false,
      "inputs": [
        {
          "indexed": true,
          "internalType": "bytes32",
          "name": "claimId",
          "type": "bytes32"
        },
        {
          "indexed": true,
          "internalType": "uint256",
          "name": "topic",
          "type": "uint256"
        },
        {
          "indexed": false,
          "internalType": "uint256",
          "name": "scheme",
          "type": "uint256"
        },
        {
          "indexed": true,
          "internalType": "address",
          "name": "issuer",
          "type": "address"
        },
        {
          "indexed": false,
          "internalType": "bytes",
          "name": "signature",
          "type": "bytes"
        },
        {
          "indexed": false,
          "internalType": "bytes",
          "name": "data",
          "type": "bytes"
        },
        {
          "indexed": false,
          "internalType": "string",
          "name": "uri",
          "type": "string"
        }
      ],
      "name": "ClaimAdded",
      "type": "event"
    },
    {
      "anonymous": false,
      "inputs": [
        {
          "indexed": true,
          "internalType": "bytes32",
          "name": "claimId",
          "type": "bytes32"
        },
        {
          "indexed": true,
          "internalType": "uint256",
          "name": "topic",
          "type": "uint256"
        },
        {
          "indexed": false,
          "internalType": "uint256",
          "name": "scheme",
          "type": "uint256"
        },
        {
          "indexed": true,
          "internalType": "address",
          "name": "issuer",
          "type": "address"
        },
        {
          "indexed": false,
          "internalType": "bytes",
          "name": "signature",
          "type": "bytes"
        },
        {
          "indexed": false,
          "internalType": "bytes",
          "name": "data",
          "type": "bytes"
        },
        {
          "indexed": false,
          "internalType": "string",
          "name": "uri",
          "type": "string"
        }
      ],
      "name": "ClaimChanged",
      "type": "event"
    },
    {
      "anonymous": false,
      "inputs": [
        {
          "indexed": true,
          "internalType": "bytes32",
          "name": "claimId",
          "type": "bytes32"
        },
        {
          "indexed": true,
          "internalType": "uint256",
          "name": "topic",
          "type": "uint256"
        },
        {
          "indexed": false,
          "internalType": "uint256",
          "name": "scheme",
          "type": "uint256"
        },
        {
          "indexed": true,
          "internalType": "address",
          "name": "issuer",
          "type": "address"
        },
        {
          "indexed": false,
          "internalType": "bytes",
          "name": "signature",
          "type": "bytes"
        },
        {
          "indexed": false,
          "internalType": "bytes",
          "name": "data",
          "type": "bytes"
        },
        {
          "indexed": false,
          "internalType": "string",
          "name": "uri",
          "type": "string"
        }
      ],
      "name": "ClaimRemoved",
      "type": "event"
    },
    {
      "anonymous": false,
      "inputs": [
        {
          "indexed": true,
          "internalType": "uint256",
          "name": "executionId",
          "type": "uint256"
        },
        {
          "indexed": true,
          "internalType": "address",
          "name": "to",
          "type": "address"
        },
        {
          "indexed": true,
          "internalType": "uint256",
          "name": "value",
          "type": "uint256"
        },
        {
          "indexed": false,
          "internalType": "bytes",
          "name": "data",
          "type": "bytes"
        }
      ],
      "name": "Executed",
      "type": "event"
    },
    {
      "anonymous": false,
      "inputs": [
        {
          "indexed": true,
          "internalType": "uint256",
          "name": "executionId",
          "type": "uint256"
        },
        {
          "indexed": true,
          "internalType": "address",
          "name": "to",
          "type": "address"
        },
        {
          "indexed": true,
          "internalType": "uint256",
          "name": "value",
          "type": "uint256"
        },
        {
          "indexed": false,
          "internalType": "bytes",
          "name": "data",
          "type": "bytes"
        }
      ],
      "name": "ExecutionFailed",
      "type": "event"
    },
    {
      "anonymous": false,
      "inputs": [
        {
          "indexed": true,
          "internalType": "uint256",
          "name": "executionId",
          "type": "uint256"
        },
        {
          "indexed": true,
          "internalType": "address",
          "name": "to",
          "type": "address"
        },
        {
          "indexed": true,
          "internalType": "uint256",
          "name": "value",
          "type": "uint256"
        },
        {
          "indexed": false,
          "internalType": "bytes",
          "name": "data",
          "type": "bytes"
        }
      ],
      "name": "ExecutionRequested",
      "type": "event"
    },
    {
      "anonymous": false,
      "inputs": [
        {
          "indexed": true,
          "internalType": "bytes32",
          "name": "key",
          "type": "bytes32"
        },
        {
          "indexed": true,
          "internalType": "uint256",
          "name": "purpose",
          "type": "uint256"
        },
        {
          "indexed": true,
          "internalType": "uint256",
          "name": "keyType",
          "type": "uint256"
        }
      ],
      "name": "KeyAdded",
      "type": "event"
    },
    {
      "anonymous": false,
      "inputs": [
        {
          "indexed": true,
          "internalType": "bytes32",
          "name": "key",
          "type": "bytes32"
        },
        {
          "indexed": true,
          "internalType": "uint256",
          "name": "purpose",
          "type": "uint256"
        },
        {
          "indexed": true,
          "internalType": "uint256",
          "name": "keyType",
          "type": "uint256"
        }
      ],
      "name": "KeyRemoved",
      "type": "event"
    },
    {
      "inputs": [
        {
          "internalType": "uint256",
          "name": "_topic",
          "type": "uint256"
        },
        {
          "internalType": "uint256",
          "name": "_scheme",
          "type": "uint256"
        },
        {
          "internalType": "address",
          "name": "_issuer",
          "type": "address"
        },
        {
          "internalType": "bytes",
          "name": "_signature",
          "type": "bytes"
        },
        {
          "internalType": "bytes",
          "name": "_data",
          "type": "bytes"
        },
        {
          "internalType": "string",
          "name": "_uri",
          "type": "string"
        }
      ],
      "name": "addClaim",
      "outputs": [
        {
          "internalType": "bytes32",
          "name": "claimRequestId",
          "type": "bytes32"
        }
      ],
      "stateMutability": "nonpayable",
      "type": "function"
    },
    {
      "inputs": [
        {
          "internalType": "bytes32",
          "name": "_key",
          "type": "bytes32"
        },
        {
          "internalType": "uint256",
          "name": "_purpose",
          "type": "uint256"
        },
        {
          "internalType": "uint256",
          "name": "_type",
          "type": "uint256"
        }
      ],
      "name": "addKey",
      "outputs": [
        {
          "internalType": "bool",
          "name": "success",
          "type": "bool"
        }
      ],
      "stateMutability": "nonpayable",
      "type": "function"
    },
    {
      "inputs": [
        {
          "internalType": "uint256",
          "name": "_id",
          "type": "uint256"
        },
        {
          "internalType": "bool",
          "name": "_approve",
          "type": "bool"
        }
      ],
      "name": "approve",
      "outputs": [
        {
          "internalType": "bool",
          "name": "success",
          "type": "bool"
        }
      ],
      "stateMutability": "nonpayable",
      "type": "function"
    },
    {
      "inputs": [
        {
          "internalType": "address",
          "name": "_to",
          "type": "address"
        },
        {
          "internalType": "uint256",
          "name": "_value",
          "type": "uint256"
        },
        {
          "internalType": "bytes",
          "name": "_data",
          "type": "bytes"
        }
      ],
      "name": "execute",
      "outputs": [
        {
          "internalType": "uint256",
          "name": "executionId",
          "type": "uint256"
        }
      ],
      "stateMutability": "payable",
      "type": "function"
    },
    {
      "inputs": [
        {
          "internalType": "bytes32",
          "name": "_claimId",
          "type": "bytes32"
        }
      ],
      "name": "getClaim",
      "outputs": [
        {
          "internalType": "uint256",
          "name": "topic",
          "type": "uint256"
        },
        {
          "internalType": "uint256",
          "name": "scheme",
          "type": "uint256"
        },
        {
          "internalType": "address",
          "name": "issuer",
          "type": "address"
        },
        {
          "internalType": "bytes",
          "name": "signature",
          "type": "bytes"
        },
        {
          "internalType": "bytes",
          "name": "data",
          "type": "bytes"
        },
        {
          "internalType": "string",
          "name": "uri",
          "type": "string"
        }
      ],
      "stateMutability": "view",
      "type": "function"
    },
    {
      "inputs": [
        {
          "internalType": "uint256",
          "name": "_topic",
          "type": "uint256"
        }
      ],
      "name": "getClaimIdsByTopic",
      "outputs": [
        {
          "internalType": "bytes32[]",
          "name": "claimIds",
          "type": "bytes32[]"
        }
      ],
      "stateMutability": "view",
      "type": "function"
    },
    {
      "inputs": [
        {
          "internalType": "bytes32",
          "name": "_key",
          "type": "bytes32"
        }
      ],
      "name": "getKey",
      "outputs": [
        {
          "internalType": "uint256[]",
          "name": "purposes",
          "type": "uint256[]"
        },
        {
          "internalType": "uint256",
          "name": "keyType",
          "type": "uint256"
        },
        {
          "internalType": "bytes32",
          "name": "key",
          "type": "bytes32"
        }
      ],
      "stateMutability": "view",
      "type": "function"
    },
    {
      "inputs": [
        {
          "internalType": "bytes32",
          "name": "_key",
          "type": "bytes32"
        }
      ],
      "name": "getKeyPurposes",
      "outputs": [
        {
          "internalType": "uint256[]",
          "name": "_purposes",
          "type": "uint256[]"
        }
      ],
      "stateMutability": "view",
      "type": "function"
    },
    {
      "inputs": [
        {
          "internalType": "uint256",
          "name": "_purpose",
          "type": "uint256"
        }
      ],
      "name": "getKeysByPurpose",
      "outputs": [
        {
          "internalType": "bytes32[]",
          "name": "keys",
          "type": "bytes32[]"
        }
      ],
      "stateMutability": "view",
      "type": "function"
    },
    {
      "inputs": [
        {
          "internalType": "bytes",
          "name": "sig",
          "type": "bytes"
        },
        {
          "internalType": "bytes32",
          "name": "dataHash",
          "type": "bytes32"
        }
      ],
      "name": "getRecoveredAddress",
      "outputs": [
        {
          "internalType": "address",
          "name": "addr",
          "type": "address"
        }
      ],
      "stateMutability": "pure",
      "type": "function"
    },
    {
      "inputs": [],
      "name": "idFactory",
      "outputs": [
        {
          "internalType": "contract IdFactory",
          "name": "",
          "type": "address"
        }
      ],
      "stateMutability": "view",
      "type": "function"
    },
    {
      "inputs": [
        {
          "internalType": "address",
          "name": "initialManagementKey",
          "type": "address"
        },
        {
          "internalType": "address",
          "name": "_idFactoryAddress",
          "type": "address"
        }
      ],
      "name": "initialize",
      "outputs": [],
      "stateMutability": "nonpayable",
      "type": "function"
    },
    {
      "inputs": [
        {
          "internalType": "contract IIdentity",
          "name": "_identity",
          "type": "address"
        },
        {
          "internalType": "uint256",
          "name": "claimTopic",
          "type": "uint256"
        },
        {
          "internalType": "bytes",
          "name": "sig",
          "type": "bytes"
        },
        {
          "internalType": "bytes",
          "name": "data",
          "type": "bytes"
        }
      ],
      "name": "isClaimValid",
      "outputs": [
        {
          "internalType": "bool",
          "name": "claimValid",
          "type": "bool"
        }
      ],
      "stateMutability": "view",
      "type": "function"
    },
    {
      "inputs": [
        {
          "internalType": "bytes32",
          "name": "_key",
          "type": "bytes32"
        },
        {
          "internalType": "uint256",
          "name": "_purpose",
          "type": "uint256"
        }
      ],
      "name": "keyHasPurpose",
      "outputs": [
        {
          "internalType": "bool",
          "name": "result",
          "type": "bool"
        }
      ],
      "stateMutability": "view",
      "type": "function"
    },
    {
      "inputs": [
        {
          "internalType": "bytes32",
          "name": "_claimId",
          "type": "bytes32"
        }
      ],
      "name": "removeClaim",
      "outputs": [
        {
          "internalType": "bool",
          "name": "success",
          "type": "bool"
        }
      ],
      "stateMutability": "nonpayable",
      "type": "function"
    },
    {
      "inputs": [
        {
          "internalType": "bytes32",
          "name": "_key",
          "type": "bytes32"
        },
        {
          "internalType": "uint256",
          "name": "_purpose",
          "type": "uint256"
        }
      ],
      "name": "removeKey",
      "outputs": [
        {
          "internalType": "bool",
          "name": "success",
          "type": "bool"
        }
      ],
      "stateMutability": "nonpayable",
      "type": "function"
    },
    {
      "inputs": [],
      "name": "version",
      "outputs": [
        {
          "internalType": "string",
          "name": "",
          "type": "string"
        }
      ],
      "stateMutability": "pure",
      "type": "function"
    }
  ],
  "transactionHash": "0xf8f129b6404de233d1b6df104e48086d9288cd0b55d5ed6ccd31bcf418054d5c",
  "args": [
    "0x7fE5651a316608DDA2cf0F896e3dbD403670172B",
    false,
    "0xEFa926EBba3BE32fe2E6938717B21a6B0c7f7Cdc"
  ],
  "numDeployments": 1,
  "solcInputHash": "f40cd65ea153a6f9f0fcb574d5694131",
  "bytecode": "0x608034620002f457601f62003c0338819003918201601f1916830192916001600160401b039182851184861017620002f9578160609285926040978852833981010312620002f45762000052826200030f565b916020918282015191821592831503620002f457856200007391016200030f565b9261ffff199081600754168060075560018060a01b03809716948515620002b057156200029f57506007549160ff9283811615801562000295575b1562000251571661010117600755600080546001600160a01b031916868816178155875182810195865282815280890195909491939190818711868810176200023d57868a528551902080855260028085528a8620018190559460600190811186821017620001ea5788526001948581528484526002835288842090815487835580881062000213575b5090845282842086855b818110620001fe57505050505082825283808884200155838252600381528682209081549168010000000000000000831015620001ea57858301808255831015620001d65783528220018290558291907f480000bb1edad8ca1470381cc334b1917fbd51c6531f3a623ea8e0ec7e38a6e99080a45b1660018060a01b03196000541617600055516138de9081620003258239f35b634e487b7160e01b84526032600452602484fd5b634e487b7160e01b84526041600452602484fd5b85858551169401938184015501879062000142565b828652878086882092830192015b8281106200023157505062000138565b87815501889062000221565b634e487b7160e01b85526041600452602485fd5b885162461bcd60e51b815260048101849052601e60248201527f496e697469616c206b65792077617320616c72656164792073657475702e00006044820152606490fd5b50303b15620000ae565b60011760075550620001b792505050565b885162461bcd60e51b815260048101849052601f60248201527f696e76616c696420617267756d656e74202d207a65726f2061646472657373006044820152606490fd5b600080fd5b634e487b7160e01b600052604160045260246000fd5b51906001600160a01b0382168203620002f45756fe60806040526004361015610013575b600080fd5b60003560e01c806312aaac70146101675780631d3812401461015e578063485cc955146101555780634eee424a1461014c57806353d413c51461014357806354fd4d501461013a578063747442d31461013157806378e751a61461012857806380e9e9e11461011f5780639010f72614610116578063b1a34e0d1461010d578063b61d27f614610104578063c0969a6e146100fb578063c3b129e3146100f2578063c9100bcb146100e9578063d202158d146100e05763fb307b34146100d857600080fd5b61000e610ece565b5061000e610eac565b5061000e610e22565b5061000e610d7f565b5061000e610d17565b5061000e610b52565b5061000e610aae565b5061000e61092c565b5061000e6108b5565b5061000e610852565b5061000e610807565b5061000e61077f565b5061000e61063e565b5061000e610543565b5061000e610356565b5061000e610208565b5061000e6101a4565b90815180825260208080930193019160005b828110610190575050505090565b835185529381019392810192600101610182565b503461000e57602060031936011261000e5760043560005260026020526101f960406000206001604060002001546101e460026040600020015492611158565b91604051938493606085526060850190610170565b91602084015260408301520390f35b503461000e57606060031936011261000e57610230600160ff60075460081c16151514610f0f565b30331480156102b0575b8015610274575b61024a906111c9565b61027061025e60443560243560043561148e565b60405190151581529081906020820190565b0390f35b5060408051336020820190815261024a926102a992906102a190829081015b03601f1981018352826109eb565b5190206133ca565b9050610241565b506001600160a01b03600460206102de6102d26000546001600160a01b031690565b6001600160a01b031690565b60405192838092630fffbaf360e01b82525afa908115610338575b60009161030a575b5016331461023a565b61032b915060203d8111610331575b61032381836109eb565b8101906111a7565b38610301565b503d610319565b6103406111bc565b6102f9565b6001600160a01b0381160361000e57565b503461000e57604060031936011261000e5760043561037481610345565b6024359061038182610345565b6001600160a01b0390818116156104ff5761040e6001939284936103ae6103aa60075460ff1690565b1590565b80156104f6575b6103be90613822565b6103d0600160ff196007541617600755565b6103e461010061ff00196007541617600755565b166001600160a01b031673ffffffffffffffffffffffffffffffffffffffff196000541617600055565b604051610433816102936020820194859190916001600160a01b036020820193169052565b51902080600261044d826000526002602052604060002090565b015561047761045a610a0e565b60018152610472836000526002602052604060002090565b61386d565b6104968261048f836000526002602052604060002090565b0160019055565b600160005260036020526104cf817fa15bc60c955c405d20d9149c709e2460f1c2d9a497496a7f46004d1772c3054c6112fb565b6112fb565b7f480000bb1edad8ca1470381cc334b1917fbd51c6531f3a623ea8e0ec7e38a6e9600080a4005b50303b156103b5565b606460405162461bcd60e51b815260206004820152601f60248201527f696e76616c696420617267756d656e74202d207a65726f2061646472657373006044820152fd5b503461000e57602060031936011261000e5761056b600160ff60075460081c16151514610f0f565b30331480156105c5575b8015610593575b6105859061281d565b61027061025e600435612f3c565b50604080513360208201908152610585926105be92906105b69082908101610293565b519020613467565b905061057c565b506001600160a01b03600460206105e76102d26000546001600160a01b031690565b60405192838092630fffbaf360e01b82525afa908115610631575b600091610613575b50163314610575565b61062b915060203d81116103315761032381836109eb565b3861060a565b6106396111bc565b610602565b503461000e57604060031936011261000e57610666600160ff60075460081c16151514610f0f565b30331480156106bb575b8015610691575b610680906111c9565b61027061025e60243560043561224f565b50604080513360208201908152610680926106b492906102a19082908101610293565b9050610677565b506001600160a01b03600460206106dd6102d26000546001600160a01b031690565b60405192838092630fffbaf360e01b82525afa908115610727575b600091610709575b50163314610670565b610721915060203d81116103315761032381836109eb565b38610700565b61072f6111bc565b6106f8565b600091031261000e57565b919082519283825260005b84811061076b575050601f19601f8460006020809697860101520116010190565b60208183018101518483018201520161074a565b503461000e57600060031936011261000e576102706040516040810181811067ffffffffffffffff8211176107f0575b604052600581527f322e322e31000000000000000000000000000000000000000000000000000000602082015260405191829160208352602083019061073f565b6107f8610997565b6107af565b8015150361000e57565b503461000e57604060031936011261000e57602061084860243561082a816107fd565b610840600160ff60075460081c16151514610f0f565b600435611e6c565b6040519015158152f35b503461000e57600060031936011261000e5760206001600160a01b0360005416604051908152f35b6020908160408183019282815285518094520193019160005b8281106108a1575050505090565b835185529381019392810192600101610893565b503461000e5760208060031936011261000e5760043560005260068152604060002090604051908181845491828152019360005281600020916000905b8282106109155761027085610909818903826109eb565b6040519182918261087a565b8354865294850194600193840193909101906108f2565b503461000e5760208060031936011261000e5760043560005260038152604060002090604051908181845491828152019360005281600020916000905b8282106109805761027085610909818903826109eb565b835486529485019460019384019390910190610969565b50634e487b7160e01b600052604160045260246000fd5b67ffffffffffffffff81116109c257604052565b6109ca610997565b604052565b6060810190811067ffffffffffffffff8211176109c257604052565b90601f601f19910116810190811067ffffffffffffffff8211176109c257604052565b604051906020820182811067ffffffffffffffff8211176109c257604052565b601f19601f60209267ffffffffffffffff8111610a4c575b01160190565b610a54610997565b610a46565b929192610a6582610a2e565b91610a7360405193846109eb565b82948184528183011161000e578281602093846000960137010152565b9080601f8301121561000e57816020610aab93359101610a59565b90565b503461000e5760c060031936011261000e57604435610acc81610345565b67ffffffffffffffff60643581811161000e57610aed903690600401610a90565b9160843582811161000e57610b06903690600401610a90565b60a43592831161000e573660238401121561000e5761027093610b36610b42943690602481600401359101610a59565b9260243560043561273c565b6040519081529081906020820190565b50606060031936011261000e57600435610b6b81610345565b6024359060443567ffffffffffffffff811161000e57610270926001600160a01b0392610b9f610c79933690600401610a90565b90610bb6600160ff60075460081c16151514610f0f565b7f8afcfabcb00e47a53a8fc3e9f23ff47ee1926194bb1350dd007c50b412a6cee86001549582610c1d8894610bf5866000526004602052604060002090565b906001600160a01b031673ffffffffffffffffffffffffffffffffffffffff19825416179055565b856001610c34866000526004602052604060002090565b0155610c56856002610c50876000526004602052604060002090565b01611038565b610c69610c6460015461112b565b600155565b1694859360405191829182611147565b0390a4604080513360208083019182528252601f199392610c9f92906102a190826109eb565b15610cc0575050610caf816118b6565b506040519081529081906020820190565b3014159081610cdf575b5015610b4257610cd9816118b6565b50610b42565b604080513360208201908152610d119450929091610d099190839081015b039081018352826109eb565b5190206134f9565b38610cca565b503461000e57608060031936011261000e57600435610d3581610345565b67ffffffffffffffff60443581811161000e57610d56903690600401610a90565b9160643591821161000e57602092610d75610848933690600401610a90565b91602435906136c9565b503461000e57604060031936011261000e5760043567ffffffffffffffff811161000e57610dbf610db66020923690600401610a90565b6024359061379e565b6001600160a01b0360405191168152f35b9491936001600160a01b03610e1494610aab9896610e06948952602089015216604087015260c0606087015260c086019061073f565b90848203608086015261073f565b9160a081840391015261073f565b503461000e57602060031936011261000e5760048035600090815260056020819052604091829020805460018201546002830154909591946102709490936003810193610e8f936001600160a01b031692610ea192610e9b92810191610e96910196885196878092611b00565b03866109eb565b6133af565b936133af565b935196879687610dd0565b503461000e57604060031936011261000e576020610848602435600435613633565b503461000e57602060031936011261000e576004356000526002602052610270610efb6040600020611158565b604051918291602083526020830190610170565b15610f1657565b608460405162461bcd60e51b815260206004820152603360248201527f496e746572616374696e67207769746820746865206c69627261727920636f6e60448201527f747261637420697320666f7262696464656e2e000000000000000000000000006064820152fd5b90600182811c92168015610fb0575b6020831014610f9a57565b634e487b7160e01b600052602260045260246000fd5b91607f1691610f8f565b91610fd69183549060031b600019811b9283911b169119161790565b9055565b818110610fe5575050565b60008155600101610fda565b9190601f811161100057505050565b61102c926000526020600020906020601f840160051c8301931061102e575b601f0160051c0190610fda565b565b909150819061101f565b919091825167ffffffffffffffff8111611107575b6110618161105b8454610f80565b84610ff1565b602080601f831160011461109c575081929394600092611091575b50506000198260011b9260031b1c1916179055565b01519050388061107c565b90601f198316956110b285600052602060002090565b926000905b8882106110ef575050836001959697106110d6575b505050811b019055565b015160001960f88460031b161c191690553880806110cc565b806001859682949686015181550195019301906110b7565b61110f610997565b61104d565b50634e487b7160e01b600052601160045260246000fd5b600190600019811461113b570190565b611143611114565b0190565b906020610aab92818152019061073f565b9060405191828154918282526020928383019160005283600020936000905b82821061118d5750505061102c925003836109eb565b855484526001958601958895509381019390910190611177565b9081602091031261000e5751610aab81610345565b506040513d6000823e3d90fd5b156111d057565b608460405162461bcd60e51b815260206004820152603060248201527f5065726d697373696f6e733a2053656e64657220646f6573206e6f742068617660448201527f65206d616e6167656d656e74206b6579000000000000000000000000000000006064820152fd5b8054600182558060011061124c575050565b61102c91600052600160206000209182019101610fda565b9061126e8261123a565b906000526020908160002060005b6001811061128a5750505050565b8251828201559183019160010161127c565b50634e487b7160e01b600052603260045260246000fd5b60209181518110156112c8575b60051b010190565b6112d061129c565b6112c0565b80548210156112ee575b60005260206000200190600090565b6112f661129c565b6112df565b611322610fd6918054906801000000000000000082101561133b575b6001820181556112d5565b819391549060031b600019811b9283911b169119161790565b611343610997565b611317565b9081602091031261000e5751610aab816107fd565b60209067ffffffffffffffff8111611377575b60051b0190565b61137f610997565b611370565b602090818184031261000e5780519067ffffffffffffffff821161000e57019180601f8401121561000e5782516113ba8161135d565b936113c860405195866109eb565b818552838086019260051b82010192831161000e578301905b8282106113ef575050505090565b83809183516113fd81610345565b8152019101906113e1565b90602090818382031261000e57825167ffffffffffffffff9384821161000e57019281601f8501121561000e5783516114408161135d565b9461144e60405196876109eb565b818652848087019260051b82010193841161000e578401905b83821061147657505050505090565b8151838116810361000e578152908401908401611467565b9091928160026114a8826000526002602052604060002090565b015403611856576114cb6114c6836000526002602052604060002090565b611158565b9160005b835181101561156257846114e382866112b3565b51146114f7576114f29061112b565b6114cf565b60405162461bcd60e51b815260206004820152602160248201527f436f6e666c6963743a204b657920616c72656164792068617320707572706f7360448201527f65000000000000000000000000000000000000000000000000000000000000006064820152608490fd5b509150919261157f846104ca846000526002602052604060002090565b611597826104ca866000526003602052604060002090565b60408051946000928082867f480000bb1edad8ca1470381cc334b1917fbd51c6531f3a623ea8e0ec7e38a6e98780a46115da6102d285546001600160a01b031690565b90631645536f60e11b8852602060049881818b81875afa908115611849575b879161181c575b501561180f576001600160a01b03908551630fffbaf360e01b815281818c81885afa918215611802575b88926117e5575b50501692888686519463e061646b60e01b865281868481845afa9586156117d8575b82966117b4575b50875192838092637b6b91c760e01b82525afa9081156117a7575b8791611785575b50865b8451811015611776576116a361169582846112b3565b5167ffffffffffffffff1690565b6116bd6116b083886112b3565b516001600160a01b031690565b90873b156117725788517f9dd323a000000000000000000000000000000000000000000000000000000000815267ffffffffffffffff909116818e019081526001600160a01b039092166020830152604082018b9052606082018590526080820186905261174792918a908290819060a0010381838c5af18015611765575b61174c575b5061112b565b61167f565b8061175961175f926109ae565b80610734565b38611741565b61176d6111bc565b61173c565b8980fd5b50600199505050505050505050565b6117a191503d8089833e61179981836109eb565b810190611408565b3861167c565b6117af6111bc565b611675565b6117d19196503d8084833e6117c981836109eb565b810190611384565b943861165a565b6117e06111bc565b611653565b6117fb9250803d106103315761032381836109eb565b3880611631565b61180a6111bc565b61162a565b5060019750505050505050565b61183c9150823d8411611842575b61183481836109eb565b810190611348565b38611600565b503d61182a565b6118516111bc565b6115f9565b919281600261186f826000526002602052604060002090565b015561189861187c610a0e565b858152611893846000526002602052604060002090565b611264565b8060016118af846000526002602052604060002090565b015561157f565b610aab906118d0600160ff60075460081c16151514610f0f565b611ba7565b156118dc57565b608460405162461bcd60e51b815260206004820152602760248201527f43616e6e6f7420617070726f76652061206e6f6e2d6578697374696e6720657860448201527f65637574696f6e000000000000000000000000000000000000000000000000006064820152fd5b1561194d57565b606460405162461bcd60e51b815260206004820152601860248201527f5265717565737420616c726561647920657865637574656400000000000000006044820152fd5b1561199857565b606460405162461bcd60e51b815260206004820152601f60248201527f53656e64657220646f6573206e6f74206861766520616374696f6e206b6579006044820152fd5b156119e357565b608460405162461bcd60e51b815260206004820152602360248201527f53656e64657220646f6573206e6f742068617665206d616e6167656d656e742060448201527f6b657900000000000000000000000000000000000000000000000000000000006064820152fd5b600092918154611a5c81610f80565b92600191808316908115611ab55750600114611a79575b50505050565b90919293945060005260209081600020906000915b858310611aa45750505050019038808080611a73565b805485840152918301918101611a8e565b60ff1916845250505081151590910201915038808080611a73565b3d15611afb573d90611ae182610a2e565b91611aef60405193846109eb565b82523d6000602084013e565b606090565b9060009291805491611b1183610f80565b918282526001938481169081600014611b725750600114611b325750505050565b90919394506000526020928360002092846000945b838610611b5e575050505001019038808080611a73565b805485870183015294019385908201611b47565b915050602094955060ff199193501683830152151560051b01019038808080611a73565b906020610aab928181520190611b00565b611bb460015482106118d5565b611be3611bde6103aa6003611bd3856000526004602052604060002090565b015460081c60ff1690565b611946565b611c07611bfa826000526004602052604060002090565b546001600160a01b031690565b6001600160a01b03919082163003611e3857604080513360208201908152611c4092611c3b92906102a19082908101610293565b6119dc565b807fb3932da477fe5d6c8ff2eafef050c0f3a1af18fc07121001482600f36f3715d860405180611c7581906001602083019252565b0390a2611c9f6003611c91836000526004602052604060002090565b01600160ff19825416179055565b600080611cb9611bfa846000526004602052604060002090565b611cf76001611cd2866000526004602052604060002090565b01546002611cea876000526004602052604060002090565b0160405192838092611a4d565b03925af1611d03611ad0565b5015611db557611d326003611d22836000526004602052604060002090565b0161010061ff0019825416179055565b611d49611bfa826000526004602052604060002090565b907f1f920dbda597d7bf95035464170fa58d0a4b57f13a1c315ace6793b9f63688b86001611d81836000526004602052604060002090565b0154936002611d9a846000526004602052604060002090565b0193611dad604051928392169582611b96565b0390a4600190565b611dcc611bfa826000526004602052604060002090565b907fe10c49d9f7c71da23262367013434763cfdb2332267641728d25cd712c5c6a686001611e04836000526004602052604060002090565b0154936002611e1d846000526004602052604060002090565b0193611e30604051928392169582611b96565b0390a4600090565b604080513360208201908152611e6792611e629290611e5a9082908101610293565b51902061359d565b611991565b611c40565b90600191611e7c835482106118d5565b611e9b611bde6103aa6003611bd3856000526004602052604060002090565b82611eb3611bfa836000526004602052604060002090565b6001600160a01b0393908416300361209157604080513360208201908152611ee792611c3b92906102a19082908101610293565b604051811515815283907fb3932da477fe5d6c8ff2eafef050c0f3a1af18fc07121001482600f36f3715d890602090a215150361206457611f376003611c91836000526004602052604060002090565b600080611f51611bfa846000526004602052604060002090565b611f6986611cd2866000526004602052604060002090565b03925af1611f75611ad0565b501561201457611f946003611d22836000526004602052604060002090565b611fab611bfa826000526004602052604060002090565b907f1f920dbda597d7bf95035464170fa58d0a4b57f13a1c315ace6793b9f63688b884611fe2836000526004602052604060002090565b0154936002611ffb846000526004602052604060002090565b019361200e604051928392169582611b96565b0390a490565b7fe10c49d9f7c71da23262367013434763cfdb2332267641728d25cd712c5c6a6861204f611bfa839594956000526004602052604060002090565b92611e04836000526004602052604060002090565b61208c925060039150612081906000526004602052604060002090565b0160ff198154169055565b600090565b6040805133602082019081526120b392611e629290611e5a9082908101610293565b611ee7565b156120bf57565b608460405162461bcd60e51b815260206004820152602160248201527f4e6f6e4578697374696e673a204b65792069736e27742072656769737465726560448201527f64000000000000000000000000000000000000000000000000000000000000006064820152fd5b90600019820191821161213857565b61102c611114565b81519167ffffffffffffffff83116121ce575b6801000000000000000083116121c1575b81548383558084106121a3575b50602080910191600052806000209060005b848110612191575050505050565b83518382015592810192600101612183565b6121bb90836000528460206000209182019101610fda565b38612171565b6121c9610997565b612164565b6121d6610997565b612153565b805490811561220557600019809201916121f583836112d5565b909182549160031b1b1916905555565b634e487b7160e01b600052603160045260246000fd5b6002600091805483825580612236575b508260018201550155565b8184526020842061224991810190610fda565b3861222b565b9161227283600261226a826000526002602052604060002090565b0154146120b8565b6122896114c6846000526002602052604060002090565b9260005b8361229882876112b3565b5114612321576122a79061112b565b92838551146122b6579261228d565b60405162461bcd60e51b815260206004820152602a60248201527f4e6f6e4578697374696e673a204b657920646f65736e2774206861766520737560448201527f636820707572706f7365000000000000000000000000000000000000000000006064820152608490fd5b939092919361234461233c6123368451612129565b846112b3565b5191836112b3565b526123628161235d856000526002602052604060002090565b612140565b61237e612379846000526002602052604060002090565b6121db565b600082815260036020526040812054905b846123ba6123b0836123ab886000526003602052604060002090565b6112d5565b90549060031b1c90565b1461272a576123c89061112b565b81811061238f576124156124006123b061241b945b6123fa6123f4896000526003602052604060002090565b91612129565b906112d5565b916123ab866000526003602052604060002090565b90610fba565b612432612379836000526003602052604060002090565b60019283916124588361244f846000526002602052604060002090565b01549151612129565b15612709575b60409081519085847f585a4aef50f8267a92b32412b331b20f7f8b96f2245b253b9cc50dcc621d3397600080a46124a06102d26000546001600160a01b031690565b94631645536f60e11b82526020600492818185818b5afa9081156126fc575b6000916126df575b506124d7575b5050505050505090565b6001600160a01b03908451630fffbaf360e01b8152818186818c5afa9182156126d2575b6000926126b5575b5050169083519663e061646b60e01b88526000888581845afa9788156126a8575b600098612688575b5060008491865192838092637b6b91c760e01b82525afa90811561267b575b600091612662575b506000875b612564575b50506124cd565b885181101561265d578361257e6102d26116b0848d6112b3565b03612593575b61258d9061112b565b87612558565b96506125a261169588836112b3565b6125af6116b0898b6112b3565b97843b1561000e5786517ff82f1a4300000000000000000000000000000000000000000000000000000000815267ffffffffffffffff9092168287019081526001600160a01b0390991660208a01523060408a015260608901889052608089018490528a9861258d92906000908290819060a0010381838a5af18015612650575b61263d575b509050612584565b8061175961264a926109ae565b38612635565b6126586111bc565b612630565b61255d565b612675913d8091833e61179981836109eb565b38612553565b6126836111bc565b61254b565b6126a060009186939a3d8091833e6117c981836109eb565b98915061252c565b6126b06111bc565b612524565b6126cb9250803d106103315761032381836109eb565b3880612503565b6126da6111bc565b6124fb565b6126f69150823d84116118425761183481836109eb565b386124c7565b6127046111bc565b6124bf565b612725612720836000526002602052604060002090565b61221b565b61245e565b6124156124006123b061241b946123dd565b90610aab959493929161275b600160ff60075460081c16151514610f0f565b30331480156127a4575b801561277a575b6127759061281d565b6129b4565b506040805133602082019081526127759261279d92906105b69082908101610293565b905061276c565b506001600160a01b03600460206127c66102d26000546001600160a01b031690565b60405192838092630fffbaf360e01b82525afa908115612810575b6000916127f2575b50163314612765565b61280a915060203d81116103315761032381836109eb565b386127e9565b6128186111bc565b6127e1565b1561282457565b608460405162461bcd60e51b815260206004820152603260248201527f5065726d697373696f6e733a2053656e64657220646f6573206e6f742068617660448201527f6520636c61696d207369676e6572206b657900000000000000000000000000006064820152fd5b92610aab94926001600160a01b036128b993168552602085015260806040850152608084019061073f565b91606081840391015261073f565b156128ce57565b606460405162461bcd60e51b815260206004820152600d60248201527f696e76616c696420636c61696d000000000000000000000000000000000000006044820152fd5b92612932610aab95936128b993865260806020870152608086019061073f565b90848203604086015261073f565b979461299794610aab9a98949367ffffffffffffffff6129a59994168b526001600160a01b03948580921660208d01521660408b015260608a015260808901521660a08701526101208060c088015286019061073f565b9084820360e086015261073f565b9161010081840391015261073f565b919492946001600160a01b039182821694308603612ddb575b604080516001600160a01b038516602080830191825282840189905299929392916129fb8160608101610293565b519020998a9588612a16886000526005602052604060002090565b55600199868b612a308a6000526005602052604060002090565b0155612a4c836003610c508b6000526005602052604060002090565b8982600499612a6a878c610c50846000526005602052604060002090565b612a84886005610c50846000526005602052604060002090565b83612aaf6102d26002612aa1856000526005602052604060002090565b01546001600160a01b031690565b14612d9e57612ae581612ad56002936104ca612b0e976000526006602052604060002090565b6000526005602052604060002090565b01906001600160a01b031673ffffffffffffffffffffffffffffffffffffffff19825416179055565b898d7f46149b18aa084502c3f12bc75e19eda8bda8d102b82cce8474677a6d0d5f43c5858a612b438a8a8d5194859485612912565b0390a45b6000978b88612b606102d28c546001600160a01b031690565b9d8e895192838092631645536f60e11b82525afa908115612d91575b8b91612d74575b50612b99575b5050505050505050505050505090565b88818e895192838092630fffbaf360e01b82525afa918215612d67575b8b92612d4a575b5050169585519b63e061646b60e01b8d52898d8a81845afa9c8d15612d3d575b8a9d612d1d575b50898991885192838092637b6b91c760e01b82525afa908115612d10575b8a91612cf6575b50898c5b612c18575b50612b89565b8d51811015612cf15788612c338f6116b0846102d2926112b3565b03612c48575b612c429061112b565b8c612c0d565b8d612c636116b083612c5d61169582886112b3565b936112b3565b908a3b15612ced578c8c8f92612c429594838f928f8f8f8f8f8f612cb595519c8d9b8c9a8b997ffc6a55a2000000000000000000000000000000000000000000000000000000008b5230928b01612940565b03925af18015612ce0575b612ccd575b509050612c39565b80611759612cda926109ae565b38612cc5565b612ce86111bc565b612cc0565b8c80fd5b612c12565b612d0a91503d808c833e61179981836109eb565b38612c09565b612d186111bc565b612c02565b89919d50612d358b913d8084833e6117c981836109eb565b9d9150612be4565b612d456111bc565b612bdd565b612d609250803d106103315761032381836109eb565b3880612bbd565b612d6f6111bc565b612bb6565b612d8b9150823d84116118425761183481836109eb565b38612b83565b612d996111bc565b612b7c565b90507f3bab293fc00db832d7619a9299914251b8747c036867ec056cbd506f60135b13858a612dd38a8a8d5194859485612912565b0390a4612b47565b6040517fc0969a6e000000000000000000000000000000000000000000000000000000008152612e349060208180612e198c8e8c306004860161288e565b03818b5afa908115612e57575b600091612e39575b506128c7565b6129cd565b612e51915060203d81116118425761183481836109eb565b38612e2e565b612e5f6111bc565b612e26565b92612e84610aab9593612e92938652608060208701526080860190611b00565b908482036040860152611b00565b916060818403910152611b00565b612eaa8154610f80565b9081612eb4575050565b81601f60009311600114612ec6575055565b81835260208320612ee291601f0160051c810190600101610fda565b8160208120915555565b6005600091828155826001820155826002820155612f0c60038201612ea0565b612f1860048201612ea0565b01612f238154610f80565b80612f2d57505050565b601f8111600114612ec6575055565b612f50816000526005602052604060002090565b54801561334457600081815260066020526040812054905b83612f846123b0836123ab876000526006602052604060002090565b1461333257612f929061112b565b818110612f6857612415612fbe6123b0612fd3945b6123fa6123f4886000526006602052604060002090565b916123ab856000526006602052604060002090565b612fea612379826000526006602052604060002090565b6001828161300381956000526005602052604060002090565b01549261301f6002612aa1846000526005602052604060002090565b906003613036846000526005602052604060002090565b0194600491847f3cf57863a89432c61c4a27073c6ee39e8a764bff5a05aebfbcdcdc80b2e6130a84613072836000526005602052604060002090565b016005613089846000526005602052604060002090565b01996130a860409b8c519384936001600160a01b03809c169985612e64565b0390a46130c76130c2846000526005602052604060002090565b612eec565b6130dc6102d26000546001600160a01b031690565b918551631645536f60e11b815260209081818581885afa908115613325575b600091613308575b50613112575050505050505090565b8651630fffbaf360e01b815281818581885afa9182156132fb575b6000926132de575b50501685519263e061646b60e01b84526000848481845afa9384156132d1575b6000946132b1575b5060008391885192838092637b6b91c760e01b82525afa9081156132a4575b60009161328b575b506000865b613194575b506124cd565b845181101561328657826131ae6102d26116b084896112b3565b036131c3575b6131bd9061112b565b86613189565b95506131d261169587836112b3565b956131e06116b082876112b3565b90833b1561000e5788517f9f9b264100000000000000000000000000000000000000000000000000000000815267ffffffffffffffff9098168589019081526001600160a01b0390921660208301523060408301526060820187905289976131bd9260009082908190608001038183895af18015613279575b613266575b5090506131b4565b80611759613273926109ae565b3861325e565b6132816111bc565b613259565b61318e565b61329e913d8091833e61179981836109eb565b38613184565b6132ac6111bc565b61317c565b6132c96000918593963d8091833e6117c981836109eb565b94915061315d565b6132d96111bc565b613155565b6132f49250803d106103315761032381836109eb565b3880613135565b6133036111bc565b61312d565b61331f9150823d84116118425761183481836109eb565b38613103565b61332d6111bc565b6130fb565b612415612fbe6123b0612fd394612fa7565b60405162461bcd60e51b815260206004820152602b60248201527f4e6f6e4578697374696e673a205468657265206973206e6f20636c61696d207760448201527f69746820746869732049440000000000000000000000000000000000000000006064820152608490fd5b9061102c6133c39260405193848092611b00565b03836109eb565b600052600260205260406000206040516133e3816109cf565b6133ec82611158565b8152600260019283810154602084015201548060408301521561346057600090825b61341b575b505050600090565b805191825181101561345a57836134338282956112b3565b51148015613455575b61344f576134499061112b565b9161340e565b50505090565b61343c565b50613413565b5050600090565b60005260026020526040600020604051613480816109cf565b61348982611158565b8152600260019283810154602084015201548060408301521561346057600090825b6134b757505050600090565b805191825181101561345a576134ce8185946112b3565b518381149081156134ee575b5061344f576134e89061112b565b916134ab565b6003915014386134da565b60005260028060205260406000209060405190613515826109cf565b61351e83611158565b82528060019384810154602085015201548060408401521561341357600091835b61354d575b50505050600090565b8051928351811015613597576135648186956112b3565b518385821491821561358d575b5050613586576135809061112b565b9261353f565b5050505090565b1490508338613571565b50613544565b600052600280602052604060002090604051906135b9826109cf565b6135c283611158565b82528060019384810154602085015201548060408401521561341357600091835b6135f05750505050600090565b8051928351811015613597576136078186956112b3565b5183858214918215613629575b5050613586576136239061112b565b926135e3565b1490508338613614565b60005260026020526040600020906040519061364e826109cf565b61365783611158565b8252600260019384810154602085015201548060408401521561341357600091835b6136865750505050600090565b80519283518110156135975761369d8186956112b3565b51838582149182156136bf575b5050613586576136b99061112b565b92613679565b14905083386136aa565b91613790939261376c926137016040519586926001600160a01b0360208501951685526040840152606080840152608083019061073f565b0393613715601f19958681018352826109eb565b51902060405161376381613757602082019485603c917f19457468657265756d205369676e6564204d6573736167653a0a3332000000008252601c8201520190565b038681018352826109eb565b5190209061379e565b604080516001600160a01b0390921660208301908152926105b69183908101610cfd565b61379957600090565b600190565b90600091604181510361381d576000918160209460ff8660809501519160606040850151940151901a601b8110613805575b60405194855216868401526040830152606082015282805260015afa156137f8575b60005190565b6138006111bc565b6137f2565b601b01818111156137d057613818611114565b6137d0565b505090565b1561382957565b606460405162461bcd60e51b815260206004820152601e60248201527f496e697469616c206b65792077617320616c72656164792073657475702e00006044820152fd5b906138778261123a565b906000526020908160002060005b600181106138935750505050565b825160ff16828201559183019160010161388556fea2646970667358221220e56ccc8b06a0470c4916659ad5cd101dd156e7b280bca4aa62dd59eef759b57b64736f6c63430008110033",
  "devdoc": {
    "details": "Implementation of the `IERC734` \"KeyHolder\" and the `IERC735` \"ClaimHolder\" interfaces into a common Identity Contract. This implementation has a separate contract were it declares all storage, allowing for it to be used as an upgradable logic contract.",
    "kind": "dev",
    "methods": {
      "addClaim(uint256,uint256,address,bytes,bytes,string)": {
        "details": "See {IERC735-addClaim}.",
        "params": {
          "_data": "The hash of the claim data, sitting in another location, a bit-mask, call data, or actual data based on the claim scheme.",
          "_issuer": "The issuers identity contract address, or the address used to sign the above signature.",
          "_scheme": "The scheme with which this claim SHOULD be verified or how it should be processed.",
          "_signature": "Signature which is the proof that the claim issuer issued a claim of topic for this identity. it MUST be a signed message of the following structure: keccak256(abi.encode(address identityHolder_address, uint256 _ topic, bytes data))",
          "_topic": "The type of claim",
          "_uri": "The location of the claim, this can be HTTP links, swarm hashes, IPFS hashes, and such."
        },
        "returns": {
          "claimRequestId": "Returns claimRequestId: COULD be send to the approve function, to approve or reject this claim. triggers ClaimAdded event."
        }
      },
      "addKey(bytes32,uint256,uint256)": {
        "params": {
          "_key": "keccak256 representation of an ethereum address",
          "_purpose": "a uint256 specifying the key type, like 1 = MANAGEMENT, 2 = ACTION, 3 = CLAIM, 4 = ENCRYPTION",
          "_type": "type of key used, which would be a uint256 for different key types. e.g. 1 = ECDSA, 2 = RSA, etc."
        },
        "returns": {
          "success": "Returns TRUE if the addition was successful and FALSE if not"
        }
      },
      "approve(uint256,bool)": {
        "details": "See {IERC734-approve}."
      },
      "constructor": {
        "params": {
          "_isLibrary": "boolean value stating if the contract is library or not calls __Identity_init if contract is not library",
          "initialManagementKey": "the address of the management key at deployment"
        }
      },
      "execute(address,uint256,bytes)": {
        "details": "See {IERC734-execute}.",
        "returns": {
          "executionId": "to use in the approve function, to approve or reject this execution."
        }
      },
      "getClaim(bytes32)": {
        "details": "See {IERC735-getClaim}.",
        "params": {
          "_claimId": "The identity of the claim i.e. keccak256(abi.encode(_issuer, _topic))"
        },
        "returns": {
          "data": "Returns all the parameters of the claim for the specified _claimId (topic, scheme, signature, issuer, data, uri) .",
          "issuer": "Returns all the parameters of the claim for the specified _claimId (topic, scheme, signature, issuer, data, uri) .",
          "scheme": "Returns all the parameters of the claim for the specified _claimId (topic, scheme, signature, issuer, data, uri) .",
          "signature": "Returns all the parameters of the claim for the specified _claimId (topic, scheme, signature, issuer, data, uri) .",
          "topic": "Returns all the parameters of the claim for the specified _claimId (topic, scheme, signature, issuer, data, uri) .",
          "uri": "Returns all the parameters of the claim for the specified _claimId (topic, scheme, signature, issuer, data, uri) ."
        }
      },
      "getClaimIdsByTopic(uint256)": {
        "details": "See {IERC735-getClaimIdsByTopic}.",
        "params": {
          "_topic": "The identity of the claim i.e. keccak256(abi.encode(_issuer, _topic))"
        },
        "returns": {
          "claimIds": "Returns an array of claim IDs by topic."
        }
      },
      "getKey(bytes32)": {
        "details": "See {IERC734-getKey}.",
        "params": {
          "_key": "The public key.  for non-hex and long keys, its the Keccak256 hash of the key"
        },
        "returns": {
          "key": "Returns the full key data, if present in the identity.",
          "keyType": "Returns the full key data, if present in the identity.",
          "purposes": "Returns the full key data, if present in the identity."
        }
      },
      "getKeyPurposes(bytes32)": {
        "details": "See {IERC734-getKeyPurposes}.",
        "params": {
          "_key": "The public key.  for non-hex and long keys, its the Keccak256 hash of the key"
        },
        "returns": {
          "_purposes": "Returns the purposes of the specified key"
        }
      },
      "getKeysByPurpose(uint256)": {
        "details": "See {IERC734-getKeysByPurpose}.",
        "params": {
          "_purpose": "a uint256[] Array of the key types, like 1 = MANAGEMENT, 2 = ACTION, 3 = CLAIM, 4 = ENCRYPTION"
        },
        "returns": {
          "keys": "Returns an array of public key bytes32 hold by this identity and having the specified purpose"
        }
      },
      "getRecoveredAddress(bytes,bytes32)": {
        "details": "returns the address that signed the given data",
        "params": {
          "dataHash": "the data that was signed returns the address that signed dataHash and created the signature sig",
          "sig": "the signature of the data"
        }
      },
      "initialize(address,address)": {
        "params": {
          "initialManagementKey": "The ethereum address to be set as the management key of the ONCHAINID."
        }
      },
      "isClaimValid(address,uint256,bytes,bytes)": {
        "details": "Checks if a claim is valid. Claims issued by the identity are self-attested claims. They do not have a built-in revocation mechanism and are considered valid as long as their signature is valid and they are still stored by the identity contract.",
        "params": {
          "_identity": "the identity contract related to the claim",
          "claimTopic": "the claim topic of the claim",
          "data": "the data field of the claim",
          "sig": "the signature of the claim"
        },
        "returns": {
          "claimValid": "true if the claim is valid, false otherwise"
        }
      },
      "keyHasPurpose(bytes32,uint256)": {
        "details": "See {IERC734-keyHasPurpose}."
      },
      "removeClaim(bytes32)": {
        "details": "See {IERC735-removeClaim}.",
        "params": {
          "_claimId": "The identity of the claim i.e. keccak256(abi.encode(_issuer, _topic))"
        },
        "returns": {
          "success": "Returns TRUE when the claim was removed. triggers ClaimRemoved event"
        }
      },
      "removeKey(bytes32,uint256)": {
        "details": "See {IERC734-removeKey}."
      },
      "version()": {
        "details": "Returns the string of the current version."
      }
    },
    "version": 1
  },
  "userdoc": {
    "kind": "user",
    "methods": {
      "addClaim(uint256,uint256,address,bytes,bytes,string)": {
        "notice": "Implementation of the addClaim function from the ERC-735 standard  Require that the msg.sender has claim signer key."
      },
      "addKey(bytes32,uint256,uint256)": {
        "notice": "implementation of the addKey function of the ERC-734 standard Adds a _key to the identity. The _purpose specifies the purpose of key. Initially we propose four purposes: 1: MANAGEMENT keys, which can manage the identity 2: ACTION keys, which perform actions in this identities name (signing, logins, transactions, etc.) 3: CLAIM signer keys, used to sign claims on other identities which need to be revokable. 4: ENCRYPTION keys, used to encrypt data e.g. hold in claims. MUST only be done by keys of purpose 1, or the identity itself. If its the identity itself, the approval process will determine its approval."
      },
      "approve(uint256,bool)": {
        "notice": "Approves an execution.  If the sender is an ACTION key and the destination address is not the identity contract itself, then the  approval is authorized and the operation would be performed.  If the destination address is the identity itself, then the execution would be authorized and performed only  if the sender is a MANAGEMENT key."
      },
      "constructor": {
        "notice": "constructor of the Identity contract"
      },
      "execute(address,uint256,bytes)": {
        "notice": "Passes an execution instruction to the keymanager. If the sender is an ACTION key and the destination address is not the identity contract itself, then the execution is immediately approved and performed. If the destination address is the identity itself, then the execution would be performed immediately only if the sender is a MANAGEMENT key. Otherwise the execution request must be approved via the `approve` method."
      },
      "getClaim(bytes32)": {
        "notice": "Implementation of the getClaim function from the ERC-735 standard."
      },
      "getClaimIdsByTopic(uint256)": {
        "notice": "Implementation of the getClaimIdsByTopic function from the ERC-735 standard. used to get all the claims from the specified topic"
      },
      "getKey(bytes32)": {
        "notice": "Implementation of the getKey function from the ERC-734 standard"
      },
      "getKeyPurposes(bytes32)": {
        "notice": "gets the purposes of a key"
      },
      "getKeysByPurpose(uint256)": {
        "notice": "gets all the keys with a specific purpose from an identity"
      },
      "initialize(address,address)": {
        "notice": "When using this contract as an implementation for a proxy, call this initializer with a delegatecall."
      },
      "keyHasPurpose(bytes32,uint256)": {
        "notice": "Returns true if the key has MANAGEMENT purpose or the specified purpose."
      },
      "removeClaim(bytes32)": {
        "notice": "Implementation of the removeClaim function from the ERC-735 standard Require that the msg.sender has management key. Can only be removed by the claim issuer, or the claim holder itself."
      },
      "removeKey(bytes32,uint256)": {
        "notice": "Remove the purpose from a key."
      }
    },
    "version": 1
  },
  "storageLayout": {
    "storage": [
      {
        "astId": 15851,
        "contract": "src/Identity.sol:Identity",
        "label": "idFactory",
        "offset": 0,
        "slot": "0",
        "type": "t_contract(IdFactory)14824"
      },
      {
        "astId": 15853,
        "contract": "src/Identity.sol:Identity",
        "label": "_executionNonce",
        "offset": 0,
        "slot": "1",
        "type": "t_uint256"
      },
      {
        "astId": 15858,
        "contract": "src/Identity.sol:Identity",
        "label": "_keys",
        "offset": 0,
        "slot": "2",
        "type": "t_mapping(t_bytes32,t_struct(Key)15900_storage)"
      },
      {
        "astId": 15863,
        "contract": "src/Identity.sol:Identity",
        "label": "_keysByPurpose",
        "offset": 0,
        "slot": "3",
        "type": "t_mapping(t_uint256,t_array(t_bytes32)dyn_storage)"
      },
      {
        "astId": 15868,
        "contract": "src/Identity.sol:Identity",
        "label": "_executions",
        "offset": 0,
        "slot": "4",
        "type": "t_mapping(t_uint256,t_struct(Execution)15911_storage)"
      },
      {
        "astId": 15873,
        "contract": "src/Identity.sol:Identity",
        "label": "_claims",
        "offset": 0,
        "slot": "5",
        "type": "t_mapping(t_bytes32,t_struct(Claim)15924_storage)"
      },
      {
        "astId": 15878,
        "contract": "src/Identity.sol:Identity",
        "label": "_claimsByTopic",
        "offset": 0,
        "slot": "6",
        "type": "t_mapping(t_uint256,t_array(t_bytes32)dyn_storage)"
      },
      {
        "astId": 15881,
        "contract": "src/Identity.sol:Identity",
        "label": "_initialized",
        "offset": 0,
        "slot": "7",
        "type": "t_bool"
      },
      {
        "astId": 15884,
        "contract": "src/Identity.sol:Identity",
        "label": "_canInteract",
        "offset": 1,
        "slot": "7",
        "type": "t_bool"
      },
      {
        "astId": 15889,
        "contract": "src/Identity.sol:Identity",
        "label": "__gap",
        "offset": 0,
        "slot": "8",
        "type": "t_array(t_uint256)49_storage"
      }
    ],
    "types": {
      "t_address": {
        "encoding": "inplace",
        "label": "address",
        "numberOfBytes": "20"
      },
      "t_array(t_bytes32)dyn_storage": {
        "base": "t_bytes32",
        "encoding": "dynamic_array",
        "label": "bytes32[]",
        "numberOfBytes": "32"
      },
      "t_array(t_uint256)49_storage": {
        "base": "t_uint256",
        "encoding": "inplace",
        "label": "uint256[49]",
        "numberOfBytes": "1568"
      },
      "t_array(t_uint256)dyn_storage": {
        "base": "t_uint256",
        "encoding": "dynamic_array",
        "label": "uint256[]",
        "numberOfBytes": "32"
      },
      "t_bool": {
        "encoding": "inplace",
        "label": "bool",
        "numberOfBytes": "1"
      },
      "t_bytes32": {
        "encoding": "inplace",
        "label": "bytes32",
        "numberOfBytes": "32"
      },
      "t_bytes_storage": {
        "encoding": "bytes",
        "label": "bytes",
        "numberOfBytes": "32"
      },
      "t_contract(IdFactory)14824": {
        "encoding": "inplace",
        "label": "contract IdFactory",
        "numberOfBytes": "20"
      },
      "t_mapping(t_bytes32,t_struct(Claim)15924_storage)": {
        "encoding": "mapping",
        "key": "t_bytes32",
        "label": "mapping(bytes32 => struct Structs.Claim)",
        "numberOfBytes": "32",
        "value": "t_struct(Claim)15924_storage"
      },
      "t_mapping(t_bytes32,t_struct(Key)15900_storage)": {
        "encoding": "mapping",
        "key": "t_bytes32",
        "label": "mapping(bytes32 => struct Structs.Key)",
        "numberOfBytes": "32",
        "value": "t_struct(Key)15900_storage"
      },
      "t_mapping(t_uint256,t_array(t_bytes32)dyn_storage)": {
        "encoding": "mapping",
        "key": "t_uint256",
        "label": "mapping(uint256 => bytes32[])",
        "numberOfBytes": "32",
        "value": "t_array(t_bytes32)dyn_storage"
      },
      "t_mapping(t_uint256,t_struct(Execution)15911_storage)": {
        "encoding": "mapping",
        "key": "t_uint256",
        "label": "mapping(uint256 => struct Structs.Execution)",
        "numberOfBytes": "32",
        "value": "t_struct(Execution)15911_storage"
      },
      "t_string_storage": {
        "encoding": "bytes",
        "label": "string",
        "numberOfBytes": "32"
      },
      "t_struct(Claim)15924_storage": {
        "encoding": "inplace",
        "label": "struct Structs.Claim",
        "members": [
          {
            "astId": 15913,
            "contract": "src/Identity.sol:Identity",
            "label": "topic",
            "offset": 0,
            "slot": "0",
            "type": "t_uint256"
          },
          {
            "astId": 15915,
            "contract": "src/Identity.sol:Identity",
            "label": "scheme",
            "offset": 0,
            "slot": "1",
            "type": "t_uint256"
          },
          {
            "astId": 15917,
            "contract": "src/Identity.sol:Identity",
            "label": "issuer",
            "offset": 0,
            "slot": "2",
            "type": "t_address"
          },
          {
            "astId": 15919,
            "contract": "src/Identity.sol:Identity",
            "label": "signature",
            "offset": 0,
            "slot": "3",
            "type": "t_bytes_storage"
          },
          {
            "astId": 15921,
            "contract": "src/Identity.sol:Identity",
            "label": "data",
            "offset": 0,
            "slot": "4",
            "type": "t_bytes_storage"
          },
          {
            "astId": 15923,
            "contract": "src/Identity.sol:Identity",
            "label": "uri",
            "offset": 0,
            "slot": "5",
            "type": "t_string_storage"
          }
        ],
        "numberOfBytes": "192"
      },
      "t_struct(Execution)15911_storage": {
        "encoding": "inplace",
        "label": "struct Structs.Execution",
        "members": [
          {
            "astId": 15902,
            "contract": "src/Identity.sol:Identity",
            "label": "to",
            "offset": 0,
            "slot": "0",
            "type": "t_address"
          },
          {
            "astId": 15904,
            "contract": "src/Identity.sol:Identity",
            "label": "value",
            "offset": 0,
            "slot": "1",
            "type": "t_uint256"
          },
          {
            "astId": 15906,
            "contract": "src/Identity.sol:Identity",
            "label": "data",
            "offset": 0,
            "slot": "2",
            "type": "t_bytes_storage"
          },
          {
            "astId": 15908,
            "contract": "src/Identity.sol:Identity",
            "label": "approved",
            "offset": 0,
            "slot": "3",
            "type": "t_bool"
          },
          {
            "astId": 15910,
            "contract": "src/Identity.sol:Identity",
            "label": "executed",
            "offset": 1,
            "slot": "3",
            "type": "t_bool"
          }
        ],
        "numberOfBytes": "128"
      },
      "t_struct(Key)15900_storage": {
        "encoding": "inplace",
        "label": "struct Structs.Key",
        "members": [
          {
            "astId": 15895,
            "contract": "src/Identity.sol:Identity",
            "label": "purposes",
            "offset": 0,
            "slot": "0",
            "type": "t_array(t_uint256)dyn_storage"
          },
          {
            "astId": 15897,
            "contract": "src/Identity.sol:Identity",
            "label": "keyType",
            "offset": 0,
            "slot": "1",
            "type": "t_uint256"
          },
          {
            "astId": 15899,
            "contract": "src/Identity.sol:Identity",
            "label": "key",
            "offset": 0,
            "slot": "2",
            "type": "t_bytes32"
          }
        ],
        "numberOfBytes": "96"
      },
      "t_uint256": {
        "encoding": "inplace",
        "label": "uint256",
        "numberOfBytes": "32"
      }
    }
  }
}